{
  "address": "0x6f5549E8851D38c4da345eCe991Cc8966d2D0917",
  "abi": [
    {
      "inputs": [
        {
          "internalType": "string",
          "name": "email",
          "type": "string"
        }
      ],
      "name": "CheckEmail",
      "outputs": [
        {
          "internalType": "string",
          "name": "",
          "type": "string"
        }
      ],
      "stateMutability": "view",
      "type": "function"
    },
    {
      "inputs": [
        {
          "internalType": "string",
          "name": "full_name",
          "type": "string"
        },
        {
          "internalType": "string",
          "name": "email",
          "type": "string"
        },
        {
          "internalType": "string",
          "name": "password",
          "type": "string"
        }
      ],
      "name": "CreateAccount",
      "outputs": [],
      "stateMutability": "nonpayable",
      "type": "function"
    },
    {
      "inputs": [
        {
          "internalType": "uint256",
          "name": "survey_id",
          "type": "uint256"
        },
        {
          "internalType": "uint256",
          "name": "user_id",
          "type": "uint256"
        },
        {
          "internalType": "string",
          "name": "date",
          "type": "string"
        },
        {
          "internalType": "uint256",
          "name": "trial_id",
          "type": "uint256"
        }
      ],
      "name": "CreateCompletedSurveys",
      "outputs": [],
      "stateMutability": "nonpayable",
      "type": "function"
    },
    {
      "inputs": [
        {
          "internalType": "uint256",
          "name": "trial_id",
          "type": "uint256"
        },
        {
          "internalType": "uint256",
          "name": "user_id",
          "type": "uint256"
        },
        {
          "internalType": "string",
          "name": "date",
          "type": "string"
        }
      ],
      "name": "CreateOngoingTrail",
      "outputs": [],
      "stateMutability": "nonpayable",
      "type": "function"
    },
    {
      "inputs": [
        {
          "internalType": "uint256",
          "name": "survey_id",
          "type": "uint256"
        },
        {
          "internalType": "string",
          "name": "metadata",
          "type": "string"
        }
      ],
      "name": "CreateOrSaveSections",
      "outputs": [],
      "stateMutability": "nonpayable",
      "type": "function"
    },
    {
      "inputs": [
        {
          "internalType": "uint256",
          "name": "trial_id",
          "type": "uint256"
        },
        {
          "internalType": "uint256",
          "name": "user_id",
          "type": "uint256"
        },
        {
          "internalType": "uint256",
          "name": "survey_id",
          "type": "uint256"
        },
        {
          "internalType": "uint256",
          "name": "section_id",
          "type": "uint256"
        },
        {
          "internalType": "uint256",
          "name": "question_id",
          "type": "uint256"
        },
        {
          "internalType": "string",
          "name": "answer",
          "type": "string"
        }
      ],
      "name": "CreateQuestionAnswer",
      "outputs": [],
      "stateMutability": "nonpayable",
      "type": "function"
    },
    {
      "inputs": [
        {
          "internalType": "uint256",
          "name": "trial_id",
          "type": "uint256"
        },
        {
          "internalType": "uint256",
          "name": "user_id",
          "type": "uint256"
        },
        {
          "internalType": "string",
          "name": "name",
          "type": "string"
        },
        {
          "internalType": "string",
          "name": "description",
          "type": "string"
        },
        {
          "internalType": "string",
          "name": "date",
          "type": "string"
        },
        {
          "internalType": "string",
          "name": "image",
          "type": "string"
        },
        {
          "internalType": "uint256",
          "name": "reward",
          "type": "uint256"
        }
      ],
      "name": "CreateSurvey",
      "outputs": [],
      "stateMutability": "nonpayable",
      "type": "function"
    },
    {
      "inputs": [
        {
          "internalType": "string",
          "name": "name",
          "type": "string"
        },
        {
          "internalType": "string",
          "name": "image",
          "type": "string"
        }
      ],
      "name": "CreateSurveyCategory",
      "outputs": [],
      "stateMutability": "nonpayable",
      "type": "function"
    },
    {
      "inputs": [
        {
          "internalType": "uint256",
          "name": "user_id",
          "type": "uint256"
        },
        {
          "internalType": "string",
          "name": "image",
          "type": "string"
        },
        {
          "internalType": "string",
          "name": "title",
          "type": "string"
        },
        {
          "internalType": "string",
          "name": "description",
          "type": "string"
        },
        {
          "internalType": "uint256",
          "name": "contributors",
          "type": "uint256"
        },
        {
          "internalType": "uint256",
          "name": "audience",
          "type": "uint256"
        },
        {
          "internalType": "uint256",
          "name": "budget",
          "type": "uint256"
        },
        {
          "internalType": "string",
          "name": "date",
          "type": "string"
        }
      ],
      "name": "CreateTrial",
      "outputs": [],
      "stateMutability": "nonpayable",
      "type": "function"
    },
    {
      "inputs": [
        {
          "internalType": "uint256",
          "name": "user_id",
          "type": "uint256"
        }
      ],
      "name": "GetOngoingTrial",
      "outputs": [
        {
          "internalType": "string",
          "name": "",
          "type": "string"
        }
      ],
      "stateMutability": "view",
      "type": "function"
    },
    {
      "inputs": [
        {
          "internalType": "string",
          "name": "email",
          "type": "string"
        },
        {
          "internalType": "string",
          "name": "password",
          "type": "string"
        }
      ],
      "name": "Login",
      "outputs": [
        {
          "internalType": "string",
          "name": "",
          "type": "string"
        }
      ],
      "stateMutability": "view",
      "type": "function"
    },
    {
      "inputs": [
        {
          "internalType": "uint256",
          "name": "trial_id",
          "type": "uint256"
        },
        {
          "internalType": "string",
          "name": "audience_info",
          "type": "string"
        }
      ],
      "name": "UpdateAudience",
      "outputs": [],
      "stateMutability": "nonpayable",
      "type": "function"
    },
    {
      "inputs": [
        {
          "internalType": "uint256",
          "name": "user_id",
          "type": "uint256"
        },
        {
          "internalType": "string",
          "name": "given_name",
          "type": "string"
        },
        {
          "internalType": "string",
          "name": "identifier",
          "type": "string"
        },
        {
          "internalType": "string",
          "name": "patient_id",
          "type": "string"
        }
      ],
      "name": "UpdateFhir",
      "outputs": [],
      "stateMutability": "nonpayable",
      "type": "function"
    },
    {
      "inputs": [
        {
          "internalType": "uint256",
          "name": "userid",
          "type": "uint256"
        },
        {
          "internalType": "string",
          "name": "privatekey",
          "type": "string"
        }
      ],
      "name": "UpdatePrivatekey",
      "outputs": [],
      "stateMutability": "nonpayable",
      "type": "function"
    },
    {
      "inputs": [
        {
          "internalType": "uint256",
          "name": "trial_id",
          "type": "uint256"
        },
        {
          "internalType": "string",
          "name": "reward_type",
          "type": "string"
        },
        {
          "internalType": "uint256",
          "name": "reward_price",
          "type": "uint256"
        },
        {
          "internalType": "uint256",
          "name": "total_spending_limit",
          "type": "uint256"
        }
      ],
      "name": "UpdateReward",
      "outputs": [],
      "stateMutability": "nonpayable",
      "type": "function"
    },
    {
      "inputs": [
        {
          "internalType": "uint256",
          "name": "survey_id",
          "type": "uint256"
        },
        {
          "internalType": "string",
          "name": "name",
          "type": "string"
        },
        {
          "internalType": "string",
          "name": "description",
          "type": "string"
        },
        {
          "internalType": "string",
          "name": "image",
          "type": "string"
        },
        {
          "internalType": "uint256",
          "name": "reward",
          "type": "uint256"
        }
      ],
      "name": "UpdateSurvey",
      "outputs": [],
      "stateMutability": "nonpayable",
      "type": "function"
    },
    {
      "inputs": [
        {
          "internalType": "uint256",
          "name": "trial_id",
          "type": "uint256"
        },
        {
          "internalType": "string",
          "name": "image",
          "type": "string"
        },
        {
          "internalType": "string",
          "name": "title",
          "type": "string"
        },
        {
          "internalType": "string",
          "name": "description",
          "type": "string"
        },
        {
          "internalType": "uint256",
          "name": "budget",
          "type": "uint256"
        }
      ],
      "name": "UpdateTrial",
      "outputs": [],
      "stateMutability": "nonpayable",
      "type": "function"
    },
    {
      "inputs": [
        {
          "internalType": "uint256",
          "name": "user_id",
          "type": "uint256"
        },
        {
          "internalType": "string",
          "name": "image",
          "type": "string"
        },
        {
          "internalType": "uint256",
          "name": "credits",
          "type": "uint256"
        }
      ],
      "name": "UpdateUser",
      "outputs": [],
      "stateMutability": "nonpayable",
      "type": "function"
    },
    {
      "inputs": [],
      "name": "_AnsweredIds",
      "outputs": [
        {
          "internalType": "uint256",
          "name": "",
          "type": "uint256"
        }
      ],
      "stateMutability": "view",
      "type": "function"
    },
    {
      "inputs": [],
      "name": "_CompletedSurveyIds",
      "outputs": [
        {
          "internalType": "uint256",
          "name": "",
          "type": "uint256"
        }
      ],
      "stateMutability": "view",
      "type": "function"
    },
    {
      "inputs": [],
      "name": "_OngoingIds",
      "outputs": [
        {
          "internalType": "uint256",
          "name": "",
          "type": "uint256"
        }
      ],
      "stateMutability": "view",
      "type": "function"
    },
    {
      "inputs": [],
      "name": "_SurveyCategoryIds",
      "outputs": [
        {
          "internalType": "uint256",
          "name": "",
          "type": "uint256"
        }
      ],
      "stateMutability": "view",
      "type": "function"
    },
    {
      "inputs": [],
      "name": "_SurveyIds",
      "outputs": [
        {
          "internalType": "uint256",
          "name": "",
          "type": "uint256"
        }
      ],
      "stateMutability": "view",
      "type": "function"
    },
    {
      "inputs": [],
      "name": "_TrialIds",
      "outputs": [
        {
          "internalType": "uint256",
          "name": "",
          "type": "uint256"
        }
      ],
      "stateMutability": "view",
      "type": "function"
    },
    {
      "inputs": [],
      "name": "_UserIds",
      "outputs": [
        {
          "internalType": "uint256",
          "name": "",
          "type": "uint256"
        }
      ],
      "stateMutability": "view",
      "type": "function"
    },
    {
      "inputs": [
        {
          "internalType": "uint256",
          "name": "",
          "type": "uint256"
        }
      ],
      "name": "_categoryMap",
      "outputs": [
        {
          "internalType": "string",
          "name": "name",
          "type": "string"
        },
        {
          "internalType": "string",
          "name": "image",
          "type": "string"
        }
      ],
      "stateMutability": "view",
      "type": "function"
    },
    {
      "inputs": [
        {
          "internalType": "uint256",
          "name": "",
          "type": "uint256"
        }
      ],
      "name": "_completedsurveyMap",
      "outputs": [
        {
          "internalType": "uint256",
          "name": "completed_survey_id",
          "type": "uint256"
        },
        {
          "internalType": "uint256",
          "name": "trial_id",
          "type": "uint256"
        },
        {
          "internalType": "uint256",
          "name": "user_id",
          "type": "uint256"
        },
        {
          "internalType": "uint256",
          "name": "survey_id",
          "type": "uint256"
        },
        {
          "internalType": "string",
          "name": "date",
          "type": "string"
        }
      ],
      "stateMutability": "view",
      "type": "function"
    },
    {
      "inputs": [
        {
          "internalType": "uint256",
          "name": "",
          "type": "uint256"
        }
      ],
      "name": "_fhirMap",
      "outputs": [
        {
          "internalType": "uint256",
          "name": "user_id",
          "type": "uint256"
        },
        {
          "internalType": "string",
          "name": "given_name",
          "type": "string"
        },
        {
          "internalType": "string",
          "name": "identifier",
          "type": "string"
        },
        {
          "internalType": "string",
          "name": "patient_id",
          "type": "string"
        }
      ],
      "stateMutability": "view",
      "type": "function"
    },
    {
      "inputs": [
        {
          "internalType": "uint256",
          "name": "",
          "type": "uint256"
        }
      ],
      "name": "_ongoingMap",
      "outputs": [
        {
          "internalType": "uint256",
          "name": "ongoing_id",
          "type": "uint256"
        },
        {
          "internalType": "uint256",
          "name": "trial_id",
          "type": "uint256"
        },
        {
          "internalType": "uint256",
          "name": "user_id",
          "type": "uint256"
        },
        {
          "internalType": "string",
          "name": "date",
          "type": "string"
        }
      ],
      "stateMutability": "view",
      "type": "function"
    },
    {
      "inputs": [
        {
          "internalType": "uint256",
          "name": "",
          "type": "uint256"
        }
      ],
      "name": "_questionanswerdMap",
      "outputs": [
        {
          "internalType": "uint256",
          "name": "answer_id",
          "type": "uint256"
        },
        {
          "internalType": "uint256",
          "name": "trial_id",
          "type": "uint256"
        },
        {
          "internalType": "uint256",
          "name": "user_id",
          "type": "uint256"
        },
        {
          "internalType": "uint256",
          "name": "survey_id",
          "type": "uint256"
        },
        {
          "internalType": "uint256",
          "name": "section_id",
          "type": "uint256"
        },
        {
          "internalType": "uint256",
          "name": "question_id",
          "type": "uint256"
        },
        {
          "internalType": "string",
          "name": "answer",
          "type": "string"
        }
      ],
      "stateMutability": "view",
      "type": "function"
    },
    {
      "inputs": [
        {
          "internalType": "uint256",
          "name": "",
          "type": "uint256"
        }
      ],
      "name": "_sectionsMap",
      "outputs": [
        {
          "internalType": "string",
          "name": "",
          "type": "string"
        }
      ],
      "stateMutability": "view",
      "type": "function"
    },
    {
      "inputs": [
        {
          "internalType": "uint256",
          "name": "",
          "type": "uint256"
        }
      ],
      "name": "_surveyMap",
      "outputs": [
        {
          "internalType": "uint256",
          "name": "survey_id",
          "type": "uint256"
        },
        {
          "internalType": "uint256",
          "name": "trial_id",
          "type": "uint256"
        },
        {
          "internalType": "uint256",
          "name": "user_id",
          "type": "uint256"
        },
        {
          "internalType": "string",
          "name": "name",
          "type": "string"
        },
        {
          "internalType": "string",
          "name": "description",
          "type": "string"
        },
        {
          "internalType": "string",
          "name": "date",
          "type": "string"
        },
        {
          "internalType": "string",
          "name": "image",
          "type": "string"
        },
        {
          "internalType": "uint256",
          "name": "reward",
          "type": "uint256"
        },
        {
          "internalType": "uint256",
          "name": "submission",
          "type": "uint256"
        }
      ],
      "stateMutability": "view",
      "type": "function"
    },
    {
      "inputs": [
        {
          "internalType": "uint256",
          "name": "",
          "type": "uint256"
        }
      ],
      "name": "_trialAudienceMap",
      "outputs": [
        {
          "internalType": "string",
          "name": "",
          "type": "string"
        }
      ],
      "stateMutability": "view",
      "type": "function"
    },
    {
      "inputs": [
        {
          "internalType": "uint256",
          "name": "",
          "type": "uint256"
        }
      ],
      "name": "_trialMap",
      "outputs": [
        {
          "internalType": "uint256",
          "name": "trial_id",
          "type": "uint256"
        },
        {
          "internalType": "uint256",
          "name": "user_id",
          "type": "uint256"
        },
        {
          "internalType": "string",
          "name": "image",
          "type": "string"
        },
        {
          "internalType": "string",
          "name": "title",
          "type": "string"
        },
        {
          "internalType": "string",
          "name": "description",
          "type": "string"
        },
        {
          "internalType": "uint256",
          "name": "contributors",
          "type": "uint256"
        },
        {
          "internalType": "uint256",
          "name": "audience",
          "type": "uint256"
        },
        {
          "internalType": "uint256",
          "name": "budget",
          "type": "uint256"
        },
        {
          "internalType": "string",
          "name": "date",
          "type": "string"
        },
        {
          "internalType": "string",
          "name": "reward_type",
          "type": "string"
        },
        {
          "internalType": "uint256",
          "name": "reward_price",
          "type": "uint256"
        },
        {
          "internalType": "uint256",
          "name": "total_spending_limit",
          "type": "uint256"
        }
      ],
      "stateMutability": "view",
      "type": "function"
    },
    {
      "inputs": [
        {
          "internalType": "uint256",
          "name": "user_id",
          "type": "uint256"
        }
      ],
      "name": "getAllCompletedSurveysIDByUser",
      "outputs": [
        {
          "internalType": "uint256[]",
          "name": "",
          "type": "uint256[]"
        }
      ],
      "stateMutability": "view",
      "type": "function"
    },
    {
      "inputs": [
        {
          "internalType": "uint256",
          "name": "trial_id",
          "type": "uint256"
        }
      ],
      "name": "getAllSurveysIDByTrial",
      "outputs": [
        {
          "internalType": "uint256[]",
          "name": "",
          "type": "uint256[]"
        }
      ],
      "stateMutability": "view",
      "type": "function"
    },
    {
      "inputs": [
        {
          "internalType": "uint256",
          "name": "user_id",
          "type": "uint256"
        }
      ],
      "name": "getUserDetails",
      "outputs": [
        {
          "internalType": "string",
          "name": "",
          "type": "string"
        },
        {
          "internalType": "uint256",
          "name": "",
          "type": "uint256"
        },
        {
          "internalType": "string",
          "name": "",
          "type": "string"
        },
        {
          "internalType": "string",
          "name": "",
          "type": "string"
        },
        {
          "internalType": "string",
          "name": "",
          "type": "string"
        }
      ],
      "stateMutability": "view",
      "type": "function"
    },
    {
      "inputs": [],
      "name": "owner",
      "outputs": [
        {
          "internalType": "address",
          "name": "",
          "type": "address"
        }
      ],
      "stateMutability": "view",
      "type": "function"
    },
    {
      "inputs": [],
      "name": "reset_all",
      "outputs": [],
      "stateMutability": "nonpayable",
      "type": "function"
    }
  ],
  "transactionHash": "0x5a76a30b3106e94763b147f97c4b8b410e018e9bdceac4435dcc9018884d9e81",
  "args": [],
  "numDeployments": 1,
  "solcInputHash": "bfe4f2a07dfa3c9900438a7164a1d08d",
  "bytecode": "0x608060405234801561001057600080fd5b50614163806100206000396000f3fe608060405234801561001057600080fd5b506004361061023d5760003560e01c806390d6cf051161013b578063ce08988c116100b8578063eb6b28701161007c578063eb6b2870146106f3578063ebe197ca14610711578063f0d8e87314610744578063f6aaa80414610775578063f8b7800f146107a85761023d565b8063ce08988c14610635578063de7acfd714610653578063e1da993f1461068b578063e57f973f146106a7578063ea7efaa6146106c35761023d565b8063b16060a6116100ff578063b16060a61461056c578063b6e604bd14610576578063bed208fe14610594578063c13b2836146105cf578063ccef4218146106055761023d565b806390d6cf05146104c6578063a5f3fc7d146104fa578063a92e1c4c14610516578063ac7aef0e14610532578063ad23f8f9146105505761023d565b806345948fde116101c957806366cad7341161018d57806366cad73414610410578063682d562b1461042c5780637d423e101461045c5780638da5cb5b14610478578063902841d4146104965761023d565b806345948fde1461037057806349b9b07b1461038c5780634f8b36eb146103bc57806355391705146103d85780635f27aea1146103f45761023d565b80632a8caf4a116102105780632a8caf4a146102d05780632c02dd60146103005780632ffb08f71461031c5780633896f130146103385780633eebd0d0146103545761023d565b806301c66109146102425780631429f775146102605780631c1a9f7b1461027e57806329b36423146102b2575b600080fd5b61024a6107d8565b6040516102579190613a48565b60405180910390f35b6102686107de565b6040516102759190613a48565b60405180910390f35b610298600480360381019061029391906130f9565b6107e4565b6040516102a99594939291906139d9565b60405180910390f35b6102ba610b08565b6040516102c79190613a48565b60405180910390f35b6102ea60048036038101906102e591906130f9565b610b0e565b6040516102f79190613980565b60405180910390f35b61031a6004803603810190610315919061330c565b610bae565b005b61033660048036038101906103319190613728565b610d4d565b005b610352600480360381019061034d9190613593565b610e13565b005b61036e600480360381019061036991906134a1565b610f36565b005b61038a60048036038101906103859190613052565b610f9d565b005b6103a660048036038101906103a191906130f9565b611136565b6040516103b3919061395e565b60405180910390f35b6103d660048036038101906103d19190612fda565b61124e565b005b6103f260048036038101906103ed919061323d565b6112d1565b005b61040e6004803603810190610409919061323d565b611374565b005b61042a60048036038101906104259190613126565b611417565b005b610446600480360381019061044191906130f9565b611443565b604051610453919061395e565b60405180910390f35b610476600480360381019061047191906136a5565b61155b565b005b610480611658565b60405161048d9190613943565b60405180910390f35b6104b060048036038101906104ab91906130f9565b61167e565b6040516104bd9190613980565b60405180910390f35b6104e060048036038101906104db91906130f9565b611724565b6040516104f1959493929190613c8f565b60405180910390f35b610514600480360381019061050f9190613524565b6117e2565b005b610530600480360381019061052b9190613182565b6118a3565b005b61053a611945565b6040516105479190613a48565b60405180910390f35b61056a60048036038101906105659190613126565b61194b565b005b610574611977565b005b61057e611e4f565b60405161058b9190613a48565b60405180910390f35b6105ae60048036038101906105a991906130f9565b611e55565b6040516105c69c9b9a99989796959493929190613abd565b60405180910390f35b6105e960048036038101906105e491906130f9565b61215d565b6040516105fc9796959493929190613ce9565b60405180910390f35b61061f600480360381019061061a9190612fda565b612227565b60405161062c9190613980565b60405180910390f35b61063d61230f565b60405161064a9190613a48565b60405180910390f35b61066d600480360381019061066891906130f9565b612315565b60405161068299989796959493929190613be6565b60405180910390f35b6106a560048036038101906106a09190613126565b612583565b005b6106c160048036038101906106bc9190613432565b6125b2565b005b6106dd60048036038101906106d891906130f9565b6125fd565b6040516106ea9190613980565b60405180910390f35b6106fb61269d565b6040516107089190613a48565b60405180910390f35b61072b600480360381019061072691906130f9565b6126a3565b60405161073b9493929190613a63565b60405180910390f35b61075e600480360381019061075991906130f9565b61286b565b60405161076c9291906139a2565b60405180910390f35b61078f600480360381019061078a91906130f9565b61299f565b60405161079f9493929190613b9a565b60405180910390f35b6107c260048036038101906107bd9190612f91565b612a57565b6040516107cf9190613980565b60405180910390f35b60055481565b60025481565b606060006060806060600060405180602001604052806000815250905060405180602001604052806000815250805190602001206007600089815260200190815260200160002060050160405161083b919061392c565b6040518091039020146108f6576108f360076000898152602001908152602001600020600501805461086c90613f32565b80601f016020809104026020016040519081016040528092919081815260200182805461089890613f32565b80156108e55780601f106108ba576101008083540402835291602001916108e5565b820191906000526020600020905b8154815290600101906020018083116108c857829003601f168201915b50505050506000600a612b02565b90505b600760008881526020019081526020016000206006016007600089815260200190815260200160002060070154600760008a8152602001908152602001600020600101600760008b81526020019081526020016000206002018484805461095c90613f32565b80601f016020809104026020016040519081016040528092919081815260200182805461098890613f32565b80156109d55780601f106109aa576101008083540402835291602001916109d5565b820191906000526020600020905b8154815290600101906020018083116109b857829003601f168201915b505050505094508280546109e890613f32565b80601f0160208091040260200160405190810160405280929190818152602001828054610a1490613f32565b8015610a615780601f10610a3657610100808354040283529160200191610a61565b820191906000526020600020905b815481529060010190602001808311610a4457829003601f168201915b50505050509250818054610a7490613f32565b80601f0160208091040260200160405190810160405280929190818152602001828054610aa090613f32565b8015610aed5780601f10610ac257610100808354040283529160200191610aed565b820191906000526020600020905b815481529060010190602001808311610ad057829003601f168201915b50505050509150955095509550955095505091939590929450565b60035481565b60096020528060005260406000206000915090508054610b2d90613f32565b80601f0160208091040260200160405190810160405280929190818152602001828054610b5990613f32565b8015610ba65780601f10610b7b57610100808354040283529160200191610ba6565b820191906000526020600020905b815481529060010190602001808311610b8957829003601f168201915b505050505081565b60405180610180016040528060015481526020018981526020018881526020018781526020018681526020018581526020018481526020018381526020018281526020016040518060400160405280600381526020017f44455600000000000000000000000000000000000000000000000000000000008152508152602001600081526020018381525060086000600154815260200190815260200160002060008201518160000155602082015181600101556040820151816002019080519060200190610c7d929190612e29565b506060820151816003019080519060200190610c9a929190612e29565b506080820151816004019080519060200190610cb7929190612e29565b5060a0820151816005015560c0820151816006015560e08201518160070155610100820151816008019080519060200190610cf3929190612e29565b50610120820151816009019080519060200190610d11929190612e29565b5061014082015181600a015561016082015181600b015590505060016000815480929190610d3e90613f95565b91905055505050505050505050565b6040518060e00160405280600554815260200187815260200186815260200185815260200184815260200183815260200182815250600f60006005548152602001908152602001600020600082015181600001556020820151816001015560408201518160020155606082015181600301556080820151816004015560a0820151816005015560c0820151816006019080519060200190610def929190612e29565b5090505060056000815480929190610e0690613f95565b9190505550505050505050565b60405180610120016040528060025481526020018881526020018781526020018681526020018581526020018481526020018381526020018281526020016000815250600a600060025481526020019081526020016000206000820151816000015560208201518160010155604082015181600201556060820151816003019080519060200190610ea5929190612e29565b506080820151816004019080519060200190610ec2929190612e29565b5060a0820151816005019080519060200190610edf929190612e29565b5060c0820151816006019080519060200190610efc929190612e29565b5060e08201518160070155610100820151816008015590505060026000815480929190610f2890613f95565b919050555050505050505050565b82600860008681526020019081526020016000206009019080519060200190610f60929190612e29565b508160086000868152602001908152602001600020600a01819055508060086000868152602001908152602001600020600b018190555050505050565b60405180610100016040528060005481526020018481526020018381526020018281526020013373ffffffffffffffffffffffffffffffffffffffff16815260200160405180602001604052806000815250815260200160405180606001604052806028815260200161410660289139815260200160008152506007600080548152602001908152602001600020600082015181600001556020820151816001019080519060200190611051929190612e29565b50604082015181600201908051906020019061106e929190612e29565b50606082015181600301908051906020019061108b929190612e29565b5060808201518160040160006101000a81548173ffffffffffffffffffffffffffffffffffffffff021916908373ffffffffffffffffffffffffffffffffffffffff16021790555060a08201518160050190805190602001906110ef929190612e29565b5060c082015181600601908051906020019061110c929190612e29565b5060e0820151816007015590505060008081548092919061112c90613f95565b9190505550505050565b60606000805b60065481101561118657836010600083815260200190815260200160002060020154141561117357818061116f90613f95565b9250505b808061117e90613f95565b91505061113c565b5060008167ffffffffffffffff8111156111a3576111a261409a565b5b6040519080825280602002602001820160405280156111d15781602001602082028036833780820191505090505b5090506000805b60065481101561124257856010600083815260200190815260200160002060020154141561122f57808383815181106112145761121361406b565b5b602002602001018181525050818061122b90613f95565b9250505b808061123a90613f95565b9150506111d8565b50819350505050919050565b604051806040016040528083815260200182815250600b600060035481526020019081526020016000206000820151816000019080519060200190611294929190612e29565b5060208201518160010190805190602001906112b1929190612e29565b50905050600360008154809291906112c890613f95565b91905055505050565b836008600087815260200190815260200160002060020190805190602001906112fb929190612e29565b5082600860008781526020019081526020016000206003019080519060200190611326929190612e29565b5081600860008781526020019081526020016000206004019080519060200190611351929190612e29565b508060086000878152602001908152602001600020600701819055505050505050565b83600a6000878152602001908152602001600020600301908051906020019061139e929190612e29565b5082600a600087815260200190815260200160002060040190805190602001906113c9929190612e29565b5081600a600087815260200190815260200160002060060190805190602001906113f4929190612e29565b5080600a6000878152602001908152602001600020600701819055505050505050565b80600c6000848152602001908152602001600020908051906020019061143e929190612e29565b505050565b60606000805b6002548110156114935783600a600083815260200190815260200160002060010154141561148057818061147c90613f95565b9250505b808061148b90613f95565b915050611449565b5060008167ffffffffffffffff8111156114b0576114af61409a565b5b6040519080825280602002602001820160405280156114de5781602001602082028036833780820191505090505b5090506000805b60025481101561154f5785600a600083815260200190815260200160002060010154141561153c57808383815181106115215761152061406b565b5b602002602001018181525050818061153890613f95565b9250505b808061154790613f95565b9150506114e5565b50819350505050919050565b6040518060a001604052806006548152602001828152602001848152602001858152602001838152506010600060065481526020019081526020016000206000820151816000015560208201518160010155604082015181600201556060820151816003015560808201518160040190805190602001906115dd929190612e29565b509050506001600a600086815260200190815260200160002060080160008282546116089190613e2a565b9250508190555081600a60008681526020019081526020016000206005019080519060200190611639929190612e29565b506006600081548092919061164d90613f95565b919050555050505050565b601160009054906101000a900473ffffffffffffffffffffffffffffffffffffffff1681565b606060005b6004548110156116e55782600e60008381526020019081526020016000206002015414156116d2576116ca600e600083815260200190815260200160002060010154612bfe565b91505061171f565b80806116dd90613f95565b915050611683565b506040518060400160405280600581526020017f46616c736500000000000000000000000000000000000000000000000000000081525090505b919050565b601060205280600052604060002060009150905080600001549080600101549080600201549080600301549080600401805461175f90613f32565b80601f016020809104026020016040519081016040528092919081815260200182805461178b90613f32565b80156117d85780601f106117ad576101008083540402835291602001916117d8565b820191906000526020600020905b8154815290600101906020018083116117bb57829003601f168201915b5050505050905085565b6040518060800160405280600454815260200184815260200183815260200182815250600e600060045481526020019081526020016000206000820151816000015560208201518160010155604082015181600201556060820151816003019080519060200190611854929190612e29565b50905050600160086000858152602001908152602001600020600501600082825461187f9190613e2a565b925050819055506004600081548092919061189990613f95565b9190505550505050565b83600d60008681526020019081526020016000206000018190555082600d600086815260200190815260200160002060010190805190602001906118e8929190612e29565b5081600d60008681526020019081526020016000206002019080519060200190611913929190612e29565b5080600d6000868152602001908152602001600020600301908051906020019061193e929190612e29565b5050505050565b60015481565b80600960008481526020019081526020016000209080519060200190611972929190612e29565b505050565b60005b600054811015611a3457600760008281526020019081526020016000206000808201600090556001820160006119b09190612eaf565b6002820160006119c09190612eaf565b6003820160006119d09190612eaf565b6004820160006101000a81549073ffffffffffffffffffffffffffffffffffffffff0219169055600582016000611a079190612eaf565b600682016000611a179190612eaf565b600782016000905550508080611a2c90613f95565b91505061197a565b5060005b600154811015611af357600860008281526020019081526020016000206000808201600090556001820160009055600282016000611a769190612eaf565b600382016000611a869190612eaf565b600482016000611a969190612eaf565b600582016000905560068201600090556007820160009055600882016000611abe9190612eaf565b600982016000611ace9190612eaf565b600a820160009055600b82016000905550508080611aeb90613f95565b915050611a38565b5060005b600154811015611b3357600960008281526020019081526020016000206000611b209190612eaf565b8080611b2b90613f95565b915050611af7565b5060005b600254811015611bd257600a600082815260200190815260200160002060008082016000905560018201600090556002820160009055600382016000611b7d9190612eaf565b600482016000611b8d9190612eaf565b600582016000611b9d9190612eaf565b600682016000611bad9190612eaf565b6007820160009055600882016000905550508080611bca90613f95565b915050611b37565b5060005b600354811015611c2957600b600082815260200190815260200160002060008082016000611c049190612eaf565b600182016000611c149190612eaf565b50508080611c2190613f95565b915050611bd6565b5060005b600154811015611c6957600c60008281526020019081526020016000206000611c569190612eaf565b8080611c6190613f95565b915050611c2d565b5060005b600054811015611cd857600d6000828152602001908152602001600020600080820160009055600182016000611ca39190612eaf565b600282016000611cb39190612eaf565b600382016000611cc39190612eaf565b50508080611cd090613f95565b915050611c6d565b5060005b600454811015611d3757600e600082815260200190815260200160002060008082016000905560018201600090556002820160009055600382016000611d229190612eaf565b50508080611d2f90613f95565b915050611cdc565b5060005b600554811015611dae57600f600082815260200190815260200160002060008082016000905560018201600090556002820160009055600382016000905560048201600090556005820160009055600682016000611d999190612eaf565b50508080611da690613f95565b915050611d3b565b5060005b600654811015611e155760106000828152602001908152602001600020600080820160009055600182016000905560028201600090556003820160009055600482016000611e009190612eaf565b50508080611e0d90613f95565b915050611db2565b5060008081905550600060018190555060006002819055506000600381905550600060048190555060006005819055506000600681905550565b60065481565b6008602052806000526040600020600091509050806000015490806001015490806002018054611e8490613f32565b80601f0160208091040260200160405190810160405280929190818152602001828054611eb090613f32565b8015611efd5780601f10611ed257610100808354040283529160200191611efd565b820191906000526020600020905b815481529060010190602001808311611ee057829003601f168201915b505050505090806003018054611f1290613f32565b80601f0160208091040260200160405190810160405280929190818152602001828054611f3e90613f32565b8015611f8b5780601f10611f6057610100808354040283529160200191611f8b565b820191906000526020600020905b815481529060010190602001808311611f6e57829003601f168201915b505050505090806004018054611fa090613f32565b80601f0160208091040260200160405190810160405280929190818152602001828054611fcc90613f32565b80156120195780601f10611fee57610100808354040283529160200191612019565b820191906000526020600020905b815481529060010190602001808311611ffc57829003601f168201915b50505050509080600501549080600601549080600701549080600801805461204090613f32565b80601f016020809104026020016040519081016040528092919081815260200182805461206c90613f32565b80156120b95780601f1061208e576101008083540402835291602001916120b9565b820191906000526020600020905b81548152906001019060200180831161209c57829003601f168201915b5050505050908060090180546120ce90613f32565b80601f01602080910402602001604051908101604052809291908181526020018280546120fa90613f32565b80156121475780601f1061211c57610100808354040283529160200191612147565b820191906000526020600020905b81548152906001019060200180831161212a57829003601f168201915b50505050509080600a01549080600b015490508c565b600f6020528060005260406000206000915090508060000154908060010154908060020154908060030154908060040154908060050154908060060180546121a490613f32565b80601f01602080910402602001604051908101604052809291908181526020018280546121d090613f32565b801561221d5780601f106121f25761010080835404028352916020019161221d565b820191906000526020600020905b81548152906001019060200180831161220057829003601f168201915b5050505050905087565b606060005b6000548110156122cf57838051906020012060076000838152602001908152602001600020600201604051612261919061392c565b60405180910390201480156122a6575082805190602001206007600083815260200190815260200160002060030160405161229c919061392c565b6040518091039020145b156122bc576122b481612bfe565b915050612309565b80806122c790613f95565b91505061222c565b506040518060400160405280600581526020017f46616c736500000000000000000000000000000000000000000000000000000081525090505b92915050565b60005481565b600a60205280600052604060002060009150905080600001549080600101549080600201549080600301805461234a90613f32565b80601f016020809104026020016040519081016040528092919081815260200182805461237690613f32565b80156123c35780601f10612398576101008083540402835291602001916123c3565b820191906000526020600020905b8154815290600101906020018083116123a657829003601f168201915b5050505050908060040180546123d890613f32565b80601f016020809104026020016040519081016040528092919081815260200182805461240490613f32565b80156124515780601f1061242657610100808354040283529160200191612451565b820191906000526020600020905b81548152906001019060200180831161243457829003601f168201915b50505050509080600501805461246690613f32565b80601f016020809104026020016040519081016040528092919081815260200182805461249290613f32565b80156124df5780601f106124b4576101008083540402835291602001916124df565b820191906000526020600020905b8154815290600101906020018083116124c257829003601f168201915b5050505050908060060180546124f490613f32565b80601f016020809104026020016040519081016040528092919081815260200182805461252090613f32565b801561256d5780601f106125425761010080835404028352916020019161256d565b820191906000526020600020905b81548152906001019060200180831161255057829003601f168201915b5050505050908060070154908060080154905089565b806007600084815260200190815260200160002060050190805190602001906125ad929190612e29565b505050565b816007600085815260200190815260200160002060060190805190602001906125dc929190612e29565b50806007600085815260200190815260200160002060070181905550505050565b600c602052806000526040600020600091509050805461261c90613f32565b80601f016020809104026020016040519081016040528092919081815260200182805461264890613f32565b80156126955780601f1061266a57610100808354040283529160200191612695565b820191906000526020600020905b81548152906001019060200180831161267857829003601f168201915b505050505081565b60045481565b600d6020528060005260406000206000915090508060000154908060010180546126cc90613f32565b80601f01602080910402602001604051908101604052809291908181526020018280546126f890613f32565b80156127455780601f1061271a57610100808354040283529160200191612745565b820191906000526020600020905b81548152906001019060200180831161272857829003601f168201915b50505050509080600201805461275a90613f32565b80601f016020809104026020016040519081016040528092919081815260200182805461278690613f32565b80156127d35780601f106127a8576101008083540402835291602001916127d3565b820191906000526020600020905b8154815290600101906020018083116127b657829003601f168201915b5050505050908060030180546127e890613f32565b80601f016020809104026020016040519081016040528092919081815260200182805461281490613f32565b80156128615780601f1061283657610100808354040283529160200191612861565b820191906000526020600020905b81548152906001019060200180831161284457829003601f168201915b5050505050905084565b600b60205280600052604060002060009150905080600001805461288e90613f32565b80601f01602080910402602001604051908101604052809291908181526020018280546128ba90613f32565b80156129075780601f106128dc57610100808354040283529160200191612907565b820191906000526020600020905b8154815290600101906020018083116128ea57829003601f168201915b50505050509080600101805461291c90613f32565b80601f016020809104026020016040519081016040528092919081815260200182805461294890613f32565b80156129955780601f1061296a57610100808354040283529160200191612995565b820191906000526020600020905b81548152906001019060200180831161297857829003601f168201915b5050505050905082565b600e6020528060005260406000206000915090508060000154908060010154908060020154908060030180546129d490613f32565b80601f0160208091040260200160405190810160405280929190818152602001828054612a0090613f32565b8015612a4d5780601f10612a2257610100808354040283529160200191612a4d565b820191906000526020600020905b815481529060010190602001808311612a3057829003601f168201915b5050505050905084565b606060005b600054811015612ac357828051906020012060076000838152602001908152602001600020600201604051612a91919061392c565b60405180910390201415612ab057612aa881612bfe565b915050612afd565b8080612abb90613f95565b915050612a5c565b506040518060400160405280600581526020017f46616c736500000000000000000000000000000000000000000000000000000081525090505b919050565b6060600084905060008484612b179190613e80565b67ffffffffffffffff811115612b3057612b2f61409a565b5b6040519080825280601f01601f191660200182016040528015612b625781602001600182028036833780820191505090505b50905060008590505b84811015612bf157828181518110612b8657612b8561406b565b5b602001015160f81c60f81b828783612b9e9190613e80565b81518110612baf57612bae61406b565b5b60200101907effffffffffffffffffffffffffffffffffffffffffffffffffffffffffffff1916908160001a9053508080612be990613f95565b915050612b6b565b5080925050509392505050565b606060006001612c0d84612cd6565b01905060008167ffffffffffffffff811115612c2c57612c2b61409a565b5b6040519080825280601f01601f191660200182016040528015612c5e5781602001600182028036833780820191505090505b509050600082602001820190505b600115612ccb578080600190039150507f3031323334353637383961626364656600000000000000000000000000000000600a86061a8153600a8581612cb557612cb461400d565b5b0494506000851415612cc657612ccb565b612c6c565b819350505050919050565b600080600090507a184f03e93ff9f4daa797ed6e38ed64bf6a1f0100000000000000008310612d34577a184f03e93ff9f4daa797ed6e38ed64bf6a1f0100000000000000008381612d2a57612d2961400d565b5b0492506040810190505b6d04ee2d6d415b85acef81000000008310612d71576d04ee2d6d415b85acef81000000008381612d6757612d6661400d565b5b0492506020810190505b662386f26fc100008310612da057662386f26fc100008381612d9657612d9561400d565b5b0492506010810190505b6305f5e1008310612dc9576305f5e1008381612dbf57612dbe61400d565b5b0492506008810190505b6127108310612dee576127108381612de457612de361400d565b5b0492506004810190505b60648310612e115760648381612e0757612e0661400d565b5b0492506002810190505b600a8310612e20576001810190505b80915050919050565b828054612e3590613f32565b90600052602060002090601f016020900481019282612e575760008555612e9e565b82601f10612e7057805160ff1916838001178555612e9e565b82800160010185558215612e9e579182015b82811115612e9d578251825591602001919060010190612e82565b5b509050612eab9190612eef565b5090565b508054612ebb90613f32565b6000825580601f10612ecd5750612eec565b601f016020900490600052602060002090810190612eeb9190612eef565b5b50565b5b80821115612f08576000816000905550600101612ef0565b5090565b6000612f1f612f1a84613d84565b613d5f565b905082815260208101848484011115612f3b57612f3a6140ce565b5b612f46848285613ef0565b509392505050565b600082601f830112612f6357612f626140c9565b5b8135612f73848260208601612f0c565b91505092915050565b600081359050612f8b816140ee565b92915050565b600060208284031215612fa757612fa66140d8565b5b600082013567ffffffffffffffff811115612fc557612fc46140d3565b5b612fd184828501612f4e565b91505092915050565b60008060408385031215612ff157612ff06140d8565b5b600083013567ffffffffffffffff81111561300f5761300e6140d3565b5b61301b85828601612f4e565b925050602083013567ffffffffffffffff81111561303c5761303b6140d3565b5b61304885828601612f4e565b9150509250929050565b60008060006060848603121561306b5761306a6140d8565b5b600084013567ffffffffffffffff811115613089576130886140d3565b5b61309586828701612f4e565b935050602084013567ffffffffffffffff8111156130b6576130b56140d3565b5b6130c286828701612f4e565b925050604084013567ffffffffffffffff8111156130e3576130e26140d3565b5b6130ef86828701612f4e565b9150509250925092565b60006020828403121561310f5761310e6140d8565b5b600061311d84828501612f7c565b91505092915050565b6000806040838503121561313d5761313c6140d8565b5b600061314b85828601612f7c565b925050602083013567ffffffffffffffff81111561316c5761316b6140d3565b5b61317885828601612f4e565b9150509250929050565b6000806000806080858703121561319c5761319b6140d8565b5b60006131aa87828801612f7c565b945050602085013567ffffffffffffffff8111156131cb576131ca6140d3565b5b6131d787828801612f4e565b935050604085013567ffffffffffffffff8111156131f8576131f76140d3565b5b61320487828801612f4e565b925050606085013567ffffffffffffffff811115613225576132246140d3565b5b61323187828801612f4e565b91505092959194509250565b600080600080600060a08688031215613259576132586140d8565b5b600061326788828901612f7c565b955050602086013567ffffffffffffffff811115613288576132876140d3565b5b61329488828901612f4e565b945050604086013567ffffffffffffffff8111156132b5576132b46140d3565b5b6132c188828901612f4e565b935050606086013567ffffffffffffffff8111156132e2576132e16140d3565b5b6132ee88828901612f4e565b92505060806132ff88828901612f7c565b9150509295509295909350565b600080600080600080600080610100898b03121561332d5761332c6140d8565b5b600061333b8b828c01612f7c565b985050602089013567ffffffffffffffff81111561335c5761335b6140d3565b5b6133688b828c01612f4e565b975050604089013567ffffffffffffffff811115613389576133886140d3565b5b6133958b828c01612f4e565b965050606089013567ffffffffffffffff8111156133b6576133b56140d3565b5b6133c28b828c01612f4e565b95505060806133d38b828c01612f7c565b94505060a06133e48b828c01612f7c565b93505060c06133f58b828c01612f7c565b92505060e089013567ffffffffffffffff811115613416576134156140d3565b5b6134228b828c01612f4e565b9150509295985092959890939650565b60008060006060848603121561344b5761344a6140d8565b5b600061345986828701612f7c565b935050602084013567ffffffffffffffff81111561347a576134796140d3565b5b61348686828701612f4e565b925050604061349786828701612f7c565b9150509250925092565b600080600080608085870312156134bb576134ba6140d8565b5b60006134c987828801612f7c565b945050602085013567ffffffffffffffff8111156134ea576134e96140d3565b5b6134f687828801612f4e565b935050604061350787828801612f7c565b925050606061351887828801612f7c565b91505092959194509250565b60008060006060848603121561353d5761353c6140d8565b5b600061354b86828701612f7c565b935050602061355c86828701612f7c565b925050604084013567ffffffffffffffff81111561357d5761357c6140d3565b5b61358986828701612f4e565b9150509250925092565b600080600080600080600060e0888a0312156135b2576135b16140d8565b5b60006135c08a828b01612f7c565b97505060206135d18a828b01612f7c565b965050604088013567ffffffffffffffff8111156135f2576135f16140d3565b5b6135fe8a828b01612f4e565b955050606088013567ffffffffffffffff81111561361f5761361e6140d3565b5b61362b8a828b01612f4e565b945050608088013567ffffffffffffffff81111561364c5761364b6140d3565b5b6136588a828b01612f4e565b93505060a088013567ffffffffffffffff811115613679576136786140d3565b5b6136858a828b01612f4e565b92505060c06136968a828b01612f7c565b91505092959891949750929550565b600080600080608085870312156136bf576136be6140d8565b5b60006136cd87828801612f7c565b94505060206136de87828801612f7c565b935050604085013567ffffffffffffffff8111156136ff576136fe6140d3565b5b61370b87828801612f4e565b925050606061371c87828801612f7c565b91505092959194509250565b60008060008060008060c08789031215613745576137446140d8565b5b600061375389828a01612f7c565b965050602061376489828a01612f7c565b955050604061377589828a01612f7c565b945050606061378689828a01612f7c565b935050608061379789828a01612f7c565b92505060a087013567ffffffffffffffff8111156137b8576137b76140d3565b5b6137c489828a01612f4e565b9150509295509295509295565b60006137dd838361390e565b60208301905092915050565b6137f281613eb4565b82525050565b600061380382613dda565b61380d8185613dfd565b935061381883613db5565b8060005b8381101561384957815161383088826137d1565b975061383b83613df0565b92505060018101905061381c565b5085935050505092915050565b6000815461386381613f32565b61386d8186613e0e565b945060018216600081146138885760018114613899576138cc565b60ff198316865281860193506138cc565b6138a285613dc5565b60005b838110156138c4578154818901526001820191506020810190506138a5565b838801955050505b50505092915050565b60006138e082613de5565b6138ea8185613e19565b93506138fa818560208601613eff565b613903816140dd565b840191505092915050565b61391781613ee6565b82525050565b61392681613ee6565b82525050565b60006139388284613856565b915081905092915050565b600060208201905061395860008301846137e9565b92915050565b6000602082019050818103600083015261397881846137f8565b905092915050565b6000602082019050818103600083015261399a81846138d5565b905092915050565b600060408201905081810360008301526139bc81856138d5565b905081810360208301526139d081846138d5565b90509392505050565b600060a08201905081810360008301526139f381886138d5565b9050613a02602083018761391d565b8181036040830152613a1481866138d5565b90508181036060830152613a2881856138d5565b90508181036080830152613a3c81846138d5565b90509695505050505050565b6000602082019050613a5d600083018461391d565b92915050565b6000608082019050613a78600083018761391d565b8181036020830152613a8a81866138d5565b90508181036040830152613a9e81856138d5565b90508181036060830152613ab281846138d5565b905095945050505050565b600061018082019050613ad3600083018f61391d565b613ae0602083018e61391d565b8181036040830152613af2818d6138d5565b90508181036060830152613b06818c6138d5565b90508181036080830152613b1a818b6138d5565b9050613b2960a083018a61391d565b613b3660c083018961391d565b613b4360e083018861391d565b818103610100830152613b5681876138d5565b9050818103610120830152613b6b81866138d5565b9050613b7b61014083018561391d565b613b8961016083018461391d565b9d9c50505050505050505050505050565b6000608082019050613baf600083018761391d565b613bbc602083018661391d565b613bc9604083018561391d565b8181036060830152613bdb81846138d5565b905095945050505050565b600061012082019050613bfc600083018c61391d565b613c09602083018b61391d565b613c16604083018a61391d565b8181036060830152613c2881896138d5565b90508181036080830152613c3c81886138d5565b905081810360a0830152613c5081876138d5565b905081810360c0830152613c6481866138d5565b9050613c7360e083018561391d565b613c8161010083018461391d565b9a9950505050505050505050565b600060a082019050613ca4600083018861391d565b613cb1602083018761391d565b613cbe604083018661391d565b613ccb606083018561391d565b8181036080830152613cdd81846138d5565b90509695505050505050565b600060e082019050613cfe600083018a61391d565b613d0b602083018961391d565b613d18604083018861391d565b613d25606083018761391d565b613d32608083018661391d565b613d3f60a083018561391d565b81810360c0830152613d5181846138d5565b905098975050505050505050565b6000613d69613d7a565b9050613d758282613f64565b919050565b6000604051905090565b600067ffffffffffffffff821115613d9f57613d9e61409a565b5b613da8826140dd565b9050602081019050919050565b6000819050602082019050919050565b60008190508160005260206000209050919050565b600081519050919050565b600081519050919050565b6000602082019050919050565b600082825260208201905092915050565b600081905092915050565b600082825260208201905092915050565b6000613e3582613ee6565b9150613e4083613ee6565b9250827fffffffffffffffffffffffffffffffffffffffffffffffffffffffffffffffff03821115613e7557613e74613fde565b5b828201905092915050565b6000613e8b82613ee6565b9150613e9683613ee6565b925082821015613ea957613ea8613fde565b5b828203905092915050565b6000613ebf82613ec6565b9050919050565b600073ffffffffffffffffffffffffffffffffffffffff82169050919050565b6000819050919050565b82818337600083830152505050565b60005b83811015613f1d578082015181840152602081019050613f02565b83811115613f2c576000848401525b50505050565b60006002820490506001821680613f4a57607f821691505b60208210811415613f5e57613f5d61403c565b5b50919050565b613f6d826140dd565b810181811067ffffffffffffffff82111715613f8c57613f8b61409a565b5b80604052505050565b6000613fa082613ee6565b91507fffffffffffffffffffffffffffffffffffffffffffffffffffffffffffffffff821415613fd357613fd2613fde565b5b600182019050919050565b7f4e487b7100000000000000000000000000000000000000000000000000000000600052601160045260246000fd5b7f4e487b7100000000000000000000000000000000000000000000000000000000600052601260045260246000fd5b7f4e487b7100000000000000000000000000000000000000000000000000000000600052602260045260246000fd5b7f4e487b7100000000000000000000000000000000000000000000000000000000600052603260045260246000fd5b7f4e487b7100000000000000000000000000000000000000000000000000000000600052604160045260246000fd5b600080fd5b600080fd5b600080fd5b600080fd5b6000601f19601f8301169050919050565b6140f781613ee6565b811461410257600080fd5b5056fe68747470733a2f2f692e706f7374696d672e63632f537378477735635a2f706572736f6e2e6a7067a26469706673582212201c3b35e0e89c5244b9486dba4a4eb72dcaac9a36bd821dcc43fe130ad08ca20564736f6c63430008060033",
  "devdoc": {
    "kind": "dev",
    "methods": {},
    "version": 1
  },
  "userdoc": {
    "kind": "user",
    "methods": {
      "_categoryMap(uint256)": {
        "notice": "The map of all the Survey Category ."
      },
      "_completedsurveyMap(uint256)": {
        "notice": "The map of all the Completed Surveys."
      },
      "_fhirMap(uint256)": {
        "notice": "The map of all the FHIR information."
      },
      "_ongoingMap(uint256)": {
        "notice": "The map of all the OnGoing Trials."
      },
      "_questionanswerdMap(uint256)": {
        "notice": "The map of all the Question Answerd in a Survey."
      },
      "_sectionsMap(uint256)": {
        "notice": "The map of all the Survey Sections  ."
      },
      "_surveyMap(uint256)": {
        "notice": "The map of all the Surveys information."
      },
      "_trialAudienceMap(uint256)": {
        "notice": "The map of all the Rewards information."
      },
      "_trialMap(uint256)": {
        "notice": "The map of all the Trials information."
      }
    },
    "version": 1
  },
  "storageLayout": {
    "storage": [
      {
        "astId": 1189,
        "contract": "contracts/WaveData.sol:WaveData",
        "label": "_UserIds",
        "offset": 0,
        "slot": "0",
        "type": "t_uint256"
      },
      {
        "astId": 1191,
        "contract": "contracts/WaveData.sol:WaveData",
        "label": "_TrialIds",
        "offset": 0,
        "slot": "1",
        "type": "t_uint256"
      },
      {
        "astId": 1193,
        "contract": "contracts/WaveData.sol:WaveData",
        "label": "_SurveyIds",
        "offset": 0,
        "slot": "2",
        "type": "t_uint256"
      },
      {
        "astId": 1195,
        "contract": "contracts/WaveData.sol:WaveData",
        "label": "_SurveyCategoryIds",
        "offset": 0,
        "slot": "3",
        "type": "t_uint256"
      },
      {
        "astId": 1197,
        "contract": "contracts/WaveData.sol:WaveData",
        "label": "_OngoingIds",
        "offset": 0,
        "slot": "4",
        "type": "t_uint256"
      },
      {
        "astId": 1199,
        "contract": "contracts/WaveData.sol:WaveData",
        "label": "_AnsweredIds",
        "offset": 0,
        "slot": "5",
        "type": "t_uint256"
      },
      {
        "astId": 1201,
        "contract": "contracts/WaveData.sol:WaveData",
        "label": "_CompletedSurveyIds",
        "offset": 0,
        "slot": "6",
        "type": "t_uint256"
      },
      {
        "astId": 1207,
        "contract": "contracts/WaveData.sol:WaveData",
        "label": "_userMap",
        "offset": 0,
        "slot": "7",
        "type": "t_mapping(t_uint256,t_struct(user_struct)1067_storage)"
      },
      {
        "astId": 1213,
        "contract": "contracts/WaveData.sol:WaveData",
        "label": "_trialMap",
        "offset": 0,
        "slot": "8",
        "type": "t_mapping(t_uint256,t_struct(trial_struct)1111_storage)"
      },
      {
        "astId": 1218,
        "contract": "contracts/WaveData.sol:WaveData",
        "label": "_trialAudienceMap",
        "offset": 0,
        "slot": "9",
        "type": "t_mapping(t_uint256,t_string_storage)"
      },
      {
        "astId": 1224,
        "contract": "contracts/WaveData.sol:WaveData",
        "label": "_surveyMap",
        "offset": 0,
        "slot": "10",
        "type": "t_mapping(t_uint256,t_struct(survey_struct)1139_storage)"
      },
      {
        "astId": 1230,
        "contract": "contracts/WaveData.sol:WaveData",
        "label": "_categoryMap",
        "offset": 0,
        "slot": "11",
        "type": "t_mapping(t_uint256,t_struct(survey_category_struct)1074_storage)"
      },
      {
        "astId": 1235,
        "contract": "contracts/WaveData.sol:WaveData",
        "label": "_sectionsMap",
        "offset": 0,
        "slot": "12",
        "type": "t_mapping(t_uint256,t_string_storage)"
      },
      {
        "astId": 1241,
        "contract": "contracts/WaveData.sol:WaveData",
        "label": "_fhirMap",
        "offset": 0,
        "slot": "13",
        "type": "t_mapping(t_uint256,t_struct(fhir_struct)1152_storage)"
      },
      {
        "astId": 1247,
        "contract": "contracts/WaveData.sol:WaveData",
        "label": "_ongoingMap",
        "offset": 0,
        "slot": "14",
        "type": "t_mapping(t_uint256,t_struct(ongoing_struct)1161_storage)"
      },
      {
        "astId": 1253,
        "contract": "contracts/WaveData.sol:WaveData",
        "label": "_questionanswerdMap",
        "offset": 0,
        "slot": "15",
        "type": "t_mapping(t_uint256,t_struct(survey_question_answer_struct)1176_storage)"
      },
      {
        "astId": 1259,
        "contract": "contracts/WaveData.sol:WaveData",
        "label": "_completedsurveyMap",
        "offset": 0,
        "slot": "16",
        "type": "t_mapping(t_uint256,t_struct(completed_survey_struct)1187_storage)"
      },
      {
        "astId": 1261,
        "contract": "contracts/WaveData.sol:WaveData",
        "label": "owner",
        "offset": 0,
        "slot": "17",
        "type": "t_address"
      }
    ],
    "types": {
      "t_address": {
        "encoding": "inplace",
        "label": "address",
        "numberOfBytes": "20"
      },
      "t_mapping(t_uint256,t_string_storage)": {
        "encoding": "mapping",
        "key": "t_uint256",
        "label": "mapping(uint256 => string)",
        "numberOfBytes": "32",
        "value": "t_string_storage"
      },
      "t_mapping(t_uint256,t_struct(completed_survey_struct)1187_storage)": {
        "encoding": "mapping",
        "key": "t_uint256",
        "label": "mapping(uint256 => struct WaveData.completed_survey_struct)",
        "numberOfBytes": "32",
        "value": "t_struct(completed_survey_struct)1187_storage"
      },
      "t_mapping(t_uint256,t_struct(fhir_struct)1152_storage)": {
        "encoding": "mapping",
        "key": "t_uint256",
        "label": "mapping(uint256 => struct WaveData.fhir_struct)",
        "numberOfBytes": "32",
        "value": "t_struct(fhir_struct)1152_storage"
      },
      "t_mapping(t_uint256,t_struct(ongoing_struct)1161_storage)": {
        "encoding": "mapping",
        "key": "t_uint256",
        "label": "mapping(uint256 => struct WaveData.ongoing_struct)",
        "numberOfBytes": "32",
        "value": "t_struct(ongoing_struct)1161_storage"
      },
      "t_mapping(t_uint256,t_struct(survey_category_struct)1074_storage)": {
        "encoding": "mapping",
        "key": "t_uint256",
        "label": "mapping(uint256 => struct WaveData.survey_category_struct)",
        "numberOfBytes": "32",
        "value": "t_struct(survey_category_struct)1074_storage"
      },
      "t_mapping(t_uint256,t_struct(survey_question_answer_struct)1176_storage)": {
        "encoding": "mapping",
        "key": "t_uint256",
        "label": "mapping(uint256 => struct WaveData.survey_question_answer_struct)",
        "numberOfBytes": "32",
        "value": "t_struct(survey_question_answer_struct)1176_storage"
      },
      "t_mapping(t_uint256,t_struct(survey_struct)1139_storage)": {
        "encoding": "mapping",
        "key": "t_uint256",
        "label": "mapping(uint256 => struct WaveData.survey_struct)",
        "numberOfBytes": "32",
        "value": "t_struct(survey_struct)1139_storage"
      },
      "t_mapping(t_uint256,t_struct(trial_struct)1111_storage)": {
        "encoding": "mapping",
        "key": "t_uint256",
        "label": "mapping(uint256 => struct WaveData.trial_struct)",
        "numberOfBytes": "32",
        "value": "t_struct(trial_struct)1111_storage"
      },
      "t_mapping(t_uint256,t_struct(user_struct)1067_storage)": {
        "encoding": "mapping",
        "key": "t_uint256",
        "label": "mapping(uint256 => struct WaveData.user_struct)",
        "numberOfBytes": "32",
        "value": "t_struct(user_struct)1067_storage"
      },
      "t_string_storage": {
        "encoding": "bytes",
        "label": "string",
        "numberOfBytes": "32"
      },
      "t_struct(completed_survey_struct)1187_storage": {
        "encoding": "inplace",
        "label": "struct WaveData.completed_survey_struct",
        "members": [
          {
            "astId": 1178,
            "contract": "contracts/WaveData.sol:WaveData",
            "label": "completed_survey_id",
            "offset": 0,
            "slot": "0",
            "type": "t_uint256"
          },
          {
            "astId": 1180,
            "contract": "contracts/WaveData.sol:WaveData",
            "label": "trial_id",
            "offset": 0,
            "slot": "1",
            "type": "t_uint256"
          },
          {
            "astId": 1182,
            "contract": "contracts/WaveData.sol:WaveData",
            "label": "user_id",
            "offset": 0,
            "slot": "2",
            "type": "t_uint256"
          },
          {
            "astId": 1184,
            "contract": "contracts/WaveData.sol:WaveData",
            "label": "survey_id",
            "offset": 0,
            "slot": "3",
            "type": "t_uint256"
          },
          {
            "astId": 1186,
            "contract": "contracts/WaveData.sol:WaveData",
            "label": "date",
            "offset": 0,
            "slot": "4",
            "type": "t_string_storage"
          }
        ],
        "numberOfBytes": "160"
      },
      "t_struct(fhir_struct)1152_storage": {
        "encoding": "inplace",
        "label": "struct WaveData.fhir_struct",
        "members": [
          {
            "astId": 1142,
            "contract": "contracts/WaveData.sol:WaveData",
            "label": "user_id",
            "offset": 0,
            "slot": "0",
            "type": "t_uint256"
          },
          {
            "astId": 1145,
            "contract": "contracts/WaveData.sol:WaveData",
            "label": "given_name",
            "offset": 0,
            "slot": "1",
            "type": "t_string_storage"
          },
          {
            "astId": 1148,
            "contract": "contracts/WaveData.sol:WaveData",
            "label": "identifier",
            "offset": 0,
            "slot": "2",
            "type": "t_string_storage"
          },
          {
            "astId": 1151,
            "contract": "contracts/WaveData.sol:WaveData",
            "label": "patient_id",
            "offset": 0,
            "slot": "3",
            "type": "t_string_storage"
          }
        ],
        "numberOfBytes": "128"
      },
      "t_struct(ongoing_struct)1161_storage": {
        "encoding": "inplace",
        "label": "struct WaveData.ongoing_struct",
        "members": [
          {
            "astId": 1154,
            "contract": "contracts/WaveData.sol:WaveData",
            "label": "ongoing_id",
            "offset": 0,
            "slot": "0",
            "type": "t_uint256"
          },
          {
            "astId": 1156,
            "contract": "contracts/WaveData.sol:WaveData",
            "label": "trial_id",
            "offset": 0,
            "slot": "1",
            "type": "t_uint256"
          },
          {
            "astId": 1158,
            "contract": "contracts/WaveData.sol:WaveData",
            "label": "user_id",
            "offset": 0,
            "slot": "2",
            "type": "t_uint256"
          },
          {
            "astId": 1160,
            "contract": "contracts/WaveData.sol:WaveData",
            "label": "date",
            "offset": 0,
            "slot": "3",
            "type": "t_string_storage"
          }
        ],
        "numberOfBytes": "128"
      },
      "t_struct(survey_category_struct)1074_storage": {
        "encoding": "inplace",
        "label": "struct WaveData.survey_category_struct",
        "members": [
          {
            "astId": 1070,
            "contract": "contracts/WaveData.sol:WaveData",
            "label": "name",
            "offset": 0,
            "slot": "0",
            "type": "t_string_storage"
          },
          {
            "astId": 1073,
            "contract": "contracts/WaveData.sol:WaveData",
            "label": "image",
            "offset": 0,
            "slot": "1",
            "type": "t_string_storage"
          }
        ],
        "numberOfBytes": "64"
      },
      "t_struct(survey_question_answer_struct)1176_storage": {
        "encoding": "inplace",
        "label": "struct WaveData.survey_question_answer_struct",
        "members": [
          {
            "astId": 1163,
            "contract": "contracts/WaveData.sol:WaveData",
            "label": "answer_id",
            "offset": 0,
            "slot": "0",
            "type": "t_uint256"
          },
          {
            "astId": 1165,
            "contract": "contracts/WaveData.sol:WaveData",
            "label": "trial_id",
            "offset": 0,
            "slot": "1",
            "type": "t_uint256"
          },
          {
            "astId": 1167,
            "contract": "contracts/WaveData.sol:WaveData",
            "label": "user_id",
            "offset": 0,
            "slot": "2",
            "type": "t_uint256"
          },
          {
            "astId": 1169,
            "contract": "contracts/WaveData.sol:WaveData",
            "label": "survey_id",
            "offset": 0,
            "slot": "3",
            "type": "t_uint256"
          },
          {
            "astId": 1171,
            "contract": "contracts/WaveData.sol:WaveData",
            "label": "section_id",
            "offset": 0,
            "slot": "4",
            "type": "t_uint256"
          },
          {
            "astId": 1173,
            "contract": "contracts/WaveData.sol:WaveData",
            "label": "question_id",
            "offset": 0,
            "slot": "5",
            "type": "t_uint256"
          },
          {
            "astId": 1175,
            "contract": "contracts/WaveData.sol:WaveData",
            "label": "answer",
            "offset": 0,
            "slot": "6",
            "type": "t_string_storage"
          }
        ],
        "numberOfBytes": "224"
      },
      "t_struct(survey_struct)1139_storage": {
        "encoding": "inplace",
        "label": "struct WaveData.survey_struct",
        "members": [
          {
            "astId": 1114,
            "contract": "contracts/WaveData.sol:WaveData",
            "label": "survey_id",
            "offset": 0,
            "slot": "0",
            "type": "t_uint256"
          },
          {
            "astId": 1117,
            "contract": "contracts/WaveData.sol:WaveData",
            "label": "trial_id",
            "offset": 0,
            "slot": "1",
            "type": "t_uint256"
          },
          {
            "astId": 1120,
            "contract": "contracts/WaveData.sol:WaveData",
            "label": "user_id",
            "offset": 0,
            "slot": "2",
            "type": "t_uint256"
          },
          {
            "astId": 1123,
            "contract": "contracts/WaveData.sol:WaveData",
            "label": "name",
            "offset": 0,
            "slot": "3",
            "type": "t_string_storage"
          },
          {
            "astId": 1126,
            "contract": "contracts/WaveData.sol:WaveData",
            "label": "description",
            "offset": 0,
            "slot": "4",
            "type": "t_string_storage"
          },
          {
            "astId": 1129,
            "contract": "contracts/WaveData.sol:WaveData",
            "label": "date",
            "offset": 0,
            "slot": "5",
            "type": "t_string_storage"
          },
          {
            "astId": 1132,
            "contract": "contracts/WaveData.sol:WaveData",
            "label": "image",
            "offset": 0,
            "slot": "6",
            "type": "t_string_storage"
          },
          {
            "astId": 1135,
            "contract": "contracts/WaveData.sol:WaveData",
            "label": "reward",
            "offset": 0,
            "slot": "7",
            "type": "t_uint256"
          },
          {
            "astId": 1138,
            "contract": "contracts/WaveData.sol:WaveData",
            "label": "submission",
            "offset": 0,
            "slot": "8",
            "type": "t_uint256"
          }
        ],
        "numberOfBytes": "288"
      },
      "t_struct(trial_struct)1111_storage": {
        "encoding": "inplace",
        "label": "struct WaveData.trial_struct",
        "members": [
          {
            "astId": 1077,
            "contract": "contracts/WaveData.sol:WaveData",
            "label": "trial_id",
            "offset": 0,
            "slot": "0",
            "type": "t_uint256"
          },
          {
            "astId": 1080,
            "contract": "contracts/WaveData.sol:WaveData",
            "label": "user_id",
            "offset": 0,
            "slot": "1",
            "type": "t_uint256"
          },
          {
            "astId": 1083,
            "contract": "contracts/WaveData.sol:WaveData",
            "label": "image",
            "offset": 0,
            "slot": "2",
            "type": "t_string_storage"
          },
          {
            "astId": 1086,
            "contract": "contracts/WaveData.sol:WaveData",
            "label": "title",
            "offset": 0,
            "slot": "3",
            "type": "t_string_storage"
          },
          {
            "astId": 1089,
            "contract": "contracts/WaveData.sol:WaveData",
            "label": "description",
            "offset": 0,
            "slot": "4",
            "type": "t_string_storage"
          },
          {
            "astId": 1092,
            "contract": "contracts/WaveData.sol:WaveData",
            "label": "contributors",
            "offset": 0,
            "slot": "5",
            "type": "t_uint256"
          },
          {
            "astId": 1095,
            "contract": "contracts/WaveData.sol:WaveData",
            "label": "audience",
            "offset": 0,
            "slot": "6",
            "type": "t_uint256"
          },
          {
            "astId": 1098,
            "contract": "contracts/WaveData.sol:WaveData",
            "label": "budget",
            "offset": 0,
            "slot": "7",
            "type": "t_uint256"
          },
          {
            "astId": 1101,
            "contract": "contracts/WaveData.sol:WaveData",
            "label": "date",
            "offset": 0,
            "slot": "8",
            "type": "t_string_storage"
          },
          {
            "astId": 1104,
            "contract": "contracts/WaveData.sol:WaveData",
            "label": "reward_type",
            "offset": 0,
            "slot": "9",
            "type": "t_string_storage"
          },
          {
            "astId": 1107,
            "contract": "contracts/WaveData.sol:WaveData",
            "label": "reward_price",
            "offset": 0,
            "slot": "10",
            "type": "t_uint256"
          },
          {
            "astId": 1110,
            "contract": "contracts/WaveData.sol:WaveData",
            "label": "total_spending_limit",
            "offset": 0,
            "slot": "11",
            "type": "t_uint256"
          }
        ],
        "numberOfBytes": "384"
      },
      "t_struct(user_struct)1067_storage": {
        "encoding": "inplace",
        "label": "struct WaveData.user_struct",
        "members": [
          {
            "astId": 1045,
            "contract": "contracts/WaveData.sol:WaveData",
            "label": "user_id",
            "offset": 0,
            "slot": "0",
            "type": "t_uint256"
          },
          {
            "astId": 1048,
            "contract": "contracts/WaveData.sol:WaveData",
            "label": "name",
            "offset": 0,
            "slot": "1",
            "type": "t_string_storage"
          },
          {
            "astId": 1051,
            "contract": "contracts/WaveData.sol:WaveData",
            "label": "email",
            "offset": 0,
            "slot": "2",
            "type": "t_string_storage"
          },
          {
            "astId": 1054,
            "contract": "contracts/WaveData.sol:WaveData",
            "label": "password",
            "offset": 0,
            "slot": "3",
            "type": "t_string_storage"
          },
          {
            "astId": 1057,
            "contract": "contracts/WaveData.sol:WaveData",
            "label": "walletaddress",
            "offset": 0,
            "slot": "4",
            "type": "t_address"
          },
          {
            "astId": 1060,
            "contract": "contracts/WaveData.sol:WaveData",
            "label": "privatekey",
            "offset": 0,
            "slot": "5",
            "type": "t_string_storage"
          },
          {
            "astId": 1063,
            "contract": "contracts/WaveData.sol:WaveData",
            "label": "image",
            "offset": 0,
            "slot": "6",
            "type": "t_string_storage"
          },
          {
            "astId": 1066,
            "contract": "contracts/WaveData.sol:WaveData",
            "label": "credits",
            "offset": 0,
            "slot": "7",
            "type": "t_uint256"
          }
        ],
        "numberOfBytes": "256"
      },
      "t_uint256": {
        "encoding": "inplace",
        "label": "uint256",
        "numberOfBytes": "32"
      }
    }
  }
}