{
  "_format": "hh-sol-artifact-1",
  "contractName": "WaveData",
  "sourceName": "contracts/WaveData.sol",
  "abi": [
    {
      "inputs": [
        {
          "internalType": "string",
          "name": "email",
          "type": "string"
        }
      ],
      "name": "CheckEmail",
      "outputs": [
        {
          "internalType": "string",
          "name": "",
          "type": "string"
        }
      ],
      "stateMutability": "view",
      "type": "function"
    },
    {
      "inputs": [
        {
          "internalType": "string",
          "name": "full_name",
          "type": "string"
        },
        {
          "internalType": "string",
          "name": "email",
          "type": "string"
        },
        {
          "internalType": "string",
          "name": "password",
          "type": "string"
        }
      ],
      "name": "CreateAccount",
      "outputs": [],
      "stateMutability": "nonpayable",
      "type": "function"
    },
    {
      "inputs": [
        {
          "internalType": "uint256",
          "name": "survey_id",
          "type": "uint256"
        },
        {
          "internalType": "uint256",
          "name": "user_id",
          "type": "uint256"
        },
        {
          "internalType": "string",
          "name": "date",
          "type": "string"
        },
        {
          "internalType": "uint256",
          "name": "trial_id",
          "type": "uint256"
        }
      ],
      "name": "CreateCompletedSurveys",
      "outputs": [],
      "stateMutability": "nonpayable",
      "type": "function"
    },
    {
      "inputs": [
        {
          "internalType": "uint256",
          "name": "trial_id",
          "type": "uint256"
        },
        {
          "internalType": "uint256",
          "name": "user_id",
          "type": "uint256"
        },
        {
          "internalType": "string",
          "name": "date",
          "type": "string"
        }
      ],
      "name": "CreateOngoingTrail",
      "outputs": [],
      "stateMutability": "nonpayable",
      "type": "function"
    },
    {
      "inputs": [
        {
          "internalType": "uint256",
          "name": "survey_id",
          "type": "uint256"
        },
        {
          "internalType": "string",
          "name": "metadata",
          "type": "string"
        }
      ],
      "name": "CreateOrSaveSections",
      "outputs": [],
      "stateMutability": "nonpayable",
      "type": "function"
    },
    {
      "inputs": [
        {
          "internalType": "uint256",
          "name": "trial_id",
          "type": "uint256"
        },
        {
          "internalType": "uint256",
          "name": "user_id",
          "type": "uint256"
        },
        {
          "internalType": "uint256",
          "name": "survey_id",
          "type": "uint256"
        },
        {
          "internalType": "string",
          "name": "section_id",
          "type": "string"
        },
        {
          "internalType": "string",
          "name": "question_id",
          "type": "string"
        },
        {
          "internalType": "string",
          "name": "answer",
          "type": "string"
        }
      ],
      "name": "CreateQuestionAnswer",
      "outputs": [],
      "stateMutability": "nonpayable",
      "type": "function"
    },
    {
      "inputs": [
        {
          "internalType": "uint256",
          "name": "trial_id",
          "type": "uint256"
        },
        {
          "internalType": "uint256",
          "name": "user_id",
          "type": "uint256"
        },
        {
          "internalType": "string",
          "name": "name",
          "type": "string"
        },
        {
          "internalType": "string",
          "name": "description",
          "type": "string"
        },
        {
          "internalType": "string",
          "name": "date",
          "type": "string"
        },
        {
          "internalType": "string",
          "name": "image",
          "type": "string"
        },
        {
          "internalType": "uint256",
          "name": "reward",
          "type": "uint256"
        }
      ],
      "name": "CreateSurvey",
      "outputs": [],
      "stateMutability": "nonpayable",
      "type": "function"
    },
    {
      "inputs": [
        {
          "internalType": "string",
          "name": "name",
          "type": "string"
        },
        {
          "internalType": "string",
          "name": "image",
          "type": "string"
        }
      ],
      "name": "CreateSurveyCategory",
      "outputs": [],
      "stateMutability": "nonpayable",
      "type": "function"
    },
    {
      "inputs": [
        {
          "internalType": "uint256",
          "name": "user_id",
          "type": "uint256"
        },
        {
          "internalType": "string",
          "name": "image",
          "type": "string"
        },
        {
          "internalType": "string",
          "name": "title",
          "type": "string"
        },
        {
          "internalType": "string",
          "name": "description",
          "type": "string"
        },
        {
          "internalType": "uint256",
          "name": "contributors",
          "type": "uint256"
        },
        {
          "internalType": "uint256",
          "name": "audience",
          "type": "uint256"
        },
        {
          "internalType": "uint256",
          "name": "budget",
          "type": "uint256"
        },
        {
          "internalType": "string",
          "name": "date",
          "type": "string"
        }
      ],
      "name": "CreateTrial",
      "outputs": [],
      "stateMutability": "nonpayable",
      "type": "function"
    },
    {
      "inputs": [
        {
          "internalType": "uint256",
          "name": "user_id",
          "type": "uint256"
        }
      ],
      "name": "GetOngoingTrial",
      "outputs": [
        {
          "internalType": "string",
          "name": "",
          "type": "string"
        }
      ],
      "stateMutability": "view",
      "type": "function"
    },
    {
      "inputs": [
        {
          "internalType": "string",
          "name": "email",
          "type": "string"
        },
        {
          "internalType": "string",
          "name": "password",
          "type": "string"
        }
      ],
      "name": "Login",
      "outputs": [
        {
          "internalType": "string",
          "name": "",
          "type": "string"
        }
      ],
      "stateMutability": "view",
      "type": "function"
    },
    {
      "inputs": [
        {
          "internalType": "uint256",
          "name": "trial_id",
          "type": "uint256"
        },
        {
          "internalType": "string",
          "name": "audience_info",
          "type": "string"
        }
      ],
      "name": "UpdateAudience",
      "outputs": [],
      "stateMutability": "nonpayable",
      "type": "function"
    },
    {
      "inputs": [
        {
          "internalType": "uint256",
          "name": "user_id",
          "type": "uint256"
        },
        {
          "internalType": "string",
          "name": "given_name",
          "type": "string"
        },
        {
          "internalType": "string",
          "name": "identifier",
          "type": "string"
        },
        {
          "internalType": "string",
          "name": "patient_id",
          "type": "string"
        }
      ],
      "name": "UpdateFhir",
      "outputs": [],
      "stateMutability": "nonpayable",
      "type": "function"
    },
    {
      "inputs": [
        {
          "internalType": "uint256",
          "name": "userid",
          "type": "uint256"
        },
        {
          "internalType": "string",
          "name": "privatekey",
          "type": "string"
        }
      ],
      "name": "UpdatePrivatekey",
      "outputs": [],
      "stateMutability": "nonpayable",
      "type": "function"
    },
    {
      "inputs": [
        {
          "internalType": "uint256",
          "name": "trial_id",
          "type": "uint256"
        },
        {
          "internalType": "string",
          "name": "reward_type",
          "type": "string"
        },
        {
          "internalType": "uint256",
          "name": "reward_price",
          "type": "uint256"
        },
        {
          "internalType": "uint256",
          "name": "total_spending_limit",
          "type": "uint256"
        }
      ],
      "name": "UpdateReward",
      "outputs": [],
      "stateMutability": "nonpayable",
      "type": "function"
    },
    {
      "inputs": [
        {
          "internalType": "uint256",
          "name": "survey_id",
          "type": "uint256"
        },
        {
          "internalType": "string",
          "name": "name",
          "type": "string"
        },
        {
          "internalType": "string",
          "name": "description",
          "type": "string"
        },
        {
          "internalType": "string",
          "name": "image",
          "type": "string"
        },
        {
          "internalType": "uint256",
          "name": "reward",
          "type": "uint256"
        }
      ],
      "name": "UpdateSurvey",
      "outputs": [],
      "stateMutability": "nonpayable",
      "type": "function"
    },
    {
      "inputs": [
        {
          "internalType": "uint256",
          "name": "trial_id",
          "type": "uint256"
        },
        {
          "internalType": "string",
          "name": "image",
          "type": "string"
        },
        {
          "internalType": "string",
          "name": "title",
          "type": "string"
        },
        {
          "internalType": "string",
          "name": "description",
          "type": "string"
        },
        {
          "internalType": "uint256",
          "name": "budget",
          "type": "uint256"
        }
      ],
      "name": "UpdateTrial",
      "outputs": [],
      "stateMutability": "nonpayable",
      "type": "function"
    },
    {
      "inputs": [
        {
          "internalType": "uint256",
          "name": "user_id",
          "type": "uint256"
        },
        {
          "internalType": "string",
          "name": "image",
          "type": "string"
        },
        {
          "internalType": "uint256",
          "name": "credits",
          "type": "uint256"
        }
      ],
      "name": "UpdateUser",
      "outputs": [],
      "stateMutability": "nonpayable",
      "type": "function"
    },
    {
      "inputs": [],
      "name": "_AnsweredIds",
      "outputs": [
        {
          "internalType": "uint256",
          "name": "",
          "type": "uint256"
        }
      ],
      "stateMutability": "view",
      "type": "function"
    },
    {
      "inputs": [],
      "name": "_CompletedSurveyIds",
      "outputs": [
        {
          "internalType": "uint256",
          "name": "",
          "type": "uint256"
        }
      ],
      "stateMutability": "view",
      "type": "function"
    },
    {
      "inputs": [],
      "name": "_OngoingIds",
      "outputs": [
        {
          "internalType": "uint256",
          "name": "",
          "type": "uint256"
        }
      ],
      "stateMutability": "view",
      "type": "function"
    },
    {
      "inputs": [],
      "name": "_SurveyCategoryIds",
      "outputs": [
        {
          "internalType": "uint256",
          "name": "",
          "type": "uint256"
        }
      ],
      "stateMutability": "view",
      "type": "function"
    },
    {
      "inputs": [],
      "name": "_SurveyIds",
      "outputs": [
        {
          "internalType": "uint256",
          "name": "",
          "type": "uint256"
        }
      ],
      "stateMutability": "view",
      "type": "function"
    },
    {
      "inputs": [],
      "name": "_TrialIds",
      "outputs": [
        {
          "internalType": "uint256",
          "name": "",
          "type": "uint256"
        }
      ],
      "stateMutability": "view",
      "type": "function"
    },
    {
      "inputs": [],
      "name": "_UserIds",
      "outputs": [
        {
          "internalType": "uint256",
          "name": "",
          "type": "uint256"
        }
      ],
      "stateMutability": "view",
      "type": "function"
    },
    {
      "inputs": [
        {
          "internalType": "uint256",
          "name": "",
          "type": "uint256"
        }
      ],
      "name": "_categoryMap",
      "outputs": [
        {
          "internalType": "string",
          "name": "name",
          "type": "string"
        },
        {
          "internalType": "string",
          "name": "image",
          "type": "string"
        }
      ],
      "stateMutability": "view",
      "type": "function"
    },
    {
      "inputs": [
        {
          "internalType": "uint256",
          "name": "",
          "type": "uint256"
        }
      ],
      "name": "_completedsurveyMap",
      "outputs": [
        {
          "internalType": "uint256",
          "name": "completed_survey_id",
          "type": "uint256"
        },
        {
          "internalType": "uint256",
          "name": "trial_id",
          "type": "uint256"
        },
        {
          "internalType": "uint256",
          "name": "user_id",
          "type": "uint256"
        },
        {
          "internalType": "uint256",
          "name": "survey_id",
          "type": "uint256"
        },
        {
          "internalType": "string",
          "name": "date",
          "type": "string"
        }
      ],
      "stateMutability": "view",
      "type": "function"
    },
    {
      "inputs": [
        {
          "internalType": "uint256",
          "name": "",
          "type": "uint256"
        }
      ],
      "name": "_fhirMap",
      "outputs": [
        {
          "internalType": "uint256",
          "name": "user_id",
          "type": "uint256"
        },
        {
          "internalType": "string",
          "name": "given_name",
          "type": "string"
        },
        {
          "internalType": "string",
          "name": "identifier",
          "type": "string"
        },
        {
          "internalType": "string",
          "name": "patient_id",
          "type": "string"
        }
      ],
      "stateMutability": "view",
      "type": "function"
    },
    {
      "inputs": [
        {
          "internalType": "uint256",
          "name": "",
          "type": "uint256"
        }
      ],
      "name": "_ongoingMap",
      "outputs": [
        {
          "internalType": "uint256",
          "name": "ongoing_id",
          "type": "uint256"
        },
        {
          "internalType": "uint256",
          "name": "trial_id",
          "type": "uint256"
        },
        {
          "internalType": "uint256",
          "name": "user_id",
          "type": "uint256"
        },
        {
          "internalType": "string",
          "name": "date",
          "type": "string"
        }
      ],
      "stateMutability": "view",
      "type": "function"
    },
    {
      "inputs": [
        {
          "internalType": "uint256",
          "name": "",
          "type": "uint256"
        }
      ],
      "name": "_questionanswerdMap",
      "outputs": [
        {
          "internalType": "uint256",
          "name": "answer_id",
          "type": "uint256"
        },
        {
          "internalType": "uint256",
          "name": "trial_id",
          "type": "uint256"
        },
        {
          "internalType": "uint256",
          "name": "user_id",
          "type": "uint256"
        },
        {
          "internalType": "uint256",
          "name": "survey_id",
          "type": "uint256"
        },
        {
          "internalType": "string",
          "name": "section_id",
          "type": "string"
        },
        {
          "internalType": "string",
          "name": "question_id",
          "type": "string"
        },
        {
          "internalType": "string",
          "name": "answer",
          "type": "string"
        }
      ],
      "stateMutability": "view",
      "type": "function"
    },
    {
      "inputs": [
        {
          "internalType": "uint256",
          "name": "",
          "type": "uint256"
        }
      ],
      "name": "_sectionsMap",
      "outputs": [
        {
          "internalType": "string",
          "name": "",
          "type": "string"
        }
      ],
      "stateMutability": "view",
      "type": "function"
    },
    {
      "inputs": [
        {
          "internalType": "uint256",
          "name": "",
          "type": "uint256"
        }
      ],
      "name": "_surveyMap",
      "outputs": [
        {
          "internalType": "uint256",
          "name": "survey_id",
          "type": "uint256"
        },
        {
          "internalType": "uint256",
          "name": "trial_id",
          "type": "uint256"
        },
        {
          "internalType": "uint256",
          "name": "user_id",
          "type": "uint256"
        },
        {
          "internalType": "string",
          "name": "name",
          "type": "string"
        },
        {
          "internalType": "string",
          "name": "description",
          "type": "string"
        },
        {
          "internalType": "string",
          "name": "date",
          "type": "string"
        },
        {
          "internalType": "string",
          "name": "image",
          "type": "string"
        },
        {
          "internalType": "uint256",
          "name": "reward",
          "type": "uint256"
        },
        {
          "internalType": "uint256",
          "name": "submission",
          "type": "uint256"
        }
      ],
      "stateMutability": "view",
      "type": "function"
    },
    {
      "inputs": [
        {
          "internalType": "uint256",
          "name": "",
          "type": "uint256"
        }
      ],
      "name": "_trialAudienceMap",
      "outputs": [
        {
          "internalType": "string",
          "name": "",
          "type": "string"
        }
      ],
      "stateMutability": "view",
      "type": "function"
    },
    {
      "inputs": [
        {
          "internalType": "uint256",
          "name": "",
          "type": "uint256"
        }
      ],
      "name": "_trialMap",
      "outputs": [
        {
          "internalType": "uint256",
          "name": "trial_id",
          "type": "uint256"
        },
        {
          "internalType": "uint256",
          "name": "user_id",
          "type": "uint256"
        },
        {
          "internalType": "string",
          "name": "image",
          "type": "string"
        },
        {
          "internalType": "string",
          "name": "title",
          "type": "string"
        },
        {
          "internalType": "string",
          "name": "description",
          "type": "string"
        },
        {
          "internalType": "uint256",
          "name": "contributors",
          "type": "uint256"
        },
        {
          "internalType": "uint256",
          "name": "audience",
          "type": "uint256"
        },
        {
          "internalType": "uint256",
          "name": "budget",
          "type": "uint256"
        },
        {
          "internalType": "string",
          "name": "date",
          "type": "string"
        },
        {
          "internalType": "string",
          "name": "reward_type",
          "type": "string"
        },
        {
          "internalType": "uint256",
          "name": "reward_price",
          "type": "uint256"
        },
        {
          "internalType": "uint256",
          "name": "total_spending_limit",
          "type": "uint256"
        }
      ],
      "stateMutability": "view",
      "type": "function"
    },
    {
      "inputs": [
        {
          "internalType": "uint256",
          "name": "user_id",
          "type": "uint256"
        }
      ],
      "name": "getAllCompletedSurveysIDByUser",
      "outputs": [
        {
          "internalType": "uint256[]",
          "name": "",
          "type": "uint256[]"
        }
      ],
      "stateMutability": "view",
      "type": "function"
    },
    {
      "inputs": [
        {
          "internalType": "uint256",
          "name": "trial_id",
          "type": "uint256"
        }
      ],
      "name": "getAllSurveysIDByTrial",
      "outputs": [
        {
          "internalType": "uint256[]",
          "name": "",
          "type": "uint256[]"
        }
      ],
      "stateMutability": "view",
      "type": "function"
    },
    {
      "inputs": [
        {
          "internalType": "uint256",
          "name": "user_id",
          "type": "uint256"
        }
      ],
      "name": "getUserDetails",
      "outputs": [
        {
          "internalType": "string",
          "name": "",
          "type": "string"
        },
        {
          "internalType": "uint256",
          "name": "",
          "type": "uint256"
        },
        {
          "internalType": "string",
          "name": "",
          "type": "string"
        },
        {
          "internalType": "string",
          "name": "",
          "type": "string"
        },
        {
          "internalType": "string",
          "name": "",
          "type": "string"
        }
      ],
      "stateMutability": "view",
      "type": "function"
    },
    {
      "inputs": [],
      "name": "owner",
      "outputs": [
        {
          "internalType": "address",
          "name": "",
          "type": "address"
        }
      ],
      "stateMutability": "view",
      "type": "function"
    },
    {
      "inputs": [],
      "name": "reset_all",
      "outputs": [],
      "stateMutability": "nonpayable",
      "type": "function"
    }
  ],
  "bytecode": "0x608060405234801561001057600080fd5b506142ef806100206000396000f3fe608060405234801561001057600080fd5b506004361061023d5760003560e01c806390d6cf051161013b578063ce08988c116100b8578063eb6b28701161007c578063eb6b2870146106f3578063ebe197ca14610711578063f0d8e87314610744578063f6aaa80414610775578063f8b7800f146107a85761023d565b8063ce08988c14610635578063de7acfd714610653578063e1da993f1461068b578063e57f973f146106a7578063ea7efaa6146106c35761023d565b8063b16060a6116100ff578063b16060a61461056c578063b6e604bd14610576578063bed208fe14610594578063c13b2836146105cf578063ccef4218146106055761023d565b806390d6cf05146104c6578063a5f3fc7d146104fa578063a92e1c4c14610516578063ac7aef0e14610532578063ad23f8f9146105505761023d565b806349b9b07b116101c9578063682d562b1161018d578063682d562b146104105780636c067b48146104405780637d423e101461045c5780638da5cb5b14610478578063902841d4146104965761023d565b806349b9b07b146103705780634f8b36eb146103a057806355391705146103bc5780635f27aea1146103d857806366cad734146103f45761023d565b80632a8caf4a116102105780632a8caf4a146102d05780632c02dd60146103005780633896f1301461031c5780633eebd0d01461033857806345948fde146103545761023d565b806301c66109146102425780631429f775146102605780631c1a9f7b1461027e57806329b36423146102b2575b600080fd5b61024a6107d8565b6040516102579190613bc6565b60405180910390f35b6102686107de565b6040516102759190613bc6565b60405180910390f35b6102986004803603810190610293919061323f565b6107e4565b6040516102a9959493929190613b57565b60405180910390f35b6102ba610b08565b6040516102c79190613bc6565b60405180910390f35b6102ea60048036038101906102e5919061323f565b610b0e565b6040516102f79190613afe565b60405180910390f35b61031a60048036038101906103159190613452565b610bae565b005b610336600480360381019061033191906136d9565b610d4d565b005b610352600480360381019061034d91906135e7565b610e70565b005b61036e60048036038101906103699190613198565b610ed7565b005b61038a6004803603810190610385919061323f565b611070565b6040516103979190613adc565b60405180910390f35b6103ba60048036038101906103b59190613120565b611188565b005b6103d660048036038101906103d19190613383565b61120b565b005b6103f260048036038101906103ed9190613383565b6112ae565b005b61040e6004803603810190610409919061326c565b611351565b005b61042a6004803603810190610425919061323f565b61137d565b6040516104379190613adc565b60405180910390f35b61045a6004803603810190610455919061386e565b611495565b005b610476600480360381019061047191906137eb565b611581565b005b61048061167e565b60405161048d9190613ac1565b60405180910390f35b6104b060048036038101906104ab919061323f565b6116a4565b6040516104bd9190613afe565b60405180910390f35b6104e060048036038101906104db919061323f565b61174a565b6040516104f1959493929190613e0d565b60405180910390f35b610514600480360381019061050f919061366a565b611808565b005b610530600480360381019061052b91906132c8565b6118c9565b005b61053a61196b565b6040516105479190613bc6565b60405180910390f35b61056a6004803603810190610565919061326c565b611971565b005b61057461199d565b005b61057e611e85565b60405161058b9190613bc6565b60405180910390f35b6105ae60048036038101906105a9919061323f565b611e8b565b6040516105c69c9b9a99989796959493929190613c3b565b60405180910390f35b6105e960048036038101906105e4919061323f565b612193565b6040516105fc9796959493929190613e67565b60405180910390f35b61061f600480360381019061061a9190613120565b61236d565b60405161062c9190613afe565b60405180910390f35b61063d612455565b60405161064a9190613bc6565b60405180910390f35b61066d6004803603810190610668919061323f565b61245b565b60405161068299989796959493929190613d64565b60405180910390f35b6106a560048036038101906106a0919061326c565b6126c9565b005b6106c160048036038101906106bc9190613578565b6126f8565b005b6106dd60048036038101906106d8919061323f565b612743565b6040516106ea9190613afe565b60405180910390f35b6106fb6127e3565b6040516107089190613bc6565b60405180910390f35b61072b6004803603810190610726919061323f565b6127e9565b60405161073b9493929190613be1565b60405180910390f35b61075e6004803603810190610759919061323f565b6129b1565b60405161076c929190613b20565b60405180910390f35b61078f600480360381019061078a919061323f565b612ae5565b60405161079f9493929190613d18565b60405180910390f35b6107c260048036038101906107bd91906130d7565b612b9d565b6040516107cf9190613afe565b60405180910390f35b60055481565b60025481565b606060006060806060600060405180602001604052806000815250905060405180602001604052806000815250805190602001206007600089815260200190815260200160002060050160405161083b9190613aaa565b6040518091039020146108f6576108f360076000898152602001908152602001600020600501805461086c906140be565b80601f0160208091040260200160405190810160405280929190818152602001828054610898906140be565b80156108e55780601f106108ba576101008083540402835291602001916108e5565b820191906000526020600020905b8154815290600101906020018083116108c857829003601f168201915b50505050506000600a612c48565b90505b600760008881526020019081526020016000206006016007600089815260200190815260200160002060070154600760008a8152602001908152602001600020600101600760008b81526020019081526020016000206002018484805461095c906140be565b80601f0160208091040260200160405190810160405280929190818152602001828054610988906140be565b80156109d55780601f106109aa576101008083540402835291602001916109d5565b820191906000526020600020905b8154815290600101906020018083116109b857829003601f168201915b505050505094508280546109e8906140be565b80601f0160208091040260200160405190810160405280929190818152602001828054610a14906140be565b8015610a615780601f10610a3657610100808354040283529160200191610a61565b820191906000526020600020905b815481529060010190602001808311610a4457829003601f168201915b50505050509250818054610a74906140be565b80601f0160208091040260200160405190810160405280929190818152602001828054610aa0906140be565b8015610aed5780601f10610ac257610100808354040283529160200191610aed565b820191906000526020600020905b815481529060010190602001808311610ad057829003601f168201915b50505050509150955095509550955095505091939590929450565b60035481565b60096020528060005260406000206000915090508054610b2d906140be565b80601f0160208091040260200160405190810160405280929190818152602001828054610b59906140be565b8015610ba65780601f10610b7b57610100808354040283529160200191610ba6565b820191906000526020600020905b815481529060010190602001808311610b8957829003601f168201915b505050505081565b60405180610180016040528060015481526020018981526020018881526020018781526020018681526020018581526020018481526020018381526020018281526020016040518060400160405280600381526020017f44455600000000000000000000000000000000000000000000000000000000008152508152602001600081526020018381525060086000600154815260200190815260200160002060008201518160000155602082015181600101556040820151816002019080519060200190610c7d929190612f6f565b506060820151816003019080519060200190610c9a929190612f6f565b506080820151816004019080519060200190610cb7929190612f6f565b5060a0820151816005015560c0820151816006015560e08201518160070155610100820151816008019080519060200190610cf3929190612f6f565b50610120820151816009019080519060200190610d11929190612f6f565b5061014082015181600a015561016082015181600b015590505060016000815480929190610d3e90614121565b91905055505050505050505050565b60405180610120016040528060025481526020018881526020018781526020018681526020018581526020018481526020018381526020018281526020016000815250600a600060025481526020019081526020016000206000820151816000015560208201518160010155604082015181600201556060820151816003019080519060200190610ddf929190612f6f565b506080820151816004019080519060200190610dfc929190612f6f565b5060a0820151816005019080519060200190610e19929190612f6f565b5060c0820151816006019080519060200190610e36929190612f6f565b5060e08201518160070155610100820151816008015590505060026000815480929190610e6290614121565b919050555050505050505050565b82600860008681526020019081526020016000206009019080519060200190610e9a929190612f6f565b508160086000868152602001908152602001600020600a01819055508060086000868152602001908152602001600020600b018190555050505050565b60405180610100016040528060005481526020018481526020018381526020018281526020013373ffffffffffffffffffffffffffffffffffffffff16815260200160405180602001604052806000815250815260200160405180606001604052806028815260200161429260289139815260200160008152506007600080548152602001908152602001600020600082015181600001556020820151816001019080519060200190610f8b929190612f6f565b506040820151816002019080519060200190610fa8929190612f6f565b506060820151816003019080519060200190610fc5929190612f6f565b5060808201518160040160006101000a81548173ffffffffffffffffffffffffffffffffffffffff021916908373ffffffffffffffffffffffffffffffffffffffff16021790555060a0820151816005019080519060200190611029929190612f6f565b5060c0820151816006019080519060200190611046929190612f6f565b5060e0820151816007015590505060008081548092919061106690614121565b9190505550505050565b60606000805b6006548110156110c05783601060008381526020019081526020016000206002015414156110ad5781806110a990614121565b9250505b80806110b890614121565b915050611076565b5060008167ffffffffffffffff8111156110dd576110dc614226565b5b60405190808252806020026020018201604052801561110b5781602001602082028036833780820191505090505b5090506000805b60065481101561117c578560106000838152602001908152602001600020600201541415611169578083838151811061114e5761114d6141f7565b5b602002602001018181525050818061116590614121565b9250505b808061117490614121565b915050611112565b50819350505050919050565b604051806040016040528083815260200182815250600b6000600354815260200190815260200160002060008201518160000190805190602001906111ce929190612f6f565b5060208201518160010190805190602001906111eb929190612f6f565b509050506003600081548092919061120290614121565b91905055505050565b83600860008781526020019081526020016000206002019080519060200190611235929190612f6f565b5082600860008781526020019081526020016000206003019080519060200190611260929190612f6f565b508160086000878152602001908152602001600020600401908051906020019061128b929190612f6f565b508060086000878152602001908152602001600020600701819055505050505050565b83600a600087815260200190815260200160002060030190805190602001906112d8929190612f6f565b5082600a60008781526020019081526020016000206004019080519060200190611303929190612f6f565b5081600a6000878152602001908152602001600020600601908051906020019061132e929190612f6f565b5080600a6000878152602001908152602001600020600701819055505050505050565b80600c60008481526020019081526020016000209080519060200190611378929190612f6f565b505050565b60606000805b6002548110156113cd5783600a60008381526020019081526020016000206001015414156113ba5781806113b690614121565b9250505b80806113c590614121565b915050611383565b5060008167ffffffffffffffff8111156113ea576113e9614226565b5b6040519080825280602002602001820160405280156114185781602001602082028036833780820191505090505b5090506000805b6002548110156114895785600a6000838152602001908152602001600020600101541415611476578083838151811061145b5761145a6141f7565b5b602002602001018181525050818061147290614121565b9250505b808061148190614121565b91505061141f565b50819350505050919050565b6040518060e00160405280600554815260200187815260200186815260200185815260200184815260200183815260200182815250600f60006005548152602001908152602001600020600082015181600001556020820151816001015560408201518160020155606082015181600301556080820151816004019080519060200190611523929190612f6f565b5060a0820151816005019080519060200190611540929190612f6f565b5060c082015181600601908051906020019061155d929190612f6f565b509050506005600081548092919061157490614121565b9190505550505050505050565b6040518060a00160405280600654815260200182815260200184815260200185815260200183815250601060006006548152602001908152602001600020600082015181600001556020820151816001015560408201518160020155606082015181600301556080820151816004019080519060200190611603929190612f6f565b509050506001600a6000868152602001908152602001600020600801600082825461162e9190613fb6565b9250508190555081600a6000868152602001908152602001600020600501908051906020019061165f929190612f6f565b506006600081548092919061167390614121565b919050555050505050565b601160009054906101000a900473ffffffffffffffffffffffffffffffffffffffff1681565b606060005b60045481101561170b5782600e60008381526020019081526020016000206002015414156116f8576116f0600e600083815260200190815260200160002060010154612d44565b915050611745565b808061170390614121565b9150506116a9565b506040518060400160405280600581526020017f46616c736500000000000000000000000000000000000000000000000000000081525090505b919050565b6010602052806000526040600020600091509050806000015490806001015490806002015490806003015490806004018054611785906140be565b80601f01602080910402602001604051908101604052809291908181526020018280546117b1906140be565b80156117fe5780601f106117d3576101008083540402835291602001916117fe565b820191906000526020600020905b8154815290600101906020018083116117e157829003601f168201915b5050505050905085565b6040518060800160405280600454815260200184815260200183815260200182815250600e60006004548152602001908152602001600020600082015181600001556020820151816001015560408201518160020155606082015181600301908051906020019061187a929190612f6f565b5090505060016008600085815260200190815260200160002060050160008282546118a59190613fb6565b92505081905550600460008154809291906118bf90614121565b9190505550505050565b83600d60008681526020019081526020016000206000018190555082600d6000868152602001908152602001600020600101908051906020019061190e929190612f6f565b5081600d60008681526020019081526020016000206002019080519060200190611939929190612f6f565b5080600d60008681526020019081526020016000206003019080519060200190611964929190612f6f565b5050505050565b60015481565b80600960008481526020019081526020016000209080519060200190611998929190612f6f565b505050565b60005b600054811015611a5a57600760008281526020019081526020016000206000808201600090556001820160006119d69190612ff5565b6002820160006119e69190612ff5565b6003820160006119f69190612ff5565b6004820160006101000a81549073ffffffffffffffffffffffffffffffffffffffff0219169055600582016000611a2d9190612ff5565b600682016000611a3d9190612ff5565b600782016000905550508080611a5290614121565b9150506119a0565b5060005b600154811015611b1957600860008281526020019081526020016000206000808201600090556001820160009055600282016000611a9c9190612ff5565b600382016000611aac9190612ff5565b600482016000611abc9190612ff5565b600582016000905560068201600090556007820160009055600882016000611ae49190612ff5565b600982016000611af49190612ff5565b600a820160009055600b82016000905550508080611b1190614121565b915050611a5e565b5060005b600154811015611b5957600960008281526020019081526020016000206000611b469190612ff5565b8080611b5190614121565b915050611b1d565b5060005b600254811015611bf857600a600082815260200190815260200160002060008082016000905560018201600090556002820160009055600382016000611ba39190612ff5565b600482016000611bb39190612ff5565b600582016000611bc39190612ff5565b600682016000611bd39190612ff5565b6007820160009055600882016000905550508080611bf090614121565b915050611b5d565b5060005b600354811015611c4f57600b600082815260200190815260200160002060008082016000611c2a9190612ff5565b600182016000611c3a9190612ff5565b50508080611c4790614121565b915050611bfc565b5060005b600154811015611c8f57600c60008281526020019081526020016000206000611c7c9190612ff5565b8080611c8790614121565b915050611c53565b5060005b600054811015611cfe57600d6000828152602001908152602001600020600080820160009055600182016000611cc99190612ff5565b600282016000611cd99190612ff5565b600382016000611ce99190612ff5565b50508080611cf690614121565b915050611c93565b5060005b600454811015611d5d57600e600082815260200190815260200160002060008082016000905560018201600090556002820160009055600382016000611d489190612ff5565b50508080611d5590614121565b915050611d02565b5060005b600554811015611de457600f6000828152602001908152602001600020600080820160009055600182016000905560028201600090556003820160009055600482016000611daf9190612ff5565b600582016000611dbf9190612ff5565b600682016000611dcf9190612ff5565b50508080611ddc90614121565b915050611d61565b5060005b600654811015611e4b5760106000828152602001908152602001600020600080820160009055600182016000905560028201600090556003820160009055600482016000611e369190612ff5565b50508080611e4390614121565b915050611de8565b5060008081905550600060018190555060006002819055506000600381905550600060048190555060006005819055506000600681905550565b60065481565b6008602052806000526040600020600091509050806000015490806001015490806002018054611eba906140be565b80601f0160208091040260200160405190810160405280929190818152602001828054611ee6906140be565b8015611f335780601f10611f0857610100808354040283529160200191611f33565b820191906000526020600020905b815481529060010190602001808311611f1657829003601f168201915b505050505090806003018054611f48906140be565b80601f0160208091040260200160405190810160405280929190818152602001828054611f74906140be565b8015611fc15780601f10611f9657610100808354040283529160200191611fc1565b820191906000526020600020905b815481529060010190602001808311611fa457829003601f168201915b505050505090806004018054611fd6906140be565b80601f0160208091040260200160405190810160405280929190818152602001828054612002906140be565b801561204f5780601f106120245761010080835404028352916020019161204f565b820191906000526020600020905b81548152906001019060200180831161203257829003601f168201915b505050505090806005015490806006015490806007015490806008018054612076906140be565b80601f01602080910402602001604051908101604052809291908181526020018280546120a2906140be565b80156120ef5780601f106120c4576101008083540402835291602001916120ef565b820191906000526020600020905b8154815290600101906020018083116120d257829003601f168201915b505050505090806009018054612104906140be565b80601f0160208091040260200160405190810160405280929190818152602001828054612130906140be565b801561217d5780601f106121525761010080835404028352916020019161217d565b820191906000526020600020905b81548152906001019060200180831161216057829003601f168201915b50505050509080600a01549080600b015490508c565b600f6020528060005260406000206000915090508060000154908060010154908060020154908060030154908060040180546121ce906140be565b80601f01602080910402602001604051908101604052809291908181526020018280546121fa906140be565b80156122475780601f1061221c57610100808354040283529160200191612247565b820191906000526020600020905b81548152906001019060200180831161222a57829003601f168201915b50505050509080600501805461225c906140be565b80601f0160208091040260200160405190810160405280929190818152602001828054612288906140be565b80156122d55780601f106122aa576101008083540402835291602001916122d5565b820191906000526020600020905b8154815290600101906020018083116122b857829003601f168201915b5050505050908060060180546122ea906140be565b80601f0160208091040260200160405190810160405280929190818152602001828054612316906140be565b80156123635780601f1061233857610100808354040283529160200191612363565b820191906000526020600020905b81548152906001019060200180831161234657829003601f168201915b5050505050905087565b606060005b600054811015612415578380519060200120600760008381526020019081526020016000206002016040516123a79190613aaa565b60405180910390201480156123ec57508280519060200120600760008381526020019081526020016000206003016040516123e29190613aaa565b6040518091039020145b15612402576123fa81612d44565b91505061244f565b808061240d90614121565b915050612372565b506040518060400160405280600581526020017f46616c736500000000000000000000000000000000000000000000000000000081525090505b92915050565b60005481565b600a602052806000526040600020600091509050806000015490806001015490806002015490806003018054612490906140be565b80601f01602080910402602001604051908101604052809291908181526020018280546124bc906140be565b80156125095780601f106124de57610100808354040283529160200191612509565b820191906000526020600020905b8154815290600101906020018083116124ec57829003601f168201915b50505050509080600401805461251e906140be565b80601f016020809104026020016040519081016040528092919081815260200182805461254a906140be565b80156125975780601f1061256c57610100808354040283529160200191612597565b820191906000526020600020905b81548152906001019060200180831161257a57829003601f168201915b5050505050908060050180546125ac906140be565b80601f01602080910402602001604051908101604052809291908181526020018280546125d8906140be565b80156126255780601f106125fa57610100808354040283529160200191612625565b820191906000526020600020905b81548152906001019060200180831161260857829003601f168201915b50505050509080600601805461263a906140be565b80601f0160208091040260200160405190810160405280929190818152602001828054612666906140be565b80156126b35780601f10612688576101008083540402835291602001916126b3565b820191906000526020600020905b81548152906001019060200180831161269657829003601f168201915b5050505050908060070154908060080154905089565b806007600084815260200190815260200160002060050190805190602001906126f3929190612f6f565b505050565b81600760008581526020019081526020016000206006019080519060200190612722929190612f6f565b50806007600085815260200190815260200160002060070181905550505050565b600c6020528060005260406000206000915090508054612762906140be565b80601f016020809104026020016040519081016040528092919081815260200182805461278e906140be565b80156127db5780601f106127b0576101008083540402835291602001916127db565b820191906000526020600020905b8154815290600101906020018083116127be57829003601f168201915b505050505081565b60045481565b600d602052806000526040600020600091509050806000015490806001018054612812906140be565b80601f016020809104026020016040519081016040528092919081815260200182805461283e906140be565b801561288b5780601f106128605761010080835404028352916020019161288b565b820191906000526020600020905b81548152906001019060200180831161286e57829003601f168201915b5050505050908060020180546128a0906140be565b80601f01602080910402602001604051908101604052809291908181526020018280546128cc906140be565b80156129195780601f106128ee57610100808354040283529160200191612919565b820191906000526020600020905b8154815290600101906020018083116128fc57829003601f168201915b50505050509080600301805461292e906140be565b80601f016020809104026020016040519081016040528092919081815260200182805461295a906140be565b80156129a75780601f1061297c576101008083540402835291602001916129a7565b820191906000526020600020905b81548152906001019060200180831161298a57829003601f168201915b5050505050905084565b600b6020528060005260406000206000915090508060000180546129d4906140be565b80601f0160208091040260200160405190810160405280929190818152602001828054612a00906140be565b8015612a4d5780601f10612a2257610100808354040283529160200191612a4d565b820191906000526020600020905b815481529060010190602001808311612a3057829003601f168201915b505050505090806001018054612a62906140be565b80601f0160208091040260200160405190810160405280929190818152602001828054612a8e906140be565b8015612adb5780601f10612ab057610100808354040283529160200191612adb565b820191906000526020600020905b815481529060010190602001808311612abe57829003601f168201915b5050505050905082565b600e602052806000526040600020600091509050806000015490806001015490806002015490806003018054612b1a906140be565b80601f0160208091040260200160405190810160405280929190818152602001828054612b46906140be565b8015612b935780601f10612b6857610100808354040283529160200191612b93565b820191906000526020600020905b815481529060010190602001808311612b7657829003601f168201915b5050505050905084565b606060005b600054811015612c0957828051906020012060076000838152602001908152602001600020600201604051612bd79190613aaa565b60405180910390201415612bf657612bee81612d44565b915050612c43565b8080612c0190614121565b915050612ba2565b506040518060400160405280600581526020017f46616c736500000000000000000000000000000000000000000000000000000081525090505b919050565b6060600084905060008484612c5d919061400c565b67ffffffffffffffff811115612c7657612c75614226565b5b6040519080825280601f01601f191660200182016040528015612ca85781602001600182028036833780820191505090505b50905060008590505b84811015612d3757828181518110612ccc57612ccb6141f7565b5b602001015160f81c60f81b828783612ce4919061400c565b81518110612cf557612cf46141f7565b5b60200101907effffffffffffffffffffffffffffffffffffffffffffffffffffffffffffff1916908160001a9053508080612d2f90614121565b915050612cb1565b5080925050509392505050565b606060006001612d5384612e1c565b01905060008167ffffffffffffffff811115612d7257612d71614226565b5b6040519080825280601f01601f191660200182016040528015612da45781602001600182028036833780820191505090505b509050600082602001820190505b600115612e11578080600190039150507f3031323334353637383961626364656600000000000000000000000000000000600a86061a8153600a8581612dfb57612dfa614199565b5b0494506000851415612e0c57612e11565b612db2565b819350505050919050565b600080600090507a184f03e93ff9f4daa797ed6e38ed64bf6a1f0100000000000000008310612e7a577a184f03e93ff9f4daa797ed6e38ed64bf6a1f0100000000000000008381612e7057612e6f614199565b5b0492506040810190505b6d04ee2d6d415b85acef81000000008310612eb7576d04ee2d6d415b85acef81000000008381612ead57612eac614199565b5b0492506020810190505b662386f26fc100008310612ee657662386f26fc100008381612edc57612edb614199565b5b0492506010810190505b6305f5e1008310612f0f576305f5e1008381612f0557612f04614199565b5b0492506008810190505b6127108310612f34576127108381612f2a57612f29614199565b5b0492506004810190505b60648310612f575760648381612f4d57612f4c614199565b5b0492506002810190505b600a8310612f66576001810190505b80915050919050565b828054612f7b906140be565b90600052602060002090601f016020900481019282612f9d5760008555612fe4565b82601f10612fb657805160ff1916838001178555612fe4565b82800160010185558215612fe4579182015b82811115612fe3578251825591602001919060010190612fc8565b5b509050612ff19190613035565b5090565b508054613001906140be565b6000825580601f106130135750613032565b601f0160209004906000526020600020908101906130319190613035565b5b50565b5b8082111561304e576000816000905550600101613036565b5090565b600061306561306084613f10565b613eeb565b9050828152602081018484840111156130815761308061425a565b5b61308c84828561407c565b509392505050565b600082601f8301126130a9576130a8614255565b5b81356130b9848260208601613052565b91505092915050565b6000813590506130d18161427a565b92915050565b6000602082840312156130ed576130ec614264565b5b600082013567ffffffffffffffff81111561310b5761310a61425f565b5b61311784828501613094565b91505092915050565b6000806040838503121561313757613136614264565b5b600083013567ffffffffffffffff8111156131555761315461425f565b5b61316185828601613094565b925050602083013567ffffffffffffffff8111156131825761318161425f565b5b61318e85828601613094565b9150509250929050565b6000806000606084860312156131b1576131b0614264565b5b600084013567ffffffffffffffff8111156131cf576131ce61425f565b5b6131db86828701613094565b935050602084013567ffffffffffffffff8111156131fc576131fb61425f565b5b61320886828701613094565b925050604084013567ffffffffffffffff8111156132295761322861425f565b5b61323586828701613094565b9150509250925092565b60006020828403121561325557613254614264565b5b6000613263848285016130c2565b91505092915050565b6000806040838503121561328357613282614264565b5b6000613291858286016130c2565b925050602083013567ffffffffffffffff8111156132b2576132b161425f565b5b6132be85828601613094565b9150509250929050565b600080600080608085870312156132e2576132e1614264565b5b60006132f0878288016130c2565b945050602085013567ffffffffffffffff8111156133115761331061425f565b5b61331d87828801613094565b935050604085013567ffffffffffffffff81111561333e5761333d61425f565b5b61334a87828801613094565b925050606085013567ffffffffffffffff81111561336b5761336a61425f565b5b61337787828801613094565b91505092959194509250565b600080600080600060a0868803121561339f5761339e614264565b5b60006133ad888289016130c2565b955050602086013567ffffffffffffffff8111156133ce576133cd61425f565b5b6133da88828901613094565b945050604086013567ffffffffffffffff8111156133fb576133fa61425f565b5b61340788828901613094565b935050606086013567ffffffffffffffff8111156134285761342761425f565b5b61343488828901613094565b9250506080613445888289016130c2565b9150509295509295909350565b600080600080600080600080610100898b03121561347357613472614264565b5b60006134818b828c016130c2565b985050602089013567ffffffffffffffff8111156134a2576134a161425f565b5b6134ae8b828c01613094565b975050604089013567ffffffffffffffff8111156134cf576134ce61425f565b5b6134db8b828c01613094565b965050606089013567ffffffffffffffff8111156134fc576134fb61425f565b5b6135088b828c01613094565b95505060806135198b828c016130c2565b94505060a061352a8b828c016130c2565b93505060c061353b8b828c016130c2565b92505060e089013567ffffffffffffffff81111561355c5761355b61425f565b5b6135688b828c01613094565b9150509295985092959890939650565b60008060006060848603121561359157613590614264565b5b600061359f868287016130c2565b935050602084013567ffffffffffffffff8111156135c0576135bf61425f565b5b6135cc86828701613094565b92505060406135dd868287016130c2565b9150509250925092565b6000806000806080858703121561360157613600614264565b5b600061360f878288016130c2565b945050602085013567ffffffffffffffff8111156136305761362f61425f565b5b61363c87828801613094565b935050604061364d878288016130c2565b925050606061365e878288016130c2565b91505092959194509250565b60008060006060848603121561368357613682614264565b5b6000613691868287016130c2565b93505060206136a2868287016130c2565b925050604084013567ffffffffffffffff8111156136c3576136c261425f565b5b6136cf86828701613094565b9150509250925092565b600080600080600080600060e0888a0312156136f8576136f7614264565b5b60006137068a828b016130c2565b97505060206137178a828b016130c2565b965050604088013567ffffffffffffffff8111156137385761373761425f565b5b6137448a828b01613094565b955050606088013567ffffffffffffffff8111156137655761376461425f565b5b6137718a828b01613094565b945050608088013567ffffffffffffffff8111156137925761379161425f565b5b61379e8a828b01613094565b93505060a088013567ffffffffffffffff8111156137bf576137be61425f565b5b6137cb8a828b01613094565b92505060c06137dc8a828b016130c2565b91505092959891949750929550565b6000806000806080858703121561380557613804614264565b5b6000613813878288016130c2565b9450506020613824878288016130c2565b935050604085013567ffffffffffffffff8111156138455761384461425f565b5b61385187828801613094565b9250506060613862878288016130c2565b91505092959194509250565b60008060008060008060c0878903121561388b5761388a614264565b5b600061389989828a016130c2565b96505060206138aa89828a016130c2565b95505060406138bb89828a016130c2565b945050606087013567ffffffffffffffff8111156138dc576138db61425f565b5b6138e889828a01613094565b935050608087013567ffffffffffffffff8111156139095761390861425f565b5b61391589828a01613094565b92505060a087013567ffffffffffffffff8111156139365761393561425f565b5b61394289828a01613094565b9150509295509295509295565b600061395b8383613a8c565b60208301905092915050565b61397081614040565b82525050565b600061398182613f66565b61398b8185613f89565b935061399683613f41565b8060005b838110156139c75781516139ae888261394f565b97506139b983613f7c565b92505060018101905061399a565b5085935050505092915050565b600081546139e1816140be565b6139eb8186613f9a565b94506001821660008114613a065760018114613a1757613a4a565b60ff19831686528186019350613a4a565b613a2085613f51565b60005b83811015613a4257815481890152600182019150602081019050613a23565b838801955050505b50505092915050565b6000613a5e82613f71565b613a688185613fa5565b9350613a7881856020860161408b565b613a8181614269565b840191505092915050565b613a9581614072565b82525050565b613aa481614072565b82525050565b6000613ab682846139d4565b915081905092915050565b6000602082019050613ad66000830184613967565b92915050565b60006020820190508181036000830152613af68184613976565b905092915050565b60006020820190508181036000830152613b188184613a53565b905092915050565b60006040820190508181036000830152613b3a8185613a53565b90508181036020830152613b4e8184613a53565b90509392505050565b600060a0820190508181036000830152613b718188613a53565b9050613b806020830187613a9b565b8181036040830152613b928186613a53565b90508181036060830152613ba68185613a53565b90508181036080830152613bba8184613a53565b90509695505050505050565b6000602082019050613bdb6000830184613a9b565b92915050565b6000608082019050613bf66000830187613a9b565b8181036020830152613c088186613a53565b90508181036040830152613c1c8185613a53565b90508181036060830152613c308184613a53565b905095945050505050565b600061018082019050613c51600083018f613a9b565b613c5e602083018e613a9b565b8181036040830152613c70818d613a53565b90508181036060830152613c84818c613a53565b90508181036080830152613c98818b613a53565b9050613ca760a083018a613a9b565b613cb460c0830189613a9b565b613cc160e0830188613a9b565b818103610100830152613cd48187613a53565b9050818103610120830152613ce98186613a53565b9050613cf9610140830185613a9b565b613d07610160830184613a9b565b9d9c50505050505050505050505050565b6000608082019050613d2d6000830187613a9b565b613d3a6020830186613a9b565b613d476040830185613a9b565b8181036060830152613d598184613a53565b905095945050505050565b600061012082019050613d7a600083018c613a9b565b613d87602083018b613a9b565b613d94604083018a613a9b565b8181036060830152613da68189613a53565b90508181036080830152613dba8188613a53565b905081810360a0830152613dce8187613a53565b905081810360c0830152613de28186613a53565b9050613df160e0830185613a9b565b613dff610100830184613a9b565b9a9950505050505050505050565b600060a082019050613e226000830188613a9b565b613e2f6020830187613a9b565b613e3c6040830186613a9b565b613e496060830185613a9b565b8181036080830152613e5b8184613a53565b90509695505050505050565b600060e082019050613e7c600083018a613a9b565b613e896020830189613a9b565b613e966040830188613a9b565b613ea36060830187613a9b565b8181036080830152613eb58186613a53565b905081810360a0830152613ec98185613a53565b905081810360c0830152613edd8184613a53565b905098975050505050505050565b6000613ef5613f06565b9050613f0182826140f0565b919050565b6000604051905090565b600067ffffffffffffffff821115613f2b57613f2a614226565b5b613f3482614269565b9050602081019050919050565b6000819050602082019050919050565b60008190508160005260206000209050919050565b600081519050919050565b600081519050919050565b6000602082019050919050565b600082825260208201905092915050565b600081905092915050565b600082825260208201905092915050565b6000613fc182614072565b9150613fcc83614072565b9250827fffffffffffffffffffffffffffffffffffffffffffffffffffffffffffffffff038211156140015761400061416a565b5b828201905092915050565b600061401782614072565b915061402283614072565b9250828210156140355761403461416a565b5b828203905092915050565b600061404b82614052565b9050919050565b600073ffffffffffffffffffffffffffffffffffffffff82169050919050565b6000819050919050565b82818337600083830152505050565b60005b838110156140a957808201518184015260208101905061408e565b838111156140b8576000848401525b50505050565b600060028204905060018216806140d657607f821691505b602082108114156140ea576140e96141c8565b5b50919050565b6140f982614269565b810181811067ffffffffffffffff8211171561411857614117614226565b5b80604052505050565b600061412c82614072565b91507fffffffffffffffffffffffffffffffffffffffffffffffffffffffffffffffff82141561415f5761415e61416a565b5b600182019050919050565b7f4e487b7100000000000000000000000000000000000000000000000000000000600052601160045260246000fd5b7f4e487b7100000000000000000000000000000000000000000000000000000000600052601260045260246000fd5b7f4e487b7100000000000000000000000000000000000000000000000000000000600052602260045260246000fd5b7f4e487b7100000000000000000000000000000000000000000000000000000000600052603260045260246000fd5b7f4e487b7100000000000000000000000000000000000000000000000000000000600052604160045260246000fd5b600080fd5b600080fd5b600080fd5b600080fd5b6000601f19601f8301169050919050565b61428381614072565b811461428e57600080fd5b5056fe68747470733a2f2f692e706f7374696d672e63632f537378477735635a2f706572736f6e2e6a7067a2646970667358221220f276842a5763615abf9f2e785b9a20afed802e45c5a3c6f06d9b482feb82fb8864736f6c63430008060033",
  "linkReferences": {},
  "deployedLinkReferences": {}
}