{"contracts/WaveData.sol":{"WaveData":{"abi":[{"inputs":[{"internalType":"string","name":"email","type":"string"}],"name":"CheckEmail","outputs":[{"internalType":"string","name":"","type":"string"}],"stateMutability":"view","type":"function"},{"inputs":[{"internalType":"string","name":"full_name","type":"string"},{"internalType":"string","name":"email","type":"string"},{"internalType":"string","name":"password","type":"string"}],"name":"CreateAccount","outputs":[],"stateMutability":"nonpayable","type":"function"},{"inputs":[{"internalType":"uint256","name":"survey_id","type":"uint256"},{"internalType":"uint256","name":"user_id","type":"uint256"},{"internalType":"string","name":"date","type":"string"},{"internalType":"uint256","name":"trial_id","type":"uint256"}],"name":"CreateCompletedSurveys","outputs":[],"stateMutability":"nonpayable","type":"function"},{"inputs":[{"internalType":"uint256","name":"trial_id","type":"uint256"},{"internalType":"uint256","name":"user_id","type":"uint256"},{"internalType":"string","name":"date","type":"string"}],"name":"CreateOngoingTrail","outputs":[],"stateMutability":"nonpayable","type":"function"},{"inputs":[{"internalType":"uint256","name":"survey_id","type":"uint256"},{"internalType":"string","name":"metadata","type":"string"}],"name":"CreateOrSaveSections","outputs":[],"stateMutability":"nonpayable","type":"function"},{"inputs":[{"internalType":"uint256","name":"trial_id","type":"uint256"},{"internalType":"uint256","name":"user_id","type":"uint256"},{"internalType":"uint256","name":"survey_id","type":"uint256"},{"internalType":"string","name":"section_id","type":"string"},{"internalType":"string","name":"question_id","type":"string"},{"internalType":"string","name":"answer","type":"string"}],"name":"CreateQuestionAnswer","outputs":[],"stateMutability":"nonpayable","type":"function"},{"inputs":[{"internalType":"uint256","name":"trial_id","type":"uint256"},{"internalType":"uint256","name":"user_id","type":"uint256"},{"internalType":"string","name":"name","type":"string"},{"internalType":"string","name":"description","type":"string"},{"internalType":"string","name":"date","type":"string"},{"internalType":"string","name":"image","type":"string"},{"internalType":"uint256","name":"reward","type":"uint256"}],"name":"CreateSurvey","outputs":[],"stateMutability":"nonpayable","type":"function"},{"inputs":[{"internalType":"string","name":"name","type":"string"},{"internalType":"string","name":"image","type":"string"}],"name":"CreateSurveyCategory","outputs":[],"stateMutability":"nonpayable","type":"function"},{"inputs":[{"internalType":"uint256","name":"user_id","type":"uint256"},{"internalType":"string","name":"image","type":"string"},{"internalType":"string","name":"title","type":"string"},{"internalType":"string","name":"description","type":"string"},{"internalType":"uint256","name":"contributors","type":"uint256"},{"internalType":"uint256","name":"audience","type":"uint256"},{"internalType":"uint256","name":"budget","type":"uint256"},{"internalType":"string","name":"date","type":"string"}],"name":"CreateTrial","outputs":[],"stateMutability":"nonpayable","type":"function"},{"inputs":[{"internalType":"uint256","name":"user_id","type":"uint256"}],"name":"GetOngoingTrial","outputs":[{"internalType":"string","name":"","type":"string"}],"stateMutability":"view","type":"function"},{"inputs":[{"internalType":"string","name":"email","type":"string"},{"internalType":"string","name":"password","type":"string"}],"name":"Login","outputs":[{"internalType":"string","name":"","type":"string"}],"stateMutability":"view","type":"function"},{"inputs":[{"internalType":"uint256","name":"trial_id","type":"uint256"},{"internalType":"string","name":"audience_info","type":"string"}],"name":"UpdateAudience","outputs":[],"stateMutability":"nonpayable","type":"function"},{"inputs":[{"internalType":"uint256","name":"user_id","type":"uint256"},{"internalType":"string","name":"given_name","type":"string"},{"internalType":"string","name":"identifier","type":"string"},{"internalType":"string","name":"patient_id","type":"string"}],"name":"UpdateFhir","outputs":[],"stateMutability":"nonpayable","type":"function"},{"inputs":[{"internalType":"uint256","name":"userid","type":"uint256"},{"internalType":"string","name":"privatekey","type":"string"}],"name":"UpdatePrivatekey","outputs":[],"stateMutability":"nonpayable","type":"function"},{"inputs":[{"internalType":"uint256","name":"trial_id","type":"uint256"},{"internalType":"string","name":"reward_type","type":"string"},{"internalType":"uint256","name":"reward_price","type":"uint256"},{"internalType":"uint256","name":"total_spending_limit","type":"uint256"}],"name":"UpdateReward","outputs":[],"stateMutability":"nonpayable","type":"function"},{"inputs":[{"internalType":"uint256","name":"survey_id","type":"uint256"},{"internalType":"string","name":"name","type":"string"},{"internalType":"string","name":"description","type":"string"},{"internalType":"string","name":"image","type":"string"},{"internalType":"uint256","name":"reward","type":"uint256"}],"name":"UpdateSurvey","outputs":[],"stateMutability":"nonpayable","type":"function"},{"inputs":[{"internalType":"uint256","name":"trial_id","type":"uint256"},{"internalType":"string","name":"image","type":"string"},{"internalType":"string","name":"title","type":"string"},{"internalType":"string","name":"description","type":"string"},{"internalType":"uint256","name":"budget","type":"uint256"}],"name":"UpdateTrial","outputs":[],"stateMutability":"nonpayable","type":"function"},{"inputs":[{"internalType":"uint256","name":"user_id","type":"uint256"},{"internalType":"string","name":"image","type":"string"},{"internalType":"uint256","name":"credits","type":"uint256"}],"name":"UpdateUser","outputs":[],"stateMutability":"nonpayable","type":"function"},{"inputs":[],"name":"_AnsweredIds","outputs":[{"internalType":"uint256","name":"","type":"uint256"}],"stateMutability":"view","type":"function"},{"inputs":[],"name":"_CompletedSurveyIds","outputs":[{"internalType":"uint256","name":"","type":"uint256"}],"stateMutability":"view","type":"function"},{"inputs":[],"name":"_OngoingIds","outputs":[{"internalType":"uint256","name":"","type":"uint256"}],"stateMutability":"view","type":"function"},{"inputs":[],"name":"_SurveyCategoryIds","outputs":[{"internalType":"uint256","name":"","type":"uint256"}],"stateMutability":"view","type":"function"},{"inputs":[],"name":"_SurveyIds","outputs":[{"internalType":"uint256","name":"","type":"uint256"}],"stateMutability":"view","type":"function"},{"inputs":[],"name":"_TrialIds","outputs":[{"internalType":"uint256","name":"","type":"uint256"}],"stateMutability":"view","type":"function"},{"inputs":[],"name":"_UserIds","outputs":[{"internalType":"uint256","name":"","type":"uint256"}],"stateMutability":"view","type":"function"},{"inputs":[{"internalType":"uint256","name":"","type":"uint256"}],"name":"_categoryMap","outputs":[{"internalType":"string","name":"name","type":"string"},{"internalType":"string","name":"image","type":"string"}],"stateMutability":"view","type":"function"},{"inputs":[{"internalType":"uint256","name":"","type":"uint256"}],"name":"_completedsurveyMap","outputs":[{"internalType":"uint256","name":"completed_survey_id","type":"uint256"},{"internalType":"uint256","name":"trial_id","type":"uint256"},{"internalType":"uint256","name":"user_id","type":"uint256"},{"internalType":"uint256","name":"survey_id","type":"uint256"},{"internalType":"string","name":"date","type":"string"}],"stateMutability":"view","type":"function"},{"inputs":[{"internalType":"uint256","name":"","type":"uint256"}],"name":"_fhirMap","outputs":[{"internalType":"uint256","name":"user_id","type":"uint256"},{"internalType":"string","name":"given_name","type":"string"},{"internalType":"string","name":"identifier","type":"string"},{"internalType":"string","name":"patient_id","type":"string"}],"stateMutability":"view","type":"function"},{"inputs":[{"internalType":"uint256","name":"","type":"uint256"}],"name":"_ongoingMap","outputs":[{"internalType":"uint256","name":"ongoing_id","type":"uint256"},{"internalType":"uint256","name":"trial_id","type":"uint256"},{"internalType":"uint256","name":"user_id","type":"uint256"},{"internalType":"string","name":"date","type":"string"}],"stateMutability":"view","type":"function"},{"inputs":[{"internalType":"uint256","name":"","type":"uint256"}],"name":"_questionanswerdMap","outputs":[{"internalType":"uint256","name":"answer_id","type":"uint256"},{"internalType":"uint256","name":"trial_id","type":"uint256"},{"internalType":"uint256","name":"user_id","type":"uint256"},{"internalType":"uint256","name":"survey_id","type":"uint256"},{"internalType":"string","name":"section_id","type":"string"},{"internalType":"string","name":"question_id","type":"string"},{"internalType":"string","name":"answer","type":"string"}],"stateMutability":"view","type":"function"},{"inputs":[{"internalType":"uint256","name":"","type":"uint256"}],"name":"_sectionsMap","outputs":[{"internalType":"string","name":"","type":"string"}],"stateMutability":"view","type":"function"},{"inputs":[{"internalType":"uint256","name":"","type":"uint256"}],"name":"_surveyMap","outputs":[{"internalType":"uint256","name":"survey_id","type":"uint256"},{"internalType":"uint256","name":"trial_id","type":"uint256"},{"internalType":"uint256","name":"user_id","type":"uint256"},{"internalType":"string","name":"name","type":"string"},{"internalType":"string","name":"description","type":"string"},{"internalType":"string","name":"date","type":"string"},{"internalType":"string","name":"image","type":"string"},{"internalType":"uint256","name":"reward","type":"uint256"},{"internalType":"uint256","name":"submission","type":"uint256"}],"stateMutability":"view","type":"function"},{"inputs":[{"internalType":"uint256","name":"","type":"uint256"}],"name":"_trialAudienceMap","outputs":[{"internalType":"string","name":"","type":"string"}],"stateMutability":"view","type":"function"},{"inputs":[{"internalType":"uint256","name":"","type":"uint256"}],"name":"_trialMap","outputs":[{"internalType":"uint256","name":"trial_id","type":"uint256"},{"internalType":"uint256","name":"user_id","type":"uint256"},{"internalType":"string","name":"image","type":"string"},{"internalType":"string","name":"title","type":"string"},{"internalType":"string","name":"description","type":"string"},{"internalType":"uint256","name":"contributors","type":"uint256"},{"internalType":"uint256","name":"audience","type":"uint256"},{"internalType":"uint256","name":"budget","type":"uint256"},{"internalType":"string","name":"date","type":"string"},{"internalType":"string","name":"reward_type","type":"string"},{"internalType":"uint256","name":"reward_price","type":"uint256"},{"internalType":"uint256","name":"total_spending_limit","type":"uint256"}],"stateMutability":"view","type":"function"},{"inputs":[{"internalType":"uint256","name":"user_id","type":"uint256"}],"name":"getAllCompletedSurveysIDByUser","outputs":[{"internalType":"uint256[]","name":"","type":"uint256[]"}],"stateMutability":"view","type":"function"},{"inputs":[{"internalType":"uint256","name":"trial_id","type":"uint256"}],"name":"getAllSurveysIDByTrial","outputs":[{"internalType":"uint256[]","name":"","type":"uint256[]"}],"stateMutability":"view","type":"function"},{"inputs":[{"internalType":"uint256","name":"user_id","type":"uint256"}],"name":"getUserDetails","outputs":[{"internalType":"string","name":"","type":"string"},{"internalType":"uint256","name":"","type":"uint256"},{"internalType":"string","name":"","type":"string"},{"internalType":"string","name":"","type":"string"},{"internalType":"string","name":"","type":"string"}],"stateMutability":"view","type":"function"},{"inputs":[],"name":"owner","outputs":[{"internalType":"address","name":"","type":"address"}],"stateMutability":"view","type":"function"},{"inputs":[],"name":"reset_all","outputs":[],"stateMutability":"nonpayable","type":"function"}],"devdoc":{"kind":"dev","methods":{},"version":1},"evm":{"bytecode":{"linkReferences":{},"object":"608060405234801561001057600080fd5b506142ef806100206000396000f3fe608060405234801561001057600080fd5b506004361061023d5760003560e01c806390d6cf051161013b578063ce08988c116100b8578063eb6b28701161007c578063eb6b2870146106f3578063ebe197ca14610711578063f0d8e87314610744578063f6aaa80414610775578063f8b7800f146107a85761023d565b8063ce08988c14610635578063de7acfd714610653578063e1da993f1461068b578063e57f973f146106a7578063ea7efaa6146106c35761023d565b8063b16060a6116100ff578063b16060a61461056c578063b6e604bd14610576578063bed208fe14610594578063c13b2836146105cf578063ccef4218146106055761023d565b806390d6cf05146104c6578063a5f3fc7d146104fa578063a92e1c4c14610516578063ac7aef0e14610532578063ad23f8f9146105505761023d565b806349b9b07b116101c9578063682d562b1161018d578063682d562b146104105780636c067b48146104405780637d423e101461045c5780638da5cb5b14610478578063902841d4146104965761023d565b806349b9b07b146103705780634f8b36eb146103a057806355391705146103bc5780635f27aea1146103d857806366cad734146103f45761023d565b80632a8caf4a116102105780632a8caf4a146102d05780632c02dd60146103005780633896f1301461031c5780633eebd0d01461033857806345948fde146103545761023d565b806301c66109146102425780631429f775146102605780631c1a9f7b1461027e57806329b36423146102b2575b600080fd5b61024a6107d8565b6040516102579190613bc6565b60405180910390f35b6102686107de565b6040516102759190613bc6565b60405180910390f35b6102986004803603810190610293919061323f565b6107e4565b6040516102a9959493929190613b57565b60405180910390f35b6102ba610b08565b6040516102c79190613bc6565b60405180910390f35b6102ea60048036038101906102e5919061323f565b610b0e565b6040516102f79190613afe565b60405180910390f35b61031a60048036038101906103159190613452565b610bae565b005b610336600480360381019061033191906136d9565b610d4d565b005b610352600480360381019061034d91906135e7565b610e70565b005b61036e60048036038101906103699190613198565b610ed7565b005b61038a6004803603810190610385919061323f565b611070565b6040516103979190613adc565b60405180910390f35b6103ba60048036038101906103b59190613120565b611188565b005b6103d660048036038101906103d19190613383565b61120b565b005b6103f260048036038101906103ed9190613383565b6112ae565b005b61040e6004803603810190610409919061326c565b611351565b005b61042a6004803603810190610425919061323f565b61137d565b6040516104379190613adc565b60405180910390f35b61045a6004803603810190610455919061386e565b611495565b005b610476600480360381019061047191906137eb565b611581565b005b61048061167e565b60405161048d9190613ac1565b60405180910390f35b6104b060048036038101906104ab919061323f565b6116a4565b6040516104bd9190613afe565b60405180910390f35b6104e060048036038101906104db919061323f565b61174a565b6040516104f1959493929190613e0d565b60405180910390f35b610514600480360381019061050f919061366a565b611808565b005b610530600480360381019061052b91906132c8565b6118c9565b005b61053a61196b565b6040516105479190613bc6565b60405180910390f35b61056a6004803603810190610565919061326c565b611971565b005b61057461199d565b005b61057e611e85565b60405161058b9190613bc6565b60405180910390f35b6105ae60048036038101906105a9919061323f565b611e8b565b6040516105c69c9b9a99989796959493929190613c3b565b60405180910390f35b6105e960048036038101906105e4919061323f565b612193565b6040516105fc9796959493929190613e67565b60405180910390f35b61061f600480360381019061061a9190613120565b61236d565b60405161062c9190613afe565b60405180910390f35b61063d612455565b60405161064a9190613bc6565b60405180910390f35b61066d6004803603810190610668919061323f565b61245b565b60405161068299989796959493929190613d64565b60405180910390f35b6106a560048036038101906106a0919061326c565b6126c9565b005b6106c160048036038101906106bc9190613578565b6126f8565b005b6106dd60048036038101906106d8919061323f565b612743565b6040516106ea9190613afe565b60405180910390f35b6106fb6127e3565b6040516107089190613bc6565b60405180910390f35b61072b6004803603810190610726919061323f565b6127e9565b60405161073b9493929190613be1565b60405180910390f35b61075e6004803603810190610759919061323f565b6129b1565b60405161076c929190613b20565b60405180910390f35b61078f600480360381019061078a919061323f565b612ae5565b60405161079f9493929190613d18565b60405180910390f35b6107c260048036038101906107bd91906130d7565b612b9d565b6040516107cf9190613afe565b60405180910390f35b60055481565b60025481565b606060006060806060600060405180602001604052806000815250905060405180602001604052806000815250805190602001206007600089815260200190815260200160002060050160405161083b9190613aaa565b6040518091039020146108f6576108f360076000898152602001908152602001600020600501805461086c906140be565b80601f0160208091040260200160405190810160405280929190818152602001828054610898906140be565b80156108e55780601f106108ba576101008083540402835291602001916108e5565b820191906000526020600020905b8154815290600101906020018083116108c857829003601f168201915b50505050506000600a612c48565b90505b600760008881526020019081526020016000206006016007600089815260200190815260200160002060070154600760008a8152602001908152602001600020600101600760008b81526020019081526020016000206002018484805461095c906140be565b80601f0160208091040260200160405190810160405280929190818152602001828054610988906140be565b80156109d55780601f106109aa576101008083540402835291602001916109d5565b820191906000526020600020905b8154815290600101906020018083116109b857829003601f168201915b505050505094508280546109e8906140be565b80601f0160208091040260200160405190810160405280929190818152602001828054610a14906140be565b8015610a615780601f10610a3657610100808354040283529160200191610a61565b820191906000526020600020905b815481529060010190602001808311610a4457829003601f168201915b50505050509250818054610a74906140be565b80601f0160208091040260200160405190810160405280929190818152602001828054610aa0906140be565b8015610aed5780601f10610ac257610100808354040283529160200191610aed565b820191906000526020600020905b815481529060010190602001808311610ad057829003601f168201915b50505050509150955095509550955095505091939590929450565b60035481565b60096020528060005260406000206000915090508054610b2d906140be565b80601f0160208091040260200160405190810160405280929190818152602001828054610b59906140be565b8015610ba65780601f10610b7b57610100808354040283529160200191610ba6565b820191906000526020600020905b815481529060010190602001808311610b8957829003601f168201915b505050505081565b60405180610180016040528060015481526020018981526020018881526020018781526020018681526020018581526020018481526020018381526020018281526020016040518060400160405280600381526020017f44455600000000000000000000000000000000000000000000000000000000008152508152602001600081526020018381525060086000600154815260200190815260200160002060008201518160000155602082015181600101556040820151816002019080519060200190610c7d929190612f6f565b506060820151816003019080519060200190610c9a929190612f6f565b506080820151816004019080519060200190610cb7929190612f6f565b5060a0820151816005015560c0820151816006015560e08201518160070155610100820151816008019080519060200190610cf3929190612f6f565b50610120820151816009019080519060200190610d11929190612f6f565b5061014082015181600a015561016082015181600b015590505060016000815480929190610d3e90614121565b91905055505050505050505050565b60405180610120016040528060025481526020018881526020018781526020018681526020018581526020018481526020018381526020018281526020016000815250600a600060025481526020019081526020016000206000820151816000015560208201518160010155604082015181600201556060820151816003019080519060200190610ddf929190612f6f565b506080820151816004019080519060200190610dfc929190612f6f565b5060a0820151816005019080519060200190610e19929190612f6f565b5060c0820151816006019080519060200190610e36929190612f6f565b5060e08201518160070155610100820151816008015590505060026000815480929190610e6290614121565b919050555050505050505050565b82600860008681526020019081526020016000206009019080519060200190610e9a929190612f6f565b508160086000868152602001908152602001600020600a01819055508060086000868152602001908152602001600020600b018190555050505050565b60405180610100016040528060005481526020018481526020018381526020018281526020013373ffffffffffffffffffffffffffffffffffffffff16815260200160405180602001604052806000815250815260200160405180606001604052806028815260200161429260289139815260200160008152506007600080548152602001908152602001600020600082015181600001556020820151816001019080519060200190610f8b929190612f6f565b506040820151816002019080519060200190610fa8929190612f6f565b506060820151816003019080519060200190610fc5929190612f6f565b5060808201518160040160006101000a81548173ffffffffffffffffffffffffffffffffffffffff021916908373ffffffffffffffffffffffffffffffffffffffff16021790555060a0820151816005019080519060200190611029929190612f6f565b5060c0820151816006019080519060200190611046929190612f6f565b5060e0820151816007015590505060008081548092919061106690614121565b9190505550505050565b60606000805b6006548110156110c05783601060008381526020019081526020016000206002015414156110ad5781806110a990614121565b9250505b80806110b890614121565b915050611076565b5060008167ffffffffffffffff8111156110dd576110dc614226565b5b60405190808252806020026020018201604052801561110b5781602001602082028036833780820191505090505b5090506000805b60065481101561117c578560106000838152602001908152602001600020600201541415611169578083838151811061114e5761114d6141f7565b5b602002602001018181525050818061116590614121565b9250505b808061117490614121565b915050611112565b50819350505050919050565b604051806040016040528083815260200182815250600b6000600354815260200190815260200160002060008201518160000190805190602001906111ce929190612f6f565b5060208201518160010190805190602001906111eb929190612f6f565b509050506003600081548092919061120290614121565b91905055505050565b83600860008781526020019081526020016000206002019080519060200190611235929190612f6f565b5082600860008781526020019081526020016000206003019080519060200190611260929190612f6f565b508160086000878152602001908152602001600020600401908051906020019061128b929190612f6f565b508060086000878152602001908152602001600020600701819055505050505050565b83600a600087815260200190815260200160002060030190805190602001906112d8929190612f6f565b5082600a60008781526020019081526020016000206004019080519060200190611303929190612f6f565b5081600a6000878152602001908152602001600020600601908051906020019061132e929190612f6f565b5080600a6000878152602001908152602001600020600701819055505050505050565b80600c60008481526020019081526020016000209080519060200190611378929190612f6f565b505050565b60606000805b6002548110156113cd5783600a60008381526020019081526020016000206001015414156113ba5781806113b690614121565b9250505b80806113c590614121565b915050611383565b5060008167ffffffffffffffff8111156113ea576113e9614226565b5b6040519080825280602002602001820160405280156114185781602001602082028036833780820191505090505b5090506000805b6002548110156114895785600a6000838152602001908152602001600020600101541415611476578083838151811061145b5761145a6141f7565b5b602002602001018181525050818061147290614121565b9250505b808061148190614121565b91505061141f565b50819350505050919050565b6040518060e00160405280600554815260200187815260200186815260200185815260200184815260200183815260200182815250600f60006005548152602001908152602001600020600082015181600001556020820151816001015560408201518160020155606082015181600301556080820151816004019080519060200190611523929190612f6f565b5060a0820151816005019080519060200190611540929190612f6f565b5060c082015181600601908051906020019061155d929190612f6f565b509050506005600081548092919061157490614121565b9190505550505050505050565b6040518060a00160405280600654815260200182815260200184815260200185815260200183815250601060006006548152602001908152602001600020600082015181600001556020820151816001015560408201518160020155606082015181600301556080820151816004019080519060200190611603929190612f6f565b509050506001600a6000868152602001908152602001600020600801600082825461162e9190613fb6565b9250508190555081600a6000868152602001908152602001600020600501908051906020019061165f929190612f6f565b506006600081548092919061167390614121565b919050555050505050565b601160009054906101000a900473ffffffffffffffffffffffffffffffffffffffff1681565b606060005b60045481101561170b5782600e60008381526020019081526020016000206002015414156116f8576116f0600e600083815260200190815260200160002060010154612d44565b915050611745565b808061170390614121565b9150506116a9565b506040518060400160405280600581526020017f46616c736500000000000000000000000000000000000000000000000000000081525090505b919050565b6010602052806000526040600020600091509050806000015490806001015490806002015490806003015490806004018054611785906140be565b80601f01602080910402602001604051908101604052809291908181526020018280546117b1906140be565b80156117fe5780601f106117d3576101008083540402835291602001916117fe565b820191906000526020600020905b8154815290600101906020018083116117e157829003601f168201915b5050505050905085565b6040518060800160405280600454815260200184815260200183815260200182815250600e60006004548152602001908152602001600020600082015181600001556020820151816001015560408201518160020155606082015181600301908051906020019061187a929190612f6f565b5090505060016008600085815260200190815260200160002060050160008282546118a59190613fb6565b92505081905550600460008154809291906118bf90614121565b9190505550505050565b83600d60008681526020019081526020016000206000018190555082600d6000868152602001908152602001600020600101908051906020019061190e929190612f6f565b5081600d60008681526020019081526020016000206002019080519060200190611939929190612f6f565b5080600d60008681526020019081526020016000206003019080519060200190611964929190612f6f565b5050505050565b60015481565b80600960008481526020019081526020016000209080519060200190611998929190612f6f565b505050565b60005b600054811015611a5a57600760008281526020019081526020016000206000808201600090556001820160006119d69190612ff5565b6002820160006119e69190612ff5565b6003820160006119f69190612ff5565b6004820160006101000a81549073ffffffffffffffffffffffffffffffffffffffff0219169055600582016000611a2d9190612ff5565b600682016000611a3d9190612ff5565b600782016000905550508080611a5290614121565b9150506119a0565b5060005b600154811015611b1957600860008281526020019081526020016000206000808201600090556001820160009055600282016000611a9c9190612ff5565b600382016000611aac9190612ff5565b600482016000611abc9190612ff5565b600582016000905560068201600090556007820160009055600882016000611ae49190612ff5565b600982016000611af49190612ff5565b600a820160009055600b82016000905550508080611b1190614121565b915050611a5e565b5060005b600154811015611b5957600960008281526020019081526020016000206000611b469190612ff5565b8080611b5190614121565b915050611b1d565b5060005b600254811015611bf857600a600082815260200190815260200160002060008082016000905560018201600090556002820160009055600382016000611ba39190612ff5565b600482016000611bb39190612ff5565b600582016000611bc39190612ff5565b600682016000611bd39190612ff5565b6007820160009055600882016000905550508080611bf090614121565b915050611b5d565b5060005b600354811015611c4f57600b600082815260200190815260200160002060008082016000611c2a9190612ff5565b600182016000611c3a9190612ff5565b50508080611c4790614121565b915050611bfc565b5060005b600154811015611c8f57600c60008281526020019081526020016000206000611c7c9190612ff5565b8080611c8790614121565b915050611c53565b5060005b600054811015611cfe57600d6000828152602001908152602001600020600080820160009055600182016000611cc99190612ff5565b600282016000611cd99190612ff5565b600382016000611ce99190612ff5565b50508080611cf690614121565b915050611c93565b5060005b600454811015611d5d57600e600082815260200190815260200160002060008082016000905560018201600090556002820160009055600382016000611d489190612ff5565b50508080611d5590614121565b915050611d02565b5060005b600554811015611de457600f6000828152602001908152602001600020600080820160009055600182016000905560028201600090556003820160009055600482016000611daf9190612ff5565b600582016000611dbf9190612ff5565b600682016000611dcf9190612ff5565b50508080611ddc90614121565b915050611d61565b5060005b600654811015611e4b5760106000828152602001908152602001600020600080820160009055600182016000905560028201600090556003820160009055600482016000611e369190612ff5565b50508080611e4390614121565b915050611de8565b5060008081905550600060018190555060006002819055506000600381905550600060048190555060006005819055506000600681905550565b60065481565b6008602052806000526040600020600091509050806000015490806001015490806002018054611eba906140be565b80601f0160208091040260200160405190810160405280929190818152602001828054611ee6906140be565b8015611f335780601f10611f0857610100808354040283529160200191611f33565b820191906000526020600020905b815481529060010190602001808311611f1657829003601f168201915b505050505090806003018054611f48906140be565b80601f0160208091040260200160405190810160405280929190818152602001828054611f74906140be565b8015611fc15780601f10611f9657610100808354040283529160200191611fc1565b820191906000526020600020905b815481529060010190602001808311611fa457829003601f168201915b505050505090806004018054611fd6906140be565b80601f0160208091040260200160405190810160405280929190818152602001828054612002906140be565b801561204f5780601f106120245761010080835404028352916020019161204f565b820191906000526020600020905b81548152906001019060200180831161203257829003601f168201915b505050505090806005015490806006015490806007015490806008018054612076906140be565b80601f01602080910402602001604051908101604052809291908181526020018280546120a2906140be565b80156120ef5780601f106120c4576101008083540402835291602001916120ef565b820191906000526020600020905b8154815290600101906020018083116120d257829003601f168201915b505050505090806009018054612104906140be565b80601f0160208091040260200160405190810160405280929190818152602001828054612130906140be565b801561217d5780601f106121525761010080835404028352916020019161217d565b820191906000526020600020905b81548152906001019060200180831161216057829003601f168201915b50505050509080600a01549080600b015490508c565b600f6020528060005260406000206000915090508060000154908060010154908060020154908060030154908060040180546121ce906140be565b80601f01602080910402602001604051908101604052809291908181526020018280546121fa906140be565b80156122475780601f1061221c57610100808354040283529160200191612247565b820191906000526020600020905b81548152906001019060200180831161222a57829003601f168201915b50505050509080600501805461225c906140be565b80601f0160208091040260200160405190810160405280929190818152602001828054612288906140be565b80156122d55780601f106122aa576101008083540402835291602001916122d5565b820191906000526020600020905b8154815290600101906020018083116122b857829003601f168201915b5050505050908060060180546122ea906140be565b80601f0160208091040260200160405190810160405280929190818152602001828054612316906140be565b80156123635780601f1061233857610100808354040283529160200191612363565b820191906000526020600020905b81548152906001019060200180831161234657829003601f168201915b5050505050905087565b606060005b600054811015612415578380519060200120600760008381526020019081526020016000206002016040516123a79190613aaa565b60405180910390201480156123ec57508280519060200120600760008381526020019081526020016000206003016040516123e29190613aaa565b6040518091039020145b15612402576123fa81612d44565b91505061244f565b808061240d90614121565b915050612372565b506040518060400160405280600581526020017f46616c736500000000000000000000000000000000000000000000000000000081525090505b92915050565b60005481565b600a602052806000526040600020600091509050806000015490806001015490806002015490806003018054612490906140be565b80601f01602080910402602001604051908101604052809291908181526020018280546124bc906140be565b80156125095780601f106124de57610100808354040283529160200191612509565b820191906000526020600020905b8154815290600101906020018083116124ec57829003601f168201915b50505050509080600401805461251e906140be565b80601f016020809104026020016040519081016040528092919081815260200182805461254a906140be565b80156125975780601f1061256c57610100808354040283529160200191612597565b820191906000526020600020905b81548152906001019060200180831161257a57829003601f168201915b5050505050908060050180546125ac906140be565b80601f01602080910402602001604051908101604052809291908181526020018280546125d8906140be565b80156126255780601f106125fa57610100808354040283529160200191612625565b820191906000526020600020905b81548152906001019060200180831161260857829003601f168201915b50505050509080600601805461263a906140be565b80601f0160208091040260200160405190810160405280929190818152602001828054612666906140be565b80156126b35780601f10612688576101008083540402835291602001916126b3565b820191906000526020600020905b81548152906001019060200180831161269657829003601f168201915b5050505050908060070154908060080154905089565b806007600084815260200190815260200160002060050190805190602001906126f3929190612f6f565b505050565b81600760008581526020019081526020016000206006019080519060200190612722929190612f6f565b50806007600085815260200190815260200160002060070181905550505050565b600c6020528060005260406000206000915090508054612762906140be565b80601f016020809104026020016040519081016040528092919081815260200182805461278e906140be565b80156127db5780601f106127b0576101008083540402835291602001916127db565b820191906000526020600020905b8154815290600101906020018083116127be57829003601f168201915b505050505081565b60045481565b600d602052806000526040600020600091509050806000015490806001018054612812906140be565b80601f016020809104026020016040519081016040528092919081815260200182805461283e906140be565b801561288b5780601f106128605761010080835404028352916020019161288b565b820191906000526020600020905b81548152906001019060200180831161286e57829003601f168201915b5050505050908060020180546128a0906140be565b80601f01602080910402602001604051908101604052809291908181526020018280546128cc906140be565b80156129195780601f106128ee57610100808354040283529160200191612919565b820191906000526020600020905b8154815290600101906020018083116128fc57829003601f168201915b50505050509080600301805461292e906140be565b80601f016020809104026020016040519081016040528092919081815260200182805461295a906140be565b80156129a75780601f1061297c576101008083540402835291602001916129a7565b820191906000526020600020905b81548152906001019060200180831161298a57829003601f168201915b5050505050905084565b600b6020528060005260406000206000915090508060000180546129d4906140be565b80601f0160208091040260200160405190810160405280929190818152602001828054612a00906140be565b8015612a4d5780601f10612a2257610100808354040283529160200191612a4d565b820191906000526020600020905b815481529060010190602001808311612a3057829003601f168201915b505050505090806001018054612a62906140be565b80601f0160208091040260200160405190810160405280929190818152602001828054612a8e906140be565b8015612adb5780601f10612ab057610100808354040283529160200191612adb565b820191906000526020600020905b815481529060010190602001808311612abe57829003601f168201915b5050505050905082565b600e602052806000526040600020600091509050806000015490806001015490806002015490806003018054612b1a906140be565b80601f0160208091040260200160405190810160405280929190818152602001828054612b46906140be565b8015612b935780601f10612b6857610100808354040283529160200191612b93565b820191906000526020600020905b815481529060010190602001808311612b7657829003601f168201915b5050505050905084565b606060005b600054811015612c0957828051906020012060076000838152602001908152602001600020600201604051612bd79190613aaa565b60405180910390201415612bf657612bee81612d44565b915050612c43565b8080612c0190614121565b915050612ba2565b506040518060400160405280600581526020017f46616c736500000000000000000000000000000000000000000000000000000081525090505b919050565b6060600084905060008484612c5d919061400c565b67ffffffffffffffff811115612c7657612c75614226565b5b6040519080825280601f01601f191660200182016040528015612ca85781602001600182028036833780820191505090505b50905060008590505b84811015612d3757828181518110612ccc57612ccb6141f7565b5b602001015160f81c60f81b828783612ce4919061400c565b81518110612cf557612cf46141f7565b5b60200101907effffffffffffffffffffffffffffffffffffffffffffffffffffffffffffff1916908160001a9053508080612d2f90614121565b915050612cb1565b5080925050509392505050565b606060006001612d5384612e1c565b01905060008167ffffffffffffffff811115612d7257612d71614226565b5b6040519080825280601f01601f191660200182016040528015612da45781602001600182028036833780820191505090505b509050600082602001820190505b600115612e11578080600190039150507f3031323334353637383961626364656600000000000000000000000000000000600a86061a8153600a8581612dfb57612dfa614199565b5b0494506000851415612e0c57612e11565b612db2565b819350505050919050565b600080600090507a184f03e93ff9f4daa797ed6e38ed64bf6a1f0100000000000000008310612e7a577a184f03e93ff9f4daa797ed6e38ed64bf6a1f0100000000000000008381612e7057612e6f614199565b5b0492506040810190505b6d04ee2d6d415b85acef81000000008310612eb7576d04ee2d6d415b85acef81000000008381612ead57612eac614199565b5b0492506020810190505b662386f26fc100008310612ee657662386f26fc100008381612edc57612edb614199565b5b0492506010810190505b6305f5e1008310612f0f576305f5e1008381612f0557612f04614199565b5b0492506008810190505b6127108310612f34576127108381612f2a57612f29614199565b5b0492506004810190505b60648310612f575760648381612f4d57612f4c614199565b5b0492506002810190505b600a8310612f66576001810190505b80915050919050565b828054612f7b906140be565b90600052602060002090601f016020900481019282612f9d5760008555612fe4565b82601f10612fb657805160ff1916838001178555612fe4565b82800160010185558215612fe4579182015b82811115612fe3578251825591602001919060010190612fc8565b5b509050612ff19190613035565b5090565b508054613001906140be565b6000825580601f106130135750613032565b601f0160209004906000526020600020908101906130319190613035565b5b50565b5b8082111561304e576000816000905550600101613036565b5090565b600061306561306084613f10565b613eeb565b9050828152602081018484840111156130815761308061425a565b5b61308c84828561407c565b509392505050565b600082601f8301126130a9576130a8614255565b5b81356130b9848260208601613052565b91505092915050565b6000813590506130d18161427a565b92915050565b6000602082840312156130ed576130ec614264565b5b600082013567ffffffffffffffff81111561310b5761310a61425f565b5b61311784828501613094565b91505092915050565b6000806040838503121561313757613136614264565b5b600083013567ffffffffffffffff8111156131555761315461425f565b5b61316185828601613094565b925050602083013567ffffffffffffffff8111156131825761318161425f565b5b61318e85828601613094565b9150509250929050565b6000806000606084860312156131b1576131b0614264565b5b600084013567ffffffffffffffff8111156131cf576131ce61425f565b5b6131db86828701613094565b935050602084013567ffffffffffffffff8111156131fc576131fb61425f565b5b61320886828701613094565b925050604084013567ffffffffffffffff8111156132295761322861425f565b5b61323586828701613094565b9150509250925092565b60006020828403121561325557613254614264565b5b6000613263848285016130c2565b91505092915050565b6000806040838503121561328357613282614264565b5b6000613291858286016130c2565b925050602083013567ffffffffffffffff8111156132b2576132b161425f565b5b6132be85828601613094565b9150509250929050565b600080600080608085870312156132e2576132e1614264565b5b60006132f0878288016130c2565b945050602085013567ffffffffffffffff8111156133115761331061425f565b5b61331d87828801613094565b935050604085013567ffffffffffffffff81111561333e5761333d61425f565b5b61334a87828801613094565b925050606085013567ffffffffffffffff81111561336b5761336a61425f565b5b61337787828801613094565b91505092959194509250565b600080600080600060a0868803121561339f5761339e614264565b5b60006133ad888289016130c2565b955050602086013567ffffffffffffffff8111156133ce576133cd61425f565b5b6133da88828901613094565b945050604086013567ffffffffffffffff8111156133fb576133fa61425f565b5b61340788828901613094565b935050606086013567ffffffffffffffff8111156134285761342761425f565b5b61343488828901613094565b9250506080613445888289016130c2565b9150509295509295909350565b600080600080600080600080610100898b03121561347357613472614264565b5b60006134818b828c016130c2565b985050602089013567ffffffffffffffff8111156134a2576134a161425f565b5b6134ae8b828c01613094565b975050604089013567ffffffffffffffff8111156134cf576134ce61425f565b5b6134db8b828c01613094565b965050606089013567ffffffffffffffff8111156134fc576134fb61425f565b5b6135088b828c01613094565b95505060806135198b828c016130c2565b94505060a061352a8b828c016130c2565b93505060c061353b8b828c016130c2565b92505060e089013567ffffffffffffffff81111561355c5761355b61425f565b5b6135688b828c01613094565b9150509295985092959890939650565b60008060006060848603121561359157613590614264565b5b600061359f868287016130c2565b935050602084013567ffffffffffffffff8111156135c0576135bf61425f565b5b6135cc86828701613094565b92505060406135dd868287016130c2565b9150509250925092565b6000806000806080858703121561360157613600614264565b5b600061360f878288016130c2565b945050602085013567ffffffffffffffff8111156136305761362f61425f565b5b61363c87828801613094565b935050604061364d878288016130c2565b925050606061365e878288016130c2565b91505092959194509250565b60008060006060848603121561368357613682614264565b5b6000613691868287016130c2565b93505060206136a2868287016130c2565b925050604084013567ffffffffffffffff8111156136c3576136c261425f565b5b6136cf86828701613094565b9150509250925092565b600080600080600080600060e0888a0312156136f8576136f7614264565b5b60006137068a828b016130c2565b97505060206137178a828b016130c2565b965050604088013567ffffffffffffffff8111156137385761373761425f565b5b6137448a828b01613094565b955050606088013567ffffffffffffffff8111156137655761376461425f565b5b6137718a828b01613094565b945050608088013567ffffffffffffffff8111156137925761379161425f565b5b61379e8a828b01613094565b93505060a088013567ffffffffffffffff8111156137bf576137be61425f565b5b6137cb8a828b01613094565b92505060c06137dc8a828b016130c2565b91505092959891949750929550565b6000806000806080858703121561380557613804614264565b5b6000613813878288016130c2565b9450506020613824878288016130c2565b935050604085013567ffffffffffffffff8111156138455761384461425f565b5b61385187828801613094565b9250506060613862878288016130c2565b91505092959194509250565b60008060008060008060c0878903121561388b5761388a614264565b5b600061389989828a016130c2565b96505060206138aa89828a016130c2565b95505060406138bb89828a016130c2565b945050606087013567ffffffffffffffff8111156138dc576138db61425f565b5b6138e889828a01613094565b935050608087013567ffffffffffffffff8111156139095761390861425f565b5b61391589828a01613094565b92505060a087013567ffffffffffffffff8111156139365761393561425f565b5b61394289828a01613094565b9150509295509295509295565b600061395b8383613a8c565b60208301905092915050565b61397081614040565b82525050565b600061398182613f66565b61398b8185613f89565b935061399683613f41565b8060005b838110156139c75781516139ae888261394f565b97506139b983613f7c565b92505060018101905061399a565b5085935050505092915050565b600081546139e1816140be565b6139eb8186613f9a565b94506001821660008114613a065760018114613a1757613a4a565b60ff19831686528186019350613a4a565b613a2085613f51565b60005b83811015613a4257815481890152600182019150602081019050613a23565b838801955050505b50505092915050565b6000613a5e82613f71565b613a688185613fa5565b9350613a7881856020860161408b565b613a8181614269565b840191505092915050565b613a9581614072565b82525050565b613aa481614072565b82525050565b6000613ab682846139d4565b915081905092915050565b6000602082019050613ad66000830184613967565b92915050565b60006020820190508181036000830152613af68184613976565b905092915050565b60006020820190508181036000830152613b188184613a53565b905092915050565b60006040820190508181036000830152613b3a8185613a53565b90508181036020830152613b4e8184613a53565b90509392505050565b600060a0820190508181036000830152613b718188613a53565b9050613b806020830187613a9b565b8181036040830152613b928186613a53565b90508181036060830152613ba68185613a53565b90508181036080830152613bba8184613a53565b90509695505050505050565b6000602082019050613bdb6000830184613a9b565b92915050565b6000608082019050613bf66000830187613a9b565b8181036020830152613c088186613a53565b90508181036040830152613c1c8185613a53565b90508181036060830152613c308184613a53565b905095945050505050565b600061018082019050613c51600083018f613a9b565b613c5e602083018e613a9b565b8181036040830152613c70818d613a53565b90508181036060830152613c84818c613a53565b90508181036080830152613c98818b613a53565b9050613ca760a083018a613a9b565b613cb460c0830189613a9b565b613cc160e0830188613a9b565b818103610100830152613cd48187613a53565b9050818103610120830152613ce98186613a53565b9050613cf9610140830185613a9b565b613d07610160830184613a9b565b9d9c50505050505050505050505050565b6000608082019050613d2d6000830187613a9b565b613d3a6020830186613a9b565b613d476040830185613a9b565b8181036060830152613d598184613a53565b905095945050505050565b600061012082019050613d7a600083018c613a9b565b613d87602083018b613a9b565b613d94604083018a613a9b565b8181036060830152613da68189613a53565b90508181036080830152613dba8188613a53565b905081810360a0830152613dce8187613a53565b905081810360c0830152613de28186613a53565b9050613df160e0830185613a9b565b613dff610100830184613a9b565b9a9950505050505050505050565b600060a082019050613e226000830188613a9b565b613e2f6020830187613a9b565b613e3c6040830186613a9b565b613e496060830185613a9b565b8181036080830152613e5b8184613a53565b90509695505050505050565b600060e082019050613e7c600083018a613a9b565b613e896020830189613a9b565b613e966040830188613a9b565b613ea36060830187613a9b565b8181036080830152613eb58186613a53565b905081810360a0830152613ec98185613a53565b905081810360c0830152613edd8184613a53565b905098975050505050505050565b6000613ef5613f06565b9050613f0182826140f0565b919050565b6000604051905090565b600067ffffffffffffffff821115613f2b57613f2a614226565b5b613f3482614269565b9050602081019050919050565b6000819050602082019050919050565b60008190508160005260206000209050919050565b600081519050919050565b600081519050919050565b6000602082019050919050565b600082825260208201905092915050565b600081905092915050565b600082825260208201905092915050565b6000613fc182614072565b9150613fcc83614072565b9250827fffffffffffffffffffffffffffffffffffffffffffffffffffffffffffffffff038211156140015761400061416a565b5b828201905092915050565b600061401782614072565b915061402283614072565b9250828210156140355761403461416a565b5b828203905092915050565b600061404b82614052565b9050919050565b600073ffffffffffffffffffffffffffffffffffffffff82169050919050565b6000819050919050565b82818337600083830152505050565b60005b838110156140a957808201518184015260208101905061408e565b838111156140b8576000848401525b50505050565b600060028204905060018216806140d657607f821691505b602082108114156140ea576140e96141c8565b5b50919050565b6140f982614269565b810181811067ffffffffffffffff8211171561411857614117614226565b5b80604052505050565b600061412c82614072565b91507fffffffffffffffffffffffffffffffffffffffffffffffffffffffffffffffff82141561415f5761415e61416a565b5b600182019050919050565b7f4e487b7100000000000000000000000000000000000000000000000000000000600052601160045260246000fd5b7f4e487b7100000000000000000000000000000000000000000000000000000000600052601260045260246000fd5b7f4e487b7100000000000000000000000000000000000000000000000000000000600052602260045260246000fd5b7f4e487b7100000000000000000000000000000000000000000000000000000000600052603260045260246000fd5b7f4e487b7100000000000000000000000000000000000000000000000000000000600052604160045260246000fd5b600080fd5b600080fd5b600080fd5b600080fd5b6000601f19601f8301169050919050565b61428381614072565b811461428e57600080fd5b5056fe68747470733a2f2f692e706f7374696d672e63632f537378477735635a2f706572736f6e2e6a7067a2646970667358221220f276842a5763615abf9f2e785b9a20afed802e45c5a3c6f06d9b482feb82fb8864736f6c63430008060033","opcodes":"PUSH1 0x80 PUSH1 0x40 MSTORE CALLVALUE DUP1 ISZERO PUSH2 0x10 JUMPI PUSH1 0x0 DUP1 REVERT JUMPDEST POP PUSH2 0x42EF DUP1 PUSH2 0x20 PUSH1 0x0 CODECOPY PUSH1 0x0 RETURN INVALID PUSH1 0x80 PUSH1 0x40 MSTORE CALLVALUE DUP1 ISZERO PUSH2 0x10 JUMPI PUSH1 0x0 DUP1 REVERT JUMPDEST POP PUSH1 0x4 CALLDATASIZE LT PUSH2 0x23D JUMPI PUSH1 0x0 CALLDATALOAD PUSH1 0xE0 SHR DUP1 PUSH4 0x90D6CF05 GT PUSH2 0x13B JUMPI DUP1 PUSH4 0xCE08988C GT PUSH2 0xB8 JUMPI DUP1 PUSH4 0xEB6B2870 GT PUSH2 0x7C JUMPI DUP1 PUSH4 0xEB6B2870 EQ PUSH2 0x6F3 JUMPI DUP1 PUSH4 0xEBE197CA EQ PUSH2 0x711 JUMPI DUP1 PUSH4 0xF0D8E873 EQ PUSH2 0x744 JUMPI DUP1 PUSH4 0xF6AAA804 EQ PUSH2 0x775 JUMPI DUP1 PUSH4 0xF8B7800F EQ PUSH2 0x7A8 JUMPI PUSH2 0x23D JUMP JUMPDEST DUP1 PUSH4 0xCE08988C EQ PUSH2 0x635 JUMPI DUP1 PUSH4 0xDE7ACFD7 EQ PUSH2 0x653 JUMPI DUP1 PUSH4 0xE1DA993F EQ PUSH2 0x68B JUMPI DUP1 PUSH4 0xE57F973F EQ PUSH2 0x6A7 JUMPI DUP1 PUSH4 0xEA7EFAA6 EQ PUSH2 0x6C3 JUMPI PUSH2 0x23D JUMP JUMPDEST DUP1 PUSH4 0xB16060A6 GT PUSH2 0xFF JUMPI DUP1 PUSH4 0xB16060A6 EQ PUSH2 0x56C JUMPI DUP1 PUSH4 0xB6E604BD EQ PUSH2 0x576 JUMPI DUP1 PUSH4 0xBED208FE EQ PUSH2 0x594 JUMPI DUP1 PUSH4 0xC13B2836 EQ PUSH2 0x5CF JUMPI DUP1 PUSH4 0xCCEF4218 EQ PUSH2 0x605 JUMPI PUSH2 0x23D JUMP JUMPDEST DUP1 PUSH4 0x90D6CF05 EQ PUSH2 0x4C6 JUMPI DUP1 PUSH4 0xA5F3FC7D EQ PUSH2 0x4FA JUMPI DUP1 PUSH4 0xA92E1C4C EQ PUSH2 0x516 JUMPI DUP1 PUSH4 0xAC7AEF0E EQ PUSH2 0x532 JUMPI DUP1 PUSH4 0xAD23F8F9 EQ PUSH2 0x550 JUMPI PUSH2 0x23D JUMP JUMPDEST DUP1 PUSH4 0x49B9B07B GT PUSH2 0x1C9 JUMPI DUP1 PUSH4 0x682D562B GT PUSH2 0x18D JUMPI DUP1 PUSH4 0x682D562B EQ PUSH2 0x410 JUMPI DUP1 PUSH4 0x6C067B48 EQ PUSH2 0x440 JUMPI DUP1 PUSH4 0x7D423E10 EQ PUSH2 0x45C JUMPI DUP1 PUSH4 0x8DA5CB5B EQ PUSH2 0x478 JUMPI DUP1 PUSH4 0x902841D4 EQ PUSH2 0x496 JUMPI PUSH2 0x23D JUMP JUMPDEST DUP1 PUSH4 0x49B9B07B EQ PUSH2 0x370 JUMPI DUP1 PUSH4 0x4F8B36EB EQ PUSH2 0x3A0 JUMPI DUP1 PUSH4 0x55391705 EQ PUSH2 0x3BC JUMPI DUP1 PUSH4 0x5F27AEA1 EQ PUSH2 0x3D8 JUMPI DUP1 PUSH4 0x66CAD734 EQ PUSH2 0x3F4 JUMPI PUSH2 0x23D JUMP JUMPDEST DUP1 PUSH4 0x2A8CAF4A GT PUSH2 0x210 JUMPI DUP1 PUSH4 0x2A8CAF4A EQ PUSH2 0x2D0 JUMPI DUP1 PUSH4 0x2C02DD60 EQ PUSH2 0x300 JUMPI DUP1 PUSH4 0x3896F130 EQ PUSH2 0x31C JUMPI DUP1 PUSH4 0x3EEBD0D0 EQ PUSH2 0x338 JUMPI DUP1 PUSH4 0x45948FDE EQ PUSH2 0x354 JUMPI PUSH2 0x23D JUMP JUMPDEST DUP1 PUSH4 0x1C66109 EQ PUSH2 0x242 JUMPI DUP1 PUSH4 0x1429F775 EQ PUSH2 0x260 JUMPI DUP1 PUSH4 0x1C1A9F7B EQ PUSH2 0x27E JUMPI DUP1 PUSH4 0x29B36423 EQ PUSH2 0x2B2 JUMPI JUMPDEST PUSH1 0x0 DUP1 REVERT JUMPDEST PUSH2 0x24A PUSH2 0x7D8 JUMP JUMPDEST PUSH1 0x40 MLOAD PUSH2 0x257 SWAP2 SWAP1 PUSH2 0x3BC6 JUMP JUMPDEST PUSH1 0x40 MLOAD DUP1 SWAP2 SUB SWAP1 RETURN JUMPDEST PUSH2 0x268 PUSH2 0x7DE JUMP JUMPDEST PUSH1 0x40 MLOAD PUSH2 0x275 SWAP2 SWAP1 PUSH2 0x3BC6 JUMP JUMPDEST PUSH1 0x40 MLOAD DUP1 SWAP2 SUB SWAP1 RETURN JUMPDEST PUSH2 0x298 PUSH1 0x4 DUP1 CALLDATASIZE SUB DUP2 ADD SWAP1 PUSH2 0x293 SWAP2 SWAP1 PUSH2 0x323F JUMP JUMPDEST PUSH2 0x7E4 JUMP JUMPDEST PUSH1 0x40 MLOAD PUSH2 0x2A9 SWAP6 SWAP5 SWAP4 SWAP3 SWAP2 SWAP1 PUSH2 0x3B57 JUMP JUMPDEST PUSH1 0x40 MLOAD DUP1 SWAP2 SUB SWAP1 RETURN JUMPDEST PUSH2 0x2BA PUSH2 0xB08 JUMP JUMPDEST PUSH1 0x40 MLOAD PUSH2 0x2C7 SWAP2 SWAP1 PUSH2 0x3BC6 JUMP JUMPDEST PUSH1 0x40 MLOAD DUP1 SWAP2 SUB SWAP1 RETURN JUMPDEST PUSH2 0x2EA PUSH1 0x4 DUP1 CALLDATASIZE SUB DUP2 ADD SWAP1 PUSH2 0x2E5 SWAP2 SWAP1 PUSH2 0x323F JUMP JUMPDEST PUSH2 0xB0E JUMP JUMPDEST PUSH1 0x40 MLOAD PUSH2 0x2F7 SWAP2 SWAP1 PUSH2 0x3AFE JUMP JUMPDEST PUSH1 0x40 MLOAD DUP1 SWAP2 SUB SWAP1 RETURN JUMPDEST PUSH2 0x31A PUSH1 0x4 DUP1 CALLDATASIZE SUB DUP2 ADD SWAP1 PUSH2 0x315 SWAP2 SWAP1 PUSH2 0x3452 JUMP JUMPDEST PUSH2 0xBAE JUMP JUMPDEST STOP JUMPDEST PUSH2 0x336 PUSH1 0x4 DUP1 CALLDATASIZE SUB DUP2 ADD SWAP1 PUSH2 0x331 SWAP2 SWAP1 PUSH2 0x36D9 JUMP JUMPDEST PUSH2 0xD4D JUMP JUMPDEST STOP JUMPDEST PUSH2 0x352 PUSH1 0x4 DUP1 CALLDATASIZE SUB DUP2 ADD SWAP1 PUSH2 0x34D SWAP2 SWAP1 PUSH2 0x35E7 JUMP JUMPDEST PUSH2 0xE70 JUMP JUMPDEST STOP JUMPDEST PUSH2 0x36E PUSH1 0x4 DUP1 CALLDATASIZE SUB DUP2 ADD SWAP1 PUSH2 0x369 SWAP2 SWAP1 PUSH2 0x3198 JUMP JUMPDEST PUSH2 0xED7 JUMP JUMPDEST STOP JUMPDEST PUSH2 0x38A PUSH1 0x4 DUP1 CALLDATASIZE SUB DUP2 ADD SWAP1 PUSH2 0x385 SWAP2 SWAP1 PUSH2 0x323F JUMP JUMPDEST PUSH2 0x1070 JUMP JUMPDEST PUSH1 0x40 MLOAD PUSH2 0x397 SWAP2 SWAP1 PUSH2 0x3ADC JUMP JUMPDEST PUSH1 0x40 MLOAD DUP1 SWAP2 SUB SWAP1 RETURN JUMPDEST PUSH2 0x3BA PUSH1 0x4 DUP1 CALLDATASIZE SUB DUP2 ADD SWAP1 PUSH2 0x3B5 SWAP2 SWAP1 PUSH2 0x3120 JUMP JUMPDEST PUSH2 0x1188 JUMP JUMPDEST STOP JUMPDEST PUSH2 0x3D6 PUSH1 0x4 DUP1 CALLDATASIZE SUB DUP2 ADD SWAP1 PUSH2 0x3D1 SWAP2 SWAP1 PUSH2 0x3383 JUMP JUMPDEST PUSH2 0x120B JUMP JUMPDEST STOP JUMPDEST PUSH2 0x3F2 PUSH1 0x4 DUP1 CALLDATASIZE SUB DUP2 ADD SWAP1 PUSH2 0x3ED SWAP2 SWAP1 PUSH2 0x3383 JUMP JUMPDEST PUSH2 0x12AE JUMP JUMPDEST STOP JUMPDEST PUSH2 0x40E PUSH1 0x4 DUP1 CALLDATASIZE SUB DUP2 ADD SWAP1 PUSH2 0x409 SWAP2 SWAP1 PUSH2 0x326C JUMP JUMPDEST PUSH2 0x1351 JUMP JUMPDEST STOP JUMPDEST PUSH2 0x42A PUSH1 0x4 DUP1 CALLDATASIZE SUB DUP2 ADD SWAP1 PUSH2 0x425 SWAP2 SWAP1 PUSH2 0x323F JUMP JUMPDEST PUSH2 0x137D JUMP JUMPDEST PUSH1 0x40 MLOAD PUSH2 0x437 SWAP2 SWAP1 PUSH2 0x3ADC JUMP JUMPDEST PUSH1 0x40 MLOAD DUP1 SWAP2 SUB SWAP1 RETURN JUMPDEST PUSH2 0x45A PUSH1 0x4 DUP1 CALLDATASIZE SUB DUP2 ADD SWAP1 PUSH2 0x455 SWAP2 SWAP1 PUSH2 0x386E JUMP JUMPDEST PUSH2 0x1495 JUMP JUMPDEST STOP JUMPDEST PUSH2 0x476 PUSH1 0x4 DUP1 CALLDATASIZE SUB DUP2 ADD SWAP1 PUSH2 0x471 SWAP2 SWAP1 PUSH2 0x37EB JUMP JUMPDEST PUSH2 0x1581 JUMP JUMPDEST STOP JUMPDEST PUSH2 0x480 PUSH2 0x167E JUMP JUMPDEST PUSH1 0x40 MLOAD PUSH2 0x48D SWAP2 SWAP1 PUSH2 0x3AC1 JUMP JUMPDEST PUSH1 0x40 MLOAD DUP1 SWAP2 SUB SWAP1 RETURN JUMPDEST PUSH2 0x4B0 PUSH1 0x4 DUP1 CALLDATASIZE SUB DUP2 ADD SWAP1 PUSH2 0x4AB SWAP2 SWAP1 PUSH2 0x323F JUMP JUMPDEST PUSH2 0x16A4 JUMP JUMPDEST PUSH1 0x40 MLOAD PUSH2 0x4BD SWAP2 SWAP1 PUSH2 0x3AFE JUMP JUMPDEST PUSH1 0x40 MLOAD DUP1 SWAP2 SUB SWAP1 RETURN JUMPDEST PUSH2 0x4E0 PUSH1 0x4 DUP1 CALLDATASIZE SUB DUP2 ADD SWAP1 PUSH2 0x4DB SWAP2 SWAP1 PUSH2 0x323F JUMP JUMPDEST PUSH2 0x174A JUMP JUMPDEST PUSH1 0x40 MLOAD PUSH2 0x4F1 SWAP6 SWAP5 SWAP4 SWAP3 SWAP2 SWAP1 PUSH2 0x3E0D JUMP JUMPDEST PUSH1 0x40 MLOAD DUP1 SWAP2 SUB SWAP1 RETURN JUMPDEST PUSH2 0x514 PUSH1 0x4 DUP1 CALLDATASIZE SUB DUP2 ADD SWAP1 PUSH2 0x50F SWAP2 SWAP1 PUSH2 0x366A JUMP JUMPDEST PUSH2 0x1808 JUMP JUMPDEST STOP JUMPDEST PUSH2 0x530 PUSH1 0x4 DUP1 CALLDATASIZE SUB DUP2 ADD SWAP1 PUSH2 0x52B SWAP2 SWAP1 PUSH2 0x32C8 JUMP JUMPDEST PUSH2 0x18C9 JUMP JUMPDEST STOP JUMPDEST PUSH2 0x53A PUSH2 0x196B JUMP JUMPDEST PUSH1 0x40 MLOAD PUSH2 0x547 SWAP2 SWAP1 PUSH2 0x3BC6 JUMP JUMPDEST PUSH1 0x40 MLOAD DUP1 SWAP2 SUB SWAP1 RETURN JUMPDEST PUSH2 0x56A PUSH1 0x4 DUP1 CALLDATASIZE SUB DUP2 ADD SWAP1 PUSH2 0x565 SWAP2 SWAP1 PUSH2 0x326C JUMP JUMPDEST PUSH2 0x1971 JUMP JUMPDEST STOP JUMPDEST PUSH2 0x574 PUSH2 0x199D JUMP JUMPDEST STOP JUMPDEST PUSH2 0x57E PUSH2 0x1E85 JUMP JUMPDEST PUSH1 0x40 MLOAD PUSH2 0x58B SWAP2 SWAP1 PUSH2 0x3BC6 JUMP JUMPDEST PUSH1 0x40 MLOAD DUP1 SWAP2 SUB SWAP1 RETURN JUMPDEST PUSH2 0x5AE PUSH1 0x4 DUP1 CALLDATASIZE SUB DUP2 ADD SWAP1 PUSH2 0x5A9 SWAP2 SWAP1 PUSH2 0x323F JUMP JUMPDEST PUSH2 0x1E8B JUMP JUMPDEST PUSH1 0x40 MLOAD PUSH2 0x5C6 SWAP13 SWAP12 SWAP11 SWAP10 SWAP9 SWAP8 SWAP7 SWAP6 SWAP5 SWAP4 SWAP3 SWAP2 SWAP1 PUSH2 0x3C3B JUMP JUMPDEST PUSH1 0x40 MLOAD DUP1 SWAP2 SUB SWAP1 RETURN JUMPDEST PUSH2 0x5E9 PUSH1 0x4 DUP1 CALLDATASIZE SUB DUP2 ADD SWAP1 PUSH2 0x5E4 SWAP2 SWAP1 PUSH2 0x323F JUMP JUMPDEST PUSH2 0x2193 JUMP JUMPDEST PUSH1 0x40 MLOAD PUSH2 0x5FC SWAP8 SWAP7 SWAP6 SWAP5 SWAP4 SWAP3 SWAP2 SWAP1 PUSH2 0x3E67 JUMP JUMPDEST PUSH1 0x40 MLOAD DUP1 SWAP2 SUB SWAP1 RETURN JUMPDEST PUSH2 0x61F PUSH1 0x4 DUP1 CALLDATASIZE SUB DUP2 ADD SWAP1 PUSH2 0x61A SWAP2 SWAP1 PUSH2 0x3120 JUMP JUMPDEST PUSH2 0x236D JUMP JUMPDEST PUSH1 0x40 MLOAD PUSH2 0x62C SWAP2 SWAP1 PUSH2 0x3AFE JUMP JUMPDEST PUSH1 0x40 MLOAD DUP1 SWAP2 SUB SWAP1 RETURN JUMPDEST PUSH2 0x63D PUSH2 0x2455 JUMP JUMPDEST PUSH1 0x40 MLOAD PUSH2 0x64A SWAP2 SWAP1 PUSH2 0x3BC6 JUMP JUMPDEST PUSH1 0x40 MLOAD DUP1 SWAP2 SUB SWAP1 RETURN JUMPDEST PUSH2 0x66D PUSH1 0x4 DUP1 CALLDATASIZE SUB DUP2 ADD SWAP1 PUSH2 0x668 SWAP2 SWAP1 PUSH2 0x323F JUMP JUMPDEST PUSH2 0x245B JUMP JUMPDEST PUSH1 0x40 MLOAD PUSH2 0x682 SWAP10 SWAP9 SWAP8 SWAP7 SWAP6 SWAP5 SWAP4 SWAP3 SWAP2 SWAP1 PUSH2 0x3D64 JUMP JUMPDEST PUSH1 0x40 MLOAD DUP1 SWAP2 SUB SWAP1 RETURN JUMPDEST PUSH2 0x6A5 PUSH1 0x4 DUP1 CALLDATASIZE SUB DUP2 ADD SWAP1 PUSH2 0x6A0 SWAP2 SWAP1 PUSH2 0x326C JUMP JUMPDEST PUSH2 0x26C9 JUMP JUMPDEST STOP JUMPDEST PUSH2 0x6C1 PUSH1 0x4 DUP1 CALLDATASIZE SUB DUP2 ADD SWAP1 PUSH2 0x6BC SWAP2 SWAP1 PUSH2 0x3578 JUMP JUMPDEST PUSH2 0x26F8 JUMP JUMPDEST STOP JUMPDEST PUSH2 0x6DD PUSH1 0x4 DUP1 CALLDATASIZE SUB DUP2 ADD SWAP1 PUSH2 0x6D8 SWAP2 SWAP1 PUSH2 0x323F JUMP JUMPDEST PUSH2 0x2743 JUMP JUMPDEST PUSH1 0x40 MLOAD PUSH2 0x6EA SWAP2 SWAP1 PUSH2 0x3AFE JUMP JUMPDEST PUSH1 0x40 MLOAD DUP1 SWAP2 SUB SWAP1 RETURN JUMPDEST PUSH2 0x6FB PUSH2 0x27E3 JUMP JUMPDEST PUSH1 0x40 MLOAD PUSH2 0x708 SWAP2 SWAP1 PUSH2 0x3BC6 JUMP JUMPDEST PUSH1 0x40 MLOAD DUP1 SWAP2 SUB SWAP1 RETURN JUMPDEST PUSH2 0x72B PUSH1 0x4 DUP1 CALLDATASIZE SUB DUP2 ADD SWAP1 PUSH2 0x726 SWAP2 SWAP1 PUSH2 0x323F JUMP JUMPDEST PUSH2 0x27E9 JUMP JUMPDEST PUSH1 0x40 MLOAD PUSH2 0x73B SWAP5 SWAP4 SWAP3 SWAP2 SWAP1 PUSH2 0x3BE1 JUMP JUMPDEST PUSH1 0x40 MLOAD DUP1 SWAP2 SUB SWAP1 RETURN JUMPDEST PUSH2 0x75E PUSH1 0x4 DUP1 CALLDATASIZE SUB DUP2 ADD SWAP1 PUSH2 0x759 SWAP2 SWAP1 PUSH2 0x323F JUMP JUMPDEST PUSH2 0x29B1 JUMP JUMPDEST PUSH1 0x40 MLOAD PUSH2 0x76C SWAP3 SWAP2 SWAP1 PUSH2 0x3B20 JUMP JUMPDEST PUSH1 0x40 MLOAD DUP1 SWAP2 SUB SWAP1 RETURN JUMPDEST PUSH2 0x78F PUSH1 0x4 DUP1 CALLDATASIZE SUB DUP2 ADD SWAP1 PUSH2 0x78A SWAP2 SWAP1 PUSH2 0x323F JUMP JUMPDEST PUSH2 0x2AE5 JUMP JUMPDEST PUSH1 0x40 MLOAD PUSH2 0x79F SWAP5 SWAP4 SWAP3 SWAP2 SWAP1 PUSH2 0x3D18 JUMP JUMPDEST PUSH1 0x40 MLOAD DUP1 SWAP2 SUB SWAP1 RETURN JUMPDEST PUSH2 0x7C2 PUSH1 0x4 DUP1 CALLDATASIZE SUB DUP2 ADD SWAP1 PUSH2 0x7BD SWAP2 SWAP1 PUSH2 0x30D7 JUMP JUMPDEST PUSH2 0x2B9D JUMP JUMPDEST PUSH1 0x40 MLOAD PUSH2 0x7CF SWAP2 SWAP1 PUSH2 0x3AFE JUMP JUMPDEST PUSH1 0x40 MLOAD DUP1 SWAP2 SUB SWAP1 RETURN JUMPDEST PUSH1 0x5 SLOAD DUP2 JUMP JUMPDEST PUSH1 0x2 SLOAD DUP2 JUMP JUMPDEST PUSH1 0x60 PUSH1 0x0 PUSH1 0x60 DUP1 PUSH1 0x60 PUSH1 0x0 PUSH1 0x40 MLOAD DUP1 PUSH1 0x20 ADD PUSH1 0x40 MSTORE DUP1 PUSH1 0x0 DUP2 MSTORE POP SWAP1 POP PUSH1 0x40 MLOAD DUP1 PUSH1 0x20 ADD PUSH1 0x40 MSTORE DUP1 PUSH1 0x0 DUP2 MSTORE POP DUP1 MLOAD SWAP1 PUSH1 0x20 ADD KECCAK256 PUSH1 0x7 PUSH1 0x0 DUP10 DUP2 MSTORE PUSH1 0x20 ADD SWAP1 DUP2 MSTORE PUSH1 0x20 ADD PUSH1 0x0 KECCAK256 PUSH1 0x5 ADD PUSH1 0x40 MLOAD PUSH2 0x83B SWAP2 SWAP1 PUSH2 0x3AAA JUMP JUMPDEST PUSH1 0x40 MLOAD DUP1 SWAP2 SUB SWAP1 KECCAK256 EQ PUSH2 0x8F6 JUMPI PUSH2 0x8F3 PUSH1 0x7 PUSH1 0x0 DUP10 DUP2 MSTORE PUSH1 0x20 ADD SWAP1 DUP2 MSTORE PUSH1 0x20 ADD PUSH1 0x0 KECCAK256 PUSH1 0x5 ADD DUP1 SLOAD PUSH2 0x86C SWAP1 PUSH2 0x40BE JUMP JUMPDEST DUP1 PUSH1 0x1F ADD PUSH1 0x20 DUP1 SWAP2 DIV MUL PUSH1 0x20 ADD PUSH1 0x40 MLOAD SWAP1 DUP2 ADD PUSH1 0x40 MSTORE DUP1 SWAP3 SWAP2 SWAP1 DUP2 DUP2 MSTORE PUSH1 0x20 ADD DUP3 DUP1 SLOAD PUSH2 0x898 SWAP1 PUSH2 0x40BE JUMP JUMPDEST DUP1 ISZERO PUSH2 0x8E5 JUMPI DUP1 PUSH1 0x1F LT PUSH2 0x8BA JUMPI PUSH2 0x100 DUP1 DUP4 SLOAD DIV MUL DUP4 MSTORE SWAP2 PUSH1 0x20 ADD SWAP2 PUSH2 0x8E5 JUMP JUMPDEST DUP3 ADD SWAP2 SWAP1 PUSH1 0x0 MSTORE PUSH1 0x20 PUSH1 0x0 KECCAK256 SWAP1 JUMPDEST DUP2 SLOAD DUP2 MSTORE SWAP1 PUSH1 0x1 ADD SWAP1 PUSH1 0x20 ADD DUP1 DUP4 GT PUSH2 0x8C8 JUMPI DUP3 SWAP1 SUB PUSH1 0x1F AND DUP3 ADD SWAP2 JUMPDEST POP POP POP POP POP PUSH1 0x0 PUSH1 0xA PUSH2 0x2C48 JUMP JUMPDEST SWAP1 POP JUMPDEST PUSH1 0x7 PUSH1 0x0 DUP9 DUP2 MSTORE PUSH1 0x20 ADD SWAP1 DUP2 MSTORE PUSH1 0x20 ADD PUSH1 0x0 KECCAK256 PUSH1 0x6 ADD PUSH1 0x7 PUSH1 0x0 DUP10 DUP2 MSTORE PUSH1 0x20 ADD SWAP1 DUP2 MSTORE PUSH1 0x20 ADD PUSH1 0x0 KECCAK256 PUSH1 0x7 ADD SLOAD PUSH1 0x7 PUSH1 0x0 DUP11 DUP2 MSTORE PUSH1 0x20 ADD SWAP1 DUP2 MSTORE PUSH1 0x20 ADD PUSH1 0x0 KECCAK256 PUSH1 0x1 ADD PUSH1 0x7 PUSH1 0x0 DUP12 DUP2 MSTORE PUSH1 0x20 ADD SWAP1 DUP2 MSTORE PUSH1 0x20 ADD PUSH1 0x0 KECCAK256 PUSH1 0x2 ADD DUP5 DUP5 DUP1 SLOAD PUSH2 0x95C SWAP1 PUSH2 0x40BE JUMP JUMPDEST DUP1 PUSH1 0x1F ADD PUSH1 0x20 DUP1 SWAP2 DIV MUL PUSH1 0x20 ADD PUSH1 0x40 MLOAD SWAP1 DUP2 ADD PUSH1 0x40 MSTORE DUP1 SWAP3 SWAP2 SWAP1 DUP2 DUP2 MSTORE PUSH1 0x20 ADD DUP3 DUP1 SLOAD PUSH2 0x988 SWAP1 PUSH2 0x40BE JUMP JUMPDEST DUP1 ISZERO PUSH2 0x9D5 JUMPI DUP1 PUSH1 0x1F LT PUSH2 0x9AA JUMPI PUSH2 0x100 DUP1 DUP4 SLOAD DIV MUL DUP4 MSTORE SWAP2 PUSH1 0x20 ADD SWAP2 PUSH2 0x9D5 JUMP JUMPDEST DUP3 ADD SWAP2 SWAP1 PUSH1 0x0 MSTORE PUSH1 0x20 PUSH1 0x0 KECCAK256 SWAP1 JUMPDEST DUP2 SLOAD DUP2 MSTORE SWAP1 PUSH1 0x1 ADD SWAP1 PUSH1 0x20 ADD DUP1 DUP4 GT PUSH2 0x9B8 JUMPI DUP3 SWAP1 SUB PUSH1 0x1F AND DUP3 ADD SWAP2 JUMPDEST POP POP POP POP POP SWAP5 POP DUP3 DUP1 SLOAD PUSH2 0x9E8 SWAP1 PUSH2 0x40BE JUMP JUMPDEST DUP1 PUSH1 0x1F ADD PUSH1 0x20 DUP1 SWAP2 DIV MUL PUSH1 0x20 ADD PUSH1 0x40 MLOAD SWAP1 DUP2 ADD PUSH1 0x40 MSTORE DUP1 SWAP3 SWAP2 SWAP1 DUP2 DUP2 MSTORE PUSH1 0x20 ADD DUP3 DUP1 SLOAD PUSH2 0xA14 SWAP1 PUSH2 0x40BE JUMP JUMPDEST DUP1 ISZERO PUSH2 0xA61 JUMPI DUP1 PUSH1 0x1F LT PUSH2 0xA36 JUMPI PUSH2 0x100 DUP1 DUP4 SLOAD DIV MUL DUP4 MSTORE SWAP2 PUSH1 0x20 ADD SWAP2 PUSH2 0xA61 JUMP JUMPDEST DUP3 ADD SWAP2 SWAP1 PUSH1 0x0 MSTORE PUSH1 0x20 PUSH1 0x0 KECCAK256 SWAP1 JUMPDEST DUP2 SLOAD DUP2 MSTORE SWAP1 PUSH1 0x1 ADD SWAP1 PUSH1 0x20 ADD DUP1 DUP4 GT PUSH2 0xA44 JUMPI DUP3 SWAP1 SUB PUSH1 0x1F AND DUP3 ADD SWAP2 JUMPDEST POP POP POP POP POP SWAP3 POP DUP2 DUP1 SLOAD PUSH2 0xA74 SWAP1 PUSH2 0x40BE JUMP JUMPDEST DUP1 PUSH1 0x1F ADD PUSH1 0x20 DUP1 SWAP2 DIV MUL PUSH1 0x20 ADD PUSH1 0x40 MLOAD SWAP1 DUP2 ADD PUSH1 0x40 MSTORE DUP1 SWAP3 SWAP2 SWAP1 DUP2 DUP2 MSTORE PUSH1 0x20 ADD DUP3 DUP1 SLOAD PUSH2 0xAA0 SWAP1 PUSH2 0x40BE JUMP JUMPDEST DUP1 ISZERO PUSH2 0xAED JUMPI DUP1 PUSH1 0x1F LT PUSH2 0xAC2 JUMPI PUSH2 0x100 DUP1 DUP4 SLOAD DIV MUL DUP4 MSTORE SWAP2 PUSH1 0x20 ADD SWAP2 PUSH2 0xAED JUMP JUMPDEST DUP3 ADD SWAP2 SWAP1 PUSH1 0x0 MSTORE PUSH1 0x20 PUSH1 0x0 KECCAK256 SWAP1 JUMPDEST DUP2 SLOAD DUP2 MSTORE SWAP1 PUSH1 0x1 ADD SWAP1 PUSH1 0x20 ADD DUP1 DUP4 GT PUSH2 0xAD0 JUMPI DUP3 SWAP1 SUB PUSH1 0x1F AND DUP3 ADD SWAP2 JUMPDEST POP POP POP POP POP SWAP2 POP SWAP6 POP SWAP6 POP SWAP6 POP SWAP6 POP SWAP6 POP POP SWAP2 SWAP4 SWAP6 SWAP1 SWAP3 SWAP5 POP JUMP JUMPDEST PUSH1 0x3 SLOAD DUP2 JUMP JUMPDEST PUSH1 0x9 PUSH1 0x20 MSTORE DUP1 PUSH1 0x0 MSTORE PUSH1 0x40 PUSH1 0x0 KECCAK256 PUSH1 0x0 SWAP2 POP SWAP1 POP DUP1 SLOAD PUSH2 0xB2D SWAP1 PUSH2 0x40BE JUMP JUMPDEST DUP1 PUSH1 0x1F ADD PUSH1 0x20 DUP1 SWAP2 DIV MUL PUSH1 0x20 ADD PUSH1 0x40 MLOAD SWAP1 DUP2 ADD PUSH1 0x40 MSTORE DUP1 SWAP3 SWAP2 SWAP1 DUP2 DUP2 MSTORE PUSH1 0x20 ADD DUP3 DUP1 SLOAD PUSH2 0xB59 SWAP1 PUSH2 0x40BE JUMP JUMPDEST DUP1 ISZERO PUSH2 0xBA6 JUMPI DUP1 PUSH1 0x1F LT PUSH2 0xB7B JUMPI PUSH2 0x100 DUP1 DUP4 SLOAD DIV MUL DUP4 MSTORE SWAP2 PUSH1 0x20 ADD SWAP2 PUSH2 0xBA6 JUMP JUMPDEST DUP3 ADD SWAP2 SWAP1 PUSH1 0x0 MSTORE PUSH1 0x20 PUSH1 0x0 KECCAK256 SWAP1 JUMPDEST DUP2 SLOAD DUP2 MSTORE SWAP1 PUSH1 0x1 ADD SWAP1 PUSH1 0x20 ADD DUP1 DUP4 GT PUSH2 0xB89 JUMPI DUP3 SWAP1 SUB PUSH1 0x1F AND DUP3 ADD SWAP2 JUMPDEST POP POP POP POP POP DUP2 JUMP JUMPDEST PUSH1 0x40 MLOAD DUP1 PUSH2 0x180 ADD PUSH1 0x40 MSTORE DUP1 PUSH1 0x1 SLOAD DUP2 MSTORE PUSH1 0x20 ADD DUP10 DUP2 MSTORE PUSH1 0x20 ADD DUP9 DUP2 MSTORE PUSH1 0x20 ADD DUP8 DUP2 MSTORE PUSH1 0x20 ADD DUP7 DUP2 MSTORE PUSH1 0x20 ADD DUP6 DUP2 MSTORE PUSH1 0x20 ADD DUP5 DUP2 MSTORE PUSH1 0x20 ADD DUP4 DUP2 MSTORE PUSH1 0x20 ADD DUP3 DUP2 MSTORE PUSH1 0x20 ADD PUSH1 0x40 MLOAD DUP1 PUSH1 0x40 ADD PUSH1 0x40 MSTORE DUP1 PUSH1 0x3 DUP2 MSTORE PUSH1 0x20 ADD PUSH32 0x4445560000000000000000000000000000000000000000000000000000000000 DUP2 MSTORE POP DUP2 MSTORE PUSH1 0x20 ADD PUSH1 0x0 DUP2 MSTORE PUSH1 0x20 ADD DUP4 DUP2 MSTORE POP PUSH1 0x8 PUSH1 0x0 PUSH1 0x1 SLOAD DUP2 MSTORE PUSH1 0x20 ADD SWAP1 DUP2 MSTORE PUSH1 0x20 ADD PUSH1 0x0 KECCAK256 PUSH1 0x0 DUP3 ADD MLOAD DUP2 PUSH1 0x0 ADD SSTORE PUSH1 0x20 DUP3 ADD MLOAD DUP2 PUSH1 0x1 ADD SSTORE PUSH1 0x40 DUP3 ADD MLOAD DUP2 PUSH1 0x2 ADD SWAP1 DUP1 MLOAD SWAP1 PUSH1 0x20 ADD SWAP1 PUSH2 0xC7D SWAP3 SWAP2 SWAP1 PUSH2 0x2F6F JUMP JUMPDEST POP PUSH1 0x60 DUP3 ADD MLOAD DUP2 PUSH1 0x3 ADD SWAP1 DUP1 MLOAD SWAP1 PUSH1 0x20 ADD SWAP1 PUSH2 0xC9A SWAP3 SWAP2 SWAP1 PUSH2 0x2F6F JUMP JUMPDEST POP PUSH1 0x80 DUP3 ADD MLOAD DUP2 PUSH1 0x4 ADD SWAP1 DUP1 MLOAD SWAP1 PUSH1 0x20 ADD SWAP1 PUSH2 0xCB7 SWAP3 SWAP2 SWAP1 PUSH2 0x2F6F JUMP JUMPDEST POP PUSH1 0xA0 DUP3 ADD MLOAD DUP2 PUSH1 0x5 ADD SSTORE PUSH1 0xC0 DUP3 ADD MLOAD DUP2 PUSH1 0x6 ADD SSTORE PUSH1 0xE0 DUP3 ADD MLOAD DUP2 PUSH1 0x7 ADD SSTORE PUSH2 0x100 DUP3 ADD MLOAD DUP2 PUSH1 0x8 ADD SWAP1 DUP1 MLOAD SWAP1 PUSH1 0x20 ADD SWAP1 PUSH2 0xCF3 SWAP3 SWAP2 SWAP1 PUSH2 0x2F6F JUMP JUMPDEST POP PUSH2 0x120 DUP3 ADD MLOAD DUP2 PUSH1 0x9 ADD SWAP1 DUP1 MLOAD SWAP1 PUSH1 0x20 ADD SWAP1 PUSH2 0xD11 SWAP3 SWAP2 SWAP1 PUSH2 0x2F6F JUMP JUMPDEST POP PUSH2 0x140 DUP3 ADD MLOAD DUP2 PUSH1 0xA ADD SSTORE PUSH2 0x160 DUP3 ADD MLOAD DUP2 PUSH1 0xB ADD SSTORE SWAP1 POP POP PUSH1 0x1 PUSH1 0x0 DUP2 SLOAD DUP1 SWAP3 SWAP2 SWAP1 PUSH2 0xD3E SWAP1 PUSH2 0x4121 JUMP JUMPDEST SWAP2 SWAP1 POP SSTORE POP POP POP POP POP POP POP POP POP JUMP JUMPDEST PUSH1 0x40 MLOAD DUP1 PUSH2 0x120 ADD PUSH1 0x40 MSTORE DUP1 PUSH1 0x2 SLOAD DUP2 MSTORE PUSH1 0x20 ADD DUP9 DUP2 MSTORE PUSH1 0x20 ADD DUP8 DUP2 MSTORE PUSH1 0x20 ADD DUP7 DUP2 MSTORE PUSH1 0x20 ADD DUP6 DUP2 MSTORE PUSH1 0x20 ADD DUP5 DUP2 MSTORE PUSH1 0x20 ADD DUP4 DUP2 MSTORE PUSH1 0x20 ADD DUP3 DUP2 MSTORE PUSH1 0x20 ADD PUSH1 0x0 DUP2 MSTORE POP PUSH1 0xA PUSH1 0x0 PUSH1 0x2 SLOAD DUP2 MSTORE PUSH1 0x20 ADD SWAP1 DUP2 MSTORE PUSH1 0x20 ADD PUSH1 0x0 KECCAK256 PUSH1 0x0 DUP3 ADD MLOAD DUP2 PUSH1 0x0 ADD SSTORE PUSH1 0x20 DUP3 ADD MLOAD DUP2 PUSH1 0x1 ADD SSTORE PUSH1 0x40 DUP3 ADD MLOAD DUP2 PUSH1 0x2 ADD SSTORE PUSH1 0x60 DUP3 ADD MLOAD DUP2 PUSH1 0x3 ADD SWAP1 DUP1 MLOAD SWAP1 PUSH1 0x20 ADD SWAP1 PUSH2 0xDDF SWAP3 SWAP2 SWAP1 PUSH2 0x2F6F JUMP JUMPDEST POP PUSH1 0x80 DUP3 ADD MLOAD DUP2 PUSH1 0x4 ADD SWAP1 DUP1 MLOAD SWAP1 PUSH1 0x20 ADD SWAP1 PUSH2 0xDFC SWAP3 SWAP2 SWAP1 PUSH2 0x2F6F JUMP JUMPDEST POP PUSH1 0xA0 DUP3 ADD MLOAD DUP2 PUSH1 0x5 ADD SWAP1 DUP1 MLOAD SWAP1 PUSH1 0x20 ADD SWAP1 PUSH2 0xE19 SWAP3 SWAP2 SWAP1 PUSH2 0x2F6F JUMP JUMPDEST POP PUSH1 0xC0 DUP3 ADD MLOAD DUP2 PUSH1 0x6 ADD SWAP1 DUP1 MLOAD SWAP1 PUSH1 0x20 ADD SWAP1 PUSH2 0xE36 SWAP3 SWAP2 SWAP1 PUSH2 0x2F6F JUMP JUMPDEST POP PUSH1 0xE0 DUP3 ADD MLOAD DUP2 PUSH1 0x7 ADD SSTORE PUSH2 0x100 DUP3 ADD MLOAD DUP2 PUSH1 0x8 ADD SSTORE SWAP1 POP POP PUSH1 0x2 PUSH1 0x0 DUP2 SLOAD DUP1 SWAP3 SWAP2 SWAP1 PUSH2 0xE62 SWAP1 PUSH2 0x4121 JUMP JUMPDEST SWAP2 SWAP1 POP SSTORE POP POP POP POP POP POP POP POP JUMP JUMPDEST DUP3 PUSH1 0x8 PUSH1 0x0 DUP7 DUP2 MSTORE PUSH1 0x20 ADD SWAP1 DUP2 MSTORE PUSH1 0x20 ADD PUSH1 0x0 KECCAK256 PUSH1 0x9 ADD SWAP1 DUP1 MLOAD SWAP1 PUSH1 0x20 ADD SWAP1 PUSH2 0xE9A SWAP3 SWAP2 SWAP1 PUSH2 0x2F6F JUMP JUMPDEST POP DUP2 PUSH1 0x8 PUSH1 0x0 DUP7 DUP2 MSTORE PUSH1 0x20 ADD SWAP1 DUP2 MSTORE PUSH1 0x20 ADD PUSH1 0x0 KECCAK256 PUSH1 0xA ADD DUP2 SWAP1 SSTORE POP DUP1 PUSH1 0x8 PUSH1 0x0 DUP7 DUP2 MSTORE PUSH1 0x20 ADD SWAP1 DUP2 MSTORE PUSH1 0x20 ADD PUSH1 0x0 KECCAK256 PUSH1 0xB ADD DUP2 SWAP1 SSTORE POP POP POP POP POP JUMP JUMPDEST PUSH1 0x40 MLOAD DUP1 PUSH2 0x100 ADD PUSH1 0x40 MSTORE DUP1 PUSH1 0x0 SLOAD DUP2 MSTORE PUSH1 0x20 ADD DUP5 DUP2 MSTORE PUSH1 0x20 ADD DUP4 DUP2 MSTORE PUSH1 0x20 ADD DUP3 DUP2 MSTORE PUSH1 0x20 ADD CALLER PUSH20 0xFFFFFFFFFFFFFFFFFFFFFFFFFFFFFFFFFFFFFFFF AND DUP2 MSTORE PUSH1 0x20 ADD PUSH1 0x40 MLOAD DUP1 PUSH1 0x20 ADD PUSH1 0x40 MSTORE DUP1 PUSH1 0x0 DUP2 MSTORE POP DUP2 MSTORE PUSH1 0x20 ADD PUSH1 0x40 MLOAD DUP1 PUSH1 0x60 ADD PUSH1 0x40 MSTORE DUP1 PUSH1 0x28 DUP2 MSTORE PUSH1 0x20 ADD PUSH2 0x4292 PUSH1 0x28 SWAP2 CODECOPY DUP2 MSTORE PUSH1 0x20 ADD PUSH1 0x0 DUP2 MSTORE POP PUSH1 0x7 PUSH1 0x0 DUP1 SLOAD DUP2 MSTORE PUSH1 0x20 ADD SWAP1 DUP2 MSTORE PUSH1 0x20 ADD PUSH1 0x0 KECCAK256 PUSH1 0x0 DUP3 ADD MLOAD DUP2 PUSH1 0x0 ADD SSTORE PUSH1 0x20 DUP3 ADD MLOAD DUP2 PUSH1 0x1 ADD SWAP1 DUP1 MLOAD SWAP1 PUSH1 0x20 ADD SWAP1 PUSH2 0xF8B SWAP3 SWAP2 SWAP1 PUSH2 0x2F6F JUMP JUMPDEST POP PUSH1 0x40 DUP3 ADD MLOAD DUP2 PUSH1 0x2 ADD SWAP1 DUP1 MLOAD SWAP1 PUSH1 0x20 ADD SWAP1 PUSH2 0xFA8 SWAP3 SWAP2 SWAP1 PUSH2 0x2F6F JUMP JUMPDEST POP PUSH1 0x60 DUP3 ADD MLOAD DUP2 PUSH1 0x3 ADD SWAP1 DUP1 MLOAD SWAP1 PUSH1 0x20 ADD SWAP1 PUSH2 0xFC5 SWAP3 SWAP2 SWAP1 PUSH2 0x2F6F JUMP JUMPDEST POP PUSH1 0x80 DUP3 ADD MLOAD DUP2 PUSH1 0x4 ADD PUSH1 0x0 PUSH2 0x100 EXP DUP2 SLOAD DUP2 PUSH20 0xFFFFFFFFFFFFFFFFFFFFFFFFFFFFFFFFFFFFFFFF MUL NOT AND SWAP1 DUP4 PUSH20 0xFFFFFFFFFFFFFFFFFFFFFFFFFFFFFFFFFFFFFFFF AND MUL OR SWAP1 SSTORE POP PUSH1 0xA0 DUP3 ADD MLOAD DUP2 PUSH1 0x5 ADD SWAP1 DUP1 MLOAD SWAP1 PUSH1 0x20 ADD SWAP1 PUSH2 0x1029 SWAP3 SWAP2 SWAP1 PUSH2 0x2F6F JUMP JUMPDEST POP PUSH1 0xC0 DUP3 ADD MLOAD DUP2 PUSH1 0x6 ADD SWAP1 DUP1 MLOAD SWAP1 PUSH1 0x20 ADD SWAP1 PUSH2 0x1046 SWAP3 SWAP2 SWAP1 PUSH2 0x2F6F JUMP JUMPDEST POP PUSH1 0xE0 DUP3 ADD MLOAD DUP2 PUSH1 0x7 ADD SSTORE SWAP1 POP POP PUSH1 0x0 DUP1 DUP2 SLOAD DUP1 SWAP3 SWAP2 SWAP1 PUSH2 0x1066 SWAP1 PUSH2 0x4121 JUMP JUMPDEST SWAP2 SWAP1 POP SSTORE POP POP POP POP JUMP JUMPDEST PUSH1 0x60 PUSH1 0x0 DUP1 JUMPDEST PUSH1 0x6 SLOAD DUP2 LT ISZERO PUSH2 0x10C0 JUMPI DUP4 PUSH1 0x10 PUSH1 0x0 DUP4 DUP2 MSTORE PUSH1 0x20 ADD SWAP1 DUP2 MSTORE PUSH1 0x20 ADD PUSH1 0x0 KECCAK256 PUSH1 0x2 ADD SLOAD EQ ISZERO PUSH2 0x10AD JUMPI DUP2 DUP1 PUSH2 0x10A9 SWAP1 PUSH2 0x4121 JUMP JUMPDEST SWAP3 POP POP JUMPDEST DUP1 DUP1 PUSH2 0x10B8 SWAP1 PUSH2 0x4121 JUMP JUMPDEST SWAP2 POP POP PUSH2 0x1076 JUMP JUMPDEST POP PUSH1 0x0 DUP2 PUSH8 0xFFFFFFFFFFFFFFFF DUP2 GT ISZERO PUSH2 0x10DD JUMPI PUSH2 0x10DC PUSH2 0x4226 JUMP JUMPDEST JUMPDEST PUSH1 0x40 MLOAD SWAP1 DUP1 DUP3 MSTORE DUP1 PUSH1 0x20 MUL PUSH1 0x20 ADD DUP3 ADD PUSH1 0x40 MSTORE DUP1 ISZERO PUSH2 0x110B JUMPI DUP2 PUSH1 0x20 ADD PUSH1 0x20 DUP3 MUL DUP1 CALLDATASIZE DUP4 CALLDATACOPY DUP1 DUP3 ADD SWAP2 POP POP SWAP1 POP JUMPDEST POP SWAP1 POP PUSH1 0x0 DUP1 JUMPDEST PUSH1 0x6 SLOAD DUP2 LT ISZERO PUSH2 0x117C JUMPI DUP6 PUSH1 0x10 PUSH1 0x0 DUP4 DUP2 MSTORE PUSH1 0x20 ADD SWAP1 DUP2 MSTORE PUSH1 0x20 ADD PUSH1 0x0 KECCAK256 PUSH1 0x2 ADD SLOAD EQ ISZERO PUSH2 0x1169 JUMPI DUP1 DUP4 DUP4 DUP2 MLOAD DUP2 LT PUSH2 0x114E JUMPI PUSH2 0x114D PUSH2 0x41F7 JUMP JUMPDEST JUMPDEST PUSH1 0x20 MUL PUSH1 0x20 ADD ADD DUP2 DUP2 MSTORE POP POP DUP2 DUP1 PUSH2 0x1165 SWAP1 PUSH2 0x4121 JUMP JUMPDEST SWAP3 POP POP JUMPDEST DUP1 DUP1 PUSH2 0x1174 SWAP1 PUSH2 0x4121 JUMP JUMPDEST SWAP2 POP POP PUSH2 0x1112 JUMP JUMPDEST POP DUP2 SWAP4 POP POP POP POP SWAP2 SWAP1 POP JUMP JUMPDEST PUSH1 0x40 MLOAD DUP1 PUSH1 0x40 ADD PUSH1 0x40 MSTORE DUP1 DUP4 DUP2 MSTORE PUSH1 0x20 ADD DUP3 DUP2 MSTORE POP PUSH1 0xB PUSH1 0x0 PUSH1 0x3 SLOAD DUP2 MSTORE PUSH1 0x20 ADD SWAP1 DUP2 MSTORE PUSH1 0x20 ADD PUSH1 0x0 KECCAK256 PUSH1 0x0 DUP3 ADD MLOAD DUP2 PUSH1 0x0 ADD SWAP1 DUP1 MLOAD SWAP1 PUSH1 0x20 ADD SWAP1 PUSH2 0x11CE SWAP3 SWAP2 SWAP1 PUSH2 0x2F6F JUMP JUMPDEST POP PUSH1 0x20 DUP3 ADD MLOAD DUP2 PUSH1 0x1 ADD SWAP1 DUP1 MLOAD SWAP1 PUSH1 0x20 ADD SWAP1 PUSH2 0x11EB SWAP3 SWAP2 SWAP1 PUSH2 0x2F6F JUMP JUMPDEST POP SWAP1 POP POP PUSH1 0x3 PUSH1 0x0 DUP2 SLOAD DUP1 SWAP3 SWAP2 SWAP1 PUSH2 0x1202 SWAP1 PUSH2 0x4121 JUMP JUMPDEST SWAP2 SWAP1 POP SSTORE POP POP POP JUMP JUMPDEST DUP4 PUSH1 0x8 PUSH1 0x0 DUP8 DUP2 MSTORE PUSH1 0x20 ADD SWAP1 DUP2 MSTORE PUSH1 0x20 ADD PUSH1 0x0 KECCAK256 PUSH1 0x2 ADD SWAP1 DUP1 MLOAD SWAP1 PUSH1 0x20 ADD SWAP1 PUSH2 0x1235 SWAP3 SWAP2 SWAP1 PUSH2 0x2F6F JUMP JUMPDEST POP DUP3 PUSH1 0x8 PUSH1 0x0 DUP8 DUP2 MSTORE PUSH1 0x20 ADD SWAP1 DUP2 MSTORE PUSH1 0x20 ADD PUSH1 0x0 KECCAK256 PUSH1 0x3 ADD SWAP1 DUP1 MLOAD SWAP1 PUSH1 0x20 ADD SWAP1 PUSH2 0x1260 SWAP3 SWAP2 SWAP1 PUSH2 0x2F6F JUMP JUMPDEST POP DUP2 PUSH1 0x8 PUSH1 0x0 DUP8 DUP2 MSTORE PUSH1 0x20 ADD SWAP1 DUP2 MSTORE PUSH1 0x20 ADD PUSH1 0x0 KECCAK256 PUSH1 0x4 ADD SWAP1 DUP1 MLOAD SWAP1 PUSH1 0x20 ADD SWAP1 PUSH2 0x128B SWAP3 SWAP2 SWAP1 PUSH2 0x2F6F JUMP JUMPDEST POP DUP1 PUSH1 0x8 PUSH1 0x0 DUP8 DUP2 MSTORE PUSH1 0x20 ADD SWAP1 DUP2 MSTORE PUSH1 0x20 ADD PUSH1 0x0 KECCAK256 PUSH1 0x7 ADD DUP2 SWAP1 SSTORE POP POP POP POP POP POP JUMP JUMPDEST DUP4 PUSH1 0xA PUSH1 0x0 DUP8 DUP2 MSTORE PUSH1 0x20 ADD SWAP1 DUP2 MSTORE PUSH1 0x20 ADD PUSH1 0x0 KECCAK256 PUSH1 0x3 ADD SWAP1 DUP1 MLOAD SWAP1 PUSH1 0x20 ADD SWAP1 PUSH2 0x12D8 SWAP3 SWAP2 SWAP1 PUSH2 0x2F6F JUMP JUMPDEST POP DUP3 PUSH1 0xA PUSH1 0x0 DUP8 DUP2 MSTORE PUSH1 0x20 ADD SWAP1 DUP2 MSTORE PUSH1 0x20 ADD PUSH1 0x0 KECCAK256 PUSH1 0x4 ADD SWAP1 DUP1 MLOAD SWAP1 PUSH1 0x20 ADD SWAP1 PUSH2 0x1303 SWAP3 SWAP2 SWAP1 PUSH2 0x2F6F JUMP JUMPDEST POP DUP2 PUSH1 0xA PUSH1 0x0 DUP8 DUP2 MSTORE PUSH1 0x20 ADD SWAP1 DUP2 MSTORE PUSH1 0x20 ADD PUSH1 0x0 KECCAK256 PUSH1 0x6 ADD SWAP1 DUP1 MLOAD SWAP1 PUSH1 0x20 ADD SWAP1 PUSH2 0x132E SWAP3 SWAP2 SWAP1 PUSH2 0x2F6F JUMP JUMPDEST POP DUP1 PUSH1 0xA PUSH1 0x0 DUP8 DUP2 MSTORE PUSH1 0x20 ADD SWAP1 DUP2 MSTORE PUSH1 0x20 ADD PUSH1 0x0 KECCAK256 PUSH1 0x7 ADD DUP2 SWAP1 SSTORE POP POP POP POP POP POP JUMP JUMPDEST DUP1 PUSH1 0xC PUSH1 0x0 DUP5 DUP2 MSTORE PUSH1 0x20 ADD SWAP1 DUP2 MSTORE PUSH1 0x20 ADD PUSH1 0x0 KECCAK256 SWAP1 DUP1 MLOAD SWAP1 PUSH1 0x20 ADD SWAP1 PUSH2 0x1378 SWAP3 SWAP2 SWAP1 PUSH2 0x2F6F JUMP JUMPDEST POP POP POP JUMP JUMPDEST PUSH1 0x60 PUSH1 0x0 DUP1 JUMPDEST PUSH1 0x2 SLOAD DUP2 LT ISZERO PUSH2 0x13CD JUMPI DUP4 PUSH1 0xA PUSH1 0x0 DUP4 DUP2 MSTORE PUSH1 0x20 ADD SWAP1 DUP2 MSTORE PUSH1 0x20 ADD PUSH1 0x0 KECCAK256 PUSH1 0x1 ADD SLOAD EQ ISZERO PUSH2 0x13BA JUMPI DUP2 DUP1 PUSH2 0x13B6 SWAP1 PUSH2 0x4121 JUMP JUMPDEST SWAP3 POP POP JUMPDEST DUP1 DUP1 PUSH2 0x13C5 SWAP1 PUSH2 0x4121 JUMP JUMPDEST SWAP2 POP POP PUSH2 0x1383 JUMP JUMPDEST POP PUSH1 0x0 DUP2 PUSH8 0xFFFFFFFFFFFFFFFF DUP2 GT ISZERO PUSH2 0x13EA JUMPI PUSH2 0x13E9 PUSH2 0x4226 JUMP JUMPDEST JUMPDEST PUSH1 0x40 MLOAD SWAP1 DUP1 DUP3 MSTORE DUP1 PUSH1 0x20 MUL PUSH1 0x20 ADD DUP3 ADD PUSH1 0x40 MSTORE DUP1 ISZERO PUSH2 0x1418 JUMPI DUP2 PUSH1 0x20 ADD PUSH1 0x20 DUP3 MUL DUP1 CALLDATASIZE DUP4 CALLDATACOPY DUP1 DUP3 ADD SWAP2 POP POP SWAP1 POP JUMPDEST POP SWAP1 POP PUSH1 0x0 DUP1 JUMPDEST PUSH1 0x2 SLOAD DUP2 LT ISZERO PUSH2 0x1489 JUMPI DUP6 PUSH1 0xA PUSH1 0x0 DUP4 DUP2 MSTORE PUSH1 0x20 ADD SWAP1 DUP2 MSTORE PUSH1 0x20 ADD PUSH1 0x0 KECCAK256 PUSH1 0x1 ADD SLOAD EQ ISZERO PUSH2 0x1476 JUMPI DUP1 DUP4 DUP4 DUP2 MLOAD DUP2 LT PUSH2 0x145B JUMPI PUSH2 0x145A PUSH2 0x41F7 JUMP JUMPDEST JUMPDEST PUSH1 0x20 MUL PUSH1 0x20 ADD ADD DUP2 DUP2 MSTORE POP POP DUP2 DUP1 PUSH2 0x1472 SWAP1 PUSH2 0x4121 JUMP JUMPDEST SWAP3 POP POP JUMPDEST DUP1 DUP1 PUSH2 0x1481 SWAP1 PUSH2 0x4121 JUMP JUMPDEST SWAP2 POP POP PUSH2 0x141F JUMP JUMPDEST POP DUP2 SWAP4 POP POP POP POP SWAP2 SWAP1 POP JUMP JUMPDEST PUSH1 0x40 MLOAD DUP1 PUSH1 0xE0 ADD PUSH1 0x40 MSTORE DUP1 PUSH1 0x5 SLOAD DUP2 MSTORE PUSH1 0x20 ADD DUP8 DUP2 MSTORE PUSH1 0x20 ADD DUP7 DUP2 MSTORE PUSH1 0x20 ADD DUP6 DUP2 MSTORE PUSH1 0x20 ADD DUP5 DUP2 MSTORE PUSH1 0x20 ADD DUP4 DUP2 MSTORE PUSH1 0x20 ADD DUP3 DUP2 MSTORE POP PUSH1 0xF PUSH1 0x0 PUSH1 0x5 SLOAD DUP2 MSTORE PUSH1 0x20 ADD SWAP1 DUP2 MSTORE PUSH1 0x20 ADD PUSH1 0x0 KECCAK256 PUSH1 0x0 DUP3 ADD MLOAD DUP2 PUSH1 0x0 ADD SSTORE PUSH1 0x20 DUP3 ADD MLOAD DUP2 PUSH1 0x1 ADD SSTORE PUSH1 0x40 DUP3 ADD MLOAD DUP2 PUSH1 0x2 ADD SSTORE PUSH1 0x60 DUP3 ADD MLOAD DUP2 PUSH1 0x3 ADD SSTORE PUSH1 0x80 DUP3 ADD MLOAD DUP2 PUSH1 0x4 ADD SWAP1 DUP1 MLOAD SWAP1 PUSH1 0x20 ADD SWAP1 PUSH2 0x1523 SWAP3 SWAP2 SWAP1 PUSH2 0x2F6F JUMP JUMPDEST POP PUSH1 0xA0 DUP3 ADD MLOAD DUP2 PUSH1 0x5 ADD SWAP1 DUP1 MLOAD SWAP1 PUSH1 0x20 ADD SWAP1 PUSH2 0x1540 SWAP3 SWAP2 SWAP1 PUSH2 0x2F6F JUMP JUMPDEST POP PUSH1 0xC0 DUP3 ADD MLOAD DUP2 PUSH1 0x6 ADD SWAP1 DUP1 MLOAD SWAP1 PUSH1 0x20 ADD SWAP1 PUSH2 0x155D SWAP3 SWAP2 SWAP1 PUSH2 0x2F6F JUMP JUMPDEST POP SWAP1 POP POP PUSH1 0x5 PUSH1 0x0 DUP2 SLOAD DUP1 SWAP3 SWAP2 SWAP1 PUSH2 0x1574 SWAP1 PUSH2 0x4121 JUMP JUMPDEST SWAP2 SWAP1 POP SSTORE POP POP POP POP POP POP POP JUMP JUMPDEST PUSH1 0x40 MLOAD DUP1 PUSH1 0xA0 ADD PUSH1 0x40 MSTORE DUP1 PUSH1 0x6 SLOAD DUP2 MSTORE PUSH1 0x20 ADD DUP3 DUP2 MSTORE PUSH1 0x20 ADD DUP5 DUP2 MSTORE PUSH1 0x20 ADD DUP6 DUP2 MSTORE PUSH1 0x20 ADD DUP4 DUP2 MSTORE POP PUSH1 0x10 PUSH1 0x0 PUSH1 0x6 SLOAD DUP2 MSTORE PUSH1 0x20 ADD SWAP1 DUP2 MSTORE PUSH1 0x20 ADD PUSH1 0x0 KECCAK256 PUSH1 0x0 DUP3 ADD MLOAD DUP2 PUSH1 0x0 ADD SSTORE PUSH1 0x20 DUP3 ADD MLOAD DUP2 PUSH1 0x1 ADD SSTORE PUSH1 0x40 DUP3 ADD MLOAD DUP2 PUSH1 0x2 ADD SSTORE PUSH1 0x60 DUP3 ADD MLOAD DUP2 PUSH1 0x3 ADD SSTORE PUSH1 0x80 DUP3 ADD MLOAD DUP2 PUSH1 0x4 ADD SWAP1 DUP1 MLOAD SWAP1 PUSH1 0x20 ADD SWAP1 PUSH2 0x1603 SWAP3 SWAP2 SWAP1 PUSH2 0x2F6F JUMP JUMPDEST POP SWAP1 POP POP PUSH1 0x1 PUSH1 0xA PUSH1 0x0 DUP7 DUP2 MSTORE PUSH1 0x20 ADD SWAP1 DUP2 MSTORE PUSH1 0x20 ADD PUSH1 0x0 KECCAK256 PUSH1 0x8 ADD PUSH1 0x0 DUP3 DUP3 SLOAD PUSH2 0x162E SWAP2 SWAP1 PUSH2 0x3FB6 JUMP JUMPDEST SWAP3 POP POP DUP2 SWAP1 SSTORE POP DUP2 PUSH1 0xA PUSH1 0x0 DUP7 DUP2 MSTORE PUSH1 0x20 ADD SWAP1 DUP2 MSTORE PUSH1 0x20 ADD PUSH1 0x0 KECCAK256 PUSH1 0x5 ADD SWAP1 DUP1 MLOAD SWAP1 PUSH1 0x20 ADD SWAP1 PUSH2 0x165F SWAP3 SWAP2 SWAP1 PUSH2 0x2F6F JUMP JUMPDEST POP PUSH1 0x6 PUSH1 0x0 DUP2 SLOAD DUP1 SWAP3 SWAP2 SWAP1 PUSH2 0x1673 SWAP1 PUSH2 0x4121 JUMP JUMPDEST SWAP2 SWAP1 POP SSTORE POP POP POP POP POP JUMP JUMPDEST PUSH1 0x11 PUSH1 0x0 SWAP1 SLOAD SWAP1 PUSH2 0x100 EXP SWAP1 DIV PUSH20 0xFFFFFFFFFFFFFFFFFFFFFFFFFFFFFFFFFFFFFFFF AND DUP2 JUMP JUMPDEST PUSH1 0x60 PUSH1 0x0 JUMPDEST PUSH1 0x4 SLOAD DUP2 LT ISZERO PUSH2 0x170B JUMPI DUP3 PUSH1 0xE PUSH1 0x0 DUP4 DUP2 MSTORE PUSH1 0x20 ADD SWAP1 DUP2 MSTORE PUSH1 0x20 ADD PUSH1 0x0 KECCAK256 PUSH1 0x2 ADD SLOAD EQ ISZERO PUSH2 0x16F8 JUMPI PUSH2 0x16F0 PUSH1 0xE PUSH1 0x0 DUP4 DUP2 MSTORE PUSH1 0x20 ADD SWAP1 DUP2 MSTORE PUSH1 0x20 ADD PUSH1 0x0 KECCAK256 PUSH1 0x1 ADD SLOAD PUSH2 0x2D44 JUMP JUMPDEST SWAP2 POP POP PUSH2 0x1745 JUMP JUMPDEST DUP1 DUP1 PUSH2 0x1703 SWAP1 PUSH2 0x4121 JUMP JUMPDEST SWAP2 POP POP PUSH2 0x16A9 JUMP JUMPDEST POP PUSH1 0x40 MLOAD DUP1 PUSH1 0x40 ADD PUSH1 0x40 MSTORE DUP1 PUSH1 0x5 DUP2 MSTORE PUSH1 0x20 ADD PUSH32 0x46616C7365000000000000000000000000000000000000000000000000000000 DUP2 MSTORE POP SWAP1 POP JUMPDEST SWAP2 SWAP1 POP JUMP JUMPDEST PUSH1 0x10 PUSH1 0x20 MSTORE DUP1 PUSH1 0x0 MSTORE PUSH1 0x40 PUSH1 0x0 KECCAK256 PUSH1 0x0 SWAP2 POP SWAP1 POP DUP1 PUSH1 0x0 ADD SLOAD SWAP1 DUP1 PUSH1 0x1 ADD SLOAD SWAP1 DUP1 PUSH1 0x2 ADD SLOAD SWAP1 DUP1 PUSH1 0x3 ADD SLOAD SWAP1 DUP1 PUSH1 0x4 ADD DUP1 SLOAD PUSH2 0x1785 SWAP1 PUSH2 0x40BE JUMP JUMPDEST DUP1 PUSH1 0x1F ADD PUSH1 0x20 DUP1 SWAP2 DIV MUL PUSH1 0x20 ADD PUSH1 0x40 MLOAD SWAP1 DUP2 ADD PUSH1 0x40 MSTORE DUP1 SWAP3 SWAP2 SWAP1 DUP2 DUP2 MSTORE PUSH1 0x20 ADD DUP3 DUP1 SLOAD PUSH2 0x17B1 SWAP1 PUSH2 0x40BE JUMP JUMPDEST DUP1 ISZERO PUSH2 0x17FE JUMPI DUP1 PUSH1 0x1F LT PUSH2 0x17D3 JUMPI PUSH2 0x100 DUP1 DUP4 SLOAD DIV MUL DUP4 MSTORE SWAP2 PUSH1 0x20 ADD SWAP2 PUSH2 0x17FE JUMP JUMPDEST DUP3 ADD SWAP2 SWAP1 PUSH1 0x0 MSTORE PUSH1 0x20 PUSH1 0x0 KECCAK256 SWAP1 JUMPDEST DUP2 SLOAD DUP2 MSTORE SWAP1 PUSH1 0x1 ADD SWAP1 PUSH1 0x20 ADD DUP1 DUP4 GT PUSH2 0x17E1 JUMPI DUP3 SWAP1 SUB PUSH1 0x1F AND DUP3 ADD SWAP2 JUMPDEST POP POP POP POP POP SWAP1 POP DUP6 JUMP JUMPDEST PUSH1 0x40 MLOAD DUP1 PUSH1 0x80 ADD PUSH1 0x40 MSTORE DUP1 PUSH1 0x4 SLOAD DUP2 MSTORE PUSH1 0x20 ADD DUP5 DUP2 MSTORE PUSH1 0x20 ADD DUP4 DUP2 MSTORE PUSH1 0x20 ADD DUP3 DUP2 MSTORE POP PUSH1 0xE PUSH1 0x0 PUSH1 0x4 SLOAD DUP2 MSTORE PUSH1 0x20 ADD SWAP1 DUP2 MSTORE PUSH1 0x20 ADD PUSH1 0x0 KECCAK256 PUSH1 0x0 DUP3 ADD MLOAD DUP2 PUSH1 0x0 ADD SSTORE PUSH1 0x20 DUP3 ADD MLOAD DUP2 PUSH1 0x1 ADD SSTORE PUSH1 0x40 DUP3 ADD MLOAD DUP2 PUSH1 0x2 ADD SSTORE PUSH1 0x60 DUP3 ADD MLOAD DUP2 PUSH1 0x3 ADD SWAP1 DUP1 MLOAD SWAP1 PUSH1 0x20 ADD SWAP1 PUSH2 0x187A SWAP3 SWAP2 SWAP1 PUSH2 0x2F6F JUMP JUMPDEST POP SWAP1 POP POP PUSH1 0x1 PUSH1 0x8 PUSH1 0x0 DUP6 DUP2 MSTORE PUSH1 0x20 ADD SWAP1 DUP2 MSTORE PUSH1 0x20 ADD PUSH1 0x0 KECCAK256 PUSH1 0x5 ADD PUSH1 0x0 DUP3 DUP3 SLOAD PUSH2 0x18A5 SWAP2 SWAP1 PUSH2 0x3FB6 JUMP JUMPDEST SWAP3 POP POP DUP2 SWAP1 SSTORE POP PUSH1 0x4 PUSH1 0x0 DUP2 SLOAD DUP1 SWAP3 SWAP2 SWAP1 PUSH2 0x18BF SWAP1 PUSH2 0x4121 JUMP JUMPDEST SWAP2 SWAP1 POP SSTORE POP POP POP POP JUMP JUMPDEST DUP4 PUSH1 0xD PUSH1 0x0 DUP7 DUP2 MSTORE PUSH1 0x20 ADD SWAP1 DUP2 MSTORE PUSH1 0x20 ADD PUSH1 0x0 KECCAK256 PUSH1 0x0 ADD DUP2 SWAP1 SSTORE POP DUP3 PUSH1 0xD PUSH1 0x0 DUP7 DUP2 MSTORE PUSH1 0x20 ADD SWAP1 DUP2 MSTORE PUSH1 0x20 ADD PUSH1 0x0 KECCAK256 PUSH1 0x1 ADD SWAP1 DUP1 MLOAD SWAP1 PUSH1 0x20 ADD SWAP1 PUSH2 0x190E SWAP3 SWAP2 SWAP1 PUSH2 0x2F6F JUMP JUMPDEST POP DUP2 PUSH1 0xD PUSH1 0x0 DUP7 DUP2 MSTORE PUSH1 0x20 ADD SWAP1 DUP2 MSTORE PUSH1 0x20 ADD PUSH1 0x0 KECCAK256 PUSH1 0x2 ADD SWAP1 DUP1 MLOAD SWAP1 PUSH1 0x20 ADD SWAP1 PUSH2 0x1939 SWAP3 SWAP2 SWAP1 PUSH2 0x2F6F JUMP JUMPDEST POP DUP1 PUSH1 0xD PUSH1 0x0 DUP7 DUP2 MSTORE PUSH1 0x20 ADD SWAP1 DUP2 MSTORE PUSH1 0x20 ADD PUSH1 0x0 KECCAK256 PUSH1 0x3 ADD SWAP1 DUP1 MLOAD SWAP1 PUSH1 0x20 ADD SWAP1 PUSH2 0x1964 SWAP3 SWAP2 SWAP1 PUSH2 0x2F6F JUMP JUMPDEST POP POP POP POP POP JUMP JUMPDEST PUSH1 0x1 SLOAD DUP2 JUMP JUMPDEST DUP1 PUSH1 0x9 PUSH1 0x0 DUP5 DUP2 MSTORE PUSH1 0x20 ADD SWAP1 DUP2 MSTORE PUSH1 0x20 ADD PUSH1 0x0 KECCAK256 SWAP1 DUP1 MLOAD SWAP1 PUSH1 0x20 ADD SWAP1 PUSH2 0x1998 SWAP3 SWAP2 SWAP1 PUSH2 0x2F6F JUMP JUMPDEST POP POP POP JUMP JUMPDEST PUSH1 0x0 JUMPDEST PUSH1 0x0 SLOAD DUP2 LT ISZERO PUSH2 0x1A5A JUMPI PUSH1 0x7 PUSH1 0x0 DUP3 DUP2 MSTORE PUSH1 0x20 ADD SWAP1 DUP2 MSTORE PUSH1 0x20 ADD PUSH1 0x0 KECCAK256 PUSH1 0x0 DUP1 DUP3 ADD PUSH1 0x0 SWAP1 SSTORE PUSH1 0x1 DUP3 ADD PUSH1 0x0 PUSH2 0x19D6 SWAP2 SWAP1 PUSH2 0x2FF5 JUMP JUMPDEST PUSH1 0x2 DUP3 ADD PUSH1 0x0 PUSH2 0x19E6 SWAP2 SWAP1 PUSH2 0x2FF5 JUMP JUMPDEST PUSH1 0x3 DUP3 ADD PUSH1 0x0 PUSH2 0x19F6 SWAP2 SWAP1 PUSH2 0x2FF5 JUMP JUMPDEST PUSH1 0x4 DUP3 ADD PUSH1 0x0 PUSH2 0x100 EXP DUP2 SLOAD SWAP1 PUSH20 0xFFFFFFFFFFFFFFFFFFFFFFFFFFFFFFFFFFFFFFFF MUL NOT AND SWAP1 SSTORE PUSH1 0x5 DUP3 ADD PUSH1 0x0 PUSH2 0x1A2D SWAP2 SWAP1 PUSH2 0x2FF5 JUMP JUMPDEST PUSH1 0x6 DUP3 ADD PUSH1 0x0 PUSH2 0x1A3D SWAP2 SWAP1 PUSH2 0x2FF5 JUMP JUMPDEST PUSH1 0x7 DUP3 ADD PUSH1 0x0 SWAP1 SSTORE POP POP DUP1 DUP1 PUSH2 0x1A52 SWAP1 PUSH2 0x4121 JUMP JUMPDEST SWAP2 POP POP PUSH2 0x19A0 JUMP JUMPDEST POP PUSH1 0x0 JUMPDEST PUSH1 0x1 SLOAD DUP2 LT ISZERO PUSH2 0x1B19 JUMPI PUSH1 0x8 PUSH1 0x0 DUP3 DUP2 MSTORE PUSH1 0x20 ADD SWAP1 DUP2 MSTORE PUSH1 0x20 ADD PUSH1 0x0 KECCAK256 PUSH1 0x0 DUP1 DUP3 ADD PUSH1 0x0 SWAP1 SSTORE PUSH1 0x1 DUP3 ADD PUSH1 0x0 SWAP1 SSTORE PUSH1 0x2 DUP3 ADD PUSH1 0x0 PUSH2 0x1A9C SWAP2 SWAP1 PUSH2 0x2FF5 JUMP JUMPDEST PUSH1 0x3 DUP3 ADD PUSH1 0x0 PUSH2 0x1AAC SWAP2 SWAP1 PUSH2 0x2FF5 JUMP JUMPDEST PUSH1 0x4 DUP3 ADD PUSH1 0x0 PUSH2 0x1ABC SWAP2 SWAP1 PUSH2 0x2FF5 JUMP JUMPDEST PUSH1 0x5 DUP3 ADD PUSH1 0x0 SWAP1 SSTORE PUSH1 0x6 DUP3 ADD PUSH1 0x0 SWAP1 SSTORE PUSH1 0x7 DUP3 ADD PUSH1 0x0 SWAP1 SSTORE PUSH1 0x8 DUP3 ADD PUSH1 0x0 PUSH2 0x1AE4 SWAP2 SWAP1 PUSH2 0x2FF5 JUMP JUMPDEST PUSH1 0x9 DUP3 ADD PUSH1 0x0 PUSH2 0x1AF4 SWAP2 SWAP1 PUSH2 0x2FF5 JUMP JUMPDEST PUSH1 0xA DUP3 ADD PUSH1 0x0 SWAP1 SSTORE PUSH1 0xB DUP3 ADD PUSH1 0x0 SWAP1 SSTORE POP POP DUP1 DUP1 PUSH2 0x1B11 SWAP1 PUSH2 0x4121 JUMP JUMPDEST SWAP2 POP POP PUSH2 0x1A5E JUMP JUMPDEST POP PUSH1 0x0 JUMPDEST PUSH1 0x1 SLOAD DUP2 LT ISZERO PUSH2 0x1B59 JUMPI PUSH1 0x9 PUSH1 0x0 DUP3 DUP2 MSTORE PUSH1 0x20 ADD SWAP1 DUP2 MSTORE PUSH1 0x20 ADD PUSH1 0x0 KECCAK256 PUSH1 0x0 PUSH2 0x1B46 SWAP2 SWAP1 PUSH2 0x2FF5 JUMP JUMPDEST DUP1 DUP1 PUSH2 0x1B51 SWAP1 PUSH2 0x4121 JUMP JUMPDEST SWAP2 POP POP PUSH2 0x1B1D JUMP JUMPDEST POP PUSH1 0x0 JUMPDEST PUSH1 0x2 SLOAD DUP2 LT ISZERO PUSH2 0x1BF8 JUMPI PUSH1 0xA PUSH1 0x0 DUP3 DUP2 MSTORE PUSH1 0x20 ADD SWAP1 DUP2 MSTORE PUSH1 0x20 ADD PUSH1 0x0 KECCAK256 PUSH1 0x0 DUP1 DUP3 ADD PUSH1 0x0 SWAP1 SSTORE PUSH1 0x1 DUP3 ADD PUSH1 0x0 SWAP1 SSTORE PUSH1 0x2 DUP3 ADD PUSH1 0x0 SWAP1 SSTORE PUSH1 0x3 DUP3 ADD PUSH1 0x0 PUSH2 0x1BA3 SWAP2 SWAP1 PUSH2 0x2FF5 JUMP JUMPDEST PUSH1 0x4 DUP3 ADD PUSH1 0x0 PUSH2 0x1BB3 SWAP2 SWAP1 PUSH2 0x2FF5 JUMP JUMPDEST PUSH1 0x5 DUP3 ADD PUSH1 0x0 PUSH2 0x1BC3 SWAP2 SWAP1 PUSH2 0x2FF5 JUMP JUMPDEST PUSH1 0x6 DUP3 ADD PUSH1 0x0 PUSH2 0x1BD3 SWAP2 SWAP1 PUSH2 0x2FF5 JUMP JUMPDEST PUSH1 0x7 DUP3 ADD PUSH1 0x0 SWAP1 SSTORE PUSH1 0x8 DUP3 ADD PUSH1 0x0 SWAP1 SSTORE POP POP DUP1 DUP1 PUSH2 0x1BF0 SWAP1 PUSH2 0x4121 JUMP JUMPDEST SWAP2 POP POP PUSH2 0x1B5D JUMP JUMPDEST POP PUSH1 0x0 JUMPDEST PUSH1 0x3 SLOAD DUP2 LT ISZERO PUSH2 0x1C4F JUMPI PUSH1 0xB PUSH1 0x0 DUP3 DUP2 MSTORE PUSH1 0x20 ADD SWAP1 DUP2 MSTORE PUSH1 0x20 ADD PUSH1 0x0 KECCAK256 PUSH1 0x0 DUP1 DUP3 ADD PUSH1 0x0 PUSH2 0x1C2A SWAP2 SWAP1 PUSH2 0x2FF5 JUMP JUMPDEST PUSH1 0x1 DUP3 ADD PUSH1 0x0 PUSH2 0x1C3A SWAP2 SWAP1 PUSH2 0x2FF5 JUMP JUMPDEST POP POP DUP1 DUP1 PUSH2 0x1C47 SWAP1 PUSH2 0x4121 JUMP JUMPDEST SWAP2 POP POP PUSH2 0x1BFC JUMP JUMPDEST POP PUSH1 0x0 JUMPDEST PUSH1 0x1 SLOAD DUP2 LT ISZERO PUSH2 0x1C8F JUMPI PUSH1 0xC PUSH1 0x0 DUP3 DUP2 MSTORE PUSH1 0x20 ADD SWAP1 DUP2 MSTORE PUSH1 0x20 ADD PUSH1 0x0 KECCAK256 PUSH1 0x0 PUSH2 0x1C7C SWAP2 SWAP1 PUSH2 0x2FF5 JUMP JUMPDEST DUP1 DUP1 PUSH2 0x1C87 SWAP1 PUSH2 0x4121 JUMP JUMPDEST SWAP2 POP POP PUSH2 0x1C53 JUMP JUMPDEST POP PUSH1 0x0 JUMPDEST PUSH1 0x0 SLOAD DUP2 LT ISZERO PUSH2 0x1CFE JUMPI PUSH1 0xD PUSH1 0x0 DUP3 DUP2 MSTORE PUSH1 0x20 ADD SWAP1 DUP2 MSTORE PUSH1 0x20 ADD PUSH1 0x0 KECCAK256 PUSH1 0x0 DUP1 DUP3 ADD PUSH1 0x0 SWAP1 SSTORE PUSH1 0x1 DUP3 ADD PUSH1 0x0 PUSH2 0x1CC9 SWAP2 SWAP1 PUSH2 0x2FF5 JUMP JUMPDEST PUSH1 0x2 DUP3 ADD PUSH1 0x0 PUSH2 0x1CD9 SWAP2 SWAP1 PUSH2 0x2FF5 JUMP JUMPDEST PUSH1 0x3 DUP3 ADD PUSH1 0x0 PUSH2 0x1CE9 SWAP2 SWAP1 PUSH2 0x2FF5 JUMP JUMPDEST POP POP DUP1 DUP1 PUSH2 0x1CF6 SWAP1 PUSH2 0x4121 JUMP JUMPDEST SWAP2 POP POP PUSH2 0x1C93 JUMP JUMPDEST POP PUSH1 0x0 JUMPDEST PUSH1 0x4 SLOAD DUP2 LT ISZERO PUSH2 0x1D5D JUMPI PUSH1 0xE PUSH1 0x0 DUP3 DUP2 MSTORE PUSH1 0x20 ADD SWAP1 DUP2 MSTORE PUSH1 0x20 ADD PUSH1 0x0 KECCAK256 PUSH1 0x0 DUP1 DUP3 ADD PUSH1 0x0 SWAP1 SSTORE PUSH1 0x1 DUP3 ADD PUSH1 0x0 SWAP1 SSTORE PUSH1 0x2 DUP3 ADD PUSH1 0x0 SWAP1 SSTORE PUSH1 0x3 DUP3 ADD PUSH1 0x0 PUSH2 0x1D48 SWAP2 SWAP1 PUSH2 0x2FF5 JUMP JUMPDEST POP POP DUP1 DUP1 PUSH2 0x1D55 SWAP1 PUSH2 0x4121 JUMP JUMPDEST SWAP2 POP POP PUSH2 0x1D02 JUMP JUMPDEST POP PUSH1 0x0 JUMPDEST PUSH1 0x5 SLOAD DUP2 LT ISZERO PUSH2 0x1DE4 JUMPI PUSH1 0xF PUSH1 0x0 DUP3 DUP2 MSTORE PUSH1 0x20 ADD SWAP1 DUP2 MSTORE PUSH1 0x20 ADD PUSH1 0x0 KECCAK256 PUSH1 0x0 DUP1 DUP3 ADD PUSH1 0x0 SWAP1 SSTORE PUSH1 0x1 DUP3 ADD PUSH1 0x0 SWAP1 SSTORE PUSH1 0x2 DUP3 ADD PUSH1 0x0 SWAP1 SSTORE PUSH1 0x3 DUP3 ADD PUSH1 0x0 SWAP1 SSTORE PUSH1 0x4 DUP3 ADD PUSH1 0x0 PUSH2 0x1DAF SWAP2 SWAP1 PUSH2 0x2FF5 JUMP JUMPDEST PUSH1 0x5 DUP3 ADD PUSH1 0x0 PUSH2 0x1DBF SWAP2 SWAP1 PUSH2 0x2FF5 JUMP JUMPDEST PUSH1 0x6 DUP3 ADD PUSH1 0x0 PUSH2 0x1DCF SWAP2 SWAP1 PUSH2 0x2FF5 JUMP JUMPDEST POP POP DUP1 DUP1 PUSH2 0x1DDC SWAP1 PUSH2 0x4121 JUMP JUMPDEST SWAP2 POP POP PUSH2 0x1D61 JUMP JUMPDEST POP PUSH1 0x0 JUMPDEST PUSH1 0x6 SLOAD DUP2 LT ISZERO PUSH2 0x1E4B JUMPI PUSH1 0x10 PUSH1 0x0 DUP3 DUP2 MSTORE PUSH1 0x20 ADD SWAP1 DUP2 MSTORE PUSH1 0x20 ADD PUSH1 0x0 KECCAK256 PUSH1 0x0 DUP1 DUP3 ADD PUSH1 0x0 SWAP1 SSTORE PUSH1 0x1 DUP3 ADD PUSH1 0x0 SWAP1 SSTORE PUSH1 0x2 DUP3 ADD PUSH1 0x0 SWAP1 SSTORE PUSH1 0x3 DUP3 ADD PUSH1 0x0 SWAP1 SSTORE PUSH1 0x4 DUP3 ADD PUSH1 0x0 PUSH2 0x1E36 SWAP2 SWAP1 PUSH2 0x2FF5 JUMP JUMPDEST POP POP DUP1 DUP1 PUSH2 0x1E43 SWAP1 PUSH2 0x4121 JUMP JUMPDEST SWAP2 POP POP PUSH2 0x1DE8 JUMP JUMPDEST POP PUSH1 0x0 DUP1 DUP2 SWAP1 SSTORE POP PUSH1 0x0 PUSH1 0x1 DUP2 SWAP1 SSTORE POP PUSH1 0x0 PUSH1 0x2 DUP2 SWAP1 SSTORE POP PUSH1 0x0 PUSH1 0x3 DUP2 SWAP1 SSTORE POP PUSH1 0x0 PUSH1 0x4 DUP2 SWAP1 SSTORE POP PUSH1 0x0 PUSH1 0x5 DUP2 SWAP1 SSTORE POP PUSH1 0x0 PUSH1 0x6 DUP2 SWAP1 SSTORE POP JUMP JUMPDEST PUSH1 0x6 SLOAD DUP2 JUMP JUMPDEST PUSH1 0x8 PUSH1 0x20 MSTORE DUP1 PUSH1 0x0 MSTORE PUSH1 0x40 PUSH1 0x0 KECCAK256 PUSH1 0x0 SWAP2 POP SWAP1 POP DUP1 PUSH1 0x0 ADD SLOAD SWAP1 DUP1 PUSH1 0x1 ADD SLOAD SWAP1 DUP1 PUSH1 0x2 ADD DUP1 SLOAD PUSH2 0x1EBA SWAP1 PUSH2 0x40BE JUMP JUMPDEST DUP1 PUSH1 0x1F ADD PUSH1 0x20 DUP1 SWAP2 DIV MUL PUSH1 0x20 ADD PUSH1 0x40 MLOAD SWAP1 DUP2 ADD PUSH1 0x40 MSTORE DUP1 SWAP3 SWAP2 SWAP1 DUP2 DUP2 MSTORE PUSH1 0x20 ADD DUP3 DUP1 SLOAD PUSH2 0x1EE6 SWAP1 PUSH2 0x40BE JUMP JUMPDEST DUP1 ISZERO PUSH2 0x1F33 JUMPI DUP1 PUSH1 0x1F LT PUSH2 0x1F08 JUMPI PUSH2 0x100 DUP1 DUP4 SLOAD DIV MUL DUP4 MSTORE SWAP2 PUSH1 0x20 ADD SWAP2 PUSH2 0x1F33 JUMP JUMPDEST DUP3 ADD SWAP2 SWAP1 PUSH1 0x0 MSTORE PUSH1 0x20 PUSH1 0x0 KECCAK256 SWAP1 JUMPDEST DUP2 SLOAD DUP2 MSTORE SWAP1 PUSH1 0x1 ADD SWAP1 PUSH1 0x20 ADD DUP1 DUP4 GT PUSH2 0x1F16 JUMPI DUP3 SWAP1 SUB PUSH1 0x1F AND DUP3 ADD SWAP2 JUMPDEST POP POP POP POP POP SWAP1 DUP1 PUSH1 0x3 ADD DUP1 SLOAD PUSH2 0x1F48 SWAP1 PUSH2 0x40BE JUMP JUMPDEST DUP1 PUSH1 0x1F ADD PUSH1 0x20 DUP1 SWAP2 DIV MUL PUSH1 0x20 ADD PUSH1 0x40 MLOAD SWAP1 DUP2 ADD PUSH1 0x40 MSTORE DUP1 SWAP3 SWAP2 SWAP1 DUP2 DUP2 MSTORE PUSH1 0x20 ADD DUP3 DUP1 SLOAD PUSH2 0x1F74 SWAP1 PUSH2 0x40BE JUMP JUMPDEST DUP1 ISZERO PUSH2 0x1FC1 JUMPI DUP1 PUSH1 0x1F LT PUSH2 0x1F96 JUMPI PUSH2 0x100 DUP1 DUP4 SLOAD DIV MUL DUP4 MSTORE SWAP2 PUSH1 0x20 ADD SWAP2 PUSH2 0x1FC1 JUMP JUMPDEST DUP3 ADD SWAP2 SWAP1 PUSH1 0x0 MSTORE PUSH1 0x20 PUSH1 0x0 KECCAK256 SWAP1 JUMPDEST DUP2 SLOAD DUP2 MSTORE SWAP1 PUSH1 0x1 ADD SWAP1 PUSH1 0x20 ADD DUP1 DUP4 GT PUSH2 0x1FA4 JUMPI DUP3 SWAP1 SUB PUSH1 0x1F AND DUP3 ADD SWAP2 JUMPDEST POP POP POP POP POP SWAP1 DUP1 PUSH1 0x4 ADD DUP1 SLOAD PUSH2 0x1FD6 SWAP1 PUSH2 0x40BE JUMP JUMPDEST DUP1 PUSH1 0x1F ADD PUSH1 0x20 DUP1 SWAP2 DIV MUL PUSH1 0x20 ADD PUSH1 0x40 MLOAD SWAP1 DUP2 ADD PUSH1 0x40 MSTORE DUP1 SWAP3 SWAP2 SWAP1 DUP2 DUP2 MSTORE PUSH1 0x20 ADD DUP3 DUP1 SLOAD PUSH2 0x2002 SWAP1 PUSH2 0x40BE JUMP JUMPDEST DUP1 ISZERO PUSH2 0x204F JUMPI DUP1 PUSH1 0x1F LT PUSH2 0x2024 JUMPI PUSH2 0x100 DUP1 DUP4 SLOAD DIV MUL DUP4 MSTORE SWAP2 PUSH1 0x20 ADD SWAP2 PUSH2 0x204F JUMP JUMPDEST DUP3 ADD SWAP2 SWAP1 PUSH1 0x0 MSTORE PUSH1 0x20 PUSH1 0x0 KECCAK256 SWAP1 JUMPDEST DUP2 SLOAD DUP2 MSTORE SWAP1 PUSH1 0x1 ADD SWAP1 PUSH1 0x20 ADD DUP1 DUP4 GT PUSH2 0x2032 JUMPI DUP3 SWAP1 SUB PUSH1 0x1F AND DUP3 ADD SWAP2 JUMPDEST POP POP POP POP POP SWAP1 DUP1 PUSH1 0x5 ADD SLOAD SWAP1 DUP1 PUSH1 0x6 ADD SLOAD SWAP1 DUP1 PUSH1 0x7 ADD SLOAD SWAP1 DUP1 PUSH1 0x8 ADD DUP1 SLOAD PUSH2 0x2076 SWAP1 PUSH2 0x40BE JUMP JUMPDEST DUP1 PUSH1 0x1F ADD PUSH1 0x20 DUP1 SWAP2 DIV MUL PUSH1 0x20 ADD PUSH1 0x40 MLOAD SWAP1 DUP2 ADD PUSH1 0x40 MSTORE DUP1 SWAP3 SWAP2 SWAP1 DUP2 DUP2 MSTORE PUSH1 0x20 ADD DUP3 DUP1 SLOAD PUSH2 0x20A2 SWAP1 PUSH2 0x40BE JUMP JUMPDEST DUP1 ISZERO PUSH2 0x20EF JUMPI DUP1 PUSH1 0x1F LT PUSH2 0x20C4 JUMPI PUSH2 0x100 DUP1 DUP4 SLOAD DIV MUL DUP4 MSTORE SWAP2 PUSH1 0x20 ADD SWAP2 PUSH2 0x20EF JUMP JUMPDEST DUP3 ADD SWAP2 SWAP1 PUSH1 0x0 MSTORE PUSH1 0x20 PUSH1 0x0 KECCAK256 SWAP1 JUMPDEST DUP2 SLOAD DUP2 MSTORE SWAP1 PUSH1 0x1 ADD SWAP1 PUSH1 0x20 ADD DUP1 DUP4 GT PUSH2 0x20D2 JUMPI DUP3 SWAP1 SUB PUSH1 0x1F AND DUP3 ADD SWAP2 JUMPDEST POP POP POP POP POP SWAP1 DUP1 PUSH1 0x9 ADD DUP1 SLOAD PUSH2 0x2104 SWAP1 PUSH2 0x40BE JUMP JUMPDEST DUP1 PUSH1 0x1F ADD PUSH1 0x20 DUP1 SWAP2 DIV MUL PUSH1 0x20 ADD PUSH1 0x40 MLOAD SWAP1 DUP2 ADD PUSH1 0x40 MSTORE DUP1 SWAP3 SWAP2 SWAP1 DUP2 DUP2 MSTORE PUSH1 0x20 ADD DUP3 DUP1 SLOAD PUSH2 0x2130 SWAP1 PUSH2 0x40BE JUMP JUMPDEST DUP1 ISZERO PUSH2 0x217D JUMPI DUP1 PUSH1 0x1F LT PUSH2 0x2152 JUMPI PUSH2 0x100 DUP1 DUP4 SLOAD DIV MUL DUP4 MSTORE SWAP2 PUSH1 0x20 ADD SWAP2 PUSH2 0x217D JUMP JUMPDEST DUP3 ADD SWAP2 SWAP1 PUSH1 0x0 MSTORE PUSH1 0x20 PUSH1 0x0 KECCAK256 SWAP1 JUMPDEST DUP2 SLOAD DUP2 MSTORE SWAP1 PUSH1 0x1 ADD SWAP1 PUSH1 0x20 ADD DUP1 DUP4 GT PUSH2 0x2160 JUMPI DUP3 SWAP1 SUB PUSH1 0x1F AND DUP3 ADD SWAP2 JUMPDEST POP POP POP POP POP SWAP1 DUP1 PUSH1 0xA ADD SLOAD SWAP1 DUP1 PUSH1 0xB ADD SLOAD SWAP1 POP DUP13 JUMP JUMPDEST PUSH1 0xF PUSH1 0x20 MSTORE DUP1 PUSH1 0x0 MSTORE PUSH1 0x40 PUSH1 0x0 KECCAK256 PUSH1 0x0 SWAP2 POP SWAP1 POP DUP1 PUSH1 0x0 ADD SLOAD SWAP1 DUP1 PUSH1 0x1 ADD SLOAD SWAP1 DUP1 PUSH1 0x2 ADD SLOAD SWAP1 DUP1 PUSH1 0x3 ADD SLOAD SWAP1 DUP1 PUSH1 0x4 ADD DUP1 SLOAD PUSH2 0x21CE SWAP1 PUSH2 0x40BE JUMP JUMPDEST DUP1 PUSH1 0x1F ADD PUSH1 0x20 DUP1 SWAP2 DIV MUL PUSH1 0x20 ADD PUSH1 0x40 MLOAD SWAP1 DUP2 ADD PUSH1 0x40 MSTORE DUP1 SWAP3 SWAP2 SWAP1 DUP2 DUP2 MSTORE PUSH1 0x20 ADD DUP3 DUP1 SLOAD PUSH2 0x21FA SWAP1 PUSH2 0x40BE JUMP JUMPDEST DUP1 ISZERO PUSH2 0x2247 JUMPI DUP1 PUSH1 0x1F LT PUSH2 0x221C JUMPI PUSH2 0x100 DUP1 DUP4 SLOAD DIV MUL DUP4 MSTORE SWAP2 PUSH1 0x20 ADD SWAP2 PUSH2 0x2247 JUMP JUMPDEST DUP3 ADD SWAP2 SWAP1 PUSH1 0x0 MSTORE PUSH1 0x20 PUSH1 0x0 KECCAK256 SWAP1 JUMPDEST DUP2 SLOAD DUP2 MSTORE SWAP1 PUSH1 0x1 ADD SWAP1 PUSH1 0x20 ADD DUP1 DUP4 GT PUSH2 0x222A JUMPI DUP3 SWAP1 SUB PUSH1 0x1F AND DUP3 ADD SWAP2 JUMPDEST POP POP POP POP POP SWAP1 DUP1 PUSH1 0x5 ADD DUP1 SLOAD PUSH2 0x225C SWAP1 PUSH2 0x40BE JUMP JUMPDEST DUP1 PUSH1 0x1F ADD PUSH1 0x20 DUP1 SWAP2 DIV MUL PUSH1 0x20 ADD PUSH1 0x40 MLOAD SWAP1 DUP2 ADD PUSH1 0x40 MSTORE DUP1 SWAP3 SWAP2 SWAP1 DUP2 DUP2 MSTORE PUSH1 0x20 ADD DUP3 DUP1 SLOAD PUSH2 0x2288 SWAP1 PUSH2 0x40BE JUMP JUMPDEST DUP1 ISZERO PUSH2 0x22D5 JUMPI DUP1 PUSH1 0x1F LT PUSH2 0x22AA JUMPI PUSH2 0x100 DUP1 DUP4 SLOAD DIV MUL DUP4 MSTORE SWAP2 PUSH1 0x20 ADD SWAP2 PUSH2 0x22D5 JUMP JUMPDEST DUP3 ADD SWAP2 SWAP1 PUSH1 0x0 MSTORE PUSH1 0x20 PUSH1 0x0 KECCAK256 SWAP1 JUMPDEST DUP2 SLOAD DUP2 MSTORE SWAP1 PUSH1 0x1 ADD SWAP1 PUSH1 0x20 ADD DUP1 DUP4 GT PUSH2 0x22B8 JUMPI DUP3 SWAP1 SUB PUSH1 0x1F AND DUP3 ADD SWAP2 JUMPDEST POP POP POP POP POP SWAP1 DUP1 PUSH1 0x6 ADD DUP1 SLOAD PUSH2 0x22EA SWAP1 PUSH2 0x40BE JUMP JUMPDEST DUP1 PUSH1 0x1F ADD PUSH1 0x20 DUP1 SWAP2 DIV MUL PUSH1 0x20 ADD PUSH1 0x40 MLOAD SWAP1 DUP2 ADD PUSH1 0x40 MSTORE DUP1 SWAP3 SWAP2 SWAP1 DUP2 DUP2 MSTORE PUSH1 0x20 ADD DUP3 DUP1 SLOAD PUSH2 0x2316 SWAP1 PUSH2 0x40BE JUMP JUMPDEST DUP1 ISZERO PUSH2 0x2363 JUMPI DUP1 PUSH1 0x1F LT PUSH2 0x2338 JUMPI PUSH2 0x100 DUP1 DUP4 SLOAD DIV MUL DUP4 MSTORE SWAP2 PUSH1 0x20 ADD SWAP2 PUSH2 0x2363 JUMP JUMPDEST DUP3 ADD SWAP2 SWAP1 PUSH1 0x0 MSTORE PUSH1 0x20 PUSH1 0x0 KECCAK256 SWAP1 JUMPDEST DUP2 SLOAD DUP2 MSTORE SWAP1 PUSH1 0x1 ADD SWAP1 PUSH1 0x20 ADD DUP1 DUP4 GT PUSH2 0x2346 JUMPI DUP3 SWAP1 SUB PUSH1 0x1F AND DUP3 ADD SWAP2 JUMPDEST POP POP POP POP POP SWAP1 POP DUP8 JUMP JUMPDEST PUSH1 0x60 PUSH1 0x0 JUMPDEST PUSH1 0x0 SLOAD DUP2 LT ISZERO PUSH2 0x2415 JUMPI DUP4 DUP1 MLOAD SWAP1 PUSH1 0x20 ADD KECCAK256 PUSH1 0x7 PUSH1 0x0 DUP4 DUP2 MSTORE PUSH1 0x20 ADD SWAP1 DUP2 MSTORE PUSH1 0x20 ADD PUSH1 0x0 KECCAK256 PUSH1 0x2 ADD PUSH1 0x40 MLOAD PUSH2 0x23A7 SWAP2 SWAP1 PUSH2 0x3AAA JUMP JUMPDEST PUSH1 0x40 MLOAD DUP1 SWAP2 SUB SWAP1 KECCAK256 EQ DUP1 ISZERO PUSH2 0x23EC JUMPI POP DUP3 DUP1 MLOAD SWAP1 PUSH1 0x20 ADD KECCAK256 PUSH1 0x7 PUSH1 0x0 DUP4 DUP2 MSTORE PUSH1 0x20 ADD SWAP1 DUP2 MSTORE PUSH1 0x20 ADD PUSH1 0x0 KECCAK256 PUSH1 0x3 ADD PUSH1 0x40 MLOAD PUSH2 0x23E2 SWAP2 SWAP1 PUSH2 0x3AAA JUMP JUMPDEST PUSH1 0x40 MLOAD DUP1 SWAP2 SUB SWAP1 KECCAK256 EQ JUMPDEST ISZERO PUSH2 0x2402 JUMPI PUSH2 0x23FA DUP2 PUSH2 0x2D44 JUMP JUMPDEST SWAP2 POP POP PUSH2 0x244F JUMP JUMPDEST DUP1 DUP1 PUSH2 0x240D SWAP1 PUSH2 0x4121 JUMP JUMPDEST SWAP2 POP POP PUSH2 0x2372 JUMP JUMPDEST POP PUSH1 0x40 MLOAD DUP1 PUSH1 0x40 ADD PUSH1 0x40 MSTORE DUP1 PUSH1 0x5 DUP2 MSTORE PUSH1 0x20 ADD PUSH32 0x46616C7365000000000000000000000000000000000000000000000000000000 DUP2 MSTORE POP SWAP1 POP JUMPDEST SWAP3 SWAP2 POP POP JUMP JUMPDEST PUSH1 0x0 SLOAD DUP2 JUMP JUMPDEST PUSH1 0xA PUSH1 0x20 MSTORE DUP1 PUSH1 0x0 MSTORE PUSH1 0x40 PUSH1 0x0 KECCAK256 PUSH1 0x0 SWAP2 POP SWAP1 POP DUP1 PUSH1 0x0 ADD SLOAD SWAP1 DUP1 PUSH1 0x1 ADD SLOAD SWAP1 DUP1 PUSH1 0x2 ADD SLOAD SWAP1 DUP1 PUSH1 0x3 ADD DUP1 SLOAD PUSH2 0x2490 SWAP1 PUSH2 0x40BE JUMP JUMPDEST DUP1 PUSH1 0x1F ADD PUSH1 0x20 DUP1 SWAP2 DIV MUL PUSH1 0x20 ADD PUSH1 0x40 MLOAD SWAP1 DUP2 ADD PUSH1 0x40 MSTORE DUP1 SWAP3 SWAP2 SWAP1 DUP2 DUP2 MSTORE PUSH1 0x20 ADD DUP3 DUP1 SLOAD PUSH2 0x24BC SWAP1 PUSH2 0x40BE JUMP JUMPDEST DUP1 ISZERO PUSH2 0x2509 JUMPI DUP1 PUSH1 0x1F LT PUSH2 0x24DE JUMPI PUSH2 0x100 DUP1 DUP4 SLOAD DIV MUL DUP4 MSTORE SWAP2 PUSH1 0x20 ADD SWAP2 PUSH2 0x2509 JUMP JUMPDEST DUP3 ADD SWAP2 SWAP1 PUSH1 0x0 MSTORE PUSH1 0x20 PUSH1 0x0 KECCAK256 SWAP1 JUMPDEST DUP2 SLOAD DUP2 MSTORE SWAP1 PUSH1 0x1 ADD SWAP1 PUSH1 0x20 ADD DUP1 DUP4 GT PUSH2 0x24EC JUMPI DUP3 SWAP1 SUB PUSH1 0x1F AND DUP3 ADD SWAP2 JUMPDEST POP POP POP POP POP SWAP1 DUP1 PUSH1 0x4 ADD DUP1 SLOAD PUSH2 0x251E SWAP1 PUSH2 0x40BE JUMP JUMPDEST DUP1 PUSH1 0x1F ADD PUSH1 0x20 DUP1 SWAP2 DIV MUL PUSH1 0x20 ADD PUSH1 0x40 MLOAD SWAP1 DUP2 ADD PUSH1 0x40 MSTORE DUP1 SWAP3 SWAP2 SWAP1 DUP2 DUP2 MSTORE PUSH1 0x20 ADD DUP3 DUP1 SLOAD PUSH2 0x254A SWAP1 PUSH2 0x40BE JUMP JUMPDEST DUP1 ISZERO PUSH2 0x2597 JUMPI DUP1 PUSH1 0x1F LT PUSH2 0x256C JUMPI PUSH2 0x100 DUP1 DUP4 SLOAD DIV MUL DUP4 MSTORE SWAP2 PUSH1 0x20 ADD SWAP2 PUSH2 0x2597 JUMP JUMPDEST DUP3 ADD SWAP2 SWAP1 PUSH1 0x0 MSTORE PUSH1 0x20 PUSH1 0x0 KECCAK256 SWAP1 JUMPDEST DUP2 SLOAD DUP2 MSTORE SWAP1 PUSH1 0x1 ADD SWAP1 PUSH1 0x20 ADD DUP1 DUP4 GT PUSH2 0x257A JUMPI DUP3 SWAP1 SUB PUSH1 0x1F AND DUP3 ADD SWAP2 JUMPDEST POP POP POP POP POP SWAP1 DUP1 PUSH1 0x5 ADD DUP1 SLOAD PUSH2 0x25AC SWAP1 PUSH2 0x40BE JUMP JUMPDEST DUP1 PUSH1 0x1F ADD PUSH1 0x20 DUP1 SWAP2 DIV MUL PUSH1 0x20 ADD PUSH1 0x40 MLOAD SWAP1 DUP2 ADD PUSH1 0x40 MSTORE DUP1 SWAP3 SWAP2 SWAP1 DUP2 DUP2 MSTORE PUSH1 0x20 ADD DUP3 DUP1 SLOAD PUSH2 0x25D8 SWAP1 PUSH2 0x40BE JUMP JUMPDEST DUP1 ISZERO PUSH2 0x2625 JUMPI DUP1 PUSH1 0x1F LT PUSH2 0x25FA JUMPI PUSH2 0x100 DUP1 DUP4 SLOAD DIV MUL DUP4 MSTORE SWAP2 PUSH1 0x20 ADD SWAP2 PUSH2 0x2625 JUMP JUMPDEST DUP3 ADD SWAP2 SWAP1 PUSH1 0x0 MSTORE PUSH1 0x20 PUSH1 0x0 KECCAK256 SWAP1 JUMPDEST DUP2 SLOAD DUP2 MSTORE SWAP1 PUSH1 0x1 ADD SWAP1 PUSH1 0x20 ADD DUP1 DUP4 GT PUSH2 0x2608 JUMPI DUP3 SWAP1 SUB PUSH1 0x1F AND DUP3 ADD SWAP2 JUMPDEST POP POP POP POP POP SWAP1 DUP1 PUSH1 0x6 ADD DUP1 SLOAD PUSH2 0x263A SWAP1 PUSH2 0x40BE JUMP JUMPDEST DUP1 PUSH1 0x1F ADD PUSH1 0x20 DUP1 SWAP2 DIV MUL PUSH1 0x20 ADD PUSH1 0x40 MLOAD SWAP1 DUP2 ADD PUSH1 0x40 MSTORE DUP1 SWAP3 SWAP2 SWAP1 DUP2 DUP2 MSTORE PUSH1 0x20 ADD DUP3 DUP1 SLOAD PUSH2 0x2666 SWAP1 PUSH2 0x40BE JUMP JUMPDEST DUP1 ISZERO PUSH2 0x26B3 JUMPI DUP1 PUSH1 0x1F LT PUSH2 0x2688 JUMPI PUSH2 0x100 DUP1 DUP4 SLOAD DIV MUL DUP4 MSTORE SWAP2 PUSH1 0x20 ADD SWAP2 PUSH2 0x26B3 JUMP JUMPDEST DUP3 ADD SWAP2 SWAP1 PUSH1 0x0 MSTORE PUSH1 0x20 PUSH1 0x0 KECCAK256 SWAP1 JUMPDEST DUP2 SLOAD DUP2 MSTORE SWAP1 PUSH1 0x1 ADD SWAP1 PUSH1 0x20 ADD DUP1 DUP4 GT PUSH2 0x2696 JUMPI DUP3 SWAP1 SUB PUSH1 0x1F AND DUP3 ADD SWAP2 JUMPDEST POP POP POP POP POP SWAP1 DUP1 PUSH1 0x7 ADD SLOAD SWAP1 DUP1 PUSH1 0x8 ADD SLOAD SWAP1 POP DUP10 JUMP JUMPDEST DUP1 PUSH1 0x7 PUSH1 0x0 DUP5 DUP2 MSTORE PUSH1 0x20 ADD SWAP1 DUP2 MSTORE PUSH1 0x20 ADD PUSH1 0x0 KECCAK256 PUSH1 0x5 ADD SWAP1 DUP1 MLOAD SWAP1 PUSH1 0x20 ADD SWAP1 PUSH2 0x26F3 SWAP3 SWAP2 SWAP1 PUSH2 0x2F6F JUMP JUMPDEST POP POP POP JUMP JUMPDEST DUP2 PUSH1 0x7 PUSH1 0x0 DUP6 DUP2 MSTORE PUSH1 0x20 ADD SWAP1 DUP2 MSTORE PUSH1 0x20 ADD PUSH1 0x0 KECCAK256 PUSH1 0x6 ADD SWAP1 DUP1 MLOAD SWAP1 PUSH1 0x20 ADD SWAP1 PUSH2 0x2722 SWAP3 SWAP2 SWAP1 PUSH2 0x2F6F JUMP JUMPDEST POP DUP1 PUSH1 0x7 PUSH1 0x0 DUP6 DUP2 MSTORE PUSH1 0x20 ADD SWAP1 DUP2 MSTORE PUSH1 0x20 ADD PUSH1 0x0 KECCAK256 PUSH1 0x7 ADD DUP2 SWAP1 SSTORE POP POP POP POP JUMP JUMPDEST PUSH1 0xC PUSH1 0x20 MSTORE DUP1 PUSH1 0x0 MSTORE PUSH1 0x40 PUSH1 0x0 KECCAK256 PUSH1 0x0 SWAP2 POP SWAP1 POP DUP1 SLOAD PUSH2 0x2762 SWAP1 PUSH2 0x40BE JUMP JUMPDEST DUP1 PUSH1 0x1F ADD PUSH1 0x20 DUP1 SWAP2 DIV MUL PUSH1 0x20 ADD PUSH1 0x40 MLOAD SWAP1 DUP2 ADD PUSH1 0x40 MSTORE DUP1 SWAP3 SWAP2 SWAP1 DUP2 DUP2 MSTORE PUSH1 0x20 ADD DUP3 DUP1 SLOAD PUSH2 0x278E SWAP1 PUSH2 0x40BE JUMP JUMPDEST DUP1 ISZERO PUSH2 0x27DB JUMPI DUP1 PUSH1 0x1F LT PUSH2 0x27B0 JUMPI PUSH2 0x100 DUP1 DUP4 SLOAD DIV MUL DUP4 MSTORE SWAP2 PUSH1 0x20 ADD SWAP2 PUSH2 0x27DB JUMP JUMPDEST DUP3 ADD SWAP2 SWAP1 PUSH1 0x0 MSTORE PUSH1 0x20 PUSH1 0x0 KECCAK256 SWAP1 JUMPDEST DUP2 SLOAD DUP2 MSTORE SWAP1 PUSH1 0x1 ADD SWAP1 PUSH1 0x20 ADD DUP1 DUP4 GT PUSH2 0x27BE JUMPI DUP3 SWAP1 SUB PUSH1 0x1F AND DUP3 ADD SWAP2 JUMPDEST POP POP POP POP POP DUP2 JUMP JUMPDEST PUSH1 0x4 SLOAD DUP2 JUMP JUMPDEST PUSH1 0xD PUSH1 0x20 MSTORE DUP1 PUSH1 0x0 MSTORE PUSH1 0x40 PUSH1 0x0 KECCAK256 PUSH1 0x0 SWAP2 POP SWAP1 POP DUP1 PUSH1 0x0 ADD SLOAD SWAP1 DUP1 PUSH1 0x1 ADD DUP1 SLOAD PUSH2 0x2812 SWAP1 PUSH2 0x40BE JUMP JUMPDEST DUP1 PUSH1 0x1F ADD PUSH1 0x20 DUP1 SWAP2 DIV MUL PUSH1 0x20 ADD PUSH1 0x40 MLOAD SWAP1 DUP2 ADD PUSH1 0x40 MSTORE DUP1 SWAP3 SWAP2 SWAP1 DUP2 DUP2 MSTORE PUSH1 0x20 ADD DUP3 DUP1 SLOAD PUSH2 0x283E SWAP1 PUSH2 0x40BE JUMP JUMPDEST DUP1 ISZERO PUSH2 0x288B JUMPI DUP1 PUSH1 0x1F LT PUSH2 0x2860 JUMPI PUSH2 0x100 DUP1 DUP4 SLOAD DIV MUL DUP4 MSTORE SWAP2 PUSH1 0x20 ADD SWAP2 PUSH2 0x288B JUMP JUMPDEST DUP3 ADD SWAP2 SWAP1 PUSH1 0x0 MSTORE PUSH1 0x20 PUSH1 0x0 KECCAK256 SWAP1 JUMPDEST DUP2 SLOAD DUP2 MSTORE SWAP1 PUSH1 0x1 ADD SWAP1 PUSH1 0x20 ADD DUP1 DUP4 GT PUSH2 0x286E JUMPI DUP3 SWAP1 SUB PUSH1 0x1F AND DUP3 ADD SWAP2 JUMPDEST POP POP POP POP POP SWAP1 DUP1 PUSH1 0x2 ADD DUP1 SLOAD PUSH2 0x28A0 SWAP1 PUSH2 0x40BE JUMP JUMPDEST DUP1 PUSH1 0x1F ADD PUSH1 0x20 DUP1 SWAP2 DIV MUL PUSH1 0x20 ADD PUSH1 0x40 MLOAD SWAP1 DUP2 ADD PUSH1 0x40 MSTORE DUP1 SWAP3 SWAP2 SWAP1 DUP2 DUP2 MSTORE PUSH1 0x20 ADD DUP3 DUP1 SLOAD PUSH2 0x28CC SWAP1 PUSH2 0x40BE JUMP JUMPDEST DUP1 ISZERO PUSH2 0x2919 JUMPI DUP1 PUSH1 0x1F LT PUSH2 0x28EE JUMPI PUSH2 0x100 DUP1 DUP4 SLOAD DIV MUL DUP4 MSTORE SWAP2 PUSH1 0x20 ADD SWAP2 PUSH2 0x2919 JUMP JUMPDEST DUP3 ADD SWAP2 SWAP1 PUSH1 0x0 MSTORE PUSH1 0x20 PUSH1 0x0 KECCAK256 SWAP1 JUMPDEST DUP2 SLOAD DUP2 MSTORE SWAP1 PUSH1 0x1 ADD SWAP1 PUSH1 0x20 ADD DUP1 DUP4 GT PUSH2 0x28FC JUMPI DUP3 SWAP1 SUB PUSH1 0x1F AND DUP3 ADD SWAP2 JUMPDEST POP POP POP POP POP SWAP1 DUP1 PUSH1 0x3 ADD DUP1 SLOAD PUSH2 0x292E SWAP1 PUSH2 0x40BE JUMP JUMPDEST DUP1 PUSH1 0x1F ADD PUSH1 0x20 DUP1 SWAP2 DIV MUL PUSH1 0x20 ADD PUSH1 0x40 MLOAD SWAP1 DUP2 ADD PUSH1 0x40 MSTORE DUP1 SWAP3 SWAP2 SWAP1 DUP2 DUP2 MSTORE PUSH1 0x20 ADD DUP3 DUP1 SLOAD PUSH2 0x295A SWAP1 PUSH2 0x40BE JUMP JUMPDEST DUP1 ISZERO PUSH2 0x29A7 JUMPI DUP1 PUSH1 0x1F LT PUSH2 0x297C JUMPI PUSH2 0x100 DUP1 DUP4 SLOAD DIV MUL DUP4 MSTORE SWAP2 PUSH1 0x20 ADD SWAP2 PUSH2 0x29A7 JUMP JUMPDEST DUP3 ADD SWAP2 SWAP1 PUSH1 0x0 MSTORE PUSH1 0x20 PUSH1 0x0 KECCAK256 SWAP1 JUMPDEST DUP2 SLOAD DUP2 MSTORE SWAP1 PUSH1 0x1 ADD SWAP1 PUSH1 0x20 ADD DUP1 DUP4 GT PUSH2 0x298A JUMPI DUP3 SWAP1 SUB PUSH1 0x1F AND DUP3 ADD SWAP2 JUMPDEST POP POP POP POP POP SWAP1 POP DUP5 JUMP JUMPDEST PUSH1 0xB PUSH1 0x20 MSTORE DUP1 PUSH1 0x0 MSTORE PUSH1 0x40 PUSH1 0x0 KECCAK256 PUSH1 0x0 SWAP2 POP SWAP1 POP DUP1 PUSH1 0x0 ADD DUP1 SLOAD PUSH2 0x29D4 SWAP1 PUSH2 0x40BE JUMP JUMPDEST DUP1 PUSH1 0x1F ADD PUSH1 0x20 DUP1 SWAP2 DIV MUL PUSH1 0x20 ADD PUSH1 0x40 MLOAD SWAP1 DUP2 ADD PUSH1 0x40 MSTORE DUP1 SWAP3 SWAP2 SWAP1 DUP2 DUP2 MSTORE PUSH1 0x20 ADD DUP3 DUP1 SLOAD PUSH2 0x2A00 SWAP1 PUSH2 0x40BE JUMP JUMPDEST DUP1 ISZERO PUSH2 0x2A4D JUMPI DUP1 PUSH1 0x1F LT PUSH2 0x2A22 JUMPI PUSH2 0x100 DUP1 DUP4 SLOAD DIV MUL DUP4 MSTORE SWAP2 PUSH1 0x20 ADD SWAP2 PUSH2 0x2A4D JUMP JUMPDEST DUP3 ADD SWAP2 SWAP1 PUSH1 0x0 MSTORE PUSH1 0x20 PUSH1 0x0 KECCAK256 SWAP1 JUMPDEST DUP2 SLOAD DUP2 MSTORE SWAP1 PUSH1 0x1 ADD SWAP1 PUSH1 0x20 ADD DUP1 DUP4 GT PUSH2 0x2A30 JUMPI DUP3 SWAP1 SUB PUSH1 0x1F AND DUP3 ADD SWAP2 JUMPDEST POP POP POP POP POP SWAP1 DUP1 PUSH1 0x1 ADD DUP1 SLOAD PUSH2 0x2A62 SWAP1 PUSH2 0x40BE JUMP JUMPDEST DUP1 PUSH1 0x1F ADD PUSH1 0x20 DUP1 SWAP2 DIV MUL PUSH1 0x20 ADD PUSH1 0x40 MLOAD SWAP1 DUP2 ADD PUSH1 0x40 MSTORE DUP1 SWAP3 SWAP2 SWAP1 DUP2 DUP2 MSTORE PUSH1 0x20 ADD DUP3 DUP1 SLOAD PUSH2 0x2A8E SWAP1 PUSH2 0x40BE JUMP JUMPDEST DUP1 ISZERO PUSH2 0x2ADB JUMPI DUP1 PUSH1 0x1F LT PUSH2 0x2AB0 JUMPI PUSH2 0x100 DUP1 DUP4 SLOAD DIV MUL DUP4 MSTORE SWAP2 PUSH1 0x20 ADD SWAP2 PUSH2 0x2ADB JUMP JUMPDEST DUP3 ADD SWAP2 SWAP1 PUSH1 0x0 MSTORE PUSH1 0x20 PUSH1 0x0 KECCAK256 SWAP1 JUMPDEST DUP2 SLOAD DUP2 MSTORE SWAP1 PUSH1 0x1 ADD SWAP1 PUSH1 0x20 ADD DUP1 DUP4 GT PUSH2 0x2ABE JUMPI DUP3 SWAP1 SUB PUSH1 0x1F AND DUP3 ADD SWAP2 JUMPDEST POP POP POP POP POP SWAP1 POP DUP3 JUMP JUMPDEST PUSH1 0xE PUSH1 0x20 MSTORE DUP1 PUSH1 0x0 MSTORE PUSH1 0x40 PUSH1 0x0 KECCAK256 PUSH1 0x0 SWAP2 POP SWAP1 POP DUP1 PUSH1 0x0 ADD SLOAD SWAP1 DUP1 PUSH1 0x1 ADD SLOAD SWAP1 DUP1 PUSH1 0x2 ADD SLOAD SWAP1 DUP1 PUSH1 0x3 ADD DUP1 SLOAD PUSH2 0x2B1A SWAP1 PUSH2 0x40BE JUMP JUMPDEST DUP1 PUSH1 0x1F ADD PUSH1 0x20 DUP1 SWAP2 DIV MUL PUSH1 0x20 ADD PUSH1 0x40 MLOAD SWAP1 DUP2 ADD PUSH1 0x40 MSTORE DUP1 SWAP3 SWAP2 SWAP1 DUP2 DUP2 MSTORE PUSH1 0x20 ADD DUP3 DUP1 SLOAD PUSH2 0x2B46 SWAP1 PUSH2 0x40BE JUMP JUMPDEST DUP1 ISZERO PUSH2 0x2B93 JUMPI DUP1 PUSH1 0x1F LT PUSH2 0x2B68 JUMPI PUSH2 0x100 DUP1 DUP4 SLOAD DIV MUL DUP4 MSTORE SWAP2 PUSH1 0x20 ADD SWAP2 PUSH2 0x2B93 JUMP JUMPDEST DUP3 ADD SWAP2 SWAP1 PUSH1 0x0 MSTORE PUSH1 0x20 PUSH1 0x0 KECCAK256 SWAP1 JUMPDEST DUP2 SLOAD DUP2 MSTORE SWAP1 PUSH1 0x1 ADD SWAP1 PUSH1 0x20 ADD DUP1 DUP4 GT PUSH2 0x2B76 JUMPI DUP3 SWAP1 SUB PUSH1 0x1F AND DUP3 ADD SWAP2 JUMPDEST POP POP POP POP POP SWAP1 POP DUP5 JUMP JUMPDEST PUSH1 0x60 PUSH1 0x0 JUMPDEST PUSH1 0x0 SLOAD DUP2 LT ISZERO PUSH2 0x2C09 JUMPI DUP3 DUP1 MLOAD SWAP1 PUSH1 0x20 ADD KECCAK256 PUSH1 0x7 PUSH1 0x0 DUP4 DUP2 MSTORE PUSH1 0x20 ADD SWAP1 DUP2 MSTORE PUSH1 0x20 ADD PUSH1 0x0 KECCAK256 PUSH1 0x2 ADD PUSH1 0x40 MLOAD PUSH2 0x2BD7 SWAP2 SWAP1 PUSH2 0x3AAA JUMP JUMPDEST PUSH1 0x40 MLOAD DUP1 SWAP2 SUB SWAP1 KECCAK256 EQ ISZERO PUSH2 0x2BF6 JUMPI PUSH2 0x2BEE DUP2 PUSH2 0x2D44 JUMP JUMPDEST SWAP2 POP POP PUSH2 0x2C43 JUMP JUMPDEST DUP1 DUP1 PUSH2 0x2C01 SWAP1 PUSH2 0x4121 JUMP JUMPDEST SWAP2 POP POP PUSH2 0x2BA2 JUMP JUMPDEST POP PUSH1 0x40 MLOAD DUP1 PUSH1 0x40 ADD PUSH1 0x40 MSTORE DUP1 PUSH1 0x5 DUP2 MSTORE PUSH1 0x20 ADD PUSH32 0x46616C7365000000000000000000000000000000000000000000000000000000 DUP2 MSTORE POP SWAP1 POP JUMPDEST SWAP2 SWAP1 POP JUMP JUMPDEST PUSH1 0x60 PUSH1 0x0 DUP5 SWAP1 POP PUSH1 0x0 DUP5 DUP5 PUSH2 0x2C5D SWAP2 SWAP1 PUSH2 0x400C JUMP JUMPDEST PUSH8 0xFFFFFFFFFFFFFFFF DUP2 GT ISZERO PUSH2 0x2C76 JUMPI PUSH2 0x2C75 PUSH2 0x4226 JUMP JUMPDEST JUMPDEST PUSH1 0x40 MLOAD SWAP1 DUP1 DUP3 MSTORE DUP1 PUSH1 0x1F ADD PUSH1 0x1F NOT AND PUSH1 0x20 ADD DUP3 ADD PUSH1 0x40 MSTORE DUP1 ISZERO PUSH2 0x2CA8 JUMPI DUP2 PUSH1 0x20 ADD PUSH1 0x1 DUP3 MUL DUP1 CALLDATASIZE DUP4 CALLDATACOPY DUP1 DUP3 ADD SWAP2 POP POP SWAP1 POP JUMPDEST POP SWAP1 POP PUSH1 0x0 DUP6 SWAP1 POP JUMPDEST DUP5 DUP2 LT ISZERO PUSH2 0x2D37 JUMPI DUP3 DUP2 DUP2 MLOAD DUP2 LT PUSH2 0x2CCC JUMPI PUSH2 0x2CCB PUSH2 0x41F7 JUMP JUMPDEST JUMPDEST PUSH1 0x20 ADD ADD MLOAD PUSH1 0xF8 SHR PUSH1 0xF8 SHL DUP3 DUP8 DUP4 PUSH2 0x2CE4 SWAP2 SWAP1 PUSH2 0x400C JUMP JUMPDEST DUP2 MLOAD DUP2 LT PUSH2 0x2CF5 JUMPI PUSH2 0x2CF4 PUSH2 0x41F7 JUMP JUMPDEST JUMPDEST PUSH1 0x20 ADD ADD SWAP1 PUSH31 0xFFFFFFFFFFFFFFFFFFFFFFFFFFFFFFFFFFFFFFFFFFFFFFFFFFFFFFFFFFFFFF NOT AND SWAP1 DUP2 PUSH1 0x0 BYTE SWAP1 MSTORE8 POP DUP1 DUP1 PUSH2 0x2D2F SWAP1 PUSH2 0x4121 JUMP JUMPDEST SWAP2 POP POP PUSH2 0x2CB1 JUMP JUMPDEST POP DUP1 SWAP3 POP POP POP SWAP4 SWAP3 POP POP POP JUMP JUMPDEST PUSH1 0x60 PUSH1 0x0 PUSH1 0x1 PUSH2 0x2D53 DUP5 PUSH2 0x2E1C JUMP JUMPDEST ADD SWAP1 POP PUSH1 0x0 DUP2 PUSH8 0xFFFFFFFFFFFFFFFF DUP2 GT ISZERO PUSH2 0x2D72 JUMPI PUSH2 0x2D71 PUSH2 0x4226 JUMP JUMPDEST JUMPDEST PUSH1 0x40 MLOAD SWAP1 DUP1 DUP3 MSTORE DUP1 PUSH1 0x1F ADD PUSH1 0x1F NOT AND PUSH1 0x20 ADD DUP3 ADD PUSH1 0x40 MSTORE DUP1 ISZERO PUSH2 0x2DA4 JUMPI DUP2 PUSH1 0x20 ADD PUSH1 0x1 DUP3 MUL DUP1 CALLDATASIZE DUP4 CALLDATACOPY DUP1 DUP3 ADD SWAP2 POP POP SWAP1 POP JUMPDEST POP SWAP1 POP PUSH1 0x0 DUP3 PUSH1 0x20 ADD DUP3 ADD SWAP1 POP JUMPDEST PUSH1 0x1 ISZERO PUSH2 0x2E11 JUMPI DUP1 DUP1 PUSH1 0x1 SWAP1 SUB SWAP2 POP POP PUSH32 0x3031323334353637383961626364656600000000000000000000000000000000 PUSH1 0xA DUP7 MOD BYTE DUP2 MSTORE8 PUSH1 0xA DUP6 DUP2 PUSH2 0x2DFB JUMPI PUSH2 0x2DFA PUSH2 0x4199 JUMP JUMPDEST JUMPDEST DIV SWAP5 POP PUSH1 0x0 DUP6 EQ ISZERO PUSH2 0x2E0C JUMPI PUSH2 0x2E11 JUMP JUMPDEST PUSH2 0x2DB2 JUMP JUMPDEST DUP2 SWAP4 POP POP POP POP SWAP2 SWAP1 POP JUMP JUMPDEST PUSH1 0x0 DUP1 PUSH1 0x0 SWAP1 POP PUSH27 0x184F03E93FF9F4DAA797ED6E38ED64BF6A1F010000000000000000 DUP4 LT PUSH2 0x2E7A JUMPI PUSH27 0x184F03E93FF9F4DAA797ED6E38ED64BF6A1F010000000000000000 DUP4 DUP2 PUSH2 0x2E70 JUMPI PUSH2 0x2E6F PUSH2 0x4199 JUMP JUMPDEST JUMPDEST DIV SWAP3 POP PUSH1 0x40 DUP2 ADD SWAP1 POP JUMPDEST PUSH14 0x4EE2D6D415B85ACEF8100000000 DUP4 LT PUSH2 0x2EB7 JUMPI PUSH14 0x4EE2D6D415B85ACEF8100000000 DUP4 DUP2 PUSH2 0x2EAD JUMPI PUSH2 0x2EAC PUSH2 0x4199 JUMP JUMPDEST JUMPDEST DIV SWAP3 POP PUSH1 0x20 DUP2 ADD SWAP1 POP JUMPDEST PUSH7 0x2386F26FC10000 DUP4 LT PUSH2 0x2EE6 JUMPI PUSH7 0x2386F26FC10000 DUP4 DUP2 PUSH2 0x2EDC JUMPI PUSH2 0x2EDB PUSH2 0x4199 JUMP JUMPDEST JUMPDEST DIV SWAP3 POP PUSH1 0x10 DUP2 ADD SWAP1 POP JUMPDEST PUSH4 0x5F5E100 DUP4 LT PUSH2 0x2F0F JUMPI PUSH4 0x5F5E100 DUP4 DUP2 PUSH2 0x2F05 JUMPI PUSH2 0x2F04 PUSH2 0x4199 JUMP JUMPDEST JUMPDEST DIV SWAP3 POP PUSH1 0x8 DUP2 ADD SWAP1 POP JUMPDEST PUSH2 0x2710 DUP4 LT PUSH2 0x2F34 JUMPI PUSH2 0x2710 DUP4 DUP2 PUSH2 0x2F2A JUMPI PUSH2 0x2F29 PUSH2 0x4199 JUMP JUMPDEST JUMPDEST DIV SWAP3 POP PUSH1 0x4 DUP2 ADD SWAP1 POP JUMPDEST PUSH1 0x64 DUP4 LT PUSH2 0x2F57 JUMPI PUSH1 0x64 DUP4 DUP2 PUSH2 0x2F4D JUMPI PUSH2 0x2F4C PUSH2 0x4199 JUMP JUMPDEST JUMPDEST DIV SWAP3 POP PUSH1 0x2 DUP2 ADD SWAP1 POP JUMPDEST PUSH1 0xA DUP4 LT PUSH2 0x2F66 JUMPI PUSH1 0x1 DUP2 ADD SWAP1 POP JUMPDEST DUP1 SWAP2 POP POP SWAP2 SWAP1 POP JUMP JUMPDEST DUP3 DUP1 SLOAD PUSH2 0x2F7B SWAP1 PUSH2 0x40BE JUMP JUMPDEST SWAP1 PUSH1 0x0 MSTORE PUSH1 0x20 PUSH1 0x0 KECCAK256 SWAP1 PUSH1 0x1F ADD PUSH1 0x20 SWAP1 DIV DUP2 ADD SWAP3 DUP3 PUSH2 0x2F9D JUMPI PUSH1 0x0 DUP6 SSTORE PUSH2 0x2FE4 JUMP JUMPDEST DUP3 PUSH1 0x1F LT PUSH2 0x2FB6 JUMPI DUP1 MLOAD PUSH1 0xFF NOT AND DUP4 DUP1 ADD OR DUP6 SSTORE PUSH2 0x2FE4 JUMP JUMPDEST DUP3 DUP1 ADD PUSH1 0x1 ADD DUP6 SSTORE DUP3 ISZERO PUSH2 0x2FE4 JUMPI SWAP2 DUP3 ADD JUMPDEST DUP3 DUP2 GT ISZERO PUSH2 0x2FE3 JUMPI DUP3 MLOAD DUP3 SSTORE SWAP2 PUSH1 0x20 ADD SWAP2 SWAP1 PUSH1 0x1 ADD SWAP1 PUSH2 0x2FC8 JUMP JUMPDEST JUMPDEST POP SWAP1 POP PUSH2 0x2FF1 SWAP2 SWAP1 PUSH2 0x3035 JUMP JUMPDEST POP SWAP1 JUMP JUMPDEST POP DUP1 SLOAD PUSH2 0x3001 SWAP1 PUSH2 0x40BE JUMP JUMPDEST PUSH1 0x0 DUP3 SSTORE DUP1 PUSH1 0x1F LT PUSH2 0x3013 JUMPI POP PUSH2 0x3032 JUMP JUMPDEST PUSH1 0x1F ADD PUSH1 0x20 SWAP1 DIV SWAP1 PUSH1 0x0 MSTORE PUSH1 0x20 PUSH1 0x0 KECCAK256 SWAP1 DUP2 ADD SWAP1 PUSH2 0x3031 SWAP2 SWAP1 PUSH2 0x3035 JUMP JUMPDEST JUMPDEST POP JUMP JUMPDEST JUMPDEST DUP1 DUP3 GT ISZERO PUSH2 0x304E JUMPI PUSH1 0x0 DUP2 PUSH1 0x0 SWAP1 SSTORE POP PUSH1 0x1 ADD PUSH2 0x3036 JUMP JUMPDEST POP SWAP1 JUMP JUMPDEST PUSH1 0x0 PUSH2 0x3065 PUSH2 0x3060 DUP5 PUSH2 0x3F10 JUMP JUMPDEST PUSH2 0x3EEB JUMP JUMPDEST SWAP1 POP DUP3 DUP2 MSTORE PUSH1 0x20 DUP2 ADD DUP5 DUP5 DUP5 ADD GT ISZERO PUSH2 0x3081 JUMPI PUSH2 0x3080 PUSH2 0x425A JUMP JUMPDEST JUMPDEST PUSH2 0x308C DUP5 DUP3 DUP6 PUSH2 0x407C JUMP JUMPDEST POP SWAP4 SWAP3 POP POP POP JUMP JUMPDEST PUSH1 0x0 DUP3 PUSH1 0x1F DUP4 ADD SLT PUSH2 0x30A9 JUMPI PUSH2 0x30A8 PUSH2 0x4255 JUMP JUMPDEST JUMPDEST DUP2 CALLDATALOAD PUSH2 0x30B9 DUP5 DUP3 PUSH1 0x20 DUP7 ADD PUSH2 0x3052 JUMP JUMPDEST SWAP2 POP POP SWAP3 SWAP2 POP POP JUMP JUMPDEST PUSH1 0x0 DUP2 CALLDATALOAD SWAP1 POP PUSH2 0x30D1 DUP2 PUSH2 0x427A JUMP JUMPDEST SWAP3 SWAP2 POP POP JUMP JUMPDEST PUSH1 0x0 PUSH1 0x20 DUP3 DUP5 SUB SLT ISZERO PUSH2 0x30ED JUMPI PUSH2 0x30EC PUSH2 0x4264 JUMP JUMPDEST JUMPDEST PUSH1 0x0 DUP3 ADD CALLDATALOAD PUSH8 0xFFFFFFFFFFFFFFFF DUP2 GT ISZERO PUSH2 0x310B JUMPI PUSH2 0x310A PUSH2 0x425F JUMP JUMPDEST JUMPDEST PUSH2 0x3117 DUP5 DUP3 DUP6 ADD PUSH2 0x3094 JUMP JUMPDEST SWAP2 POP POP SWAP3 SWAP2 POP POP JUMP JUMPDEST PUSH1 0x0 DUP1 PUSH1 0x40 DUP4 DUP6 SUB SLT ISZERO PUSH2 0x3137 JUMPI PUSH2 0x3136 PUSH2 0x4264 JUMP JUMPDEST JUMPDEST PUSH1 0x0 DUP4 ADD CALLDATALOAD PUSH8 0xFFFFFFFFFFFFFFFF DUP2 GT ISZERO PUSH2 0x3155 JUMPI PUSH2 0x3154 PUSH2 0x425F JUMP JUMPDEST JUMPDEST PUSH2 0x3161 DUP6 DUP3 DUP7 ADD PUSH2 0x3094 JUMP JUMPDEST SWAP3 POP POP PUSH1 0x20 DUP4 ADD CALLDATALOAD PUSH8 0xFFFFFFFFFFFFFFFF DUP2 GT ISZERO PUSH2 0x3182 JUMPI PUSH2 0x3181 PUSH2 0x425F JUMP JUMPDEST JUMPDEST PUSH2 0x318E DUP6 DUP3 DUP7 ADD PUSH2 0x3094 JUMP JUMPDEST SWAP2 POP POP SWAP3 POP SWAP3 SWAP1 POP JUMP JUMPDEST PUSH1 0x0 DUP1 PUSH1 0x0 PUSH1 0x60 DUP5 DUP7 SUB SLT ISZERO PUSH2 0x31B1 JUMPI PUSH2 0x31B0 PUSH2 0x4264 JUMP JUMPDEST JUMPDEST PUSH1 0x0 DUP5 ADD CALLDATALOAD PUSH8 0xFFFFFFFFFFFFFFFF DUP2 GT ISZERO PUSH2 0x31CF JUMPI PUSH2 0x31CE PUSH2 0x425F JUMP JUMPDEST JUMPDEST PUSH2 0x31DB DUP7 DUP3 DUP8 ADD PUSH2 0x3094 JUMP JUMPDEST SWAP4 POP POP PUSH1 0x20 DUP5 ADD CALLDATALOAD PUSH8 0xFFFFFFFFFFFFFFFF DUP2 GT ISZERO PUSH2 0x31FC JUMPI PUSH2 0x31FB PUSH2 0x425F JUMP JUMPDEST JUMPDEST PUSH2 0x3208 DUP7 DUP3 DUP8 ADD PUSH2 0x3094 JUMP JUMPDEST SWAP3 POP POP PUSH1 0x40 DUP5 ADD CALLDATALOAD PUSH8 0xFFFFFFFFFFFFFFFF DUP2 GT ISZERO PUSH2 0x3229 JUMPI PUSH2 0x3228 PUSH2 0x425F JUMP JUMPDEST JUMPDEST PUSH2 0x3235 DUP7 DUP3 DUP8 ADD PUSH2 0x3094 JUMP JUMPDEST SWAP2 POP POP SWAP3 POP SWAP3 POP SWAP3 JUMP JUMPDEST PUSH1 0x0 PUSH1 0x20 DUP3 DUP5 SUB SLT ISZERO PUSH2 0x3255 JUMPI PUSH2 0x3254 PUSH2 0x4264 JUMP JUMPDEST JUMPDEST PUSH1 0x0 PUSH2 0x3263 DUP5 DUP3 DUP6 ADD PUSH2 0x30C2 JUMP JUMPDEST SWAP2 POP POP SWAP3 SWAP2 POP POP JUMP JUMPDEST PUSH1 0x0 DUP1 PUSH1 0x40 DUP4 DUP6 SUB SLT ISZERO PUSH2 0x3283 JUMPI PUSH2 0x3282 PUSH2 0x4264 JUMP JUMPDEST JUMPDEST PUSH1 0x0 PUSH2 0x3291 DUP6 DUP3 DUP7 ADD PUSH2 0x30C2 JUMP JUMPDEST SWAP3 POP POP PUSH1 0x20 DUP4 ADD CALLDATALOAD PUSH8 0xFFFFFFFFFFFFFFFF DUP2 GT ISZERO PUSH2 0x32B2 JUMPI PUSH2 0x32B1 PUSH2 0x425F JUMP JUMPDEST JUMPDEST PUSH2 0x32BE DUP6 DUP3 DUP7 ADD PUSH2 0x3094 JUMP JUMPDEST SWAP2 POP POP SWAP3 POP SWAP3 SWAP1 POP JUMP JUMPDEST PUSH1 0x0 DUP1 PUSH1 0x0 DUP1 PUSH1 0x80 DUP6 DUP8 SUB SLT ISZERO PUSH2 0x32E2 JUMPI PUSH2 0x32E1 PUSH2 0x4264 JUMP JUMPDEST JUMPDEST PUSH1 0x0 PUSH2 0x32F0 DUP8 DUP3 DUP9 ADD PUSH2 0x30C2 JUMP JUMPDEST SWAP5 POP POP PUSH1 0x20 DUP6 ADD CALLDATALOAD PUSH8 0xFFFFFFFFFFFFFFFF DUP2 GT ISZERO PUSH2 0x3311 JUMPI PUSH2 0x3310 PUSH2 0x425F JUMP JUMPDEST JUMPDEST PUSH2 0x331D DUP8 DUP3 DUP9 ADD PUSH2 0x3094 JUMP JUMPDEST SWAP4 POP POP PUSH1 0x40 DUP6 ADD CALLDATALOAD PUSH8 0xFFFFFFFFFFFFFFFF DUP2 GT ISZERO PUSH2 0x333E JUMPI PUSH2 0x333D PUSH2 0x425F JUMP JUMPDEST JUMPDEST PUSH2 0x334A DUP8 DUP3 DUP9 ADD PUSH2 0x3094 JUMP JUMPDEST SWAP3 POP POP PUSH1 0x60 DUP6 ADD CALLDATALOAD PUSH8 0xFFFFFFFFFFFFFFFF DUP2 GT ISZERO PUSH2 0x336B JUMPI PUSH2 0x336A PUSH2 0x425F JUMP JUMPDEST JUMPDEST PUSH2 0x3377 DUP8 DUP3 DUP9 ADD PUSH2 0x3094 JUMP JUMPDEST SWAP2 POP POP SWAP3 SWAP6 SWAP2 SWAP5 POP SWAP3 POP JUMP JUMPDEST PUSH1 0x0 DUP1 PUSH1 0x0 DUP1 PUSH1 0x0 PUSH1 0xA0 DUP7 DUP9 SUB SLT ISZERO PUSH2 0x339F JUMPI PUSH2 0x339E PUSH2 0x4264 JUMP JUMPDEST JUMPDEST PUSH1 0x0 PUSH2 0x33AD DUP9 DUP3 DUP10 ADD PUSH2 0x30C2 JUMP JUMPDEST SWAP6 POP POP PUSH1 0x20 DUP7 ADD CALLDATALOAD PUSH8 0xFFFFFFFFFFFFFFFF DUP2 GT ISZERO PUSH2 0x33CE JUMPI PUSH2 0x33CD PUSH2 0x425F JUMP JUMPDEST JUMPDEST PUSH2 0x33DA DUP9 DUP3 DUP10 ADD PUSH2 0x3094 JUMP JUMPDEST SWAP5 POP POP PUSH1 0x40 DUP7 ADD CALLDATALOAD PUSH8 0xFFFFFFFFFFFFFFFF DUP2 GT ISZERO PUSH2 0x33FB JUMPI PUSH2 0x33FA PUSH2 0x425F JUMP JUMPDEST JUMPDEST PUSH2 0x3407 DUP9 DUP3 DUP10 ADD PUSH2 0x3094 JUMP JUMPDEST SWAP4 POP POP PUSH1 0x60 DUP7 ADD CALLDATALOAD PUSH8 0xFFFFFFFFFFFFFFFF DUP2 GT ISZERO PUSH2 0x3428 JUMPI PUSH2 0x3427 PUSH2 0x425F JUMP JUMPDEST JUMPDEST PUSH2 0x3434 DUP9 DUP3 DUP10 ADD PUSH2 0x3094 JUMP JUMPDEST SWAP3 POP POP PUSH1 0x80 PUSH2 0x3445 DUP9 DUP3 DUP10 ADD PUSH2 0x30C2 JUMP JUMPDEST SWAP2 POP POP SWAP3 SWAP6 POP SWAP3 SWAP6 SWAP1 SWAP4 POP JUMP JUMPDEST PUSH1 0x0 DUP1 PUSH1 0x0 DUP1 PUSH1 0x0 DUP1 PUSH1 0x0 DUP1 PUSH2 0x100 DUP10 DUP12 SUB SLT ISZERO PUSH2 0x3473 JUMPI PUSH2 0x3472 PUSH2 0x4264 JUMP JUMPDEST JUMPDEST PUSH1 0x0 PUSH2 0x3481 DUP12 DUP3 DUP13 ADD PUSH2 0x30C2 JUMP JUMPDEST SWAP9 POP POP PUSH1 0x20 DUP10 ADD CALLDATALOAD PUSH8 0xFFFFFFFFFFFFFFFF DUP2 GT ISZERO PUSH2 0x34A2 JUMPI PUSH2 0x34A1 PUSH2 0x425F JUMP JUMPDEST JUMPDEST PUSH2 0x34AE DUP12 DUP3 DUP13 ADD PUSH2 0x3094 JUMP JUMPDEST SWAP8 POP POP PUSH1 0x40 DUP10 ADD CALLDATALOAD PUSH8 0xFFFFFFFFFFFFFFFF DUP2 GT ISZERO PUSH2 0x34CF JUMPI PUSH2 0x34CE PUSH2 0x425F JUMP JUMPDEST JUMPDEST PUSH2 0x34DB DUP12 DUP3 DUP13 ADD PUSH2 0x3094 JUMP JUMPDEST SWAP7 POP POP PUSH1 0x60 DUP10 ADD CALLDATALOAD PUSH8 0xFFFFFFFFFFFFFFFF DUP2 GT ISZERO PUSH2 0x34FC JUMPI PUSH2 0x34FB PUSH2 0x425F JUMP JUMPDEST JUMPDEST PUSH2 0x3508 DUP12 DUP3 DUP13 ADD PUSH2 0x3094 JUMP JUMPDEST SWAP6 POP POP PUSH1 0x80 PUSH2 0x3519 DUP12 DUP3 DUP13 ADD PUSH2 0x30C2 JUMP JUMPDEST SWAP5 POP POP PUSH1 0xA0 PUSH2 0x352A DUP12 DUP3 DUP13 ADD PUSH2 0x30C2 JUMP JUMPDEST SWAP4 POP POP PUSH1 0xC0 PUSH2 0x353B DUP12 DUP3 DUP13 ADD PUSH2 0x30C2 JUMP JUMPDEST SWAP3 POP POP PUSH1 0xE0 DUP10 ADD CALLDATALOAD PUSH8 0xFFFFFFFFFFFFFFFF DUP2 GT ISZERO PUSH2 0x355C JUMPI PUSH2 0x355B PUSH2 0x425F JUMP JUMPDEST JUMPDEST PUSH2 0x3568 DUP12 DUP3 DUP13 ADD PUSH2 0x3094 JUMP JUMPDEST SWAP2 POP POP SWAP3 SWAP6 SWAP9 POP SWAP3 SWAP6 SWAP9 SWAP1 SWAP4 SWAP7 POP JUMP JUMPDEST PUSH1 0x0 DUP1 PUSH1 0x0 PUSH1 0x60 DUP5 DUP7 SUB SLT ISZERO PUSH2 0x3591 JUMPI PUSH2 0x3590 PUSH2 0x4264 JUMP JUMPDEST JUMPDEST PUSH1 0x0 PUSH2 0x359F DUP7 DUP3 DUP8 ADD PUSH2 0x30C2 JUMP JUMPDEST SWAP4 POP POP PUSH1 0x20 DUP5 ADD CALLDATALOAD PUSH8 0xFFFFFFFFFFFFFFFF DUP2 GT ISZERO PUSH2 0x35C0 JUMPI PUSH2 0x35BF PUSH2 0x425F JUMP JUMPDEST JUMPDEST PUSH2 0x35CC DUP7 DUP3 DUP8 ADD PUSH2 0x3094 JUMP JUMPDEST SWAP3 POP POP PUSH1 0x40 PUSH2 0x35DD DUP7 DUP3 DUP8 ADD PUSH2 0x30C2 JUMP JUMPDEST SWAP2 POP POP SWAP3 POP SWAP3 POP SWAP3 JUMP JUMPDEST PUSH1 0x0 DUP1 PUSH1 0x0 DUP1 PUSH1 0x80 DUP6 DUP8 SUB SLT ISZERO PUSH2 0x3601 JUMPI PUSH2 0x3600 PUSH2 0x4264 JUMP JUMPDEST JUMPDEST PUSH1 0x0 PUSH2 0x360F DUP8 DUP3 DUP9 ADD PUSH2 0x30C2 JUMP JUMPDEST SWAP5 POP POP PUSH1 0x20 DUP6 ADD CALLDATALOAD PUSH8 0xFFFFFFFFFFFFFFFF DUP2 GT ISZERO PUSH2 0x3630 JUMPI PUSH2 0x362F PUSH2 0x425F JUMP JUMPDEST JUMPDEST PUSH2 0x363C DUP8 DUP3 DUP9 ADD PUSH2 0x3094 JUMP JUMPDEST SWAP4 POP POP PUSH1 0x40 PUSH2 0x364D DUP8 DUP3 DUP9 ADD PUSH2 0x30C2 JUMP JUMPDEST SWAP3 POP POP PUSH1 0x60 PUSH2 0x365E DUP8 DUP3 DUP9 ADD PUSH2 0x30C2 JUMP JUMPDEST SWAP2 POP POP SWAP3 SWAP6 SWAP2 SWAP5 POP SWAP3 POP JUMP JUMPDEST PUSH1 0x0 DUP1 PUSH1 0x0 PUSH1 0x60 DUP5 DUP7 SUB SLT ISZERO PUSH2 0x3683 JUMPI PUSH2 0x3682 PUSH2 0x4264 JUMP JUMPDEST JUMPDEST PUSH1 0x0 PUSH2 0x3691 DUP7 DUP3 DUP8 ADD PUSH2 0x30C2 JUMP JUMPDEST SWAP4 POP POP PUSH1 0x20 PUSH2 0x36A2 DUP7 DUP3 DUP8 ADD PUSH2 0x30C2 JUMP JUMPDEST SWAP3 POP POP PUSH1 0x40 DUP5 ADD CALLDATALOAD PUSH8 0xFFFFFFFFFFFFFFFF DUP2 GT ISZERO PUSH2 0x36C3 JUMPI PUSH2 0x36C2 PUSH2 0x425F JUMP JUMPDEST JUMPDEST PUSH2 0x36CF DUP7 DUP3 DUP8 ADD PUSH2 0x3094 JUMP JUMPDEST SWAP2 POP POP SWAP3 POP SWAP3 POP SWAP3 JUMP JUMPDEST PUSH1 0x0 DUP1 PUSH1 0x0 DUP1 PUSH1 0x0 DUP1 PUSH1 0x0 PUSH1 0xE0 DUP9 DUP11 SUB SLT ISZERO PUSH2 0x36F8 JUMPI PUSH2 0x36F7 PUSH2 0x4264 JUMP JUMPDEST JUMPDEST PUSH1 0x0 PUSH2 0x3706 DUP11 DUP3 DUP12 ADD PUSH2 0x30C2 JUMP JUMPDEST SWAP8 POP POP PUSH1 0x20 PUSH2 0x3717 DUP11 DUP3 DUP12 ADD PUSH2 0x30C2 JUMP JUMPDEST SWAP7 POP POP PUSH1 0x40 DUP9 ADD CALLDATALOAD PUSH8 0xFFFFFFFFFFFFFFFF DUP2 GT ISZERO PUSH2 0x3738 JUMPI PUSH2 0x3737 PUSH2 0x425F JUMP JUMPDEST JUMPDEST PUSH2 0x3744 DUP11 DUP3 DUP12 ADD PUSH2 0x3094 JUMP JUMPDEST SWAP6 POP POP PUSH1 0x60 DUP9 ADD CALLDATALOAD PUSH8 0xFFFFFFFFFFFFFFFF DUP2 GT ISZERO PUSH2 0x3765 JUMPI PUSH2 0x3764 PUSH2 0x425F JUMP JUMPDEST JUMPDEST PUSH2 0x3771 DUP11 DUP3 DUP12 ADD PUSH2 0x3094 JUMP JUMPDEST SWAP5 POP POP PUSH1 0x80 DUP9 ADD CALLDATALOAD PUSH8 0xFFFFFFFFFFFFFFFF DUP2 GT ISZERO PUSH2 0x3792 JUMPI PUSH2 0x3791 PUSH2 0x425F JUMP JUMPDEST JUMPDEST PUSH2 0x379E DUP11 DUP3 DUP12 ADD PUSH2 0x3094 JUMP JUMPDEST SWAP4 POP POP PUSH1 0xA0 DUP9 ADD CALLDATALOAD PUSH8 0xFFFFFFFFFFFFFFFF DUP2 GT ISZERO PUSH2 0x37BF JUMPI PUSH2 0x37BE PUSH2 0x425F JUMP JUMPDEST JUMPDEST PUSH2 0x37CB DUP11 DUP3 DUP12 ADD PUSH2 0x3094 JUMP JUMPDEST SWAP3 POP POP PUSH1 0xC0 PUSH2 0x37DC DUP11 DUP3 DUP12 ADD PUSH2 0x30C2 JUMP JUMPDEST SWAP2 POP POP SWAP3 SWAP6 SWAP9 SWAP2 SWAP5 SWAP8 POP SWAP3 SWAP6 POP JUMP JUMPDEST PUSH1 0x0 DUP1 PUSH1 0x0 DUP1 PUSH1 0x80 DUP6 DUP8 SUB SLT ISZERO PUSH2 0x3805 JUMPI PUSH2 0x3804 PUSH2 0x4264 JUMP JUMPDEST JUMPDEST PUSH1 0x0 PUSH2 0x3813 DUP8 DUP3 DUP9 ADD PUSH2 0x30C2 JUMP JUMPDEST SWAP5 POP POP PUSH1 0x20 PUSH2 0x3824 DUP8 DUP3 DUP9 ADD PUSH2 0x30C2 JUMP JUMPDEST SWAP4 POP POP PUSH1 0x40 DUP6 ADD CALLDATALOAD PUSH8 0xFFFFFFFFFFFFFFFF DUP2 GT ISZERO PUSH2 0x3845 JUMPI PUSH2 0x3844 PUSH2 0x425F JUMP JUMPDEST JUMPDEST PUSH2 0x3851 DUP8 DUP3 DUP9 ADD PUSH2 0x3094 JUMP JUMPDEST SWAP3 POP POP PUSH1 0x60 PUSH2 0x3862 DUP8 DUP3 DUP9 ADD PUSH2 0x30C2 JUMP JUMPDEST SWAP2 POP POP SWAP3 SWAP6 SWAP2 SWAP5 POP SWAP3 POP JUMP JUMPDEST PUSH1 0x0 DUP1 PUSH1 0x0 DUP1 PUSH1 0x0 DUP1 PUSH1 0xC0 DUP8 DUP10 SUB SLT ISZERO PUSH2 0x388B JUMPI PUSH2 0x388A PUSH2 0x4264 JUMP JUMPDEST JUMPDEST PUSH1 0x0 PUSH2 0x3899 DUP10 DUP3 DUP11 ADD PUSH2 0x30C2 JUMP JUMPDEST SWAP7 POP POP PUSH1 0x20 PUSH2 0x38AA DUP10 DUP3 DUP11 ADD PUSH2 0x30C2 JUMP JUMPDEST SWAP6 POP POP PUSH1 0x40 PUSH2 0x38BB DUP10 DUP3 DUP11 ADD PUSH2 0x30C2 JUMP JUMPDEST SWAP5 POP POP PUSH1 0x60 DUP8 ADD CALLDATALOAD PUSH8 0xFFFFFFFFFFFFFFFF DUP2 GT ISZERO PUSH2 0x38DC JUMPI PUSH2 0x38DB PUSH2 0x425F JUMP JUMPDEST JUMPDEST PUSH2 0x38E8 DUP10 DUP3 DUP11 ADD PUSH2 0x3094 JUMP JUMPDEST SWAP4 POP POP PUSH1 0x80 DUP8 ADD CALLDATALOAD PUSH8 0xFFFFFFFFFFFFFFFF DUP2 GT ISZERO PUSH2 0x3909 JUMPI PUSH2 0x3908 PUSH2 0x425F JUMP JUMPDEST JUMPDEST PUSH2 0x3915 DUP10 DUP3 DUP11 ADD PUSH2 0x3094 JUMP JUMPDEST SWAP3 POP POP PUSH1 0xA0 DUP8 ADD CALLDATALOAD PUSH8 0xFFFFFFFFFFFFFFFF DUP2 GT ISZERO PUSH2 0x3936 JUMPI PUSH2 0x3935 PUSH2 0x425F JUMP JUMPDEST JUMPDEST PUSH2 0x3942 DUP10 DUP3 DUP11 ADD PUSH2 0x3094 JUMP JUMPDEST SWAP2 POP POP SWAP3 SWAP6 POP SWAP3 SWAP6 POP SWAP3 SWAP6 JUMP JUMPDEST PUSH1 0x0 PUSH2 0x395B DUP4 DUP4 PUSH2 0x3A8C JUMP JUMPDEST PUSH1 0x20 DUP4 ADD SWAP1 POP SWAP3 SWAP2 POP POP JUMP JUMPDEST PUSH2 0x3970 DUP2 PUSH2 0x4040 JUMP JUMPDEST DUP3 MSTORE POP POP JUMP JUMPDEST PUSH1 0x0 PUSH2 0x3981 DUP3 PUSH2 0x3F66 JUMP JUMPDEST PUSH2 0x398B DUP2 DUP6 PUSH2 0x3F89 JUMP JUMPDEST SWAP4 POP PUSH2 0x3996 DUP4 PUSH2 0x3F41 JUMP JUMPDEST DUP1 PUSH1 0x0 JUMPDEST DUP4 DUP2 LT ISZERO PUSH2 0x39C7 JUMPI DUP2 MLOAD PUSH2 0x39AE DUP9 DUP3 PUSH2 0x394F JUMP JUMPDEST SWAP8 POP PUSH2 0x39B9 DUP4 PUSH2 0x3F7C JUMP JUMPDEST SWAP3 POP POP PUSH1 0x1 DUP2 ADD SWAP1 POP PUSH2 0x399A JUMP JUMPDEST POP DUP6 SWAP4 POP POP POP POP SWAP3 SWAP2 POP POP JUMP JUMPDEST PUSH1 0x0 DUP2 SLOAD PUSH2 0x39E1 DUP2 PUSH2 0x40BE JUMP JUMPDEST PUSH2 0x39EB DUP2 DUP7 PUSH2 0x3F9A JUMP JUMPDEST SWAP5 POP PUSH1 0x1 DUP3 AND PUSH1 0x0 DUP2 EQ PUSH2 0x3A06 JUMPI PUSH1 0x1 DUP2 EQ PUSH2 0x3A17 JUMPI PUSH2 0x3A4A JUMP JUMPDEST PUSH1 0xFF NOT DUP4 AND DUP7 MSTORE DUP2 DUP7 ADD SWAP4 POP PUSH2 0x3A4A JUMP JUMPDEST PUSH2 0x3A20 DUP6 PUSH2 0x3F51 JUMP JUMPDEST PUSH1 0x0 JUMPDEST DUP4 DUP2 LT ISZERO PUSH2 0x3A42 JUMPI DUP2 SLOAD DUP2 DUP10 ADD MSTORE PUSH1 0x1 DUP3 ADD SWAP2 POP PUSH1 0x20 DUP2 ADD SWAP1 POP PUSH2 0x3A23 JUMP JUMPDEST DUP4 DUP9 ADD SWAP6 POP POP POP JUMPDEST POP POP POP SWAP3 SWAP2 POP POP JUMP JUMPDEST PUSH1 0x0 PUSH2 0x3A5E DUP3 PUSH2 0x3F71 JUMP JUMPDEST PUSH2 0x3A68 DUP2 DUP6 PUSH2 0x3FA5 JUMP JUMPDEST SWAP4 POP PUSH2 0x3A78 DUP2 DUP6 PUSH1 0x20 DUP7 ADD PUSH2 0x408B JUMP JUMPDEST PUSH2 0x3A81 DUP2 PUSH2 0x4269 JUMP JUMPDEST DUP5 ADD SWAP2 POP POP SWAP3 SWAP2 POP POP JUMP JUMPDEST PUSH2 0x3A95 DUP2 PUSH2 0x4072 JUMP JUMPDEST DUP3 MSTORE POP POP JUMP JUMPDEST PUSH2 0x3AA4 DUP2 PUSH2 0x4072 JUMP JUMPDEST DUP3 MSTORE POP POP JUMP JUMPDEST PUSH1 0x0 PUSH2 0x3AB6 DUP3 DUP5 PUSH2 0x39D4 JUMP JUMPDEST SWAP2 POP DUP2 SWAP1 POP SWAP3 SWAP2 POP POP JUMP JUMPDEST PUSH1 0x0 PUSH1 0x20 DUP3 ADD SWAP1 POP PUSH2 0x3AD6 PUSH1 0x0 DUP4 ADD DUP5 PUSH2 0x3967 JUMP JUMPDEST SWAP3 SWAP2 POP POP JUMP JUMPDEST PUSH1 0x0 PUSH1 0x20 DUP3 ADD SWAP1 POP DUP2 DUP2 SUB PUSH1 0x0 DUP4 ADD MSTORE PUSH2 0x3AF6 DUP2 DUP5 PUSH2 0x3976 JUMP JUMPDEST SWAP1 POP SWAP3 SWAP2 POP POP JUMP JUMPDEST PUSH1 0x0 PUSH1 0x20 DUP3 ADD SWAP1 POP DUP2 DUP2 SUB PUSH1 0x0 DUP4 ADD MSTORE PUSH2 0x3B18 DUP2 DUP5 PUSH2 0x3A53 JUMP JUMPDEST SWAP1 POP SWAP3 SWAP2 POP POP JUMP JUMPDEST PUSH1 0x0 PUSH1 0x40 DUP3 ADD SWAP1 POP DUP2 DUP2 SUB PUSH1 0x0 DUP4 ADD MSTORE PUSH2 0x3B3A DUP2 DUP6 PUSH2 0x3A53 JUMP JUMPDEST SWAP1 POP DUP2 DUP2 SUB PUSH1 0x20 DUP4 ADD MSTORE PUSH2 0x3B4E DUP2 DUP5 PUSH2 0x3A53 JUMP JUMPDEST SWAP1 POP SWAP4 SWAP3 POP POP POP JUMP JUMPDEST PUSH1 0x0 PUSH1 0xA0 DUP3 ADD SWAP1 POP DUP2 DUP2 SUB PUSH1 0x0 DUP4 ADD MSTORE PUSH2 0x3B71 DUP2 DUP9 PUSH2 0x3A53 JUMP JUMPDEST SWAP1 POP PUSH2 0x3B80 PUSH1 0x20 DUP4 ADD DUP8 PUSH2 0x3A9B JUMP JUMPDEST DUP2 DUP2 SUB PUSH1 0x40 DUP4 ADD MSTORE PUSH2 0x3B92 DUP2 DUP7 PUSH2 0x3A53 JUMP JUMPDEST SWAP1 POP DUP2 DUP2 SUB PUSH1 0x60 DUP4 ADD MSTORE PUSH2 0x3BA6 DUP2 DUP6 PUSH2 0x3A53 JUMP JUMPDEST SWAP1 POP DUP2 DUP2 SUB PUSH1 0x80 DUP4 ADD MSTORE PUSH2 0x3BBA DUP2 DUP5 PUSH2 0x3A53 JUMP JUMPDEST SWAP1 POP SWAP7 SWAP6 POP POP POP POP POP POP JUMP JUMPDEST PUSH1 0x0 PUSH1 0x20 DUP3 ADD SWAP1 POP PUSH2 0x3BDB PUSH1 0x0 DUP4 ADD DUP5 PUSH2 0x3A9B JUMP JUMPDEST SWAP3 SWAP2 POP POP JUMP JUMPDEST PUSH1 0x0 PUSH1 0x80 DUP3 ADD SWAP1 POP PUSH2 0x3BF6 PUSH1 0x0 DUP4 ADD DUP8 PUSH2 0x3A9B JUMP JUMPDEST DUP2 DUP2 SUB PUSH1 0x20 DUP4 ADD MSTORE PUSH2 0x3C08 DUP2 DUP7 PUSH2 0x3A53 JUMP JUMPDEST SWAP1 POP DUP2 DUP2 SUB PUSH1 0x40 DUP4 ADD MSTORE PUSH2 0x3C1C DUP2 DUP6 PUSH2 0x3A53 JUMP JUMPDEST SWAP1 POP DUP2 DUP2 SUB PUSH1 0x60 DUP4 ADD MSTORE PUSH2 0x3C30 DUP2 DUP5 PUSH2 0x3A53 JUMP JUMPDEST SWAP1 POP SWAP6 SWAP5 POP POP POP POP POP JUMP JUMPDEST PUSH1 0x0 PUSH2 0x180 DUP3 ADD SWAP1 POP PUSH2 0x3C51 PUSH1 0x0 DUP4 ADD DUP16 PUSH2 0x3A9B JUMP JUMPDEST PUSH2 0x3C5E PUSH1 0x20 DUP4 ADD DUP15 PUSH2 0x3A9B JUMP JUMPDEST DUP2 DUP2 SUB PUSH1 0x40 DUP4 ADD MSTORE PUSH2 0x3C70 DUP2 DUP14 PUSH2 0x3A53 JUMP JUMPDEST SWAP1 POP DUP2 DUP2 SUB PUSH1 0x60 DUP4 ADD MSTORE PUSH2 0x3C84 DUP2 DUP13 PUSH2 0x3A53 JUMP JUMPDEST SWAP1 POP DUP2 DUP2 SUB PUSH1 0x80 DUP4 ADD MSTORE PUSH2 0x3C98 DUP2 DUP12 PUSH2 0x3A53 JUMP JUMPDEST SWAP1 POP PUSH2 0x3CA7 PUSH1 0xA0 DUP4 ADD DUP11 PUSH2 0x3A9B JUMP JUMPDEST PUSH2 0x3CB4 PUSH1 0xC0 DUP4 ADD DUP10 PUSH2 0x3A9B JUMP JUMPDEST PUSH2 0x3CC1 PUSH1 0xE0 DUP4 ADD DUP9 PUSH2 0x3A9B JUMP JUMPDEST DUP2 DUP2 SUB PUSH2 0x100 DUP4 ADD MSTORE PUSH2 0x3CD4 DUP2 DUP8 PUSH2 0x3A53 JUMP JUMPDEST SWAP1 POP DUP2 DUP2 SUB PUSH2 0x120 DUP4 ADD MSTORE PUSH2 0x3CE9 DUP2 DUP7 PUSH2 0x3A53 JUMP JUMPDEST SWAP1 POP PUSH2 0x3CF9 PUSH2 0x140 DUP4 ADD DUP6 PUSH2 0x3A9B JUMP JUMPDEST PUSH2 0x3D07 PUSH2 0x160 DUP4 ADD DUP5 PUSH2 0x3A9B JUMP JUMPDEST SWAP14 SWAP13 POP POP POP POP POP POP POP POP POP POP POP POP POP JUMP JUMPDEST PUSH1 0x0 PUSH1 0x80 DUP3 ADD SWAP1 POP PUSH2 0x3D2D PUSH1 0x0 DUP4 ADD DUP8 PUSH2 0x3A9B JUMP JUMPDEST PUSH2 0x3D3A PUSH1 0x20 DUP4 ADD DUP7 PUSH2 0x3A9B JUMP JUMPDEST PUSH2 0x3D47 PUSH1 0x40 DUP4 ADD DUP6 PUSH2 0x3A9B JUMP JUMPDEST DUP2 DUP2 SUB PUSH1 0x60 DUP4 ADD MSTORE PUSH2 0x3D59 DUP2 DUP5 PUSH2 0x3A53 JUMP JUMPDEST SWAP1 POP SWAP6 SWAP5 POP POP POP POP POP JUMP JUMPDEST PUSH1 0x0 PUSH2 0x120 DUP3 ADD SWAP1 POP PUSH2 0x3D7A PUSH1 0x0 DUP4 ADD DUP13 PUSH2 0x3A9B JUMP JUMPDEST PUSH2 0x3D87 PUSH1 0x20 DUP4 ADD DUP12 PUSH2 0x3A9B JUMP JUMPDEST PUSH2 0x3D94 PUSH1 0x40 DUP4 ADD DUP11 PUSH2 0x3A9B JUMP JUMPDEST DUP2 DUP2 SUB PUSH1 0x60 DUP4 ADD MSTORE PUSH2 0x3DA6 DUP2 DUP10 PUSH2 0x3A53 JUMP JUMPDEST SWAP1 POP DUP2 DUP2 SUB PUSH1 0x80 DUP4 ADD MSTORE PUSH2 0x3DBA DUP2 DUP9 PUSH2 0x3A53 JUMP JUMPDEST SWAP1 POP DUP2 DUP2 SUB PUSH1 0xA0 DUP4 ADD MSTORE PUSH2 0x3DCE DUP2 DUP8 PUSH2 0x3A53 JUMP JUMPDEST SWAP1 POP DUP2 DUP2 SUB PUSH1 0xC0 DUP4 ADD MSTORE PUSH2 0x3DE2 DUP2 DUP7 PUSH2 0x3A53 JUMP JUMPDEST SWAP1 POP PUSH2 0x3DF1 PUSH1 0xE0 DUP4 ADD DUP6 PUSH2 0x3A9B JUMP JUMPDEST PUSH2 0x3DFF PUSH2 0x100 DUP4 ADD DUP5 PUSH2 0x3A9B JUMP JUMPDEST SWAP11 SWAP10 POP POP POP POP POP POP POP POP POP POP JUMP JUMPDEST PUSH1 0x0 PUSH1 0xA0 DUP3 ADD SWAP1 POP PUSH2 0x3E22 PUSH1 0x0 DUP4 ADD DUP9 PUSH2 0x3A9B JUMP JUMPDEST PUSH2 0x3E2F PUSH1 0x20 DUP4 ADD DUP8 PUSH2 0x3A9B JUMP JUMPDEST PUSH2 0x3E3C PUSH1 0x40 DUP4 ADD DUP7 PUSH2 0x3A9B JUMP JUMPDEST PUSH2 0x3E49 PUSH1 0x60 DUP4 ADD DUP6 PUSH2 0x3A9B JUMP JUMPDEST DUP2 DUP2 SUB PUSH1 0x80 DUP4 ADD MSTORE PUSH2 0x3E5B DUP2 DUP5 PUSH2 0x3A53 JUMP JUMPDEST SWAP1 POP SWAP7 SWAP6 POP POP POP POP POP POP JUMP JUMPDEST PUSH1 0x0 PUSH1 0xE0 DUP3 ADD SWAP1 POP PUSH2 0x3E7C PUSH1 0x0 DUP4 ADD DUP11 PUSH2 0x3A9B JUMP JUMPDEST PUSH2 0x3E89 PUSH1 0x20 DUP4 ADD DUP10 PUSH2 0x3A9B JUMP JUMPDEST PUSH2 0x3E96 PUSH1 0x40 DUP4 ADD DUP9 PUSH2 0x3A9B JUMP JUMPDEST PUSH2 0x3EA3 PUSH1 0x60 DUP4 ADD DUP8 PUSH2 0x3A9B JUMP JUMPDEST DUP2 DUP2 SUB PUSH1 0x80 DUP4 ADD MSTORE PUSH2 0x3EB5 DUP2 DUP7 PUSH2 0x3A53 JUMP JUMPDEST SWAP1 POP DUP2 DUP2 SUB PUSH1 0xA0 DUP4 ADD MSTORE PUSH2 0x3EC9 DUP2 DUP6 PUSH2 0x3A53 JUMP JUMPDEST SWAP1 POP DUP2 DUP2 SUB PUSH1 0xC0 DUP4 ADD MSTORE PUSH2 0x3EDD DUP2 DUP5 PUSH2 0x3A53 JUMP JUMPDEST SWAP1 POP SWAP9 SWAP8 POP POP POP POP POP POP POP POP JUMP JUMPDEST PUSH1 0x0 PUSH2 0x3EF5 PUSH2 0x3F06 JUMP JUMPDEST SWAP1 POP PUSH2 0x3F01 DUP3 DUP3 PUSH2 0x40F0 JUMP JUMPDEST SWAP2 SWAP1 POP JUMP JUMPDEST PUSH1 0x0 PUSH1 0x40 MLOAD SWAP1 POP SWAP1 JUMP JUMPDEST PUSH1 0x0 PUSH8 0xFFFFFFFFFFFFFFFF DUP3 GT ISZERO PUSH2 0x3F2B JUMPI PUSH2 0x3F2A PUSH2 0x4226 JUMP JUMPDEST JUMPDEST PUSH2 0x3F34 DUP3 PUSH2 0x4269 JUMP JUMPDEST SWAP1 POP PUSH1 0x20 DUP2 ADD SWAP1 POP SWAP2 SWAP1 POP JUMP JUMPDEST PUSH1 0x0 DUP2 SWAP1 POP PUSH1 0x20 DUP3 ADD SWAP1 POP SWAP2 SWAP1 POP JUMP JUMPDEST PUSH1 0x0 DUP2 SWAP1 POP DUP2 PUSH1 0x0 MSTORE PUSH1 0x20 PUSH1 0x0 KECCAK256 SWAP1 POP SWAP2 SWAP1 POP JUMP JUMPDEST PUSH1 0x0 DUP2 MLOAD SWAP1 POP SWAP2 SWAP1 POP JUMP JUMPDEST PUSH1 0x0 DUP2 MLOAD SWAP1 POP SWAP2 SWAP1 POP JUMP JUMPDEST PUSH1 0x0 PUSH1 0x20 DUP3 ADD SWAP1 POP SWAP2 SWAP1 POP JUMP JUMPDEST PUSH1 0x0 DUP3 DUP3 MSTORE PUSH1 0x20 DUP3 ADD SWAP1 POP SWAP3 SWAP2 POP POP JUMP JUMPDEST PUSH1 0x0 DUP2 SWAP1 POP SWAP3 SWAP2 POP POP JUMP JUMPDEST PUSH1 0x0 DUP3 DUP3 MSTORE PUSH1 0x20 DUP3 ADD SWAP1 POP SWAP3 SWAP2 POP POP JUMP JUMPDEST PUSH1 0x0 PUSH2 0x3FC1 DUP3 PUSH2 0x4072 JUMP JUMPDEST SWAP2 POP PUSH2 0x3FCC DUP4 PUSH2 0x4072 JUMP JUMPDEST SWAP3 POP DUP3 PUSH32 0xFFFFFFFFFFFFFFFFFFFFFFFFFFFFFFFFFFFFFFFFFFFFFFFFFFFFFFFFFFFFFFFF SUB DUP3 GT ISZERO PUSH2 0x4001 JUMPI PUSH2 0x4000 PUSH2 0x416A JUMP JUMPDEST JUMPDEST DUP3 DUP3 ADD SWAP1 POP SWAP3 SWAP2 POP POP JUMP JUMPDEST PUSH1 0x0 PUSH2 0x4017 DUP3 PUSH2 0x4072 JUMP JUMPDEST SWAP2 POP PUSH2 0x4022 DUP4 PUSH2 0x4072 JUMP JUMPDEST SWAP3 POP DUP3 DUP3 LT ISZERO PUSH2 0x4035 JUMPI PUSH2 0x4034 PUSH2 0x416A JUMP JUMPDEST JUMPDEST DUP3 DUP3 SUB SWAP1 POP SWAP3 SWAP2 POP POP JUMP JUMPDEST PUSH1 0x0 PUSH2 0x404B DUP3 PUSH2 0x4052 JUMP JUMPDEST SWAP1 POP SWAP2 SWAP1 POP JUMP JUMPDEST PUSH1 0x0 PUSH20 0xFFFFFFFFFFFFFFFFFFFFFFFFFFFFFFFFFFFFFFFF DUP3 AND SWAP1 POP SWAP2 SWAP1 POP JUMP JUMPDEST PUSH1 0x0 DUP2 SWAP1 POP SWAP2 SWAP1 POP JUMP JUMPDEST DUP3 DUP2 DUP4 CALLDATACOPY PUSH1 0x0 DUP4 DUP4 ADD MSTORE POP POP POP JUMP JUMPDEST PUSH1 0x0 JUMPDEST DUP4 DUP2 LT ISZERO PUSH2 0x40A9 JUMPI DUP1 DUP3 ADD MLOAD DUP2 DUP5 ADD MSTORE PUSH1 0x20 DUP2 ADD SWAP1 POP PUSH2 0x408E JUMP JUMPDEST DUP4 DUP2 GT ISZERO PUSH2 0x40B8 JUMPI PUSH1 0x0 DUP5 DUP5 ADD MSTORE JUMPDEST POP POP POP POP JUMP JUMPDEST PUSH1 0x0 PUSH1 0x2 DUP3 DIV SWAP1 POP PUSH1 0x1 DUP3 AND DUP1 PUSH2 0x40D6 JUMPI PUSH1 0x7F DUP3 AND SWAP2 POP JUMPDEST PUSH1 0x20 DUP3 LT DUP2 EQ ISZERO PUSH2 0x40EA JUMPI PUSH2 0x40E9 PUSH2 0x41C8 JUMP JUMPDEST JUMPDEST POP SWAP2 SWAP1 POP JUMP JUMPDEST PUSH2 0x40F9 DUP3 PUSH2 0x4269 JUMP JUMPDEST DUP2 ADD DUP2 DUP2 LT PUSH8 0xFFFFFFFFFFFFFFFF DUP3 GT OR ISZERO PUSH2 0x4118 JUMPI PUSH2 0x4117 PUSH2 0x4226 JUMP JUMPDEST JUMPDEST DUP1 PUSH1 0x40 MSTORE POP POP POP JUMP JUMPDEST PUSH1 0x0 PUSH2 0x412C DUP3 PUSH2 0x4072 JUMP JUMPDEST SWAP2 POP PUSH32 0xFFFFFFFFFFFFFFFFFFFFFFFFFFFFFFFFFFFFFFFFFFFFFFFFFFFFFFFFFFFFFFFF DUP3 EQ ISZERO PUSH2 0x415F JUMPI PUSH2 0x415E PUSH2 0x416A JUMP JUMPDEST JUMPDEST PUSH1 0x1 DUP3 ADD SWAP1 POP SWAP2 SWAP1 POP JUMP JUMPDEST PUSH32 0x4E487B7100000000000000000000000000000000000000000000000000000000 PUSH1 0x0 MSTORE PUSH1 0x11 PUSH1 0x4 MSTORE PUSH1 0x24 PUSH1 0x0 REVERT JUMPDEST PUSH32 0x4E487B7100000000000000000000000000000000000000000000000000000000 PUSH1 0x0 MSTORE PUSH1 0x12 PUSH1 0x4 MSTORE PUSH1 0x24 PUSH1 0x0 REVERT JUMPDEST PUSH32 0x4E487B7100000000000000000000000000000000000000000000000000000000 PUSH1 0x0 MSTORE PUSH1 0x22 PUSH1 0x4 MSTORE PUSH1 0x24 PUSH1 0x0 REVERT JUMPDEST PUSH32 0x4E487B7100000000000000000000000000000000000000000000000000000000 PUSH1 0x0 MSTORE PUSH1 0x32 PUSH1 0x4 MSTORE PUSH1 0x24 PUSH1 0x0 REVERT JUMPDEST PUSH32 0x4E487B7100000000000000000000000000000000000000000000000000000000 PUSH1 0x0 MSTORE PUSH1 0x41 PUSH1 0x4 MSTORE PUSH1 0x24 PUSH1 0x0 REVERT JUMPDEST PUSH1 0x0 DUP1 REVERT JUMPDEST PUSH1 0x0 DUP1 REVERT JUMPDEST PUSH1 0x0 DUP1 REVERT JUMPDEST PUSH1 0x0 DUP1 REVERT JUMPDEST PUSH1 0x0 PUSH1 0x1F NOT PUSH1 0x1F DUP4 ADD AND SWAP1 POP SWAP2 SWAP1 POP JUMP JUMPDEST PUSH2 0x4283 DUP2 PUSH2 0x4072 JUMP JUMPDEST DUP2 EQ PUSH2 0x428E JUMPI PUSH1 0x0 DUP1 REVERT JUMPDEST POP JUMP INVALID PUSH9 0x747470733A2F2F692E PUSH17 0x6F7374696D672E63632F53737847773563 GAS 0x2F PUSH17 0x6572736F6E2E6A7067A264697066735822 SLT KECCAK256 CALLCODE PUSH23 0x842A5763615ABF9F2E785B9A20AFED802E45C5A3C6F06D SWAP12 0x48 0x2F 0xEB DUP3 0xFB DUP9 PUSH5 0x736F6C6343 STOP ADDMOD MOD STOP CALLER "},"gasEstimates":{"creation":{"codeDepositCost":"3427000","executionCost":"3828","totalCost":"3430828"},"external":{"CheckEmail(string)":"infinite","CreateAccount(string,string,string)":"infinite","CreateCompletedSurveys(uint256,uint256,string,uint256)":"infinite","CreateOngoingTrail(uint256,uint256,string)":"infinite","CreateOrSaveSections(uint256,string)":"infinite","CreateQuestionAnswer(uint256,uint256,uint256,string,string,string)":"infinite","CreateSurvey(uint256,uint256,string,string,string,string,uint256)":"infinite","CreateSurveyCategory(string,string)":"infinite","CreateTrial(uint256,string,string,string,uint256,uint256,uint256,string)":"infinite","GetOngoingTrial(uint256)":"infinite","Login(string,string)":"infinite","UpdateAudience(uint256,string)":"infinite","UpdateFhir(uint256,string,string,string)":"infinite","UpdatePrivatekey(uint256,string)":"infinite","UpdateReward(uint256,string,uint256,uint256)":"infinite","UpdateSurvey(uint256,string,string,string,uint256)":"infinite","UpdateTrial(uint256,string,string,string,uint256)":"infinite","UpdateUser(uint256,string,uint256)":"infinite","_AnsweredIds()":"2476","_CompletedSurveyIds()":"2496","_OngoingIds()":"2473","_SurveyCategoryIds()":"2542","_SurveyIds()":"2498","_TrialIds()":"2541","_UserIds()":"2474","_categoryMap(uint256)":"infinite","_completedsurveyMap(uint256)":"infinite","_fhirMap(uint256)":"infinite","_ongoingMap(uint256)":"infinite","_questionanswerdMap(uint256)":"infinite","_sectionsMap(uint256)":"infinite","_surveyMap(uint256)":"infinite","_trialAudienceMap(uint256)":"infinite","_trialMap(uint256)":"infinite","getAllCompletedSurveysIDByUser(uint256)":"infinite","getAllSurveysIDByTrial(uint256)":"infinite","getUserDetails(uint256)":"infinite","owner()":"2625","reset_all()":"infinite"},"internal":{"substring(string memory,uint256,uint256)":"infinite"}},"methodIdentifiers":{"CheckEmail(string)":"f8b7800f","CreateAccount(string,string,string)":"45948fde","CreateCompletedSurveys(uint256,uint256,string,uint256)":"7d423e10","CreateOngoingTrail(uint256,uint256,string)":"a5f3fc7d","CreateOrSaveSections(uint256,string)":"66cad734","CreateQuestionAnswer(uint256,uint256,uint256,string,string,string)":"6c067b48","CreateSurvey(uint256,uint256,string,string,string,string,uint256)":"3896f130","CreateSurveyCategory(string,string)":"4f8b36eb","CreateTrial(uint256,string,string,string,uint256,uint256,uint256,string)":"2c02dd60","GetOngoingTrial(uint256)":"902841d4","Login(string,string)":"ccef4218","UpdateAudience(uint256,string)":"ad23f8f9","UpdateFhir(uint256,string,string,string)":"a92e1c4c","UpdatePrivatekey(uint256,string)":"e1da993f","UpdateReward(uint256,string,uint256,uint256)":"3eebd0d0","UpdateSurvey(uint256,string,string,string,uint256)":"5f27aea1","UpdateTrial(uint256,string,string,string,uint256)":"55391705","UpdateUser(uint256,string,uint256)":"e57f973f","_AnsweredIds()":"01c66109","_CompletedSurveyIds()":"b6e604bd","_OngoingIds()":"eb6b2870","_SurveyCategoryIds()":"29b36423","_SurveyIds()":"1429f775","_TrialIds()":"ac7aef0e","_UserIds()":"ce08988c","_categoryMap(uint256)":"f0d8e873","_completedsurveyMap(uint256)":"90d6cf05","_fhirMap(uint256)":"ebe197ca","_ongoingMap(uint256)":"f6aaa804","_questionanswerdMap(uint256)":"c13b2836","_sectionsMap(uint256)":"ea7efaa6","_surveyMap(uint256)":"de7acfd7","_trialAudienceMap(uint256)":"2a8caf4a","_trialMap(uint256)":"bed208fe","getAllCompletedSurveysIDByUser(uint256)":"49b9b07b","getAllSurveysIDByTrial(uint256)":"682d562b","getUserDetails(uint256)":"1c1a9f7b","owner()":"8da5cb5b","reset_all()":"b16060a6"}},"storageLayout":{"storage":[{"astId":1189,"contract":"contracts/WaveData.sol:WaveData","label":"_UserIds","offset":0,"slot":"0","type":"t_uint256"},{"astId":1191,"contract":"contracts/WaveData.sol:WaveData","label":"_TrialIds","offset":0,"slot":"1","type":"t_uint256"},{"astId":1193,"contract":"contracts/WaveData.sol:WaveData","label":"_SurveyIds","offset":0,"slot":"2","type":"t_uint256"},{"astId":1195,"contract":"contracts/WaveData.sol:WaveData","label":"_SurveyCategoryIds","offset":0,"slot":"3","type":"t_uint256"},{"astId":1197,"contract":"contracts/WaveData.sol:WaveData","label":"_OngoingIds","offset":0,"slot":"4","type":"t_uint256"},{"astId":1199,"contract":"contracts/WaveData.sol:WaveData","label":"_AnsweredIds","offset":0,"slot":"5","type":"t_uint256"},{"astId":1201,"contract":"contracts/WaveData.sol:WaveData","label":"_CompletedSurveyIds","offset":0,"slot":"6","type":"t_uint256"},{"astId":1207,"contract":"contracts/WaveData.sol:WaveData","label":"_userMap","offset":0,"slot":"7","type":"t_mapping(t_uint256,t_struct(user_struct)1067_storage)"},{"astId":1213,"contract":"contracts/WaveData.sol:WaveData","label":"_trialMap","offset":0,"slot":"8","type":"t_mapping(t_uint256,t_struct(trial_struct)1111_storage)"},{"astId":1218,"contract":"contracts/WaveData.sol:WaveData","label":"_trialAudienceMap","offset":0,"slot":"9","type":"t_mapping(t_uint256,t_string_storage)"},{"astId":1224,"contract":"contracts/WaveData.sol:WaveData","label":"_surveyMap","offset":0,"slot":"10","type":"t_mapping(t_uint256,t_struct(survey_struct)1139_storage)"},{"astId":1230,"contract":"contracts/WaveData.sol:WaveData","label":"_categoryMap","offset":0,"slot":"11","type":"t_mapping(t_uint256,t_struct(survey_category_struct)1074_storage)"},{"astId":1235,"contract":"contracts/WaveData.sol:WaveData","label":"_sectionsMap","offset":0,"slot":"12","type":"t_mapping(t_uint256,t_string_storage)"},{"astId":1241,"contract":"contracts/WaveData.sol:WaveData","label":"_fhirMap","offset":0,"slot":"13","type":"t_mapping(t_uint256,t_struct(fhir_struct)1152_storage)"},{"astId":1247,"contract":"contracts/WaveData.sol:WaveData","label":"_ongoingMap","offset":0,"slot":"14","type":"t_mapping(t_uint256,t_struct(ongoing_struct)1161_storage)"},{"astId":1253,"contract":"contracts/WaveData.sol:WaveData","label":"_questionanswerdMap","offset":0,"slot":"15","type":"t_mapping(t_uint256,t_struct(survey_question_answer_struct)1176_storage)"},{"astId":1259,"contract":"contracts/WaveData.sol:WaveData","label":"_completedsurveyMap","offset":0,"slot":"16","type":"t_mapping(t_uint256,t_struct(completed_survey_struct)1187_storage)"},{"astId":1261,"contract":"contracts/WaveData.sol:WaveData","label":"owner","offset":0,"slot":"17","type":"t_address"}],"types":{"t_address":{"encoding":"inplace","label":"address","numberOfBytes":"20"},"t_mapping(t_uint256,t_string_storage)":{"encoding":"mapping","key":"t_uint256","label":"mapping(uint256 => string)","numberOfBytes":"32","value":"t_string_storage"},"t_mapping(t_uint256,t_struct(completed_survey_struct)1187_storage)":{"encoding":"mapping","key":"t_uint256","label":"mapping(uint256 => struct WaveData.completed_survey_struct)","numberOfBytes":"32","value":"t_struct(completed_survey_struct)1187_storage"},"t_mapping(t_uint256,t_struct(fhir_struct)1152_storage)":{"encoding":"mapping","key":"t_uint256","label":"mapping(uint256 => struct WaveData.fhir_struct)","numberOfBytes":"32","value":"t_struct(fhir_struct)1152_storage"},"t_mapping(t_uint256,t_struct(ongoing_struct)1161_storage)":{"encoding":"mapping","key":"t_uint256","label":"mapping(uint256 => struct WaveData.ongoing_struct)","numberOfBytes":"32","value":"t_struct(ongoing_struct)1161_storage"},"t_mapping(t_uint256,t_struct(survey_category_struct)1074_storage)":{"encoding":"mapping","key":"t_uint256","label":"mapping(uint256 => struct WaveData.survey_category_struct)","numberOfBytes":"32","value":"t_struct(survey_category_struct)1074_storage"},"t_mapping(t_uint256,t_struct(survey_question_answer_struct)1176_storage)":{"encoding":"mapping","key":"t_uint256","label":"mapping(uint256 => struct WaveData.survey_question_answer_struct)","numberOfBytes":"32","value":"t_struct(survey_question_answer_struct)1176_storage"},"t_mapping(t_uint256,t_struct(survey_struct)1139_storage)":{"encoding":"mapping","key":"t_uint256","label":"mapping(uint256 => struct WaveData.survey_struct)","numberOfBytes":"32","value":"t_struct(survey_struct)1139_storage"},"t_mapping(t_uint256,t_struct(trial_struct)1111_storage)":{"encoding":"mapping","key":"t_uint256","label":"mapping(uint256 => struct WaveData.trial_struct)","numberOfBytes":"32","value":"t_struct(trial_struct)1111_storage"},"t_mapping(t_uint256,t_struct(user_struct)1067_storage)":{"encoding":"mapping","key":"t_uint256","label":"mapping(uint256 => struct WaveData.user_struct)","numberOfBytes":"32","value":"t_struct(user_struct)1067_storage"},"t_string_storage":{"encoding":"bytes","label":"string","numberOfBytes":"32"},"t_struct(completed_survey_struct)1187_storage":{"encoding":"inplace","label":"struct WaveData.completed_survey_struct","members":[{"astId":1178,"contract":"contracts/WaveData.sol:WaveData","label":"completed_survey_id","offset":0,"slot":"0","type":"t_uint256"},{"astId":1180,"contract":"contracts/WaveData.sol:WaveData","label":"trial_id","offset":0,"slot":"1","type":"t_uint256"},{"astId":1182,"contract":"contracts/WaveData.sol:WaveData","label":"user_id","offset":0,"slot":"2","type":"t_uint256"},{"astId":1184,"contract":"contracts/WaveData.sol:WaveData","label":"survey_id","offset":0,"slot":"3","type":"t_uint256"},{"astId":1186,"contract":"contracts/WaveData.sol:WaveData","label":"date","offset":0,"slot":"4","type":"t_string_storage"}],"numberOfBytes":"160"},"t_struct(fhir_struct)1152_storage":{"encoding":"inplace","label":"struct WaveData.fhir_struct","members":[{"astId":1142,"contract":"contracts/WaveData.sol:WaveData","label":"user_id","offset":0,"slot":"0","type":"t_uint256"},{"astId":1145,"contract":"contracts/WaveData.sol:WaveData","label":"given_name","offset":0,"slot":"1","type":"t_string_storage"},{"astId":1148,"contract":"contracts/WaveData.sol:WaveData","label":"identifier","offset":0,"slot":"2","type":"t_string_storage"},{"astId":1151,"contract":"contracts/WaveData.sol:WaveData","label":"patient_id","offset":0,"slot":"3","type":"t_string_storage"}],"numberOfBytes":"128"},"t_struct(ongoing_struct)1161_storage":{"encoding":"inplace","label":"struct WaveData.ongoing_struct","members":[{"astId":1154,"contract":"contracts/WaveData.sol:WaveData","label":"ongoing_id","offset":0,"slot":"0","type":"t_uint256"},{"astId":1156,"contract":"contracts/WaveData.sol:WaveData","label":"trial_id","offset":0,"slot":"1","type":"t_uint256"},{"astId":1158,"contract":"contracts/WaveData.sol:WaveData","label":"user_id","offset":0,"slot":"2","type":"t_uint256"},{"astId":1160,"contract":"contracts/WaveData.sol:WaveData","label":"date","offset":0,"slot":"3","type":"t_string_storage"}],"numberOfBytes":"128"},"t_struct(survey_category_struct)1074_storage":{"encoding":"inplace","label":"struct WaveData.survey_category_struct","members":[{"astId":1070,"contract":"contracts/WaveData.sol:WaveData","label":"name","offset":0,"slot":"0","type":"t_string_storage"},{"astId":1073,"contract":"contracts/WaveData.sol:WaveData","label":"image","offset":0,"slot":"1","type":"t_string_storage"}],"numberOfBytes":"64"},"t_struct(survey_question_answer_struct)1176_storage":{"encoding":"inplace","label":"struct WaveData.survey_question_answer_struct","members":[{"astId":1163,"contract":"contracts/WaveData.sol:WaveData","label":"answer_id","offset":0,"slot":"0","type":"t_uint256"},{"astId":1165,"contract":"contracts/WaveData.sol:WaveData","label":"trial_id","offset":0,"slot":"1","type":"t_uint256"},{"astId":1167,"contract":"contracts/WaveData.sol:WaveData","label":"user_id","offset":0,"slot":"2","type":"t_uint256"},{"astId":1169,"contract":"contracts/WaveData.sol:WaveData","label":"survey_id","offset":0,"slot":"3","type":"t_uint256"},{"astId":1171,"contract":"contracts/WaveData.sol:WaveData","label":"section_id","offset":0,"slot":"4","type":"t_string_storage"},{"astId":1173,"contract":"contracts/WaveData.sol:WaveData","label":"question_id","offset":0,"slot":"5","type":"t_string_storage"},{"astId":1175,"contract":"contracts/WaveData.sol:WaveData","label":"answer","offset":0,"slot":"6","type":"t_string_storage"}],"numberOfBytes":"224"},"t_struct(survey_struct)1139_storage":{"encoding":"inplace","label":"struct WaveData.survey_struct","members":[{"astId":1114,"contract":"contracts/WaveData.sol:WaveData","label":"survey_id","offset":0,"slot":"0","type":"t_uint256"},{"astId":1117,"contract":"contracts/WaveData.sol:WaveData","label":"trial_id","offset":0,"slot":"1","type":"t_uint256"},{"astId":1120,"contract":"contracts/WaveData.sol:WaveData","label":"user_id","offset":0,"slot":"2","type":"t_uint256"},{"astId":1123,"contract":"contracts/WaveData.sol:WaveData","label":"name","offset":0,"slot":"3","type":"t_string_storage"},{"astId":1126,"contract":"contracts/WaveData.sol:WaveData","label":"description","offset":0,"slot":"4","type":"t_string_storage"},{"astId":1129,"contract":"contracts/WaveData.sol:WaveData","label":"date","offset":0,"slot":"5","type":"t_string_storage"},{"astId":1132,"contract":"contracts/WaveData.sol:WaveData","label":"image","offset":0,"slot":"6","type":"t_string_storage"},{"astId":1135,"contract":"contracts/WaveData.sol:WaveData","label":"reward","offset":0,"slot":"7","type":"t_uint256"},{"astId":1138,"contract":"contracts/WaveData.sol:WaveData","label":"submission","offset":0,"slot":"8","type":"t_uint256"}],"numberOfBytes":"288"},"t_struct(trial_struct)1111_storage":{"encoding":"inplace","label":"struct WaveData.trial_struct","members":[{"astId":1077,"contract":"contracts/WaveData.sol:WaveData","label":"trial_id","offset":0,"slot":"0","type":"t_uint256"},{"astId":1080,"contract":"contracts/WaveData.sol:WaveData","label":"user_id","offset":0,"slot":"1","type":"t_uint256"},{"astId":1083,"contract":"contracts/WaveData.sol:WaveData","label":"image","offset":0,"slot":"2","type":"t_string_storage"},{"astId":1086,"contract":"contracts/WaveData.sol:WaveData","label":"title","offset":0,"slot":"3","type":"t_string_storage"},{"astId":1089,"contract":"contracts/WaveData.sol:WaveData","label":"description","offset":0,"slot":"4","type":"t_string_storage"},{"astId":1092,"contract":"contracts/WaveData.sol:WaveData","label":"contributors","offset":0,"slot":"5","type":"t_uint256"},{"astId":1095,"contract":"contracts/WaveData.sol:WaveData","label":"audience","offset":0,"slot":"6","type":"t_uint256"},{"astId":1098,"contract":"contracts/WaveData.sol:WaveData","label":"budget","offset":0,"slot":"7","type":"t_uint256"},{"astId":1101,"contract":"contracts/WaveData.sol:WaveData","label":"date","offset":0,"slot":"8","type":"t_string_storage"},{"astId":1104,"contract":"contracts/WaveData.sol:WaveData","label":"reward_type","offset":0,"slot":"9","type":"t_string_storage"},{"astId":1107,"contract":"contracts/WaveData.sol:WaveData","label":"reward_price","offset":0,"slot":"10","type":"t_uint256"},{"astId":1110,"contract":"contracts/WaveData.sol:WaveData","label":"total_spending_limit","offset":0,"slot":"11","type":"t_uint256"}],"numberOfBytes":"384"},"t_struct(user_struct)1067_storage":{"encoding":"inplace","label":"struct WaveData.user_struct","members":[{"astId":1045,"contract":"contracts/WaveData.sol:WaveData","label":"user_id","offset":0,"slot":"0","type":"t_uint256"},{"astId":1048,"contract":"contracts/WaveData.sol:WaveData","label":"name","offset":0,"slot":"1","type":"t_string_storage"},{"astId":1051,"contract":"contracts/WaveData.sol:WaveData","label":"email","offset":0,"slot":"2","type":"t_string_storage"},{"astId":1054,"contract":"contracts/WaveData.sol:WaveData","label":"password","offset":0,"slot":"3","type":"t_string_storage"},{"astId":1057,"contract":"contracts/WaveData.sol:WaveData","label":"walletaddress","offset":0,"slot":"4","type":"t_address"},{"astId":1060,"contract":"contracts/WaveData.sol:WaveData","label":"privatekey","offset":0,"slot":"5","type":"t_string_storage"},{"astId":1063,"contract":"contracts/WaveData.sol:WaveData","label":"image","offset":0,"slot":"6","type":"t_string_storage"},{"astId":1066,"contract":"contracts/WaveData.sol:WaveData","label":"credits","offset":0,"slot":"7","type":"t_uint256"}],"numberOfBytes":"256"},"t_uint256":{"encoding":"inplace","label":"uint256","numberOfBytes":"32"}}},"userdoc":{"kind":"user","methods":{"_categoryMap(uint256)":{"notice":"The map of all the Survey Category ."},"_completedsurveyMap(uint256)":{"notice":"The map of all the Completed Surveys."},"_fhirMap(uint256)":{"notice":"The map of all the FHIR information."},"_ongoingMap(uint256)":{"notice":"The map of all the OnGoing Trials."},"_questionanswerdMap(uint256)":{"notice":"The map of all the Question Answerd in a Survey."},"_sectionsMap(uint256)":{"notice":"The map of all the Survey Sections  ."},"_surveyMap(uint256)":{"notice":"The map of all the Surveys information."},"_trialAudienceMap(uint256)":{"notice":"The map of all the Rewards information."},"_trialMap(uint256)":{"notice":"The map of all the Trials information."}},"version":1}}}}