{"contracts/WaveData.sol":{"WaveData":{"abi":[{"inputs":[{"internalType":"string","name":"email","type":"string"}],"name":"CheckEmail","outputs":[{"internalType":"string","name":"","type":"string"}],"stateMutability":"view","type":"function"},{"inputs":[{"internalType":"string","name":"full_name","type":"string"},{"internalType":"string","name":"email","type":"string"},{"internalType":"string","name":"password","type":"string"}],"name":"CreateAccount","outputs":[],"stateMutability":"nonpayable","type":"function"},{"inputs":[{"internalType":"uint256","name":"survey_id","type":"uint256"},{"internalType":"uint256","name":"user_id","type":"uint256"},{"internalType":"string","name":"date","type":"string"},{"internalType":"uint256","name":"trial_id","type":"uint256"}],"name":"CreateCompletedSurveys","outputs":[],"stateMutability":"nonpayable","type":"function"},{"inputs":[{"internalType":"uint256","name":"trial_id","type":"uint256"},{"internalType":"uint256","name":"user_id","type":"uint256"},{"internalType":"string","name":"date","type":"string"}],"name":"CreateOngoingTrail","outputs":[],"stateMutability":"nonpayable","type":"function"},{"inputs":[{"internalType":"uint256","name":"survey_id","type":"uint256"},{"internalType":"string","name":"metadata","type":"string"}],"name":"CreateOrSaveSections","outputs":[],"stateMutability":"nonpayable","type":"function"},{"inputs":[{"internalType":"uint256","name":"trial_id","type":"uint256"},{"internalType":"uint256","name":"user_id","type":"uint256"},{"internalType":"uint256","name":"survey_id","type":"uint256"},{"internalType":"uint256","name":"section_id","type":"uint256"},{"internalType":"uint256","name":"question_id","type":"uint256"},{"internalType":"string","name":"answer","type":"string"}],"name":"CreateQuestionAnswer","outputs":[],"stateMutability":"nonpayable","type":"function"},{"inputs":[{"internalType":"uint256","name":"trial_id","type":"uint256"},{"internalType":"uint256","name":"user_id","type":"uint256"},{"internalType":"string","name":"name","type":"string"},{"internalType":"string","name":"description","type":"string"},{"internalType":"string","name":"date","type":"string"},{"internalType":"string","name":"image","type":"string"},{"internalType":"uint256","name":"reward","type":"uint256"}],"name":"CreateSurvey","outputs":[],"stateMutability":"nonpayable","type":"function"},{"inputs":[{"internalType":"string","name":"name","type":"string"},{"internalType":"string","name":"image","type":"string"}],"name":"CreateSurveyCategory","outputs":[],"stateMutability":"nonpayable","type":"function"},{"inputs":[{"internalType":"uint256","name":"user_id","type":"uint256"},{"internalType":"string","name":"image","type":"string"},{"internalType":"string","name":"title","type":"string"},{"internalType":"string","name":"description","type":"string"},{"internalType":"uint256","name":"contributors","type":"uint256"},{"internalType":"uint256","name":"audience","type":"uint256"},{"internalType":"uint256","name":"budget","type":"uint256"},{"internalType":"string","name":"date","type":"string"}],"name":"CreateTrial","outputs":[],"stateMutability":"nonpayable","type":"function"},{"inputs":[{"internalType":"uint256","name":"user_id","type":"uint256"}],"name":"GetOngoingTrial","outputs":[{"internalType":"string","name":"","type":"string"}],"stateMutability":"view","type":"function"},{"inputs":[{"internalType":"string","name":"email","type":"string"},{"internalType":"string","name":"password","type":"string"}],"name":"Login","outputs":[{"internalType":"string","name":"","type":"string"}],"stateMutability":"view","type":"function"},{"inputs":[{"internalType":"uint256","name":"trial_id","type":"uint256"},{"internalType":"string","name":"audience_info","type":"string"}],"name":"UpdateAudience","outputs":[],"stateMutability":"nonpayable","type":"function"},{"inputs":[{"internalType":"uint256","name":"user_id","type":"uint256"},{"internalType":"string","name":"given_name","type":"string"},{"internalType":"string","name":"identifier","type":"string"},{"internalType":"string","name":"patient_id","type":"string"}],"name":"UpdateFhir","outputs":[],"stateMutability":"nonpayable","type":"function"},{"inputs":[{"internalType":"uint256","name":"userid","type":"uint256"},{"internalType":"string","name":"privatekey","type":"string"}],"name":"UpdatePrivatekey","outputs":[],"stateMutability":"nonpayable","type":"function"},{"inputs":[{"internalType":"uint256","name":"trial_id","type":"uint256"},{"internalType":"string","name":"reward_type","type":"string"},{"internalType":"uint256","name":"reward_price","type":"uint256"},{"internalType":"uint256","name":"total_spending_limit","type":"uint256"}],"name":"UpdateReward","outputs":[],"stateMutability":"nonpayable","type":"function"},{"inputs":[{"internalType":"uint256","name":"survey_id","type":"uint256"},{"internalType":"string","name":"name","type":"string"},{"internalType":"string","name":"description","type":"string"},{"internalType":"string","name":"image","type":"string"},{"internalType":"uint256","name":"reward","type":"uint256"}],"name":"UpdateSurvey","outputs":[],"stateMutability":"nonpayable","type":"function"},{"inputs":[{"internalType":"uint256","name":"trial_id","type":"uint256"},{"internalType":"string","name":"image","type":"string"},{"internalType":"string","name":"title","type":"string"},{"internalType":"string","name":"description","type":"string"},{"internalType":"uint256","name":"budget","type":"uint256"}],"name":"UpdateTrial","outputs":[],"stateMutability":"nonpayable","type":"function"},{"inputs":[{"internalType":"uint256","name":"user_id","type":"uint256"},{"internalType":"string","name":"image","type":"string"},{"internalType":"uint256","name":"credits","type":"uint256"}],"name":"UpdateUser","outputs":[],"stateMutability":"nonpayable","type":"function"},{"inputs":[],"name":"_AnsweredIds","outputs":[{"internalType":"uint256","name":"","type":"uint256"}],"stateMutability":"view","type":"function"},{"inputs":[],"name":"_CompletedSurveyIds","outputs":[{"internalType":"uint256","name":"","type":"uint256"}],"stateMutability":"view","type":"function"},{"inputs":[],"name":"_OngoingIds","outputs":[{"internalType":"uint256","name":"","type":"uint256"}],"stateMutability":"view","type":"function"},{"inputs":[],"name":"_SurveyCategoryIds","outputs":[{"internalType":"uint256","name":"","type":"uint256"}],"stateMutability":"view","type":"function"},{"inputs":[],"name":"_SurveyIds","outputs":[{"internalType":"uint256","name":"","type":"uint256"}],"stateMutability":"view","type":"function"},{"inputs":[],"name":"_TrialIds","outputs":[{"internalType":"uint256","name":"","type":"uint256"}],"stateMutability":"view","type":"function"},{"inputs":[],"name":"_UserIds","outputs":[{"internalType":"uint256","name":"","type":"uint256"}],"stateMutability":"view","type":"function"},{"inputs":[{"internalType":"uint256","name":"","type":"uint256"}],"name":"_categoryMap","outputs":[{"internalType":"string","name":"name","type":"string"},{"internalType":"string","name":"image","type":"string"}],"stateMutability":"view","type":"function"},{"inputs":[{"internalType":"uint256","name":"","type":"uint256"}],"name":"_completedsurveyMap","outputs":[{"internalType":"uint256","name":"completed_survey_id","type":"uint256"},{"internalType":"uint256","name":"trial_id","type":"uint256"},{"internalType":"uint256","name":"user_id","type":"uint256"},{"internalType":"uint256","name":"survey_id","type":"uint256"},{"internalType":"string","name":"date","type":"string"}],"stateMutability":"view","type":"function"},{"inputs":[{"internalType":"uint256","name":"","type":"uint256"}],"name":"_fhirMap","outputs":[{"internalType":"uint256","name":"user_id","type":"uint256"},{"internalType":"string","name":"given_name","type":"string"},{"internalType":"string","name":"identifier","type":"string"},{"internalType":"string","name":"patient_id","type":"string"}],"stateMutability":"view","type":"function"},{"inputs":[{"internalType":"uint256","name":"","type":"uint256"}],"name":"_ongoingMap","outputs":[{"internalType":"uint256","name":"ongoing_id","type":"uint256"},{"internalType":"uint256","name":"trial_id","type":"uint256"},{"internalType":"uint256","name":"user_id","type":"uint256"},{"internalType":"string","name":"date","type":"string"}],"stateMutability":"view","type":"function"},{"inputs":[{"internalType":"uint256","name":"","type":"uint256"}],"name":"_questionanswerdMap","outputs":[{"internalType":"uint256","name":"answer_id","type":"uint256"},{"internalType":"uint256","name":"trial_id","type":"uint256"},{"internalType":"uint256","name":"user_id","type":"uint256"},{"internalType":"uint256","name":"survey_id","type":"uint256"},{"internalType":"uint256","name":"section_id","type":"uint256"},{"internalType":"uint256","name":"question_id","type":"uint256"},{"internalType":"string","name":"answer","type":"string"}],"stateMutability":"view","type":"function"},{"inputs":[{"internalType":"uint256","name":"","type":"uint256"}],"name":"_sectionsMap","outputs":[{"internalType":"string","name":"","type":"string"}],"stateMutability":"view","type":"function"},{"inputs":[{"internalType":"uint256","name":"","type":"uint256"}],"name":"_surveyMap","outputs":[{"internalType":"uint256","name":"survey_id","type":"uint256"},{"internalType":"uint256","name":"trial_id","type":"uint256"},{"internalType":"uint256","name":"user_id","type":"uint256"},{"internalType":"string","name":"name","type":"string"},{"internalType":"string","name":"description","type":"string"},{"internalType":"string","name":"date","type":"string"},{"internalType":"string","name":"image","type":"string"},{"internalType":"uint256","name":"reward","type":"uint256"},{"internalType":"uint256","name":"submission","type":"uint256"}],"stateMutability":"view","type":"function"},{"inputs":[{"internalType":"uint256","name":"","type":"uint256"}],"name":"_trialAudienceMap","outputs":[{"internalType":"string","name":"","type":"string"}],"stateMutability":"view","type":"function"},{"inputs":[{"internalType":"uint256","name":"","type":"uint256"}],"name":"_trialMap","outputs":[{"internalType":"uint256","name":"trial_id","type":"uint256"},{"internalType":"uint256","name":"user_id","type":"uint256"},{"internalType":"string","name":"image","type":"string"},{"internalType":"string","name":"title","type":"string"},{"internalType":"string","name":"description","type":"string"},{"internalType":"uint256","name":"contributors","type":"uint256"},{"internalType":"uint256","name":"audience","type":"uint256"},{"internalType":"uint256","name":"budget","type":"uint256"},{"internalType":"string","name":"date","type":"string"},{"internalType":"string","name":"reward_type","type":"string"},{"internalType":"uint256","name":"reward_price","type":"uint256"},{"internalType":"uint256","name":"total_spending_limit","type":"uint256"}],"stateMutability":"view","type":"function"},{"inputs":[{"internalType":"uint256","name":"user_id","type":"uint256"}],"name":"getAllCompletedSurveysIDByUser","outputs":[{"internalType":"uint256[]","name":"","type":"uint256[]"}],"stateMutability":"view","type":"function"},{"inputs":[{"internalType":"uint256","name":"trial_id","type":"uint256"}],"name":"getAllSurveysIDByTrial","outputs":[{"internalType":"uint256[]","name":"","type":"uint256[]"}],"stateMutability":"view","type":"function"},{"inputs":[{"internalType":"uint256","name":"user_id","type":"uint256"}],"name":"getUserDetails","outputs":[{"internalType":"string","name":"","type":"string"},{"internalType":"uint256","name":"","type":"uint256"},{"internalType":"string","name":"","type":"string"},{"internalType":"string","name":"","type":"string"},{"internalType":"string","name":"","type":"string"}],"stateMutability":"view","type":"function"},{"inputs":[],"name":"owner","outputs":[{"internalType":"address","name":"","type":"address"}],"stateMutability":"view","type":"function"},{"inputs":[],"name":"reset_all","outputs":[],"stateMutability":"nonpayable","type":"function"}],"devdoc":{"kind":"dev","methods":{},"version":1},"evm":{"bytecode":{"linkReferences":{},"object":"608060405234801561001057600080fd5b50614103806100206000396000f3fe608060405234801561001057600080fd5b506004361061023d5760003560e01c806390d6cf051161013b578063ce08988c116100b8578063eb6b28701161007c578063eb6b2870146106f3578063ebe197ca14610711578063f0d8e87314610744578063f6aaa80414610775578063f8b7800f146107a85761023d565b8063ce08988c14610635578063de7acfd714610653578063e1da993f1461068b578063e57f973f146106a7578063ea7efaa6146106c35761023d565b8063b16060a6116100ff578063b16060a61461056c578063b6e604bd14610576578063bed208fe14610594578063c13b2836146105cf578063ccef4218146106055761023d565b806390d6cf05146104c6578063a5f3fc7d146104fa578063a92e1c4c14610516578063ac7aef0e14610532578063ad23f8f9146105505761023d565b806345948fde116101c957806366cad7341161018d57806366cad73414610410578063682d562b1461042c5780637d423e101461045c5780638da5cb5b14610478578063902841d4146104965761023d565b806345948fde1461037057806349b9b07b1461038c5780634f8b36eb146103bc57806355391705146103d85780635f27aea1146103f45761023d565b80632a8caf4a116102105780632a8caf4a146102d05780632c02dd60146103005780632ffb08f71461031c5780633896f130146103385780633eebd0d0146103545761023d565b806301c66109146102425780631429f775146102605780631c1a9f7b1461027e57806329b36423146102b2575b600080fd5b61024a6107d8565b60405161025791906139e8565b60405180910390f35b6102686107de565b60405161027591906139e8565b60405180910390f35b61029860048036038101906102939190613099565b6107e4565b6040516102a9959493929190613979565b60405180910390f35b6102ba610aa8565b6040516102c791906139e8565b60405180910390f35b6102ea60048036038101906102e59190613099565b610aae565b6040516102f79190613920565b60405180910390f35b61031a600480360381019061031591906132ac565b610b4e565b005b610336600480360381019061033191906136c8565b610ced565b005b610352600480360381019061034d9190613533565b610db3565b005b61036e60048036038101906103699190613441565b610ed6565b005b61038a60048036038101906103859190612ff2565b610f3d565b005b6103a660048036038101906103a19190613099565b6110d6565b6040516103b391906138fe565b60405180910390f35b6103d660048036038101906103d19190612f7a565b6111ee565b005b6103f260048036038101906103ed91906131dd565b611271565b005b61040e600480360381019061040991906131dd565b611314565b005b61042a600480360381019061042591906130c6565b6113b7565b005b61044660048036038101906104419190613099565b6113e3565b60405161045391906138fe565b60405180910390f35b61047660048036038101906104719190613645565b6114fb565b005b6104806115f8565b60405161048d91906138e3565b60405180910390f35b6104b060048036038101906104ab9190613099565b61161e565b6040516104bd9190613920565b60405180910390f35b6104e060048036038101906104db9190613099565b6116c4565b6040516104f1959493929190613c2f565b60405180910390f35b610514600480360381019061050f91906134c4565b611782565b005b610530600480360381019061052b9190613122565b611843565b005b61053a6118e5565b60405161054791906139e8565b60405180910390f35b61056a600480360381019061056591906130c6565b6118eb565b005b610574611917565b005b61057e611def565b60405161058b91906139e8565b60405180910390f35b6105ae60048036038101906105a99190613099565b611df5565b6040516105c69c9b9a99989796959493929190613a5d565b60405180910390f35b6105e960048036038101906105e49190613099565b6120fd565b6040516105fc9796959493929190613c89565b60405180910390f35b61061f600480360381019061061a9190612f7a565b6121c7565b60405161062c9190613920565b60405180910390f35b61063d6122af565b60405161064a91906139e8565b60405180910390f35b61066d60048036038101906106689190613099565b6122b5565b60405161068299989796959493929190613b86565b60405180910390f35b6106a560048036038101906106a091906130c6565b612523565b005b6106c160048036038101906106bc91906133d2565b612552565b005b6106dd60048036038101906106d89190613099565b61259d565b6040516106ea9190613920565b60405180910390f35b6106fb61263d565b60405161070891906139e8565b60405180910390f35b61072b60048036038101906107269190613099565b612643565b60405161073b9493929190613a03565b60405180910390f35b61075e60048036038101906107599190613099565b61280b565b60405161076c929190613942565b60405180910390f35b61078f600480360381019061078a9190613099565b61293f565b60405161079f9493929190613b3a565b60405180910390f35b6107c260048036038101906107bd9190612f31565b6129f7565b6040516107cf9190613920565b60405180910390f35b60055481565b60025481565b60606000606080606060076000878152602001908152602001600020600601600760008881526020019081526020016000206007015460076000898152602001908152602001600020600101600760008a81526020019081526020016000206002016108f1600760008c8152602001908152602001600020600501805461086a90613ed2565b80601f016020809104026020016040519081016040528092919081815260200182805461089690613ed2565b80156108e35780601f106108b8576101008083540402835291602001916108e3565b820191906000526020600020905b8154815290600101906020018083116108c657829003601f168201915b50505050506000600a612aa2565b8480546108fd90613ed2565b80601f016020809104026020016040519081016040528092919081815260200182805461092990613ed2565b80156109765780601f1061094b57610100808354040283529160200191610976565b820191906000526020600020905b81548152906001019060200180831161095957829003601f168201915b5050505050945082805461098990613ed2565b80601f01602080910402602001604051908101604052809291908181526020018280546109b590613ed2565b8015610a025780601f106109d757610100808354040283529160200191610a02565b820191906000526020600020905b8154815290600101906020018083116109e557829003601f168201915b50505050509250818054610a1590613ed2565b80601f0160208091040260200160405190810160405280929190818152602001828054610a4190613ed2565b8015610a8e5780601f10610a6357610100808354040283529160200191610a8e565b820191906000526020600020905b815481529060010190602001808311610a7157829003601f168201915b505050505091509450945094509450945091939590929450565b60035481565b60096020528060005260406000206000915090508054610acd90613ed2565b80601f0160208091040260200160405190810160405280929190818152602001828054610af990613ed2565b8015610b465780601f10610b1b57610100808354040283529160200191610b46565b820191906000526020600020905b815481529060010190602001808311610b2957829003601f168201915b505050505081565b60405180610180016040528060015481526020018981526020018881526020018781526020018681526020018581526020018481526020018381526020018281526020016040518060400160405280600381526020017f44455600000000000000000000000000000000000000000000000000000000008152508152602001600081526020018381525060086000600154815260200190815260200160002060008201518160000155602082015181600101556040820151816002019080519060200190610c1d929190612dc9565b506060820151816003019080519060200190610c3a929190612dc9565b506080820151816004019080519060200190610c57929190612dc9565b5060a0820151816005015560c0820151816006015560e08201518160070155610100820151816008019080519060200190610c93929190612dc9565b50610120820151816009019080519060200190610cb1929190612dc9565b5061014082015181600a015561016082015181600b015590505060016000815480929190610cde90613f35565b91905055505050505050505050565b6040518060e00160405280600554815260200187815260200186815260200185815260200184815260200183815260200182815250600f60006005548152602001908152602001600020600082015181600001556020820151816001015560408201518160020155606082015181600301556080820151816004015560a0820151816005015560c0820151816006019080519060200190610d8f929190612dc9565b5090505060056000815480929190610da690613f35565b9190505550505050505050565b60405180610120016040528060025481526020018881526020018781526020018681526020018581526020018481526020018381526020018281526020016000815250600a600060025481526020019081526020016000206000820151816000015560208201518160010155604082015181600201556060820151816003019080519060200190610e45929190612dc9565b506080820151816004019080519060200190610e62929190612dc9565b5060a0820151816005019080519060200190610e7f929190612dc9565b5060c0820151816006019080519060200190610e9c929190612dc9565b5060e08201518160070155610100820151816008015590505060026000815480929190610ec890613f35565b919050555050505050505050565b82600860008681526020019081526020016000206009019080519060200190610f00929190612dc9565b508160086000868152602001908152602001600020600a01819055508060086000868152602001908152602001600020600b018190555050505050565b60405180610100016040528060005481526020018481526020018381526020018281526020013373ffffffffffffffffffffffffffffffffffffffff1681526020016040518060200160405280600081525081526020016040518060600160405280602881526020016140a660289139815260200160008152506007600080548152602001908152602001600020600082015181600001556020820151816001019080519060200190610ff1929190612dc9565b50604082015181600201908051906020019061100e929190612dc9565b50606082015181600301908051906020019061102b929190612dc9565b5060808201518160040160006101000a81548173ffffffffffffffffffffffffffffffffffffffff021916908373ffffffffffffffffffffffffffffffffffffffff16021790555060a082015181600501908051906020019061108f929190612dc9565b5060c08201518160060190805190602001906110ac929190612dc9565b5060e082015181600701559050506000808154809291906110cc90613f35565b9190505550505050565b60606000805b60065481101561112657836010600083815260200190815260200160002060020154141561111357818061110f90613f35565b9250505b808061111e90613f35565b9150506110dc565b5060008167ffffffffffffffff8111156111435761114261403a565b5b6040519080825280602002602001820160405280156111715781602001602082028036833780820191505090505b5090506000805b6006548110156111e25785601060008381526020019081526020016000206002015414156111cf57808383815181106111b4576111b361400b565b5b60200260200101818152505081806111cb90613f35565b9250505b80806111da90613f35565b915050611178565b50819350505050919050565b604051806040016040528083815260200182815250600b600060035481526020019081526020016000206000820151816000019080519060200190611234929190612dc9565b506020820151816001019080519060200190611251929190612dc9565b509050506003600081548092919061126890613f35565b91905055505050565b8360086000878152602001908152602001600020600201908051906020019061129b929190612dc9565b50826008600087815260200190815260200160002060030190805190602001906112c6929190612dc9565b50816008600087815260200190815260200160002060040190805190602001906112f1929190612dc9565b508060086000878152602001908152602001600020600701819055505050505050565b83600a6000878152602001908152602001600020600301908051906020019061133e929190612dc9565b5082600a60008781526020019081526020016000206004019080519060200190611369929190612dc9565b5081600a60008781526020019081526020016000206006019080519060200190611394929190612dc9565b5080600a6000878152602001908152602001600020600701819055505050505050565b80600c600084815260200190815260200160002090805190602001906113de929190612dc9565b505050565b60606000805b6002548110156114335783600a600083815260200190815260200160002060010154141561142057818061141c90613f35565b9250505b808061142b90613f35565b9150506113e9565b5060008167ffffffffffffffff8111156114505761144f61403a565b5b60405190808252806020026020018201604052801561147e5781602001602082028036833780820191505090505b5090506000805b6002548110156114ef5785600a60008381526020019081526020016000206001015414156114dc57808383815181106114c1576114c061400b565b5b60200260200101818152505081806114d890613f35565b9250505b80806114e790613f35565b915050611485565b50819350505050919050565b6040518060a0016040528060065481526020018281526020018481526020018581526020018381525060106000600654815260200190815260200160002060008201518160000155602082015181600101556040820151816002015560608201518160030155608082015181600401908051906020019061157d929190612dc9565b509050506001600a600086815260200190815260200160002060080160008282546115a89190613dca565b9250508190555081600a600086815260200190815260200160002060050190805190602001906115d9929190612dc9565b50600660008154809291906115ed90613f35565b919050555050505050565b601160009054906101000a900473ffffffffffffffffffffffffffffffffffffffff1681565b606060005b6004548110156116855782600e60008381526020019081526020016000206002015414156116725761166a600e600083815260200190815260200160002060010154612b9e565b9150506116bf565b808061167d90613f35565b915050611623565b506040518060400160405280600581526020017f46616c736500000000000000000000000000000000000000000000000000000081525090505b919050565b60106020528060005260406000206000915090508060000154908060010154908060020154908060030154908060040180546116ff90613ed2565b80601f016020809104026020016040519081016040528092919081815260200182805461172b90613ed2565b80156117785780601f1061174d57610100808354040283529160200191611778565b820191906000526020600020905b81548152906001019060200180831161175b57829003601f168201915b5050505050905085565b6040518060800160405280600454815260200184815260200183815260200182815250600e6000600454815260200190815260200160002060008201518160000155602082015181600101556040820151816002015560608201518160030190805190602001906117f4929190612dc9565b50905050600160086000858152602001908152602001600020600501600082825461181f9190613dca565b925050819055506004600081548092919061183990613f35565b9190505550505050565b83600d60008681526020019081526020016000206000018190555082600d60008681526020019081526020016000206001019080519060200190611888929190612dc9565b5081600d600086815260200190815260200160002060020190805190602001906118b3929190612dc9565b5080600d600086815260200190815260200160002060030190805190602001906118de929190612dc9565b5050505050565b60015481565b80600960008481526020019081526020016000209080519060200190611912929190612dc9565b505050565b60005b6000548110156119d457600760008281526020019081526020016000206000808201600090556001820160006119509190612e4f565b6002820160006119609190612e4f565b6003820160006119709190612e4f565b6004820160006101000a81549073ffffffffffffffffffffffffffffffffffffffff02191690556005820160006119a79190612e4f565b6006820160006119b79190612e4f565b6007820160009055505080806119cc90613f35565b91505061191a565b5060005b600154811015611a9357600860008281526020019081526020016000206000808201600090556001820160009055600282016000611a169190612e4f565b600382016000611a269190612e4f565b600482016000611a369190612e4f565b600582016000905560068201600090556007820160009055600882016000611a5e9190612e4f565b600982016000611a6e9190612e4f565b600a820160009055600b82016000905550508080611a8b90613f35565b9150506119d8565b5060005b600154811015611ad357600960008281526020019081526020016000206000611ac09190612e4f565b8080611acb90613f35565b915050611a97565b5060005b600254811015611b7257600a600082815260200190815260200160002060008082016000905560018201600090556002820160009055600382016000611b1d9190612e4f565b600482016000611b2d9190612e4f565b600582016000611b3d9190612e4f565b600682016000611b4d9190612e4f565b6007820160009055600882016000905550508080611b6a90613f35565b915050611ad7565b5060005b600354811015611bc957600b600082815260200190815260200160002060008082016000611ba49190612e4f565b600182016000611bb49190612e4f565b50508080611bc190613f35565b915050611b76565b5060005b600154811015611c0957600c60008281526020019081526020016000206000611bf69190612e4f565b8080611c0190613f35565b915050611bcd565b5060005b600054811015611c7857600d6000828152602001908152602001600020600080820160009055600182016000611c439190612e4f565b600282016000611c539190612e4f565b600382016000611c639190612e4f565b50508080611c7090613f35565b915050611c0d565b5060005b600454811015611cd757600e600082815260200190815260200160002060008082016000905560018201600090556002820160009055600382016000611cc29190612e4f565b50508080611ccf90613f35565b915050611c7c565b5060005b600554811015611d4e57600f600082815260200190815260200160002060008082016000905560018201600090556002820160009055600382016000905560048201600090556005820160009055600682016000611d399190612e4f565b50508080611d4690613f35565b915050611cdb565b5060005b600654811015611db55760106000828152602001908152602001600020600080820160009055600182016000905560028201600090556003820160009055600482016000611da09190612e4f565b50508080611dad90613f35565b915050611d52565b5060008081905550600060018190555060006002819055506000600381905550600060048190555060006005819055506000600681905550565b60065481565b6008602052806000526040600020600091509050806000015490806001015490806002018054611e2490613ed2565b80601f0160208091040260200160405190810160405280929190818152602001828054611e5090613ed2565b8015611e9d5780601f10611e7257610100808354040283529160200191611e9d565b820191906000526020600020905b815481529060010190602001808311611e8057829003601f168201915b505050505090806003018054611eb290613ed2565b80601f0160208091040260200160405190810160405280929190818152602001828054611ede90613ed2565b8015611f2b5780601f10611f0057610100808354040283529160200191611f2b565b820191906000526020600020905b815481529060010190602001808311611f0e57829003601f168201915b505050505090806004018054611f4090613ed2565b80601f0160208091040260200160405190810160405280929190818152602001828054611f6c90613ed2565b8015611fb95780601f10611f8e57610100808354040283529160200191611fb9565b820191906000526020600020905b815481529060010190602001808311611f9c57829003601f168201915b505050505090806005015490806006015490806007015490806008018054611fe090613ed2565b80601f016020809104026020016040519081016040528092919081815260200182805461200c90613ed2565b80156120595780601f1061202e57610100808354040283529160200191612059565b820191906000526020600020905b81548152906001019060200180831161203c57829003601f168201915b50505050509080600901805461206e90613ed2565b80601f016020809104026020016040519081016040528092919081815260200182805461209a90613ed2565b80156120e75780601f106120bc576101008083540402835291602001916120e7565b820191906000526020600020905b8154815290600101906020018083116120ca57829003601f168201915b50505050509080600a01549080600b015490508c565b600f60205280600052604060002060009150905080600001549080600101549080600201549080600301549080600401549080600501549080600601805461214490613ed2565b80601f016020809104026020016040519081016040528092919081815260200182805461217090613ed2565b80156121bd5780601f10612192576101008083540402835291602001916121bd565b820191906000526020600020905b8154815290600101906020018083116121a057829003601f168201915b5050505050905087565b606060005b60005481101561226f5783805190602001206007600083815260200190815260200160002060020160405161220191906138cc565b6040518091039020148015612246575082805190602001206007600083815260200190815260200160002060030160405161223c91906138cc565b6040518091039020145b1561225c5761225481612b9e565b9150506122a9565b808061226790613f35565b9150506121cc565b506040518060400160405280600581526020017f46616c736500000000000000000000000000000000000000000000000000000081525090505b92915050565b60005481565b600a6020528060005260406000206000915090508060000154908060010154908060020154908060030180546122ea90613ed2565b80601f016020809104026020016040519081016040528092919081815260200182805461231690613ed2565b80156123635780601f1061233857610100808354040283529160200191612363565b820191906000526020600020905b81548152906001019060200180831161234657829003601f168201915b50505050509080600401805461237890613ed2565b80601f01602080910402602001604051908101604052809291908181526020018280546123a490613ed2565b80156123f15780601f106123c6576101008083540402835291602001916123f1565b820191906000526020600020905b8154815290600101906020018083116123d457829003601f168201915b50505050509080600501805461240690613ed2565b80601f016020809104026020016040519081016040528092919081815260200182805461243290613ed2565b801561247f5780601f106124545761010080835404028352916020019161247f565b820191906000526020600020905b81548152906001019060200180831161246257829003601f168201915b50505050509080600601805461249490613ed2565b80601f01602080910402602001604051908101604052809291908181526020018280546124c090613ed2565b801561250d5780601f106124e25761010080835404028352916020019161250d565b820191906000526020600020905b8154815290600101906020018083116124f057829003601f168201915b5050505050908060070154908060080154905089565b8060076000848152602001908152602001600020600501908051906020019061254d929190612dc9565b505050565b8160076000858152602001908152602001600020600601908051906020019061257c929190612dc9565b50806007600085815260200190815260200160002060070181905550505050565b600c60205280600052604060002060009150905080546125bc90613ed2565b80601f01602080910402602001604051908101604052809291908181526020018280546125e890613ed2565b80156126355780601f1061260a57610100808354040283529160200191612635565b820191906000526020600020905b81548152906001019060200180831161261857829003601f168201915b505050505081565b60045481565b600d60205280600052604060002060009150905080600001549080600101805461266c90613ed2565b80601f016020809104026020016040519081016040528092919081815260200182805461269890613ed2565b80156126e55780601f106126ba576101008083540402835291602001916126e5565b820191906000526020600020905b8154815290600101906020018083116126c857829003601f168201915b5050505050908060020180546126fa90613ed2565b80601f016020809104026020016040519081016040528092919081815260200182805461272690613ed2565b80156127735780601f1061274857610100808354040283529160200191612773565b820191906000526020600020905b81548152906001019060200180831161275657829003601f168201915b50505050509080600301805461278890613ed2565b80601f01602080910402602001604051908101604052809291908181526020018280546127b490613ed2565b80156128015780601f106127d657610100808354040283529160200191612801565b820191906000526020600020905b8154815290600101906020018083116127e457829003601f168201915b5050505050905084565b600b60205280600052604060002060009150905080600001805461282e90613ed2565b80601f016020809104026020016040519081016040528092919081815260200182805461285a90613ed2565b80156128a75780601f1061287c576101008083540402835291602001916128a7565b820191906000526020600020905b81548152906001019060200180831161288a57829003601f168201915b5050505050908060010180546128bc90613ed2565b80601f01602080910402602001604051908101604052809291908181526020018280546128e890613ed2565b80156129355780601f1061290a57610100808354040283529160200191612935565b820191906000526020600020905b81548152906001019060200180831161291857829003601f168201915b5050505050905082565b600e60205280600052604060002060009150905080600001549080600101549080600201549080600301805461297490613ed2565b80601f01602080910402602001604051908101604052809291908181526020018280546129a090613ed2565b80156129ed5780601f106129c2576101008083540402835291602001916129ed565b820191906000526020600020905b8154815290600101906020018083116129d057829003601f168201915b5050505050905084565b606060005b600054811015612a6357828051906020012060076000838152602001908152602001600020600201604051612a3191906138cc565b60405180910390201415612a5057612a4881612b9e565b915050612a9d565b8080612a5b90613f35565b9150506129fc565b506040518060400160405280600581526020017f46616c736500000000000000000000000000000000000000000000000000000081525090505b919050565b6060600084905060008484612ab79190613e20565b67ffffffffffffffff811115612ad057612acf61403a565b5b6040519080825280601f01601f191660200182016040528015612b025781602001600182028036833780820191505090505b50905060008590505b84811015612b9157828181518110612b2657612b2561400b565b5b602001015160f81c60f81b828783612b3e9190613e20565b81518110612b4f57612b4e61400b565b5b60200101907effffffffffffffffffffffffffffffffffffffffffffffffffffffffffffff1916908160001a9053508080612b8990613f35565b915050612b0b565b5080925050509392505050565b606060006001612bad84612c76565b01905060008167ffffffffffffffff811115612bcc57612bcb61403a565b5b6040519080825280601f01601f191660200182016040528015612bfe5781602001600182028036833780820191505090505b509050600082602001820190505b600115612c6b578080600190039150507f3031323334353637383961626364656600000000000000000000000000000000600a86061a8153600a8581612c5557612c54613fad565b5b0494506000851415612c6657612c6b565b612c0c565b819350505050919050565b600080600090507a184f03e93ff9f4daa797ed6e38ed64bf6a1f0100000000000000008310612cd4577a184f03e93ff9f4daa797ed6e38ed64bf6a1f0100000000000000008381612cca57612cc9613fad565b5b0492506040810190505b6d04ee2d6d415b85acef81000000008310612d11576d04ee2d6d415b85acef81000000008381612d0757612d06613fad565b5b0492506020810190505b662386f26fc100008310612d4057662386f26fc100008381612d3657612d35613fad565b5b0492506010810190505b6305f5e1008310612d69576305f5e1008381612d5f57612d5e613fad565b5b0492506008810190505b6127108310612d8e576127108381612d8457612d83613fad565b5b0492506004810190505b60648310612db15760648381612da757612da6613fad565b5b0492506002810190505b600a8310612dc0576001810190505b80915050919050565b828054612dd590613ed2565b90600052602060002090601f016020900481019282612df75760008555612e3e565b82601f10612e1057805160ff1916838001178555612e3e565b82800160010185558215612e3e579182015b82811115612e3d578251825591602001919060010190612e22565b5b509050612e4b9190612e8f565b5090565b508054612e5b90613ed2565b6000825580601f10612e6d5750612e8c565b601f016020900490600052602060002090810190612e8b9190612e8f565b5b50565b5b80821115612ea8576000816000905550600101612e90565b5090565b6000612ebf612eba84613d24565b613cff565b905082815260208101848484011115612edb57612eda61406e565b5b612ee6848285613e90565b509392505050565b600082601f830112612f0357612f02614069565b5b8135612f13848260208601612eac565b91505092915050565b600081359050612f2b8161408e565b92915050565b600060208284031215612f4757612f46614078565b5b600082013567ffffffffffffffff811115612f6557612f64614073565b5b612f7184828501612eee565b91505092915050565b60008060408385031215612f9157612f90614078565b5b600083013567ffffffffffffffff811115612faf57612fae614073565b5b612fbb85828601612eee565b925050602083013567ffffffffffffffff811115612fdc57612fdb614073565b5b612fe885828601612eee565b9150509250929050565b60008060006060848603121561300b5761300a614078565b5b600084013567ffffffffffffffff81111561302957613028614073565b5b61303586828701612eee565b935050602084013567ffffffffffffffff81111561305657613055614073565b5b61306286828701612eee565b925050604084013567ffffffffffffffff81111561308357613082614073565b5b61308f86828701612eee565b9150509250925092565b6000602082840312156130af576130ae614078565b5b60006130bd84828501612f1c565b91505092915050565b600080604083850312156130dd576130dc614078565b5b60006130eb85828601612f1c565b925050602083013567ffffffffffffffff81111561310c5761310b614073565b5b61311885828601612eee565b9150509250929050565b6000806000806080858703121561313c5761313b614078565b5b600061314a87828801612f1c565b945050602085013567ffffffffffffffff81111561316b5761316a614073565b5b61317787828801612eee565b935050604085013567ffffffffffffffff81111561319857613197614073565b5b6131a487828801612eee565b925050606085013567ffffffffffffffff8111156131c5576131c4614073565b5b6131d187828801612eee565b91505092959194509250565b600080600080600060a086880312156131f9576131f8614078565b5b600061320788828901612f1c565b955050602086013567ffffffffffffffff81111561322857613227614073565b5b61323488828901612eee565b945050604086013567ffffffffffffffff81111561325557613254614073565b5b61326188828901612eee565b935050606086013567ffffffffffffffff81111561328257613281614073565b5b61328e88828901612eee565b925050608061329f88828901612f1c565b9150509295509295909350565b600080600080600080600080610100898b0312156132cd576132cc614078565b5b60006132db8b828c01612f1c565b985050602089013567ffffffffffffffff8111156132fc576132fb614073565b5b6133088b828c01612eee565b975050604089013567ffffffffffffffff81111561332957613328614073565b5b6133358b828c01612eee565b965050606089013567ffffffffffffffff81111561335657613355614073565b5b6133628b828c01612eee565b95505060806133738b828c01612f1c565b94505060a06133848b828c01612f1c565b93505060c06133958b828c01612f1c565b92505060e089013567ffffffffffffffff8111156133b6576133b5614073565b5b6133c28b828c01612eee565b9150509295985092959890939650565b6000806000606084860312156133eb576133ea614078565b5b60006133f986828701612f1c565b935050602084013567ffffffffffffffff81111561341a57613419614073565b5b61342686828701612eee565b925050604061343786828701612f1c565b9150509250925092565b6000806000806080858703121561345b5761345a614078565b5b600061346987828801612f1c565b945050602085013567ffffffffffffffff81111561348a57613489614073565b5b61349687828801612eee565b93505060406134a787828801612f1c565b92505060606134b887828801612f1c565b91505092959194509250565b6000806000606084860312156134dd576134dc614078565b5b60006134eb86828701612f1c565b93505060206134fc86828701612f1c565b925050604084013567ffffffffffffffff81111561351d5761351c614073565b5b61352986828701612eee565b9150509250925092565b600080600080600080600060e0888a03121561355257613551614078565b5b60006135608a828b01612f1c565b97505060206135718a828b01612f1c565b965050604088013567ffffffffffffffff81111561359257613591614073565b5b61359e8a828b01612eee565b955050606088013567ffffffffffffffff8111156135bf576135be614073565b5b6135cb8a828b01612eee565b945050608088013567ffffffffffffffff8111156135ec576135eb614073565b5b6135f88a828b01612eee565b93505060a088013567ffffffffffffffff81111561361957613618614073565b5b6136258a828b01612eee565b92505060c06136368a828b01612f1c565b91505092959891949750929550565b6000806000806080858703121561365f5761365e614078565b5b600061366d87828801612f1c565b945050602061367e87828801612f1c565b935050604085013567ffffffffffffffff81111561369f5761369e614073565b5b6136ab87828801612eee565b92505060606136bc87828801612f1c565b91505092959194509250565b60008060008060008060c087890312156136e5576136e4614078565b5b60006136f389828a01612f1c565b965050602061370489828a01612f1c565b955050604061371589828a01612f1c565b945050606061372689828a01612f1c565b935050608061373789828a01612f1c565b92505060a087013567ffffffffffffffff81111561375857613757614073565b5b61376489828a01612eee565b9150509295509295509295565b600061377d83836138ae565b60208301905092915050565b61379281613e54565b82525050565b60006137a382613d7a565b6137ad8185613d9d565b93506137b883613d55565b8060005b838110156137e95781516137d08882613771565b97506137db83613d90565b9250506001810190506137bc565b5085935050505092915050565b6000815461380381613ed2565b61380d8186613dae565b9450600182166000811461382857600181146138395761386c565b60ff1983168652818601935061386c565b61384285613d65565b60005b8381101561386457815481890152600182019150602081019050613845565b838801955050505b50505092915050565b600061388082613d85565b61388a8185613db9565b935061389a818560208601613e9f565b6138a38161407d565b840191505092915050565b6138b781613e86565b82525050565b6138c681613e86565b82525050565b60006138d882846137f6565b915081905092915050565b60006020820190506138f86000830184613789565b92915050565b600060208201905081810360008301526139188184613798565b905092915050565b6000602082019050818103600083015261393a8184613875565b905092915050565b6000604082019050818103600083015261395c8185613875565b905081810360208301526139708184613875565b90509392505050565b600060a08201905081810360008301526139938188613875565b90506139a260208301876138bd565b81810360408301526139b48186613875565b905081810360608301526139c88185613875565b905081810360808301526139dc8184613875565b90509695505050505050565b60006020820190506139fd60008301846138bd565b92915050565b6000608082019050613a1860008301876138bd565b8181036020830152613a2a8186613875565b90508181036040830152613a3e8185613875565b90508181036060830152613a528184613875565b905095945050505050565b600061018082019050613a73600083018f6138bd565b613a80602083018e6138bd565b8181036040830152613a92818d613875565b90508181036060830152613aa6818c613875565b90508181036080830152613aba818b613875565b9050613ac960a083018a6138bd565b613ad660c08301896138bd565b613ae360e08301886138bd565b818103610100830152613af68187613875565b9050818103610120830152613b0b8186613875565b9050613b1b6101408301856138bd565b613b296101608301846138bd565b9d9c50505050505050505050505050565b6000608082019050613b4f60008301876138bd565b613b5c60208301866138bd565b613b6960408301856138bd565b8181036060830152613b7b8184613875565b905095945050505050565b600061012082019050613b9c600083018c6138bd565b613ba9602083018b6138bd565b613bb6604083018a6138bd565b8181036060830152613bc88189613875565b90508181036080830152613bdc8188613875565b905081810360a0830152613bf08187613875565b905081810360c0830152613c048186613875565b9050613c1360e08301856138bd565b613c216101008301846138bd565b9a9950505050505050505050565b600060a082019050613c4460008301886138bd565b613c5160208301876138bd565b613c5e60408301866138bd565b613c6b60608301856138bd565b8181036080830152613c7d8184613875565b90509695505050505050565b600060e082019050613c9e600083018a6138bd565b613cab60208301896138bd565b613cb860408301886138bd565b613cc560608301876138bd565b613cd260808301866138bd565b613cdf60a08301856138bd565b81810360c0830152613cf18184613875565b905098975050505050505050565b6000613d09613d1a565b9050613d158282613f04565b919050565b6000604051905090565b600067ffffffffffffffff821115613d3f57613d3e61403a565b5b613d488261407d565b9050602081019050919050565b6000819050602082019050919050565b60008190508160005260206000209050919050565b600081519050919050565b600081519050919050565b6000602082019050919050565b600082825260208201905092915050565b600081905092915050565b600082825260208201905092915050565b6000613dd582613e86565b9150613de083613e86565b9250827fffffffffffffffffffffffffffffffffffffffffffffffffffffffffffffffff03821115613e1557613e14613f7e565b5b828201905092915050565b6000613e2b82613e86565b9150613e3683613e86565b925082821015613e4957613e48613f7e565b5b828203905092915050565b6000613e5f82613e66565b9050919050565b600073ffffffffffffffffffffffffffffffffffffffff82169050919050565b6000819050919050565b82818337600083830152505050565b60005b83811015613ebd578082015181840152602081019050613ea2565b83811115613ecc576000848401525b50505050565b60006002820490506001821680613eea57607f821691505b60208210811415613efe57613efd613fdc565b5b50919050565b613f0d8261407d565b810181811067ffffffffffffffff82111715613f2c57613f2b61403a565b5b80604052505050565b6000613f4082613e86565b91507fffffffffffffffffffffffffffffffffffffffffffffffffffffffffffffffff821415613f7357613f72613f7e565b5b600182019050919050565b7f4e487b7100000000000000000000000000000000000000000000000000000000600052601160045260246000fd5b7f4e487b7100000000000000000000000000000000000000000000000000000000600052601260045260246000fd5b7f4e487b7100000000000000000000000000000000000000000000000000000000600052602260045260246000fd5b7f4e487b7100000000000000000000000000000000000000000000000000000000600052603260045260246000fd5b7f4e487b7100000000000000000000000000000000000000000000000000000000600052604160045260246000fd5b600080fd5b600080fd5b600080fd5b600080fd5b6000601f19601f8301169050919050565b61409781613e86565b81146140a257600080fd5b5056fe68747470733a2f2f692e706f7374696d672e63632f537378477735635a2f706572736f6e2e6a7067a26469706673582212208270e6654a04248004a4a6bfb2d5727addfd305a3b7aa16a4f29388c83524b8764736f6c63430008060033","opcodes":"PUSH1 0x80 PUSH1 0x40 MSTORE CALLVALUE DUP1 ISZERO PUSH2 0x10 JUMPI PUSH1 0x0 DUP1 REVERT JUMPDEST POP PUSH2 0x4103 DUP1 PUSH2 0x20 PUSH1 0x0 CODECOPY PUSH1 0x0 RETURN INVALID PUSH1 0x80 PUSH1 0x40 MSTORE CALLVALUE DUP1 ISZERO PUSH2 0x10 JUMPI PUSH1 0x0 DUP1 REVERT JUMPDEST POP PUSH1 0x4 CALLDATASIZE LT PUSH2 0x23D JUMPI PUSH1 0x0 CALLDATALOAD PUSH1 0xE0 SHR DUP1 PUSH4 0x90D6CF05 GT PUSH2 0x13B JUMPI DUP1 PUSH4 0xCE08988C GT PUSH2 0xB8 JUMPI DUP1 PUSH4 0xEB6B2870 GT PUSH2 0x7C JUMPI DUP1 PUSH4 0xEB6B2870 EQ PUSH2 0x6F3 JUMPI DUP1 PUSH4 0xEBE197CA EQ PUSH2 0x711 JUMPI DUP1 PUSH4 0xF0D8E873 EQ PUSH2 0x744 JUMPI DUP1 PUSH4 0xF6AAA804 EQ PUSH2 0x775 JUMPI DUP1 PUSH4 0xF8B7800F EQ PUSH2 0x7A8 JUMPI PUSH2 0x23D JUMP JUMPDEST DUP1 PUSH4 0xCE08988C EQ PUSH2 0x635 JUMPI DUP1 PUSH4 0xDE7ACFD7 EQ PUSH2 0x653 JUMPI DUP1 PUSH4 0xE1DA993F EQ PUSH2 0x68B JUMPI DUP1 PUSH4 0xE57F973F EQ PUSH2 0x6A7 JUMPI DUP1 PUSH4 0xEA7EFAA6 EQ PUSH2 0x6C3 JUMPI PUSH2 0x23D JUMP JUMPDEST DUP1 PUSH4 0xB16060A6 GT PUSH2 0xFF JUMPI DUP1 PUSH4 0xB16060A6 EQ PUSH2 0x56C JUMPI DUP1 PUSH4 0xB6E604BD EQ PUSH2 0x576 JUMPI DUP1 PUSH4 0xBED208FE EQ PUSH2 0x594 JUMPI DUP1 PUSH4 0xC13B2836 EQ PUSH2 0x5CF JUMPI DUP1 PUSH4 0xCCEF4218 EQ PUSH2 0x605 JUMPI PUSH2 0x23D JUMP JUMPDEST DUP1 PUSH4 0x90D6CF05 EQ PUSH2 0x4C6 JUMPI DUP1 PUSH4 0xA5F3FC7D EQ PUSH2 0x4FA JUMPI DUP1 PUSH4 0xA92E1C4C EQ PUSH2 0x516 JUMPI DUP1 PUSH4 0xAC7AEF0E EQ PUSH2 0x532 JUMPI DUP1 PUSH4 0xAD23F8F9 EQ PUSH2 0x550 JUMPI PUSH2 0x23D JUMP JUMPDEST DUP1 PUSH4 0x45948FDE GT PUSH2 0x1C9 JUMPI DUP1 PUSH4 0x66CAD734 GT PUSH2 0x18D JUMPI DUP1 PUSH4 0x66CAD734 EQ PUSH2 0x410 JUMPI DUP1 PUSH4 0x682D562B EQ PUSH2 0x42C JUMPI DUP1 PUSH4 0x7D423E10 EQ PUSH2 0x45C JUMPI DUP1 PUSH4 0x8DA5CB5B EQ PUSH2 0x478 JUMPI DUP1 PUSH4 0x902841D4 EQ PUSH2 0x496 JUMPI PUSH2 0x23D JUMP JUMPDEST DUP1 PUSH4 0x45948FDE EQ PUSH2 0x370 JUMPI DUP1 PUSH4 0x49B9B07B EQ PUSH2 0x38C JUMPI DUP1 PUSH4 0x4F8B36EB EQ PUSH2 0x3BC JUMPI DUP1 PUSH4 0x55391705 EQ PUSH2 0x3D8 JUMPI DUP1 PUSH4 0x5F27AEA1 EQ PUSH2 0x3F4 JUMPI PUSH2 0x23D JUMP JUMPDEST DUP1 PUSH4 0x2A8CAF4A GT PUSH2 0x210 JUMPI DUP1 PUSH4 0x2A8CAF4A EQ PUSH2 0x2D0 JUMPI DUP1 PUSH4 0x2C02DD60 EQ PUSH2 0x300 JUMPI DUP1 PUSH4 0x2FFB08F7 EQ PUSH2 0x31C JUMPI DUP1 PUSH4 0x3896F130 EQ PUSH2 0x338 JUMPI DUP1 PUSH4 0x3EEBD0D0 EQ PUSH2 0x354 JUMPI PUSH2 0x23D JUMP JUMPDEST DUP1 PUSH4 0x1C66109 EQ PUSH2 0x242 JUMPI DUP1 PUSH4 0x1429F775 EQ PUSH2 0x260 JUMPI DUP1 PUSH4 0x1C1A9F7B EQ PUSH2 0x27E JUMPI DUP1 PUSH4 0x29B36423 EQ PUSH2 0x2B2 JUMPI JUMPDEST PUSH1 0x0 DUP1 REVERT JUMPDEST PUSH2 0x24A PUSH2 0x7D8 JUMP JUMPDEST PUSH1 0x40 MLOAD PUSH2 0x257 SWAP2 SWAP1 PUSH2 0x39E8 JUMP JUMPDEST PUSH1 0x40 MLOAD DUP1 SWAP2 SUB SWAP1 RETURN JUMPDEST PUSH2 0x268 PUSH2 0x7DE JUMP JUMPDEST PUSH1 0x40 MLOAD PUSH2 0x275 SWAP2 SWAP1 PUSH2 0x39E8 JUMP JUMPDEST PUSH1 0x40 MLOAD DUP1 SWAP2 SUB SWAP1 RETURN JUMPDEST PUSH2 0x298 PUSH1 0x4 DUP1 CALLDATASIZE SUB DUP2 ADD SWAP1 PUSH2 0x293 SWAP2 SWAP1 PUSH2 0x3099 JUMP JUMPDEST PUSH2 0x7E4 JUMP JUMPDEST PUSH1 0x40 MLOAD PUSH2 0x2A9 SWAP6 SWAP5 SWAP4 SWAP3 SWAP2 SWAP1 PUSH2 0x3979 JUMP JUMPDEST PUSH1 0x40 MLOAD DUP1 SWAP2 SUB SWAP1 RETURN JUMPDEST PUSH2 0x2BA PUSH2 0xAA8 JUMP JUMPDEST PUSH1 0x40 MLOAD PUSH2 0x2C7 SWAP2 SWAP1 PUSH2 0x39E8 JUMP JUMPDEST PUSH1 0x40 MLOAD DUP1 SWAP2 SUB SWAP1 RETURN JUMPDEST PUSH2 0x2EA PUSH1 0x4 DUP1 CALLDATASIZE SUB DUP2 ADD SWAP1 PUSH2 0x2E5 SWAP2 SWAP1 PUSH2 0x3099 JUMP JUMPDEST PUSH2 0xAAE JUMP JUMPDEST PUSH1 0x40 MLOAD PUSH2 0x2F7 SWAP2 SWAP1 PUSH2 0x3920 JUMP JUMPDEST PUSH1 0x40 MLOAD DUP1 SWAP2 SUB SWAP1 RETURN JUMPDEST PUSH2 0x31A PUSH1 0x4 DUP1 CALLDATASIZE SUB DUP2 ADD SWAP1 PUSH2 0x315 SWAP2 SWAP1 PUSH2 0x32AC JUMP JUMPDEST PUSH2 0xB4E JUMP JUMPDEST STOP JUMPDEST PUSH2 0x336 PUSH1 0x4 DUP1 CALLDATASIZE SUB DUP2 ADD SWAP1 PUSH2 0x331 SWAP2 SWAP1 PUSH2 0x36C8 JUMP JUMPDEST PUSH2 0xCED JUMP JUMPDEST STOP JUMPDEST PUSH2 0x352 PUSH1 0x4 DUP1 CALLDATASIZE SUB DUP2 ADD SWAP1 PUSH2 0x34D SWAP2 SWAP1 PUSH2 0x3533 JUMP JUMPDEST PUSH2 0xDB3 JUMP JUMPDEST STOP JUMPDEST PUSH2 0x36E PUSH1 0x4 DUP1 CALLDATASIZE SUB DUP2 ADD SWAP1 PUSH2 0x369 SWAP2 SWAP1 PUSH2 0x3441 JUMP JUMPDEST PUSH2 0xED6 JUMP JUMPDEST STOP JUMPDEST PUSH2 0x38A PUSH1 0x4 DUP1 CALLDATASIZE SUB DUP2 ADD SWAP1 PUSH2 0x385 SWAP2 SWAP1 PUSH2 0x2FF2 JUMP JUMPDEST PUSH2 0xF3D JUMP JUMPDEST STOP JUMPDEST PUSH2 0x3A6 PUSH1 0x4 DUP1 CALLDATASIZE SUB DUP2 ADD SWAP1 PUSH2 0x3A1 SWAP2 SWAP1 PUSH2 0x3099 JUMP JUMPDEST PUSH2 0x10D6 JUMP JUMPDEST PUSH1 0x40 MLOAD PUSH2 0x3B3 SWAP2 SWAP1 PUSH2 0x38FE JUMP JUMPDEST PUSH1 0x40 MLOAD DUP1 SWAP2 SUB SWAP1 RETURN JUMPDEST PUSH2 0x3D6 PUSH1 0x4 DUP1 CALLDATASIZE SUB DUP2 ADD SWAP1 PUSH2 0x3D1 SWAP2 SWAP1 PUSH2 0x2F7A JUMP JUMPDEST PUSH2 0x11EE JUMP JUMPDEST STOP JUMPDEST PUSH2 0x3F2 PUSH1 0x4 DUP1 CALLDATASIZE SUB DUP2 ADD SWAP1 PUSH2 0x3ED SWAP2 SWAP1 PUSH2 0x31DD JUMP JUMPDEST PUSH2 0x1271 JUMP JUMPDEST STOP JUMPDEST PUSH2 0x40E PUSH1 0x4 DUP1 CALLDATASIZE SUB DUP2 ADD SWAP1 PUSH2 0x409 SWAP2 SWAP1 PUSH2 0x31DD JUMP JUMPDEST PUSH2 0x1314 JUMP JUMPDEST STOP JUMPDEST PUSH2 0x42A PUSH1 0x4 DUP1 CALLDATASIZE SUB DUP2 ADD SWAP1 PUSH2 0x425 SWAP2 SWAP1 PUSH2 0x30C6 JUMP JUMPDEST PUSH2 0x13B7 JUMP JUMPDEST STOP JUMPDEST PUSH2 0x446 PUSH1 0x4 DUP1 CALLDATASIZE SUB DUP2 ADD SWAP1 PUSH2 0x441 SWAP2 SWAP1 PUSH2 0x3099 JUMP JUMPDEST PUSH2 0x13E3 JUMP JUMPDEST PUSH1 0x40 MLOAD PUSH2 0x453 SWAP2 SWAP1 PUSH2 0x38FE JUMP JUMPDEST PUSH1 0x40 MLOAD DUP1 SWAP2 SUB SWAP1 RETURN JUMPDEST PUSH2 0x476 PUSH1 0x4 DUP1 CALLDATASIZE SUB DUP2 ADD SWAP1 PUSH2 0x471 SWAP2 SWAP1 PUSH2 0x3645 JUMP JUMPDEST PUSH2 0x14FB JUMP JUMPDEST STOP JUMPDEST PUSH2 0x480 PUSH2 0x15F8 JUMP JUMPDEST PUSH1 0x40 MLOAD PUSH2 0x48D SWAP2 SWAP1 PUSH2 0x38E3 JUMP JUMPDEST PUSH1 0x40 MLOAD DUP1 SWAP2 SUB SWAP1 RETURN JUMPDEST PUSH2 0x4B0 PUSH1 0x4 DUP1 CALLDATASIZE SUB DUP2 ADD SWAP1 PUSH2 0x4AB SWAP2 SWAP1 PUSH2 0x3099 JUMP JUMPDEST PUSH2 0x161E JUMP JUMPDEST PUSH1 0x40 MLOAD PUSH2 0x4BD SWAP2 SWAP1 PUSH2 0x3920 JUMP JUMPDEST PUSH1 0x40 MLOAD DUP1 SWAP2 SUB SWAP1 RETURN JUMPDEST PUSH2 0x4E0 PUSH1 0x4 DUP1 CALLDATASIZE SUB DUP2 ADD SWAP1 PUSH2 0x4DB SWAP2 SWAP1 PUSH2 0x3099 JUMP JUMPDEST PUSH2 0x16C4 JUMP JUMPDEST PUSH1 0x40 MLOAD PUSH2 0x4F1 SWAP6 SWAP5 SWAP4 SWAP3 SWAP2 SWAP1 PUSH2 0x3C2F JUMP JUMPDEST PUSH1 0x40 MLOAD DUP1 SWAP2 SUB SWAP1 RETURN JUMPDEST PUSH2 0x514 PUSH1 0x4 DUP1 CALLDATASIZE SUB DUP2 ADD SWAP1 PUSH2 0x50F SWAP2 SWAP1 PUSH2 0x34C4 JUMP JUMPDEST PUSH2 0x1782 JUMP JUMPDEST STOP JUMPDEST PUSH2 0x530 PUSH1 0x4 DUP1 CALLDATASIZE SUB DUP2 ADD SWAP1 PUSH2 0x52B SWAP2 SWAP1 PUSH2 0x3122 JUMP JUMPDEST PUSH2 0x1843 JUMP JUMPDEST STOP JUMPDEST PUSH2 0x53A PUSH2 0x18E5 JUMP JUMPDEST PUSH1 0x40 MLOAD PUSH2 0x547 SWAP2 SWAP1 PUSH2 0x39E8 JUMP JUMPDEST PUSH1 0x40 MLOAD DUP1 SWAP2 SUB SWAP1 RETURN JUMPDEST PUSH2 0x56A PUSH1 0x4 DUP1 CALLDATASIZE SUB DUP2 ADD SWAP1 PUSH2 0x565 SWAP2 SWAP1 PUSH2 0x30C6 JUMP JUMPDEST PUSH2 0x18EB JUMP JUMPDEST STOP JUMPDEST PUSH2 0x574 PUSH2 0x1917 JUMP JUMPDEST STOP JUMPDEST PUSH2 0x57E PUSH2 0x1DEF JUMP JUMPDEST PUSH1 0x40 MLOAD PUSH2 0x58B SWAP2 SWAP1 PUSH2 0x39E8 JUMP JUMPDEST PUSH1 0x40 MLOAD DUP1 SWAP2 SUB SWAP1 RETURN JUMPDEST PUSH2 0x5AE PUSH1 0x4 DUP1 CALLDATASIZE SUB DUP2 ADD SWAP1 PUSH2 0x5A9 SWAP2 SWAP1 PUSH2 0x3099 JUMP JUMPDEST PUSH2 0x1DF5 JUMP JUMPDEST PUSH1 0x40 MLOAD PUSH2 0x5C6 SWAP13 SWAP12 SWAP11 SWAP10 SWAP9 SWAP8 SWAP7 SWAP6 SWAP5 SWAP4 SWAP3 SWAP2 SWAP1 PUSH2 0x3A5D JUMP JUMPDEST PUSH1 0x40 MLOAD DUP1 SWAP2 SUB SWAP1 RETURN JUMPDEST PUSH2 0x5E9 PUSH1 0x4 DUP1 CALLDATASIZE SUB DUP2 ADD SWAP1 PUSH2 0x5E4 SWAP2 SWAP1 PUSH2 0x3099 JUMP JUMPDEST PUSH2 0x20FD JUMP JUMPDEST PUSH1 0x40 MLOAD PUSH2 0x5FC SWAP8 SWAP7 SWAP6 SWAP5 SWAP4 SWAP3 SWAP2 SWAP1 PUSH2 0x3C89 JUMP JUMPDEST PUSH1 0x40 MLOAD DUP1 SWAP2 SUB SWAP1 RETURN JUMPDEST PUSH2 0x61F PUSH1 0x4 DUP1 CALLDATASIZE SUB DUP2 ADD SWAP1 PUSH2 0x61A SWAP2 SWAP1 PUSH2 0x2F7A JUMP JUMPDEST PUSH2 0x21C7 JUMP JUMPDEST PUSH1 0x40 MLOAD PUSH2 0x62C SWAP2 SWAP1 PUSH2 0x3920 JUMP JUMPDEST PUSH1 0x40 MLOAD DUP1 SWAP2 SUB SWAP1 RETURN JUMPDEST PUSH2 0x63D PUSH2 0x22AF JUMP JUMPDEST PUSH1 0x40 MLOAD PUSH2 0x64A SWAP2 SWAP1 PUSH2 0x39E8 JUMP JUMPDEST PUSH1 0x40 MLOAD DUP1 SWAP2 SUB SWAP1 RETURN JUMPDEST PUSH2 0x66D PUSH1 0x4 DUP1 CALLDATASIZE SUB DUP2 ADD SWAP1 PUSH2 0x668 SWAP2 SWAP1 PUSH2 0x3099 JUMP JUMPDEST PUSH2 0x22B5 JUMP JUMPDEST PUSH1 0x40 MLOAD PUSH2 0x682 SWAP10 SWAP9 SWAP8 SWAP7 SWAP6 SWAP5 SWAP4 SWAP3 SWAP2 SWAP1 PUSH2 0x3B86 JUMP JUMPDEST PUSH1 0x40 MLOAD DUP1 SWAP2 SUB SWAP1 RETURN JUMPDEST PUSH2 0x6A5 PUSH1 0x4 DUP1 CALLDATASIZE SUB DUP2 ADD SWAP1 PUSH2 0x6A0 SWAP2 SWAP1 PUSH2 0x30C6 JUMP JUMPDEST PUSH2 0x2523 JUMP JUMPDEST STOP JUMPDEST PUSH2 0x6C1 PUSH1 0x4 DUP1 CALLDATASIZE SUB DUP2 ADD SWAP1 PUSH2 0x6BC SWAP2 SWAP1 PUSH2 0x33D2 JUMP JUMPDEST PUSH2 0x2552 JUMP JUMPDEST STOP JUMPDEST PUSH2 0x6DD PUSH1 0x4 DUP1 CALLDATASIZE SUB DUP2 ADD SWAP1 PUSH2 0x6D8 SWAP2 SWAP1 PUSH2 0x3099 JUMP JUMPDEST PUSH2 0x259D JUMP JUMPDEST PUSH1 0x40 MLOAD PUSH2 0x6EA SWAP2 SWAP1 PUSH2 0x3920 JUMP JUMPDEST PUSH1 0x40 MLOAD DUP1 SWAP2 SUB SWAP1 RETURN JUMPDEST PUSH2 0x6FB PUSH2 0x263D JUMP JUMPDEST PUSH1 0x40 MLOAD PUSH2 0x708 SWAP2 SWAP1 PUSH2 0x39E8 JUMP JUMPDEST PUSH1 0x40 MLOAD DUP1 SWAP2 SUB SWAP1 RETURN JUMPDEST PUSH2 0x72B PUSH1 0x4 DUP1 CALLDATASIZE SUB DUP2 ADD SWAP1 PUSH2 0x726 SWAP2 SWAP1 PUSH2 0x3099 JUMP JUMPDEST PUSH2 0x2643 JUMP JUMPDEST PUSH1 0x40 MLOAD PUSH2 0x73B SWAP5 SWAP4 SWAP3 SWAP2 SWAP1 PUSH2 0x3A03 JUMP JUMPDEST PUSH1 0x40 MLOAD DUP1 SWAP2 SUB SWAP1 RETURN JUMPDEST PUSH2 0x75E PUSH1 0x4 DUP1 CALLDATASIZE SUB DUP2 ADD SWAP1 PUSH2 0x759 SWAP2 SWAP1 PUSH2 0x3099 JUMP JUMPDEST PUSH2 0x280B JUMP JUMPDEST PUSH1 0x40 MLOAD PUSH2 0x76C SWAP3 SWAP2 SWAP1 PUSH2 0x3942 JUMP JUMPDEST PUSH1 0x40 MLOAD DUP1 SWAP2 SUB SWAP1 RETURN JUMPDEST PUSH2 0x78F PUSH1 0x4 DUP1 CALLDATASIZE SUB DUP2 ADD SWAP1 PUSH2 0x78A SWAP2 SWAP1 PUSH2 0x3099 JUMP JUMPDEST PUSH2 0x293F JUMP JUMPDEST PUSH1 0x40 MLOAD PUSH2 0x79F SWAP5 SWAP4 SWAP3 SWAP2 SWAP1 PUSH2 0x3B3A JUMP JUMPDEST PUSH1 0x40 MLOAD DUP1 SWAP2 SUB SWAP1 RETURN JUMPDEST PUSH2 0x7C2 PUSH1 0x4 DUP1 CALLDATASIZE SUB DUP2 ADD SWAP1 PUSH2 0x7BD SWAP2 SWAP1 PUSH2 0x2F31 JUMP JUMPDEST PUSH2 0x29F7 JUMP JUMPDEST PUSH1 0x40 MLOAD PUSH2 0x7CF SWAP2 SWAP1 PUSH2 0x3920 JUMP JUMPDEST PUSH1 0x40 MLOAD DUP1 SWAP2 SUB SWAP1 RETURN JUMPDEST PUSH1 0x5 SLOAD DUP2 JUMP JUMPDEST PUSH1 0x2 SLOAD DUP2 JUMP JUMPDEST PUSH1 0x60 PUSH1 0x0 PUSH1 0x60 DUP1 PUSH1 0x60 PUSH1 0x7 PUSH1 0x0 DUP8 DUP2 MSTORE PUSH1 0x20 ADD SWAP1 DUP2 MSTORE PUSH1 0x20 ADD PUSH1 0x0 KECCAK256 PUSH1 0x6 ADD PUSH1 0x7 PUSH1 0x0 DUP9 DUP2 MSTORE PUSH1 0x20 ADD SWAP1 DUP2 MSTORE PUSH1 0x20 ADD PUSH1 0x0 KECCAK256 PUSH1 0x7 ADD SLOAD PUSH1 0x7 PUSH1 0x0 DUP10 DUP2 MSTORE PUSH1 0x20 ADD SWAP1 DUP2 MSTORE PUSH1 0x20 ADD PUSH1 0x0 KECCAK256 PUSH1 0x1 ADD PUSH1 0x7 PUSH1 0x0 DUP11 DUP2 MSTORE PUSH1 0x20 ADD SWAP1 DUP2 MSTORE PUSH1 0x20 ADD PUSH1 0x0 KECCAK256 PUSH1 0x2 ADD PUSH2 0x8F1 PUSH1 0x7 PUSH1 0x0 DUP13 DUP2 MSTORE PUSH1 0x20 ADD SWAP1 DUP2 MSTORE PUSH1 0x20 ADD PUSH1 0x0 KECCAK256 PUSH1 0x5 ADD DUP1 SLOAD PUSH2 0x86A SWAP1 PUSH2 0x3ED2 JUMP JUMPDEST DUP1 PUSH1 0x1F ADD PUSH1 0x20 DUP1 SWAP2 DIV MUL PUSH1 0x20 ADD PUSH1 0x40 MLOAD SWAP1 DUP2 ADD PUSH1 0x40 MSTORE DUP1 SWAP3 SWAP2 SWAP1 DUP2 DUP2 MSTORE PUSH1 0x20 ADD DUP3 DUP1 SLOAD PUSH2 0x896 SWAP1 PUSH2 0x3ED2 JUMP JUMPDEST DUP1 ISZERO PUSH2 0x8E3 JUMPI DUP1 PUSH1 0x1F LT PUSH2 0x8B8 JUMPI PUSH2 0x100 DUP1 DUP4 SLOAD DIV MUL DUP4 MSTORE SWAP2 PUSH1 0x20 ADD SWAP2 PUSH2 0x8E3 JUMP JUMPDEST DUP3 ADD SWAP2 SWAP1 PUSH1 0x0 MSTORE PUSH1 0x20 PUSH1 0x0 KECCAK256 SWAP1 JUMPDEST DUP2 SLOAD DUP2 MSTORE SWAP1 PUSH1 0x1 ADD SWAP1 PUSH1 0x20 ADD DUP1 DUP4 GT PUSH2 0x8C6 JUMPI DUP3 SWAP1 SUB PUSH1 0x1F AND DUP3 ADD SWAP2 JUMPDEST POP POP POP POP POP PUSH1 0x0 PUSH1 0xA PUSH2 0x2AA2 JUMP JUMPDEST DUP5 DUP1 SLOAD PUSH2 0x8FD SWAP1 PUSH2 0x3ED2 JUMP JUMPDEST DUP1 PUSH1 0x1F ADD PUSH1 0x20 DUP1 SWAP2 DIV MUL PUSH1 0x20 ADD PUSH1 0x40 MLOAD SWAP1 DUP2 ADD PUSH1 0x40 MSTORE DUP1 SWAP3 SWAP2 SWAP1 DUP2 DUP2 MSTORE PUSH1 0x20 ADD DUP3 DUP1 SLOAD PUSH2 0x929 SWAP1 PUSH2 0x3ED2 JUMP JUMPDEST DUP1 ISZERO PUSH2 0x976 JUMPI DUP1 PUSH1 0x1F LT PUSH2 0x94B JUMPI PUSH2 0x100 DUP1 DUP4 SLOAD DIV MUL DUP4 MSTORE SWAP2 PUSH1 0x20 ADD SWAP2 PUSH2 0x976 JUMP JUMPDEST DUP3 ADD SWAP2 SWAP1 PUSH1 0x0 MSTORE PUSH1 0x20 PUSH1 0x0 KECCAK256 SWAP1 JUMPDEST DUP2 SLOAD DUP2 MSTORE SWAP1 PUSH1 0x1 ADD SWAP1 PUSH1 0x20 ADD DUP1 DUP4 GT PUSH2 0x959 JUMPI DUP3 SWAP1 SUB PUSH1 0x1F AND DUP3 ADD SWAP2 JUMPDEST POP POP POP POP POP SWAP5 POP DUP3 DUP1 SLOAD PUSH2 0x989 SWAP1 PUSH2 0x3ED2 JUMP JUMPDEST DUP1 PUSH1 0x1F ADD PUSH1 0x20 DUP1 SWAP2 DIV MUL PUSH1 0x20 ADD PUSH1 0x40 MLOAD SWAP1 DUP2 ADD PUSH1 0x40 MSTORE DUP1 SWAP3 SWAP2 SWAP1 DUP2 DUP2 MSTORE PUSH1 0x20 ADD DUP3 DUP1 SLOAD PUSH2 0x9B5 SWAP1 PUSH2 0x3ED2 JUMP JUMPDEST DUP1 ISZERO PUSH2 0xA02 JUMPI DUP1 PUSH1 0x1F LT PUSH2 0x9D7 JUMPI PUSH2 0x100 DUP1 DUP4 SLOAD DIV MUL DUP4 MSTORE SWAP2 PUSH1 0x20 ADD SWAP2 PUSH2 0xA02 JUMP JUMPDEST DUP3 ADD SWAP2 SWAP1 PUSH1 0x0 MSTORE PUSH1 0x20 PUSH1 0x0 KECCAK256 SWAP1 JUMPDEST DUP2 SLOAD DUP2 MSTORE SWAP1 PUSH1 0x1 ADD SWAP1 PUSH1 0x20 ADD DUP1 DUP4 GT PUSH2 0x9E5 JUMPI DUP3 SWAP1 SUB PUSH1 0x1F AND DUP3 ADD SWAP2 JUMPDEST POP POP POP POP POP SWAP3 POP DUP2 DUP1 SLOAD PUSH2 0xA15 SWAP1 PUSH2 0x3ED2 JUMP JUMPDEST DUP1 PUSH1 0x1F ADD PUSH1 0x20 DUP1 SWAP2 DIV MUL PUSH1 0x20 ADD PUSH1 0x40 MLOAD SWAP1 DUP2 ADD PUSH1 0x40 MSTORE DUP1 SWAP3 SWAP2 SWAP1 DUP2 DUP2 MSTORE PUSH1 0x20 ADD DUP3 DUP1 SLOAD PUSH2 0xA41 SWAP1 PUSH2 0x3ED2 JUMP JUMPDEST DUP1 ISZERO PUSH2 0xA8E JUMPI DUP1 PUSH1 0x1F LT PUSH2 0xA63 JUMPI PUSH2 0x100 DUP1 DUP4 SLOAD DIV MUL DUP4 MSTORE SWAP2 PUSH1 0x20 ADD SWAP2 PUSH2 0xA8E JUMP JUMPDEST DUP3 ADD SWAP2 SWAP1 PUSH1 0x0 MSTORE PUSH1 0x20 PUSH1 0x0 KECCAK256 SWAP1 JUMPDEST DUP2 SLOAD DUP2 MSTORE SWAP1 PUSH1 0x1 ADD SWAP1 PUSH1 0x20 ADD DUP1 DUP4 GT PUSH2 0xA71 JUMPI DUP3 SWAP1 SUB PUSH1 0x1F AND DUP3 ADD SWAP2 JUMPDEST POP POP POP POP POP SWAP2 POP SWAP5 POP SWAP5 POP SWAP5 POP SWAP5 POP SWAP5 POP SWAP2 SWAP4 SWAP6 SWAP1 SWAP3 SWAP5 POP JUMP JUMPDEST PUSH1 0x3 SLOAD DUP2 JUMP JUMPDEST PUSH1 0x9 PUSH1 0x20 MSTORE DUP1 PUSH1 0x0 MSTORE PUSH1 0x40 PUSH1 0x0 KECCAK256 PUSH1 0x0 SWAP2 POP SWAP1 POP DUP1 SLOAD PUSH2 0xACD SWAP1 PUSH2 0x3ED2 JUMP JUMPDEST DUP1 PUSH1 0x1F ADD PUSH1 0x20 DUP1 SWAP2 DIV MUL PUSH1 0x20 ADD PUSH1 0x40 MLOAD SWAP1 DUP2 ADD PUSH1 0x40 MSTORE DUP1 SWAP3 SWAP2 SWAP1 DUP2 DUP2 MSTORE PUSH1 0x20 ADD DUP3 DUP1 SLOAD PUSH2 0xAF9 SWAP1 PUSH2 0x3ED2 JUMP JUMPDEST DUP1 ISZERO PUSH2 0xB46 JUMPI DUP1 PUSH1 0x1F LT PUSH2 0xB1B JUMPI PUSH2 0x100 DUP1 DUP4 SLOAD DIV MUL DUP4 MSTORE SWAP2 PUSH1 0x20 ADD SWAP2 PUSH2 0xB46 JUMP JUMPDEST DUP3 ADD SWAP2 SWAP1 PUSH1 0x0 MSTORE PUSH1 0x20 PUSH1 0x0 KECCAK256 SWAP1 JUMPDEST DUP2 SLOAD DUP2 MSTORE SWAP1 PUSH1 0x1 ADD SWAP1 PUSH1 0x20 ADD DUP1 DUP4 GT PUSH2 0xB29 JUMPI DUP3 SWAP1 SUB PUSH1 0x1F AND DUP3 ADD SWAP2 JUMPDEST POP POP POP POP POP DUP2 JUMP JUMPDEST PUSH1 0x40 MLOAD DUP1 PUSH2 0x180 ADD PUSH1 0x40 MSTORE DUP1 PUSH1 0x1 SLOAD DUP2 MSTORE PUSH1 0x20 ADD DUP10 DUP2 MSTORE PUSH1 0x20 ADD DUP9 DUP2 MSTORE PUSH1 0x20 ADD DUP8 DUP2 MSTORE PUSH1 0x20 ADD DUP7 DUP2 MSTORE PUSH1 0x20 ADD DUP6 DUP2 MSTORE PUSH1 0x20 ADD DUP5 DUP2 MSTORE PUSH1 0x20 ADD DUP4 DUP2 MSTORE PUSH1 0x20 ADD DUP3 DUP2 MSTORE PUSH1 0x20 ADD PUSH1 0x40 MLOAD DUP1 PUSH1 0x40 ADD PUSH1 0x40 MSTORE DUP1 PUSH1 0x3 DUP2 MSTORE PUSH1 0x20 ADD PUSH32 0x4445560000000000000000000000000000000000000000000000000000000000 DUP2 MSTORE POP DUP2 MSTORE PUSH1 0x20 ADD PUSH1 0x0 DUP2 MSTORE PUSH1 0x20 ADD DUP4 DUP2 MSTORE POP PUSH1 0x8 PUSH1 0x0 PUSH1 0x1 SLOAD DUP2 MSTORE PUSH1 0x20 ADD SWAP1 DUP2 MSTORE PUSH1 0x20 ADD PUSH1 0x0 KECCAK256 PUSH1 0x0 DUP3 ADD MLOAD DUP2 PUSH1 0x0 ADD SSTORE PUSH1 0x20 DUP3 ADD MLOAD DUP2 PUSH1 0x1 ADD SSTORE PUSH1 0x40 DUP3 ADD MLOAD DUP2 PUSH1 0x2 ADD SWAP1 DUP1 MLOAD SWAP1 PUSH1 0x20 ADD SWAP1 PUSH2 0xC1D SWAP3 SWAP2 SWAP1 PUSH2 0x2DC9 JUMP JUMPDEST POP PUSH1 0x60 DUP3 ADD MLOAD DUP2 PUSH1 0x3 ADD SWAP1 DUP1 MLOAD SWAP1 PUSH1 0x20 ADD SWAP1 PUSH2 0xC3A SWAP3 SWAP2 SWAP1 PUSH2 0x2DC9 JUMP JUMPDEST POP PUSH1 0x80 DUP3 ADD MLOAD DUP2 PUSH1 0x4 ADD SWAP1 DUP1 MLOAD SWAP1 PUSH1 0x20 ADD SWAP1 PUSH2 0xC57 SWAP3 SWAP2 SWAP1 PUSH2 0x2DC9 JUMP JUMPDEST POP PUSH1 0xA0 DUP3 ADD MLOAD DUP2 PUSH1 0x5 ADD SSTORE PUSH1 0xC0 DUP3 ADD MLOAD DUP2 PUSH1 0x6 ADD SSTORE PUSH1 0xE0 DUP3 ADD MLOAD DUP2 PUSH1 0x7 ADD SSTORE PUSH2 0x100 DUP3 ADD MLOAD DUP2 PUSH1 0x8 ADD SWAP1 DUP1 MLOAD SWAP1 PUSH1 0x20 ADD SWAP1 PUSH2 0xC93 SWAP3 SWAP2 SWAP1 PUSH2 0x2DC9 JUMP JUMPDEST POP PUSH2 0x120 DUP3 ADD MLOAD DUP2 PUSH1 0x9 ADD SWAP1 DUP1 MLOAD SWAP1 PUSH1 0x20 ADD SWAP1 PUSH2 0xCB1 SWAP3 SWAP2 SWAP1 PUSH2 0x2DC9 JUMP JUMPDEST POP PUSH2 0x140 DUP3 ADD MLOAD DUP2 PUSH1 0xA ADD SSTORE PUSH2 0x160 DUP3 ADD MLOAD DUP2 PUSH1 0xB ADD SSTORE SWAP1 POP POP PUSH1 0x1 PUSH1 0x0 DUP2 SLOAD DUP1 SWAP3 SWAP2 SWAP1 PUSH2 0xCDE SWAP1 PUSH2 0x3F35 JUMP JUMPDEST SWAP2 SWAP1 POP SSTORE POP POP POP POP POP POP POP POP POP JUMP JUMPDEST PUSH1 0x40 MLOAD DUP1 PUSH1 0xE0 ADD PUSH1 0x40 MSTORE DUP1 PUSH1 0x5 SLOAD DUP2 MSTORE PUSH1 0x20 ADD DUP8 DUP2 MSTORE PUSH1 0x20 ADD DUP7 DUP2 MSTORE PUSH1 0x20 ADD DUP6 DUP2 MSTORE PUSH1 0x20 ADD DUP5 DUP2 MSTORE PUSH1 0x20 ADD DUP4 DUP2 MSTORE PUSH1 0x20 ADD DUP3 DUP2 MSTORE POP PUSH1 0xF PUSH1 0x0 PUSH1 0x5 SLOAD DUP2 MSTORE PUSH1 0x20 ADD SWAP1 DUP2 MSTORE PUSH1 0x20 ADD PUSH1 0x0 KECCAK256 PUSH1 0x0 DUP3 ADD MLOAD DUP2 PUSH1 0x0 ADD SSTORE PUSH1 0x20 DUP3 ADD MLOAD DUP2 PUSH1 0x1 ADD SSTORE PUSH1 0x40 DUP3 ADD MLOAD DUP2 PUSH1 0x2 ADD SSTORE PUSH1 0x60 DUP3 ADD MLOAD DUP2 PUSH1 0x3 ADD SSTORE PUSH1 0x80 DUP3 ADD MLOAD DUP2 PUSH1 0x4 ADD SSTORE PUSH1 0xA0 DUP3 ADD MLOAD DUP2 PUSH1 0x5 ADD SSTORE PUSH1 0xC0 DUP3 ADD MLOAD DUP2 PUSH1 0x6 ADD SWAP1 DUP1 MLOAD SWAP1 PUSH1 0x20 ADD SWAP1 PUSH2 0xD8F SWAP3 SWAP2 SWAP1 PUSH2 0x2DC9 JUMP JUMPDEST POP SWAP1 POP POP PUSH1 0x5 PUSH1 0x0 DUP2 SLOAD DUP1 SWAP3 SWAP2 SWAP1 PUSH2 0xDA6 SWAP1 PUSH2 0x3F35 JUMP JUMPDEST SWAP2 SWAP1 POP SSTORE POP POP POP POP POP POP POP JUMP JUMPDEST PUSH1 0x40 MLOAD DUP1 PUSH2 0x120 ADD PUSH1 0x40 MSTORE DUP1 PUSH1 0x2 SLOAD DUP2 MSTORE PUSH1 0x20 ADD DUP9 DUP2 MSTORE PUSH1 0x20 ADD DUP8 DUP2 MSTORE PUSH1 0x20 ADD DUP7 DUP2 MSTORE PUSH1 0x20 ADD DUP6 DUP2 MSTORE PUSH1 0x20 ADD DUP5 DUP2 MSTORE PUSH1 0x20 ADD DUP4 DUP2 MSTORE PUSH1 0x20 ADD DUP3 DUP2 MSTORE PUSH1 0x20 ADD PUSH1 0x0 DUP2 MSTORE POP PUSH1 0xA PUSH1 0x0 PUSH1 0x2 SLOAD DUP2 MSTORE PUSH1 0x20 ADD SWAP1 DUP2 MSTORE PUSH1 0x20 ADD PUSH1 0x0 KECCAK256 PUSH1 0x0 DUP3 ADD MLOAD DUP2 PUSH1 0x0 ADD SSTORE PUSH1 0x20 DUP3 ADD MLOAD DUP2 PUSH1 0x1 ADD SSTORE PUSH1 0x40 DUP3 ADD MLOAD DUP2 PUSH1 0x2 ADD SSTORE PUSH1 0x60 DUP3 ADD MLOAD DUP2 PUSH1 0x3 ADD SWAP1 DUP1 MLOAD SWAP1 PUSH1 0x20 ADD SWAP1 PUSH2 0xE45 SWAP3 SWAP2 SWAP1 PUSH2 0x2DC9 JUMP JUMPDEST POP PUSH1 0x80 DUP3 ADD MLOAD DUP2 PUSH1 0x4 ADD SWAP1 DUP1 MLOAD SWAP1 PUSH1 0x20 ADD SWAP1 PUSH2 0xE62 SWAP3 SWAP2 SWAP1 PUSH2 0x2DC9 JUMP JUMPDEST POP PUSH1 0xA0 DUP3 ADD MLOAD DUP2 PUSH1 0x5 ADD SWAP1 DUP1 MLOAD SWAP1 PUSH1 0x20 ADD SWAP1 PUSH2 0xE7F SWAP3 SWAP2 SWAP1 PUSH2 0x2DC9 JUMP JUMPDEST POP PUSH1 0xC0 DUP3 ADD MLOAD DUP2 PUSH1 0x6 ADD SWAP1 DUP1 MLOAD SWAP1 PUSH1 0x20 ADD SWAP1 PUSH2 0xE9C SWAP3 SWAP2 SWAP1 PUSH2 0x2DC9 JUMP JUMPDEST POP PUSH1 0xE0 DUP3 ADD MLOAD DUP2 PUSH1 0x7 ADD SSTORE PUSH2 0x100 DUP3 ADD MLOAD DUP2 PUSH1 0x8 ADD SSTORE SWAP1 POP POP PUSH1 0x2 PUSH1 0x0 DUP2 SLOAD DUP1 SWAP3 SWAP2 SWAP1 PUSH2 0xEC8 SWAP1 PUSH2 0x3F35 JUMP JUMPDEST SWAP2 SWAP1 POP SSTORE POP POP POP POP POP POP POP POP JUMP JUMPDEST DUP3 PUSH1 0x8 PUSH1 0x0 DUP7 DUP2 MSTORE PUSH1 0x20 ADD SWAP1 DUP2 MSTORE PUSH1 0x20 ADD PUSH1 0x0 KECCAK256 PUSH1 0x9 ADD SWAP1 DUP1 MLOAD SWAP1 PUSH1 0x20 ADD SWAP1 PUSH2 0xF00 SWAP3 SWAP2 SWAP1 PUSH2 0x2DC9 JUMP JUMPDEST POP DUP2 PUSH1 0x8 PUSH1 0x0 DUP7 DUP2 MSTORE PUSH1 0x20 ADD SWAP1 DUP2 MSTORE PUSH1 0x20 ADD PUSH1 0x0 KECCAK256 PUSH1 0xA ADD DUP2 SWAP1 SSTORE POP DUP1 PUSH1 0x8 PUSH1 0x0 DUP7 DUP2 MSTORE PUSH1 0x20 ADD SWAP1 DUP2 MSTORE PUSH1 0x20 ADD PUSH1 0x0 KECCAK256 PUSH1 0xB ADD DUP2 SWAP1 SSTORE POP POP POP POP POP JUMP JUMPDEST PUSH1 0x40 MLOAD DUP1 PUSH2 0x100 ADD PUSH1 0x40 MSTORE DUP1 PUSH1 0x0 SLOAD DUP2 MSTORE PUSH1 0x20 ADD DUP5 DUP2 MSTORE PUSH1 0x20 ADD DUP4 DUP2 MSTORE PUSH1 0x20 ADD DUP3 DUP2 MSTORE PUSH1 0x20 ADD CALLER PUSH20 0xFFFFFFFFFFFFFFFFFFFFFFFFFFFFFFFFFFFFFFFF AND DUP2 MSTORE PUSH1 0x20 ADD PUSH1 0x40 MLOAD DUP1 PUSH1 0x20 ADD PUSH1 0x40 MSTORE DUP1 PUSH1 0x0 DUP2 MSTORE POP DUP2 MSTORE PUSH1 0x20 ADD PUSH1 0x40 MLOAD DUP1 PUSH1 0x60 ADD PUSH1 0x40 MSTORE DUP1 PUSH1 0x28 DUP2 MSTORE PUSH1 0x20 ADD PUSH2 0x40A6 PUSH1 0x28 SWAP2 CODECOPY DUP2 MSTORE PUSH1 0x20 ADD PUSH1 0x0 DUP2 MSTORE POP PUSH1 0x7 PUSH1 0x0 DUP1 SLOAD DUP2 MSTORE PUSH1 0x20 ADD SWAP1 DUP2 MSTORE PUSH1 0x20 ADD PUSH1 0x0 KECCAK256 PUSH1 0x0 DUP3 ADD MLOAD DUP2 PUSH1 0x0 ADD SSTORE PUSH1 0x20 DUP3 ADD MLOAD DUP2 PUSH1 0x1 ADD SWAP1 DUP1 MLOAD SWAP1 PUSH1 0x20 ADD SWAP1 PUSH2 0xFF1 SWAP3 SWAP2 SWAP1 PUSH2 0x2DC9 JUMP JUMPDEST POP PUSH1 0x40 DUP3 ADD MLOAD DUP2 PUSH1 0x2 ADD SWAP1 DUP1 MLOAD SWAP1 PUSH1 0x20 ADD SWAP1 PUSH2 0x100E SWAP3 SWAP2 SWAP1 PUSH2 0x2DC9 JUMP JUMPDEST POP PUSH1 0x60 DUP3 ADD MLOAD DUP2 PUSH1 0x3 ADD SWAP1 DUP1 MLOAD SWAP1 PUSH1 0x20 ADD SWAP1 PUSH2 0x102B SWAP3 SWAP2 SWAP1 PUSH2 0x2DC9 JUMP JUMPDEST POP PUSH1 0x80 DUP3 ADD MLOAD DUP2 PUSH1 0x4 ADD PUSH1 0x0 PUSH2 0x100 EXP DUP2 SLOAD DUP2 PUSH20 0xFFFFFFFFFFFFFFFFFFFFFFFFFFFFFFFFFFFFFFFF MUL NOT AND SWAP1 DUP4 PUSH20 0xFFFFFFFFFFFFFFFFFFFFFFFFFFFFFFFFFFFFFFFF AND MUL OR SWAP1 SSTORE POP PUSH1 0xA0 DUP3 ADD MLOAD DUP2 PUSH1 0x5 ADD SWAP1 DUP1 MLOAD SWAP1 PUSH1 0x20 ADD SWAP1 PUSH2 0x108F SWAP3 SWAP2 SWAP1 PUSH2 0x2DC9 JUMP JUMPDEST POP PUSH1 0xC0 DUP3 ADD MLOAD DUP2 PUSH1 0x6 ADD SWAP1 DUP1 MLOAD SWAP1 PUSH1 0x20 ADD SWAP1 PUSH2 0x10AC SWAP3 SWAP2 SWAP1 PUSH2 0x2DC9 JUMP JUMPDEST POP PUSH1 0xE0 DUP3 ADD MLOAD DUP2 PUSH1 0x7 ADD SSTORE SWAP1 POP POP PUSH1 0x0 DUP1 DUP2 SLOAD DUP1 SWAP3 SWAP2 SWAP1 PUSH2 0x10CC SWAP1 PUSH2 0x3F35 JUMP JUMPDEST SWAP2 SWAP1 POP SSTORE POP POP POP POP JUMP JUMPDEST PUSH1 0x60 PUSH1 0x0 DUP1 JUMPDEST PUSH1 0x6 SLOAD DUP2 LT ISZERO PUSH2 0x1126 JUMPI DUP4 PUSH1 0x10 PUSH1 0x0 DUP4 DUP2 MSTORE PUSH1 0x20 ADD SWAP1 DUP2 MSTORE PUSH1 0x20 ADD PUSH1 0x0 KECCAK256 PUSH1 0x2 ADD SLOAD EQ ISZERO PUSH2 0x1113 JUMPI DUP2 DUP1 PUSH2 0x110F SWAP1 PUSH2 0x3F35 JUMP JUMPDEST SWAP3 POP POP JUMPDEST DUP1 DUP1 PUSH2 0x111E SWAP1 PUSH2 0x3F35 JUMP JUMPDEST SWAP2 POP POP PUSH2 0x10DC JUMP JUMPDEST POP PUSH1 0x0 DUP2 PUSH8 0xFFFFFFFFFFFFFFFF DUP2 GT ISZERO PUSH2 0x1143 JUMPI PUSH2 0x1142 PUSH2 0x403A JUMP JUMPDEST JUMPDEST PUSH1 0x40 MLOAD SWAP1 DUP1 DUP3 MSTORE DUP1 PUSH1 0x20 MUL PUSH1 0x20 ADD DUP3 ADD PUSH1 0x40 MSTORE DUP1 ISZERO PUSH2 0x1171 JUMPI DUP2 PUSH1 0x20 ADD PUSH1 0x20 DUP3 MUL DUP1 CALLDATASIZE DUP4 CALLDATACOPY DUP1 DUP3 ADD SWAP2 POP POP SWAP1 POP JUMPDEST POP SWAP1 POP PUSH1 0x0 DUP1 JUMPDEST PUSH1 0x6 SLOAD DUP2 LT ISZERO PUSH2 0x11E2 JUMPI DUP6 PUSH1 0x10 PUSH1 0x0 DUP4 DUP2 MSTORE PUSH1 0x20 ADD SWAP1 DUP2 MSTORE PUSH1 0x20 ADD PUSH1 0x0 KECCAK256 PUSH1 0x2 ADD SLOAD EQ ISZERO PUSH2 0x11CF JUMPI DUP1 DUP4 DUP4 DUP2 MLOAD DUP2 LT PUSH2 0x11B4 JUMPI PUSH2 0x11B3 PUSH2 0x400B JUMP JUMPDEST JUMPDEST PUSH1 0x20 MUL PUSH1 0x20 ADD ADD DUP2 DUP2 MSTORE POP POP DUP2 DUP1 PUSH2 0x11CB SWAP1 PUSH2 0x3F35 JUMP JUMPDEST SWAP3 POP POP JUMPDEST DUP1 DUP1 PUSH2 0x11DA SWAP1 PUSH2 0x3F35 JUMP JUMPDEST SWAP2 POP POP PUSH2 0x1178 JUMP JUMPDEST POP DUP2 SWAP4 POP POP POP POP SWAP2 SWAP1 POP JUMP JUMPDEST PUSH1 0x40 MLOAD DUP1 PUSH1 0x40 ADD PUSH1 0x40 MSTORE DUP1 DUP4 DUP2 MSTORE PUSH1 0x20 ADD DUP3 DUP2 MSTORE POP PUSH1 0xB PUSH1 0x0 PUSH1 0x3 SLOAD DUP2 MSTORE PUSH1 0x20 ADD SWAP1 DUP2 MSTORE PUSH1 0x20 ADD PUSH1 0x0 KECCAK256 PUSH1 0x0 DUP3 ADD MLOAD DUP2 PUSH1 0x0 ADD SWAP1 DUP1 MLOAD SWAP1 PUSH1 0x20 ADD SWAP1 PUSH2 0x1234 SWAP3 SWAP2 SWAP1 PUSH2 0x2DC9 JUMP JUMPDEST POP PUSH1 0x20 DUP3 ADD MLOAD DUP2 PUSH1 0x1 ADD SWAP1 DUP1 MLOAD SWAP1 PUSH1 0x20 ADD SWAP1 PUSH2 0x1251 SWAP3 SWAP2 SWAP1 PUSH2 0x2DC9 JUMP JUMPDEST POP SWAP1 POP POP PUSH1 0x3 PUSH1 0x0 DUP2 SLOAD DUP1 SWAP3 SWAP2 SWAP1 PUSH2 0x1268 SWAP1 PUSH2 0x3F35 JUMP JUMPDEST SWAP2 SWAP1 POP SSTORE POP POP POP JUMP JUMPDEST DUP4 PUSH1 0x8 PUSH1 0x0 DUP8 DUP2 MSTORE PUSH1 0x20 ADD SWAP1 DUP2 MSTORE PUSH1 0x20 ADD PUSH1 0x0 KECCAK256 PUSH1 0x2 ADD SWAP1 DUP1 MLOAD SWAP1 PUSH1 0x20 ADD SWAP1 PUSH2 0x129B SWAP3 SWAP2 SWAP1 PUSH2 0x2DC9 JUMP JUMPDEST POP DUP3 PUSH1 0x8 PUSH1 0x0 DUP8 DUP2 MSTORE PUSH1 0x20 ADD SWAP1 DUP2 MSTORE PUSH1 0x20 ADD PUSH1 0x0 KECCAK256 PUSH1 0x3 ADD SWAP1 DUP1 MLOAD SWAP1 PUSH1 0x20 ADD SWAP1 PUSH2 0x12C6 SWAP3 SWAP2 SWAP1 PUSH2 0x2DC9 JUMP JUMPDEST POP DUP2 PUSH1 0x8 PUSH1 0x0 DUP8 DUP2 MSTORE PUSH1 0x20 ADD SWAP1 DUP2 MSTORE PUSH1 0x20 ADD PUSH1 0x0 KECCAK256 PUSH1 0x4 ADD SWAP1 DUP1 MLOAD SWAP1 PUSH1 0x20 ADD SWAP1 PUSH2 0x12F1 SWAP3 SWAP2 SWAP1 PUSH2 0x2DC9 JUMP JUMPDEST POP DUP1 PUSH1 0x8 PUSH1 0x0 DUP8 DUP2 MSTORE PUSH1 0x20 ADD SWAP1 DUP2 MSTORE PUSH1 0x20 ADD PUSH1 0x0 KECCAK256 PUSH1 0x7 ADD DUP2 SWAP1 SSTORE POP POP POP POP POP POP JUMP JUMPDEST DUP4 PUSH1 0xA PUSH1 0x0 DUP8 DUP2 MSTORE PUSH1 0x20 ADD SWAP1 DUP2 MSTORE PUSH1 0x20 ADD PUSH1 0x0 KECCAK256 PUSH1 0x3 ADD SWAP1 DUP1 MLOAD SWAP1 PUSH1 0x20 ADD SWAP1 PUSH2 0x133E SWAP3 SWAP2 SWAP1 PUSH2 0x2DC9 JUMP JUMPDEST POP DUP3 PUSH1 0xA PUSH1 0x0 DUP8 DUP2 MSTORE PUSH1 0x20 ADD SWAP1 DUP2 MSTORE PUSH1 0x20 ADD PUSH1 0x0 KECCAK256 PUSH1 0x4 ADD SWAP1 DUP1 MLOAD SWAP1 PUSH1 0x20 ADD SWAP1 PUSH2 0x1369 SWAP3 SWAP2 SWAP1 PUSH2 0x2DC9 JUMP JUMPDEST POP DUP2 PUSH1 0xA PUSH1 0x0 DUP8 DUP2 MSTORE PUSH1 0x20 ADD SWAP1 DUP2 MSTORE PUSH1 0x20 ADD PUSH1 0x0 KECCAK256 PUSH1 0x6 ADD SWAP1 DUP1 MLOAD SWAP1 PUSH1 0x20 ADD SWAP1 PUSH2 0x1394 SWAP3 SWAP2 SWAP1 PUSH2 0x2DC9 JUMP JUMPDEST POP DUP1 PUSH1 0xA PUSH1 0x0 DUP8 DUP2 MSTORE PUSH1 0x20 ADD SWAP1 DUP2 MSTORE PUSH1 0x20 ADD PUSH1 0x0 KECCAK256 PUSH1 0x7 ADD DUP2 SWAP1 SSTORE POP POP POP POP POP POP JUMP JUMPDEST DUP1 PUSH1 0xC PUSH1 0x0 DUP5 DUP2 MSTORE PUSH1 0x20 ADD SWAP1 DUP2 MSTORE PUSH1 0x20 ADD PUSH1 0x0 KECCAK256 SWAP1 DUP1 MLOAD SWAP1 PUSH1 0x20 ADD SWAP1 PUSH2 0x13DE SWAP3 SWAP2 SWAP1 PUSH2 0x2DC9 JUMP JUMPDEST POP POP POP JUMP JUMPDEST PUSH1 0x60 PUSH1 0x0 DUP1 JUMPDEST PUSH1 0x2 SLOAD DUP2 LT ISZERO PUSH2 0x1433 JUMPI DUP4 PUSH1 0xA PUSH1 0x0 DUP4 DUP2 MSTORE PUSH1 0x20 ADD SWAP1 DUP2 MSTORE PUSH1 0x20 ADD PUSH1 0x0 KECCAK256 PUSH1 0x1 ADD SLOAD EQ ISZERO PUSH2 0x1420 JUMPI DUP2 DUP1 PUSH2 0x141C SWAP1 PUSH2 0x3F35 JUMP JUMPDEST SWAP3 POP POP JUMPDEST DUP1 DUP1 PUSH2 0x142B SWAP1 PUSH2 0x3F35 JUMP JUMPDEST SWAP2 POP POP PUSH2 0x13E9 JUMP JUMPDEST POP PUSH1 0x0 DUP2 PUSH8 0xFFFFFFFFFFFFFFFF DUP2 GT ISZERO PUSH2 0x1450 JUMPI PUSH2 0x144F PUSH2 0x403A JUMP JUMPDEST JUMPDEST PUSH1 0x40 MLOAD SWAP1 DUP1 DUP3 MSTORE DUP1 PUSH1 0x20 MUL PUSH1 0x20 ADD DUP3 ADD PUSH1 0x40 MSTORE DUP1 ISZERO PUSH2 0x147E JUMPI DUP2 PUSH1 0x20 ADD PUSH1 0x20 DUP3 MUL DUP1 CALLDATASIZE DUP4 CALLDATACOPY DUP1 DUP3 ADD SWAP2 POP POP SWAP1 POP JUMPDEST POP SWAP1 POP PUSH1 0x0 DUP1 JUMPDEST PUSH1 0x2 SLOAD DUP2 LT ISZERO PUSH2 0x14EF JUMPI DUP6 PUSH1 0xA PUSH1 0x0 DUP4 DUP2 MSTORE PUSH1 0x20 ADD SWAP1 DUP2 MSTORE PUSH1 0x20 ADD PUSH1 0x0 KECCAK256 PUSH1 0x1 ADD SLOAD EQ ISZERO PUSH2 0x14DC JUMPI DUP1 DUP4 DUP4 DUP2 MLOAD DUP2 LT PUSH2 0x14C1 JUMPI PUSH2 0x14C0 PUSH2 0x400B JUMP JUMPDEST JUMPDEST PUSH1 0x20 MUL PUSH1 0x20 ADD ADD DUP2 DUP2 MSTORE POP POP DUP2 DUP1 PUSH2 0x14D8 SWAP1 PUSH2 0x3F35 JUMP JUMPDEST SWAP3 POP POP JUMPDEST DUP1 DUP1 PUSH2 0x14E7 SWAP1 PUSH2 0x3F35 JUMP JUMPDEST SWAP2 POP POP PUSH2 0x1485 JUMP JUMPDEST POP DUP2 SWAP4 POP POP POP POP SWAP2 SWAP1 POP JUMP JUMPDEST PUSH1 0x40 MLOAD DUP1 PUSH1 0xA0 ADD PUSH1 0x40 MSTORE DUP1 PUSH1 0x6 SLOAD DUP2 MSTORE PUSH1 0x20 ADD DUP3 DUP2 MSTORE PUSH1 0x20 ADD DUP5 DUP2 MSTORE PUSH1 0x20 ADD DUP6 DUP2 MSTORE PUSH1 0x20 ADD DUP4 DUP2 MSTORE POP PUSH1 0x10 PUSH1 0x0 PUSH1 0x6 SLOAD DUP2 MSTORE PUSH1 0x20 ADD SWAP1 DUP2 MSTORE PUSH1 0x20 ADD PUSH1 0x0 KECCAK256 PUSH1 0x0 DUP3 ADD MLOAD DUP2 PUSH1 0x0 ADD SSTORE PUSH1 0x20 DUP3 ADD MLOAD DUP2 PUSH1 0x1 ADD SSTORE PUSH1 0x40 DUP3 ADD MLOAD DUP2 PUSH1 0x2 ADD SSTORE PUSH1 0x60 DUP3 ADD MLOAD DUP2 PUSH1 0x3 ADD SSTORE PUSH1 0x80 DUP3 ADD MLOAD DUP2 PUSH1 0x4 ADD SWAP1 DUP1 MLOAD SWAP1 PUSH1 0x20 ADD SWAP1 PUSH2 0x157D SWAP3 SWAP2 SWAP1 PUSH2 0x2DC9 JUMP JUMPDEST POP SWAP1 POP POP PUSH1 0x1 PUSH1 0xA PUSH1 0x0 DUP7 DUP2 MSTORE PUSH1 0x20 ADD SWAP1 DUP2 MSTORE PUSH1 0x20 ADD PUSH1 0x0 KECCAK256 PUSH1 0x8 ADD PUSH1 0x0 DUP3 DUP3 SLOAD PUSH2 0x15A8 SWAP2 SWAP1 PUSH2 0x3DCA JUMP JUMPDEST SWAP3 POP POP DUP2 SWAP1 SSTORE POP DUP2 PUSH1 0xA PUSH1 0x0 DUP7 DUP2 MSTORE PUSH1 0x20 ADD SWAP1 DUP2 MSTORE PUSH1 0x20 ADD PUSH1 0x0 KECCAK256 PUSH1 0x5 ADD SWAP1 DUP1 MLOAD SWAP1 PUSH1 0x20 ADD SWAP1 PUSH2 0x15D9 SWAP3 SWAP2 SWAP1 PUSH2 0x2DC9 JUMP JUMPDEST POP PUSH1 0x6 PUSH1 0x0 DUP2 SLOAD DUP1 SWAP3 SWAP2 SWAP1 PUSH2 0x15ED SWAP1 PUSH2 0x3F35 JUMP JUMPDEST SWAP2 SWAP1 POP SSTORE POP POP POP POP POP JUMP JUMPDEST PUSH1 0x11 PUSH1 0x0 SWAP1 SLOAD SWAP1 PUSH2 0x100 EXP SWAP1 DIV PUSH20 0xFFFFFFFFFFFFFFFFFFFFFFFFFFFFFFFFFFFFFFFF AND DUP2 JUMP JUMPDEST PUSH1 0x60 PUSH1 0x0 JUMPDEST PUSH1 0x4 SLOAD DUP2 LT ISZERO PUSH2 0x1685 JUMPI DUP3 PUSH1 0xE PUSH1 0x0 DUP4 DUP2 MSTORE PUSH1 0x20 ADD SWAP1 DUP2 MSTORE PUSH1 0x20 ADD PUSH1 0x0 KECCAK256 PUSH1 0x2 ADD SLOAD EQ ISZERO PUSH2 0x1672 JUMPI PUSH2 0x166A PUSH1 0xE PUSH1 0x0 DUP4 DUP2 MSTORE PUSH1 0x20 ADD SWAP1 DUP2 MSTORE PUSH1 0x20 ADD PUSH1 0x0 KECCAK256 PUSH1 0x1 ADD SLOAD PUSH2 0x2B9E JUMP JUMPDEST SWAP2 POP POP PUSH2 0x16BF JUMP JUMPDEST DUP1 DUP1 PUSH2 0x167D SWAP1 PUSH2 0x3F35 JUMP JUMPDEST SWAP2 POP POP PUSH2 0x1623 JUMP JUMPDEST POP PUSH1 0x40 MLOAD DUP1 PUSH1 0x40 ADD PUSH1 0x40 MSTORE DUP1 PUSH1 0x5 DUP2 MSTORE PUSH1 0x20 ADD PUSH32 0x46616C7365000000000000000000000000000000000000000000000000000000 DUP2 MSTORE POP SWAP1 POP JUMPDEST SWAP2 SWAP1 POP JUMP JUMPDEST PUSH1 0x10 PUSH1 0x20 MSTORE DUP1 PUSH1 0x0 MSTORE PUSH1 0x40 PUSH1 0x0 KECCAK256 PUSH1 0x0 SWAP2 POP SWAP1 POP DUP1 PUSH1 0x0 ADD SLOAD SWAP1 DUP1 PUSH1 0x1 ADD SLOAD SWAP1 DUP1 PUSH1 0x2 ADD SLOAD SWAP1 DUP1 PUSH1 0x3 ADD SLOAD SWAP1 DUP1 PUSH1 0x4 ADD DUP1 SLOAD PUSH2 0x16FF SWAP1 PUSH2 0x3ED2 JUMP JUMPDEST DUP1 PUSH1 0x1F ADD PUSH1 0x20 DUP1 SWAP2 DIV MUL PUSH1 0x20 ADD PUSH1 0x40 MLOAD SWAP1 DUP2 ADD PUSH1 0x40 MSTORE DUP1 SWAP3 SWAP2 SWAP1 DUP2 DUP2 MSTORE PUSH1 0x20 ADD DUP3 DUP1 SLOAD PUSH2 0x172B SWAP1 PUSH2 0x3ED2 JUMP JUMPDEST DUP1 ISZERO PUSH2 0x1778 JUMPI DUP1 PUSH1 0x1F LT PUSH2 0x174D JUMPI PUSH2 0x100 DUP1 DUP4 SLOAD DIV MUL DUP4 MSTORE SWAP2 PUSH1 0x20 ADD SWAP2 PUSH2 0x1778 JUMP JUMPDEST DUP3 ADD SWAP2 SWAP1 PUSH1 0x0 MSTORE PUSH1 0x20 PUSH1 0x0 KECCAK256 SWAP1 JUMPDEST DUP2 SLOAD DUP2 MSTORE SWAP1 PUSH1 0x1 ADD SWAP1 PUSH1 0x20 ADD DUP1 DUP4 GT PUSH2 0x175B JUMPI DUP3 SWAP1 SUB PUSH1 0x1F AND DUP3 ADD SWAP2 JUMPDEST POP POP POP POP POP SWAP1 POP DUP6 JUMP JUMPDEST PUSH1 0x40 MLOAD DUP1 PUSH1 0x80 ADD PUSH1 0x40 MSTORE DUP1 PUSH1 0x4 SLOAD DUP2 MSTORE PUSH1 0x20 ADD DUP5 DUP2 MSTORE PUSH1 0x20 ADD DUP4 DUP2 MSTORE PUSH1 0x20 ADD DUP3 DUP2 MSTORE POP PUSH1 0xE PUSH1 0x0 PUSH1 0x4 SLOAD DUP2 MSTORE PUSH1 0x20 ADD SWAP1 DUP2 MSTORE PUSH1 0x20 ADD PUSH1 0x0 KECCAK256 PUSH1 0x0 DUP3 ADD MLOAD DUP2 PUSH1 0x0 ADD SSTORE PUSH1 0x20 DUP3 ADD MLOAD DUP2 PUSH1 0x1 ADD SSTORE PUSH1 0x40 DUP3 ADD MLOAD DUP2 PUSH1 0x2 ADD SSTORE PUSH1 0x60 DUP3 ADD MLOAD DUP2 PUSH1 0x3 ADD SWAP1 DUP1 MLOAD SWAP1 PUSH1 0x20 ADD SWAP1 PUSH2 0x17F4 SWAP3 SWAP2 SWAP1 PUSH2 0x2DC9 JUMP JUMPDEST POP SWAP1 POP POP PUSH1 0x1 PUSH1 0x8 PUSH1 0x0 DUP6 DUP2 MSTORE PUSH1 0x20 ADD SWAP1 DUP2 MSTORE PUSH1 0x20 ADD PUSH1 0x0 KECCAK256 PUSH1 0x5 ADD PUSH1 0x0 DUP3 DUP3 SLOAD PUSH2 0x181F SWAP2 SWAP1 PUSH2 0x3DCA JUMP JUMPDEST SWAP3 POP POP DUP2 SWAP1 SSTORE POP PUSH1 0x4 PUSH1 0x0 DUP2 SLOAD DUP1 SWAP3 SWAP2 SWAP1 PUSH2 0x1839 SWAP1 PUSH2 0x3F35 JUMP JUMPDEST SWAP2 SWAP1 POP SSTORE POP POP POP POP JUMP JUMPDEST DUP4 PUSH1 0xD PUSH1 0x0 DUP7 DUP2 MSTORE PUSH1 0x20 ADD SWAP1 DUP2 MSTORE PUSH1 0x20 ADD PUSH1 0x0 KECCAK256 PUSH1 0x0 ADD DUP2 SWAP1 SSTORE POP DUP3 PUSH1 0xD PUSH1 0x0 DUP7 DUP2 MSTORE PUSH1 0x20 ADD SWAP1 DUP2 MSTORE PUSH1 0x20 ADD PUSH1 0x0 KECCAK256 PUSH1 0x1 ADD SWAP1 DUP1 MLOAD SWAP1 PUSH1 0x20 ADD SWAP1 PUSH2 0x1888 SWAP3 SWAP2 SWAP1 PUSH2 0x2DC9 JUMP JUMPDEST POP DUP2 PUSH1 0xD PUSH1 0x0 DUP7 DUP2 MSTORE PUSH1 0x20 ADD SWAP1 DUP2 MSTORE PUSH1 0x20 ADD PUSH1 0x0 KECCAK256 PUSH1 0x2 ADD SWAP1 DUP1 MLOAD SWAP1 PUSH1 0x20 ADD SWAP1 PUSH2 0x18B3 SWAP3 SWAP2 SWAP1 PUSH2 0x2DC9 JUMP JUMPDEST POP DUP1 PUSH1 0xD PUSH1 0x0 DUP7 DUP2 MSTORE PUSH1 0x20 ADD SWAP1 DUP2 MSTORE PUSH1 0x20 ADD PUSH1 0x0 KECCAK256 PUSH1 0x3 ADD SWAP1 DUP1 MLOAD SWAP1 PUSH1 0x20 ADD SWAP1 PUSH2 0x18DE SWAP3 SWAP2 SWAP1 PUSH2 0x2DC9 JUMP JUMPDEST POP POP POP POP POP JUMP JUMPDEST PUSH1 0x1 SLOAD DUP2 JUMP JUMPDEST DUP1 PUSH1 0x9 PUSH1 0x0 DUP5 DUP2 MSTORE PUSH1 0x20 ADD SWAP1 DUP2 MSTORE PUSH1 0x20 ADD PUSH1 0x0 KECCAK256 SWAP1 DUP1 MLOAD SWAP1 PUSH1 0x20 ADD SWAP1 PUSH2 0x1912 SWAP3 SWAP2 SWAP1 PUSH2 0x2DC9 JUMP JUMPDEST POP POP POP JUMP JUMPDEST PUSH1 0x0 JUMPDEST PUSH1 0x0 SLOAD DUP2 LT ISZERO PUSH2 0x19D4 JUMPI PUSH1 0x7 PUSH1 0x0 DUP3 DUP2 MSTORE PUSH1 0x20 ADD SWAP1 DUP2 MSTORE PUSH1 0x20 ADD PUSH1 0x0 KECCAK256 PUSH1 0x0 DUP1 DUP3 ADD PUSH1 0x0 SWAP1 SSTORE PUSH1 0x1 DUP3 ADD PUSH1 0x0 PUSH2 0x1950 SWAP2 SWAP1 PUSH2 0x2E4F JUMP JUMPDEST PUSH1 0x2 DUP3 ADD PUSH1 0x0 PUSH2 0x1960 SWAP2 SWAP1 PUSH2 0x2E4F JUMP JUMPDEST PUSH1 0x3 DUP3 ADD PUSH1 0x0 PUSH2 0x1970 SWAP2 SWAP1 PUSH2 0x2E4F JUMP JUMPDEST PUSH1 0x4 DUP3 ADD PUSH1 0x0 PUSH2 0x100 EXP DUP2 SLOAD SWAP1 PUSH20 0xFFFFFFFFFFFFFFFFFFFFFFFFFFFFFFFFFFFFFFFF MUL NOT AND SWAP1 SSTORE PUSH1 0x5 DUP3 ADD PUSH1 0x0 PUSH2 0x19A7 SWAP2 SWAP1 PUSH2 0x2E4F JUMP JUMPDEST PUSH1 0x6 DUP3 ADD PUSH1 0x0 PUSH2 0x19B7 SWAP2 SWAP1 PUSH2 0x2E4F JUMP JUMPDEST PUSH1 0x7 DUP3 ADD PUSH1 0x0 SWAP1 SSTORE POP POP DUP1 DUP1 PUSH2 0x19CC SWAP1 PUSH2 0x3F35 JUMP JUMPDEST SWAP2 POP POP PUSH2 0x191A JUMP JUMPDEST POP PUSH1 0x0 JUMPDEST PUSH1 0x1 SLOAD DUP2 LT ISZERO PUSH2 0x1A93 JUMPI PUSH1 0x8 PUSH1 0x0 DUP3 DUP2 MSTORE PUSH1 0x20 ADD SWAP1 DUP2 MSTORE PUSH1 0x20 ADD PUSH1 0x0 KECCAK256 PUSH1 0x0 DUP1 DUP3 ADD PUSH1 0x0 SWAP1 SSTORE PUSH1 0x1 DUP3 ADD PUSH1 0x0 SWAP1 SSTORE PUSH1 0x2 DUP3 ADD PUSH1 0x0 PUSH2 0x1A16 SWAP2 SWAP1 PUSH2 0x2E4F JUMP JUMPDEST PUSH1 0x3 DUP3 ADD PUSH1 0x0 PUSH2 0x1A26 SWAP2 SWAP1 PUSH2 0x2E4F JUMP JUMPDEST PUSH1 0x4 DUP3 ADD PUSH1 0x0 PUSH2 0x1A36 SWAP2 SWAP1 PUSH2 0x2E4F JUMP JUMPDEST PUSH1 0x5 DUP3 ADD PUSH1 0x0 SWAP1 SSTORE PUSH1 0x6 DUP3 ADD PUSH1 0x0 SWAP1 SSTORE PUSH1 0x7 DUP3 ADD PUSH1 0x0 SWAP1 SSTORE PUSH1 0x8 DUP3 ADD PUSH1 0x0 PUSH2 0x1A5E SWAP2 SWAP1 PUSH2 0x2E4F JUMP JUMPDEST PUSH1 0x9 DUP3 ADD PUSH1 0x0 PUSH2 0x1A6E SWAP2 SWAP1 PUSH2 0x2E4F JUMP JUMPDEST PUSH1 0xA DUP3 ADD PUSH1 0x0 SWAP1 SSTORE PUSH1 0xB DUP3 ADD PUSH1 0x0 SWAP1 SSTORE POP POP DUP1 DUP1 PUSH2 0x1A8B SWAP1 PUSH2 0x3F35 JUMP JUMPDEST SWAP2 POP POP PUSH2 0x19D8 JUMP JUMPDEST POP PUSH1 0x0 JUMPDEST PUSH1 0x1 SLOAD DUP2 LT ISZERO PUSH2 0x1AD3 JUMPI PUSH1 0x9 PUSH1 0x0 DUP3 DUP2 MSTORE PUSH1 0x20 ADD SWAP1 DUP2 MSTORE PUSH1 0x20 ADD PUSH1 0x0 KECCAK256 PUSH1 0x0 PUSH2 0x1AC0 SWAP2 SWAP1 PUSH2 0x2E4F JUMP JUMPDEST DUP1 DUP1 PUSH2 0x1ACB SWAP1 PUSH2 0x3F35 JUMP JUMPDEST SWAP2 POP POP PUSH2 0x1A97 JUMP JUMPDEST POP PUSH1 0x0 JUMPDEST PUSH1 0x2 SLOAD DUP2 LT ISZERO PUSH2 0x1B72 JUMPI PUSH1 0xA PUSH1 0x0 DUP3 DUP2 MSTORE PUSH1 0x20 ADD SWAP1 DUP2 MSTORE PUSH1 0x20 ADD PUSH1 0x0 KECCAK256 PUSH1 0x0 DUP1 DUP3 ADD PUSH1 0x0 SWAP1 SSTORE PUSH1 0x1 DUP3 ADD PUSH1 0x0 SWAP1 SSTORE PUSH1 0x2 DUP3 ADD PUSH1 0x0 SWAP1 SSTORE PUSH1 0x3 DUP3 ADD PUSH1 0x0 PUSH2 0x1B1D SWAP2 SWAP1 PUSH2 0x2E4F JUMP JUMPDEST PUSH1 0x4 DUP3 ADD PUSH1 0x0 PUSH2 0x1B2D SWAP2 SWAP1 PUSH2 0x2E4F JUMP JUMPDEST PUSH1 0x5 DUP3 ADD PUSH1 0x0 PUSH2 0x1B3D SWAP2 SWAP1 PUSH2 0x2E4F JUMP JUMPDEST PUSH1 0x6 DUP3 ADD PUSH1 0x0 PUSH2 0x1B4D SWAP2 SWAP1 PUSH2 0x2E4F JUMP JUMPDEST PUSH1 0x7 DUP3 ADD PUSH1 0x0 SWAP1 SSTORE PUSH1 0x8 DUP3 ADD PUSH1 0x0 SWAP1 SSTORE POP POP DUP1 DUP1 PUSH2 0x1B6A SWAP1 PUSH2 0x3F35 JUMP JUMPDEST SWAP2 POP POP PUSH2 0x1AD7 JUMP JUMPDEST POP PUSH1 0x0 JUMPDEST PUSH1 0x3 SLOAD DUP2 LT ISZERO PUSH2 0x1BC9 JUMPI PUSH1 0xB PUSH1 0x0 DUP3 DUP2 MSTORE PUSH1 0x20 ADD SWAP1 DUP2 MSTORE PUSH1 0x20 ADD PUSH1 0x0 KECCAK256 PUSH1 0x0 DUP1 DUP3 ADD PUSH1 0x0 PUSH2 0x1BA4 SWAP2 SWAP1 PUSH2 0x2E4F JUMP JUMPDEST PUSH1 0x1 DUP3 ADD PUSH1 0x0 PUSH2 0x1BB4 SWAP2 SWAP1 PUSH2 0x2E4F JUMP JUMPDEST POP POP DUP1 DUP1 PUSH2 0x1BC1 SWAP1 PUSH2 0x3F35 JUMP JUMPDEST SWAP2 POP POP PUSH2 0x1B76 JUMP JUMPDEST POP PUSH1 0x0 JUMPDEST PUSH1 0x1 SLOAD DUP2 LT ISZERO PUSH2 0x1C09 JUMPI PUSH1 0xC PUSH1 0x0 DUP3 DUP2 MSTORE PUSH1 0x20 ADD SWAP1 DUP2 MSTORE PUSH1 0x20 ADD PUSH1 0x0 KECCAK256 PUSH1 0x0 PUSH2 0x1BF6 SWAP2 SWAP1 PUSH2 0x2E4F JUMP JUMPDEST DUP1 DUP1 PUSH2 0x1C01 SWAP1 PUSH2 0x3F35 JUMP JUMPDEST SWAP2 POP POP PUSH2 0x1BCD JUMP JUMPDEST POP PUSH1 0x0 JUMPDEST PUSH1 0x0 SLOAD DUP2 LT ISZERO PUSH2 0x1C78 JUMPI PUSH1 0xD PUSH1 0x0 DUP3 DUP2 MSTORE PUSH1 0x20 ADD SWAP1 DUP2 MSTORE PUSH1 0x20 ADD PUSH1 0x0 KECCAK256 PUSH1 0x0 DUP1 DUP3 ADD PUSH1 0x0 SWAP1 SSTORE PUSH1 0x1 DUP3 ADD PUSH1 0x0 PUSH2 0x1C43 SWAP2 SWAP1 PUSH2 0x2E4F JUMP JUMPDEST PUSH1 0x2 DUP3 ADD PUSH1 0x0 PUSH2 0x1C53 SWAP2 SWAP1 PUSH2 0x2E4F JUMP JUMPDEST PUSH1 0x3 DUP3 ADD PUSH1 0x0 PUSH2 0x1C63 SWAP2 SWAP1 PUSH2 0x2E4F JUMP JUMPDEST POP POP DUP1 DUP1 PUSH2 0x1C70 SWAP1 PUSH2 0x3F35 JUMP JUMPDEST SWAP2 POP POP PUSH2 0x1C0D JUMP JUMPDEST POP PUSH1 0x0 JUMPDEST PUSH1 0x4 SLOAD DUP2 LT ISZERO PUSH2 0x1CD7 JUMPI PUSH1 0xE PUSH1 0x0 DUP3 DUP2 MSTORE PUSH1 0x20 ADD SWAP1 DUP2 MSTORE PUSH1 0x20 ADD PUSH1 0x0 KECCAK256 PUSH1 0x0 DUP1 DUP3 ADD PUSH1 0x0 SWAP1 SSTORE PUSH1 0x1 DUP3 ADD PUSH1 0x0 SWAP1 SSTORE PUSH1 0x2 DUP3 ADD PUSH1 0x0 SWAP1 SSTORE PUSH1 0x3 DUP3 ADD PUSH1 0x0 PUSH2 0x1CC2 SWAP2 SWAP1 PUSH2 0x2E4F JUMP JUMPDEST POP POP DUP1 DUP1 PUSH2 0x1CCF SWAP1 PUSH2 0x3F35 JUMP JUMPDEST SWAP2 POP POP PUSH2 0x1C7C JUMP JUMPDEST POP PUSH1 0x0 JUMPDEST PUSH1 0x5 SLOAD DUP2 LT ISZERO PUSH2 0x1D4E JUMPI PUSH1 0xF PUSH1 0x0 DUP3 DUP2 MSTORE PUSH1 0x20 ADD SWAP1 DUP2 MSTORE PUSH1 0x20 ADD PUSH1 0x0 KECCAK256 PUSH1 0x0 DUP1 DUP3 ADD PUSH1 0x0 SWAP1 SSTORE PUSH1 0x1 DUP3 ADD PUSH1 0x0 SWAP1 SSTORE PUSH1 0x2 DUP3 ADD PUSH1 0x0 SWAP1 SSTORE PUSH1 0x3 DUP3 ADD PUSH1 0x0 SWAP1 SSTORE PUSH1 0x4 DUP3 ADD PUSH1 0x0 SWAP1 SSTORE PUSH1 0x5 DUP3 ADD PUSH1 0x0 SWAP1 SSTORE PUSH1 0x6 DUP3 ADD PUSH1 0x0 PUSH2 0x1D39 SWAP2 SWAP1 PUSH2 0x2E4F JUMP JUMPDEST POP POP DUP1 DUP1 PUSH2 0x1D46 SWAP1 PUSH2 0x3F35 JUMP JUMPDEST SWAP2 POP POP PUSH2 0x1CDB JUMP JUMPDEST POP PUSH1 0x0 JUMPDEST PUSH1 0x6 SLOAD DUP2 LT ISZERO PUSH2 0x1DB5 JUMPI PUSH1 0x10 PUSH1 0x0 DUP3 DUP2 MSTORE PUSH1 0x20 ADD SWAP1 DUP2 MSTORE PUSH1 0x20 ADD PUSH1 0x0 KECCAK256 PUSH1 0x0 DUP1 DUP3 ADD PUSH1 0x0 SWAP1 SSTORE PUSH1 0x1 DUP3 ADD PUSH1 0x0 SWAP1 SSTORE PUSH1 0x2 DUP3 ADD PUSH1 0x0 SWAP1 SSTORE PUSH1 0x3 DUP3 ADD PUSH1 0x0 SWAP1 SSTORE PUSH1 0x4 DUP3 ADD PUSH1 0x0 PUSH2 0x1DA0 SWAP2 SWAP1 PUSH2 0x2E4F JUMP JUMPDEST POP POP DUP1 DUP1 PUSH2 0x1DAD SWAP1 PUSH2 0x3F35 JUMP JUMPDEST SWAP2 POP POP PUSH2 0x1D52 JUMP JUMPDEST POP PUSH1 0x0 DUP1 DUP2 SWAP1 SSTORE POP PUSH1 0x0 PUSH1 0x1 DUP2 SWAP1 SSTORE POP PUSH1 0x0 PUSH1 0x2 DUP2 SWAP1 SSTORE POP PUSH1 0x0 PUSH1 0x3 DUP2 SWAP1 SSTORE POP PUSH1 0x0 PUSH1 0x4 DUP2 SWAP1 SSTORE POP PUSH1 0x0 PUSH1 0x5 DUP2 SWAP1 SSTORE POP PUSH1 0x0 PUSH1 0x6 DUP2 SWAP1 SSTORE POP JUMP JUMPDEST PUSH1 0x6 SLOAD DUP2 JUMP JUMPDEST PUSH1 0x8 PUSH1 0x20 MSTORE DUP1 PUSH1 0x0 MSTORE PUSH1 0x40 PUSH1 0x0 KECCAK256 PUSH1 0x0 SWAP2 POP SWAP1 POP DUP1 PUSH1 0x0 ADD SLOAD SWAP1 DUP1 PUSH1 0x1 ADD SLOAD SWAP1 DUP1 PUSH1 0x2 ADD DUP1 SLOAD PUSH2 0x1E24 SWAP1 PUSH2 0x3ED2 JUMP JUMPDEST DUP1 PUSH1 0x1F ADD PUSH1 0x20 DUP1 SWAP2 DIV MUL PUSH1 0x20 ADD PUSH1 0x40 MLOAD SWAP1 DUP2 ADD PUSH1 0x40 MSTORE DUP1 SWAP3 SWAP2 SWAP1 DUP2 DUP2 MSTORE PUSH1 0x20 ADD DUP3 DUP1 SLOAD PUSH2 0x1E50 SWAP1 PUSH2 0x3ED2 JUMP JUMPDEST DUP1 ISZERO PUSH2 0x1E9D JUMPI DUP1 PUSH1 0x1F LT PUSH2 0x1E72 JUMPI PUSH2 0x100 DUP1 DUP4 SLOAD DIV MUL DUP4 MSTORE SWAP2 PUSH1 0x20 ADD SWAP2 PUSH2 0x1E9D JUMP JUMPDEST DUP3 ADD SWAP2 SWAP1 PUSH1 0x0 MSTORE PUSH1 0x20 PUSH1 0x0 KECCAK256 SWAP1 JUMPDEST DUP2 SLOAD DUP2 MSTORE SWAP1 PUSH1 0x1 ADD SWAP1 PUSH1 0x20 ADD DUP1 DUP4 GT PUSH2 0x1E80 JUMPI DUP3 SWAP1 SUB PUSH1 0x1F AND DUP3 ADD SWAP2 JUMPDEST POP POP POP POP POP SWAP1 DUP1 PUSH1 0x3 ADD DUP1 SLOAD PUSH2 0x1EB2 SWAP1 PUSH2 0x3ED2 JUMP JUMPDEST DUP1 PUSH1 0x1F ADD PUSH1 0x20 DUP1 SWAP2 DIV MUL PUSH1 0x20 ADD PUSH1 0x40 MLOAD SWAP1 DUP2 ADD PUSH1 0x40 MSTORE DUP1 SWAP3 SWAP2 SWAP1 DUP2 DUP2 MSTORE PUSH1 0x20 ADD DUP3 DUP1 SLOAD PUSH2 0x1EDE SWAP1 PUSH2 0x3ED2 JUMP JUMPDEST DUP1 ISZERO PUSH2 0x1F2B JUMPI DUP1 PUSH1 0x1F LT PUSH2 0x1F00 JUMPI PUSH2 0x100 DUP1 DUP4 SLOAD DIV MUL DUP4 MSTORE SWAP2 PUSH1 0x20 ADD SWAP2 PUSH2 0x1F2B JUMP JUMPDEST DUP3 ADD SWAP2 SWAP1 PUSH1 0x0 MSTORE PUSH1 0x20 PUSH1 0x0 KECCAK256 SWAP1 JUMPDEST DUP2 SLOAD DUP2 MSTORE SWAP1 PUSH1 0x1 ADD SWAP1 PUSH1 0x20 ADD DUP1 DUP4 GT PUSH2 0x1F0E JUMPI DUP3 SWAP1 SUB PUSH1 0x1F AND DUP3 ADD SWAP2 JUMPDEST POP POP POP POP POP SWAP1 DUP1 PUSH1 0x4 ADD DUP1 SLOAD PUSH2 0x1F40 SWAP1 PUSH2 0x3ED2 JUMP JUMPDEST DUP1 PUSH1 0x1F ADD PUSH1 0x20 DUP1 SWAP2 DIV MUL PUSH1 0x20 ADD PUSH1 0x40 MLOAD SWAP1 DUP2 ADD PUSH1 0x40 MSTORE DUP1 SWAP3 SWAP2 SWAP1 DUP2 DUP2 MSTORE PUSH1 0x20 ADD DUP3 DUP1 SLOAD PUSH2 0x1F6C SWAP1 PUSH2 0x3ED2 JUMP JUMPDEST DUP1 ISZERO PUSH2 0x1FB9 JUMPI DUP1 PUSH1 0x1F LT PUSH2 0x1F8E JUMPI PUSH2 0x100 DUP1 DUP4 SLOAD DIV MUL DUP4 MSTORE SWAP2 PUSH1 0x20 ADD SWAP2 PUSH2 0x1FB9 JUMP JUMPDEST DUP3 ADD SWAP2 SWAP1 PUSH1 0x0 MSTORE PUSH1 0x20 PUSH1 0x0 KECCAK256 SWAP1 JUMPDEST DUP2 SLOAD DUP2 MSTORE SWAP1 PUSH1 0x1 ADD SWAP1 PUSH1 0x20 ADD DUP1 DUP4 GT PUSH2 0x1F9C JUMPI DUP3 SWAP1 SUB PUSH1 0x1F AND DUP3 ADD SWAP2 JUMPDEST POP POP POP POP POP SWAP1 DUP1 PUSH1 0x5 ADD SLOAD SWAP1 DUP1 PUSH1 0x6 ADD SLOAD SWAP1 DUP1 PUSH1 0x7 ADD SLOAD SWAP1 DUP1 PUSH1 0x8 ADD DUP1 SLOAD PUSH2 0x1FE0 SWAP1 PUSH2 0x3ED2 JUMP JUMPDEST DUP1 PUSH1 0x1F ADD PUSH1 0x20 DUP1 SWAP2 DIV MUL PUSH1 0x20 ADD PUSH1 0x40 MLOAD SWAP1 DUP2 ADD PUSH1 0x40 MSTORE DUP1 SWAP3 SWAP2 SWAP1 DUP2 DUP2 MSTORE PUSH1 0x20 ADD DUP3 DUP1 SLOAD PUSH2 0x200C SWAP1 PUSH2 0x3ED2 JUMP JUMPDEST DUP1 ISZERO PUSH2 0x2059 JUMPI DUP1 PUSH1 0x1F LT PUSH2 0x202E JUMPI PUSH2 0x100 DUP1 DUP4 SLOAD DIV MUL DUP4 MSTORE SWAP2 PUSH1 0x20 ADD SWAP2 PUSH2 0x2059 JUMP JUMPDEST DUP3 ADD SWAP2 SWAP1 PUSH1 0x0 MSTORE PUSH1 0x20 PUSH1 0x0 KECCAK256 SWAP1 JUMPDEST DUP2 SLOAD DUP2 MSTORE SWAP1 PUSH1 0x1 ADD SWAP1 PUSH1 0x20 ADD DUP1 DUP4 GT PUSH2 0x203C JUMPI DUP3 SWAP1 SUB PUSH1 0x1F AND DUP3 ADD SWAP2 JUMPDEST POP POP POP POP POP SWAP1 DUP1 PUSH1 0x9 ADD DUP1 SLOAD PUSH2 0x206E SWAP1 PUSH2 0x3ED2 JUMP JUMPDEST DUP1 PUSH1 0x1F ADD PUSH1 0x20 DUP1 SWAP2 DIV MUL PUSH1 0x20 ADD PUSH1 0x40 MLOAD SWAP1 DUP2 ADD PUSH1 0x40 MSTORE DUP1 SWAP3 SWAP2 SWAP1 DUP2 DUP2 MSTORE PUSH1 0x20 ADD DUP3 DUP1 SLOAD PUSH2 0x209A SWAP1 PUSH2 0x3ED2 JUMP JUMPDEST DUP1 ISZERO PUSH2 0x20E7 JUMPI DUP1 PUSH1 0x1F LT PUSH2 0x20BC JUMPI PUSH2 0x100 DUP1 DUP4 SLOAD DIV MUL DUP4 MSTORE SWAP2 PUSH1 0x20 ADD SWAP2 PUSH2 0x20E7 JUMP JUMPDEST DUP3 ADD SWAP2 SWAP1 PUSH1 0x0 MSTORE PUSH1 0x20 PUSH1 0x0 KECCAK256 SWAP1 JUMPDEST DUP2 SLOAD DUP2 MSTORE SWAP1 PUSH1 0x1 ADD SWAP1 PUSH1 0x20 ADD DUP1 DUP4 GT PUSH2 0x20CA JUMPI DUP3 SWAP1 SUB PUSH1 0x1F AND DUP3 ADD SWAP2 JUMPDEST POP POP POP POP POP SWAP1 DUP1 PUSH1 0xA ADD SLOAD SWAP1 DUP1 PUSH1 0xB ADD SLOAD SWAP1 POP DUP13 JUMP JUMPDEST PUSH1 0xF PUSH1 0x20 MSTORE DUP1 PUSH1 0x0 MSTORE PUSH1 0x40 PUSH1 0x0 KECCAK256 PUSH1 0x0 SWAP2 POP SWAP1 POP DUP1 PUSH1 0x0 ADD SLOAD SWAP1 DUP1 PUSH1 0x1 ADD SLOAD SWAP1 DUP1 PUSH1 0x2 ADD SLOAD SWAP1 DUP1 PUSH1 0x3 ADD SLOAD SWAP1 DUP1 PUSH1 0x4 ADD SLOAD SWAP1 DUP1 PUSH1 0x5 ADD SLOAD SWAP1 DUP1 PUSH1 0x6 ADD DUP1 SLOAD PUSH2 0x2144 SWAP1 PUSH2 0x3ED2 JUMP JUMPDEST DUP1 PUSH1 0x1F ADD PUSH1 0x20 DUP1 SWAP2 DIV MUL PUSH1 0x20 ADD PUSH1 0x40 MLOAD SWAP1 DUP2 ADD PUSH1 0x40 MSTORE DUP1 SWAP3 SWAP2 SWAP1 DUP2 DUP2 MSTORE PUSH1 0x20 ADD DUP3 DUP1 SLOAD PUSH2 0x2170 SWAP1 PUSH2 0x3ED2 JUMP JUMPDEST DUP1 ISZERO PUSH2 0x21BD JUMPI DUP1 PUSH1 0x1F LT PUSH2 0x2192 JUMPI PUSH2 0x100 DUP1 DUP4 SLOAD DIV MUL DUP4 MSTORE SWAP2 PUSH1 0x20 ADD SWAP2 PUSH2 0x21BD JUMP JUMPDEST DUP3 ADD SWAP2 SWAP1 PUSH1 0x0 MSTORE PUSH1 0x20 PUSH1 0x0 KECCAK256 SWAP1 JUMPDEST DUP2 SLOAD DUP2 MSTORE SWAP1 PUSH1 0x1 ADD SWAP1 PUSH1 0x20 ADD DUP1 DUP4 GT PUSH2 0x21A0 JUMPI DUP3 SWAP1 SUB PUSH1 0x1F AND DUP3 ADD SWAP2 JUMPDEST POP POP POP POP POP SWAP1 POP DUP8 JUMP JUMPDEST PUSH1 0x60 PUSH1 0x0 JUMPDEST PUSH1 0x0 SLOAD DUP2 LT ISZERO PUSH2 0x226F JUMPI DUP4 DUP1 MLOAD SWAP1 PUSH1 0x20 ADD KECCAK256 PUSH1 0x7 PUSH1 0x0 DUP4 DUP2 MSTORE PUSH1 0x20 ADD SWAP1 DUP2 MSTORE PUSH1 0x20 ADD PUSH1 0x0 KECCAK256 PUSH1 0x2 ADD PUSH1 0x40 MLOAD PUSH2 0x2201 SWAP2 SWAP1 PUSH2 0x38CC JUMP JUMPDEST PUSH1 0x40 MLOAD DUP1 SWAP2 SUB SWAP1 KECCAK256 EQ DUP1 ISZERO PUSH2 0x2246 JUMPI POP DUP3 DUP1 MLOAD SWAP1 PUSH1 0x20 ADD KECCAK256 PUSH1 0x7 PUSH1 0x0 DUP4 DUP2 MSTORE PUSH1 0x20 ADD SWAP1 DUP2 MSTORE PUSH1 0x20 ADD PUSH1 0x0 KECCAK256 PUSH1 0x3 ADD PUSH1 0x40 MLOAD PUSH2 0x223C SWAP2 SWAP1 PUSH2 0x38CC JUMP JUMPDEST PUSH1 0x40 MLOAD DUP1 SWAP2 SUB SWAP1 KECCAK256 EQ JUMPDEST ISZERO PUSH2 0x225C JUMPI PUSH2 0x2254 DUP2 PUSH2 0x2B9E JUMP JUMPDEST SWAP2 POP POP PUSH2 0x22A9 JUMP JUMPDEST DUP1 DUP1 PUSH2 0x2267 SWAP1 PUSH2 0x3F35 JUMP JUMPDEST SWAP2 POP POP PUSH2 0x21CC JUMP JUMPDEST POP PUSH1 0x40 MLOAD DUP1 PUSH1 0x40 ADD PUSH1 0x40 MSTORE DUP1 PUSH1 0x5 DUP2 MSTORE PUSH1 0x20 ADD PUSH32 0x46616C7365000000000000000000000000000000000000000000000000000000 DUP2 MSTORE POP SWAP1 POP JUMPDEST SWAP3 SWAP2 POP POP JUMP JUMPDEST PUSH1 0x0 SLOAD DUP2 JUMP JUMPDEST PUSH1 0xA PUSH1 0x20 MSTORE DUP1 PUSH1 0x0 MSTORE PUSH1 0x40 PUSH1 0x0 KECCAK256 PUSH1 0x0 SWAP2 POP SWAP1 POP DUP1 PUSH1 0x0 ADD SLOAD SWAP1 DUP1 PUSH1 0x1 ADD SLOAD SWAP1 DUP1 PUSH1 0x2 ADD SLOAD SWAP1 DUP1 PUSH1 0x3 ADD DUP1 SLOAD PUSH2 0x22EA SWAP1 PUSH2 0x3ED2 JUMP JUMPDEST DUP1 PUSH1 0x1F ADD PUSH1 0x20 DUP1 SWAP2 DIV MUL PUSH1 0x20 ADD PUSH1 0x40 MLOAD SWAP1 DUP2 ADD PUSH1 0x40 MSTORE DUP1 SWAP3 SWAP2 SWAP1 DUP2 DUP2 MSTORE PUSH1 0x20 ADD DUP3 DUP1 SLOAD PUSH2 0x2316 SWAP1 PUSH2 0x3ED2 JUMP JUMPDEST DUP1 ISZERO PUSH2 0x2363 JUMPI DUP1 PUSH1 0x1F LT PUSH2 0x2338 JUMPI PUSH2 0x100 DUP1 DUP4 SLOAD DIV MUL DUP4 MSTORE SWAP2 PUSH1 0x20 ADD SWAP2 PUSH2 0x2363 JUMP JUMPDEST DUP3 ADD SWAP2 SWAP1 PUSH1 0x0 MSTORE PUSH1 0x20 PUSH1 0x0 KECCAK256 SWAP1 JUMPDEST DUP2 SLOAD DUP2 MSTORE SWAP1 PUSH1 0x1 ADD SWAP1 PUSH1 0x20 ADD DUP1 DUP4 GT PUSH2 0x2346 JUMPI DUP3 SWAP1 SUB PUSH1 0x1F AND DUP3 ADD SWAP2 JUMPDEST POP POP POP POP POP SWAP1 DUP1 PUSH1 0x4 ADD DUP1 SLOAD PUSH2 0x2378 SWAP1 PUSH2 0x3ED2 JUMP JUMPDEST DUP1 PUSH1 0x1F ADD PUSH1 0x20 DUP1 SWAP2 DIV MUL PUSH1 0x20 ADD PUSH1 0x40 MLOAD SWAP1 DUP2 ADD PUSH1 0x40 MSTORE DUP1 SWAP3 SWAP2 SWAP1 DUP2 DUP2 MSTORE PUSH1 0x20 ADD DUP3 DUP1 SLOAD PUSH2 0x23A4 SWAP1 PUSH2 0x3ED2 JUMP JUMPDEST DUP1 ISZERO PUSH2 0x23F1 JUMPI DUP1 PUSH1 0x1F LT PUSH2 0x23C6 JUMPI PUSH2 0x100 DUP1 DUP4 SLOAD DIV MUL DUP4 MSTORE SWAP2 PUSH1 0x20 ADD SWAP2 PUSH2 0x23F1 JUMP JUMPDEST DUP3 ADD SWAP2 SWAP1 PUSH1 0x0 MSTORE PUSH1 0x20 PUSH1 0x0 KECCAK256 SWAP1 JUMPDEST DUP2 SLOAD DUP2 MSTORE SWAP1 PUSH1 0x1 ADD SWAP1 PUSH1 0x20 ADD DUP1 DUP4 GT PUSH2 0x23D4 JUMPI DUP3 SWAP1 SUB PUSH1 0x1F AND DUP3 ADD SWAP2 JUMPDEST POP POP POP POP POP SWAP1 DUP1 PUSH1 0x5 ADD DUP1 SLOAD PUSH2 0x2406 SWAP1 PUSH2 0x3ED2 JUMP JUMPDEST DUP1 PUSH1 0x1F ADD PUSH1 0x20 DUP1 SWAP2 DIV MUL PUSH1 0x20 ADD PUSH1 0x40 MLOAD SWAP1 DUP2 ADD PUSH1 0x40 MSTORE DUP1 SWAP3 SWAP2 SWAP1 DUP2 DUP2 MSTORE PUSH1 0x20 ADD DUP3 DUP1 SLOAD PUSH2 0x2432 SWAP1 PUSH2 0x3ED2 JUMP JUMPDEST DUP1 ISZERO PUSH2 0x247F JUMPI DUP1 PUSH1 0x1F LT PUSH2 0x2454 JUMPI PUSH2 0x100 DUP1 DUP4 SLOAD DIV MUL DUP4 MSTORE SWAP2 PUSH1 0x20 ADD SWAP2 PUSH2 0x247F JUMP JUMPDEST DUP3 ADD SWAP2 SWAP1 PUSH1 0x0 MSTORE PUSH1 0x20 PUSH1 0x0 KECCAK256 SWAP1 JUMPDEST DUP2 SLOAD DUP2 MSTORE SWAP1 PUSH1 0x1 ADD SWAP1 PUSH1 0x20 ADD DUP1 DUP4 GT PUSH2 0x2462 JUMPI DUP3 SWAP1 SUB PUSH1 0x1F AND DUP3 ADD SWAP2 JUMPDEST POP POP POP POP POP SWAP1 DUP1 PUSH1 0x6 ADD DUP1 SLOAD PUSH2 0x2494 SWAP1 PUSH2 0x3ED2 JUMP JUMPDEST DUP1 PUSH1 0x1F ADD PUSH1 0x20 DUP1 SWAP2 DIV MUL PUSH1 0x20 ADD PUSH1 0x40 MLOAD SWAP1 DUP2 ADD PUSH1 0x40 MSTORE DUP1 SWAP3 SWAP2 SWAP1 DUP2 DUP2 MSTORE PUSH1 0x20 ADD DUP3 DUP1 SLOAD PUSH2 0x24C0 SWAP1 PUSH2 0x3ED2 JUMP JUMPDEST DUP1 ISZERO PUSH2 0x250D JUMPI DUP1 PUSH1 0x1F LT PUSH2 0x24E2 JUMPI PUSH2 0x100 DUP1 DUP4 SLOAD DIV MUL DUP4 MSTORE SWAP2 PUSH1 0x20 ADD SWAP2 PUSH2 0x250D JUMP JUMPDEST DUP3 ADD SWAP2 SWAP1 PUSH1 0x0 MSTORE PUSH1 0x20 PUSH1 0x0 KECCAK256 SWAP1 JUMPDEST DUP2 SLOAD DUP2 MSTORE SWAP1 PUSH1 0x1 ADD SWAP1 PUSH1 0x20 ADD DUP1 DUP4 GT PUSH2 0x24F0 JUMPI DUP3 SWAP1 SUB PUSH1 0x1F AND DUP3 ADD SWAP2 JUMPDEST POP POP POP POP POP SWAP1 DUP1 PUSH1 0x7 ADD SLOAD SWAP1 DUP1 PUSH1 0x8 ADD SLOAD SWAP1 POP DUP10 JUMP JUMPDEST DUP1 PUSH1 0x7 PUSH1 0x0 DUP5 DUP2 MSTORE PUSH1 0x20 ADD SWAP1 DUP2 MSTORE PUSH1 0x20 ADD PUSH1 0x0 KECCAK256 PUSH1 0x5 ADD SWAP1 DUP1 MLOAD SWAP1 PUSH1 0x20 ADD SWAP1 PUSH2 0x254D SWAP3 SWAP2 SWAP1 PUSH2 0x2DC9 JUMP JUMPDEST POP POP POP JUMP JUMPDEST DUP2 PUSH1 0x7 PUSH1 0x0 DUP6 DUP2 MSTORE PUSH1 0x20 ADD SWAP1 DUP2 MSTORE PUSH1 0x20 ADD PUSH1 0x0 KECCAK256 PUSH1 0x6 ADD SWAP1 DUP1 MLOAD SWAP1 PUSH1 0x20 ADD SWAP1 PUSH2 0x257C SWAP3 SWAP2 SWAP1 PUSH2 0x2DC9 JUMP JUMPDEST POP DUP1 PUSH1 0x7 PUSH1 0x0 DUP6 DUP2 MSTORE PUSH1 0x20 ADD SWAP1 DUP2 MSTORE PUSH1 0x20 ADD PUSH1 0x0 KECCAK256 PUSH1 0x7 ADD DUP2 SWAP1 SSTORE POP POP POP POP JUMP JUMPDEST PUSH1 0xC PUSH1 0x20 MSTORE DUP1 PUSH1 0x0 MSTORE PUSH1 0x40 PUSH1 0x0 KECCAK256 PUSH1 0x0 SWAP2 POP SWAP1 POP DUP1 SLOAD PUSH2 0x25BC SWAP1 PUSH2 0x3ED2 JUMP JUMPDEST DUP1 PUSH1 0x1F ADD PUSH1 0x20 DUP1 SWAP2 DIV MUL PUSH1 0x20 ADD PUSH1 0x40 MLOAD SWAP1 DUP2 ADD PUSH1 0x40 MSTORE DUP1 SWAP3 SWAP2 SWAP1 DUP2 DUP2 MSTORE PUSH1 0x20 ADD DUP3 DUP1 SLOAD PUSH2 0x25E8 SWAP1 PUSH2 0x3ED2 JUMP JUMPDEST DUP1 ISZERO PUSH2 0x2635 JUMPI DUP1 PUSH1 0x1F LT PUSH2 0x260A JUMPI PUSH2 0x100 DUP1 DUP4 SLOAD DIV MUL DUP4 MSTORE SWAP2 PUSH1 0x20 ADD SWAP2 PUSH2 0x2635 JUMP JUMPDEST DUP3 ADD SWAP2 SWAP1 PUSH1 0x0 MSTORE PUSH1 0x20 PUSH1 0x0 KECCAK256 SWAP1 JUMPDEST DUP2 SLOAD DUP2 MSTORE SWAP1 PUSH1 0x1 ADD SWAP1 PUSH1 0x20 ADD DUP1 DUP4 GT PUSH2 0x2618 JUMPI DUP3 SWAP1 SUB PUSH1 0x1F AND DUP3 ADD SWAP2 JUMPDEST POP POP POP POP POP DUP2 JUMP JUMPDEST PUSH1 0x4 SLOAD DUP2 JUMP JUMPDEST PUSH1 0xD PUSH1 0x20 MSTORE DUP1 PUSH1 0x0 MSTORE PUSH1 0x40 PUSH1 0x0 KECCAK256 PUSH1 0x0 SWAP2 POP SWAP1 POP DUP1 PUSH1 0x0 ADD SLOAD SWAP1 DUP1 PUSH1 0x1 ADD DUP1 SLOAD PUSH2 0x266C SWAP1 PUSH2 0x3ED2 JUMP JUMPDEST DUP1 PUSH1 0x1F ADD PUSH1 0x20 DUP1 SWAP2 DIV MUL PUSH1 0x20 ADD PUSH1 0x40 MLOAD SWAP1 DUP2 ADD PUSH1 0x40 MSTORE DUP1 SWAP3 SWAP2 SWAP1 DUP2 DUP2 MSTORE PUSH1 0x20 ADD DUP3 DUP1 SLOAD PUSH2 0x2698 SWAP1 PUSH2 0x3ED2 JUMP JUMPDEST DUP1 ISZERO PUSH2 0x26E5 JUMPI DUP1 PUSH1 0x1F LT PUSH2 0x26BA JUMPI PUSH2 0x100 DUP1 DUP4 SLOAD DIV MUL DUP4 MSTORE SWAP2 PUSH1 0x20 ADD SWAP2 PUSH2 0x26E5 JUMP JUMPDEST DUP3 ADD SWAP2 SWAP1 PUSH1 0x0 MSTORE PUSH1 0x20 PUSH1 0x0 KECCAK256 SWAP1 JUMPDEST DUP2 SLOAD DUP2 MSTORE SWAP1 PUSH1 0x1 ADD SWAP1 PUSH1 0x20 ADD DUP1 DUP4 GT PUSH2 0x26C8 JUMPI DUP3 SWAP1 SUB PUSH1 0x1F AND DUP3 ADD SWAP2 JUMPDEST POP POP POP POP POP SWAP1 DUP1 PUSH1 0x2 ADD DUP1 SLOAD PUSH2 0x26FA SWAP1 PUSH2 0x3ED2 JUMP JUMPDEST DUP1 PUSH1 0x1F ADD PUSH1 0x20 DUP1 SWAP2 DIV MUL PUSH1 0x20 ADD PUSH1 0x40 MLOAD SWAP1 DUP2 ADD PUSH1 0x40 MSTORE DUP1 SWAP3 SWAP2 SWAP1 DUP2 DUP2 MSTORE PUSH1 0x20 ADD DUP3 DUP1 SLOAD PUSH2 0x2726 SWAP1 PUSH2 0x3ED2 JUMP JUMPDEST DUP1 ISZERO PUSH2 0x2773 JUMPI DUP1 PUSH1 0x1F LT PUSH2 0x2748 JUMPI PUSH2 0x100 DUP1 DUP4 SLOAD DIV MUL DUP4 MSTORE SWAP2 PUSH1 0x20 ADD SWAP2 PUSH2 0x2773 JUMP JUMPDEST DUP3 ADD SWAP2 SWAP1 PUSH1 0x0 MSTORE PUSH1 0x20 PUSH1 0x0 KECCAK256 SWAP1 JUMPDEST DUP2 SLOAD DUP2 MSTORE SWAP1 PUSH1 0x1 ADD SWAP1 PUSH1 0x20 ADD DUP1 DUP4 GT PUSH2 0x2756 JUMPI DUP3 SWAP1 SUB PUSH1 0x1F AND DUP3 ADD SWAP2 JUMPDEST POP POP POP POP POP SWAP1 DUP1 PUSH1 0x3 ADD DUP1 SLOAD PUSH2 0x2788 SWAP1 PUSH2 0x3ED2 JUMP JUMPDEST DUP1 PUSH1 0x1F ADD PUSH1 0x20 DUP1 SWAP2 DIV MUL PUSH1 0x20 ADD PUSH1 0x40 MLOAD SWAP1 DUP2 ADD PUSH1 0x40 MSTORE DUP1 SWAP3 SWAP2 SWAP1 DUP2 DUP2 MSTORE PUSH1 0x20 ADD DUP3 DUP1 SLOAD PUSH2 0x27B4 SWAP1 PUSH2 0x3ED2 JUMP JUMPDEST DUP1 ISZERO PUSH2 0x2801 JUMPI DUP1 PUSH1 0x1F LT PUSH2 0x27D6 JUMPI PUSH2 0x100 DUP1 DUP4 SLOAD DIV MUL DUP4 MSTORE SWAP2 PUSH1 0x20 ADD SWAP2 PUSH2 0x2801 JUMP JUMPDEST DUP3 ADD SWAP2 SWAP1 PUSH1 0x0 MSTORE PUSH1 0x20 PUSH1 0x0 KECCAK256 SWAP1 JUMPDEST DUP2 SLOAD DUP2 MSTORE SWAP1 PUSH1 0x1 ADD SWAP1 PUSH1 0x20 ADD DUP1 DUP4 GT PUSH2 0x27E4 JUMPI DUP3 SWAP1 SUB PUSH1 0x1F AND DUP3 ADD SWAP2 JUMPDEST POP POP POP POP POP SWAP1 POP DUP5 JUMP JUMPDEST PUSH1 0xB PUSH1 0x20 MSTORE DUP1 PUSH1 0x0 MSTORE PUSH1 0x40 PUSH1 0x0 KECCAK256 PUSH1 0x0 SWAP2 POP SWAP1 POP DUP1 PUSH1 0x0 ADD DUP1 SLOAD PUSH2 0x282E SWAP1 PUSH2 0x3ED2 JUMP JUMPDEST DUP1 PUSH1 0x1F ADD PUSH1 0x20 DUP1 SWAP2 DIV MUL PUSH1 0x20 ADD PUSH1 0x40 MLOAD SWAP1 DUP2 ADD PUSH1 0x40 MSTORE DUP1 SWAP3 SWAP2 SWAP1 DUP2 DUP2 MSTORE PUSH1 0x20 ADD DUP3 DUP1 SLOAD PUSH2 0x285A SWAP1 PUSH2 0x3ED2 JUMP JUMPDEST DUP1 ISZERO PUSH2 0x28A7 JUMPI DUP1 PUSH1 0x1F LT PUSH2 0x287C JUMPI PUSH2 0x100 DUP1 DUP4 SLOAD DIV MUL DUP4 MSTORE SWAP2 PUSH1 0x20 ADD SWAP2 PUSH2 0x28A7 JUMP JUMPDEST DUP3 ADD SWAP2 SWAP1 PUSH1 0x0 MSTORE PUSH1 0x20 PUSH1 0x0 KECCAK256 SWAP1 JUMPDEST DUP2 SLOAD DUP2 MSTORE SWAP1 PUSH1 0x1 ADD SWAP1 PUSH1 0x20 ADD DUP1 DUP4 GT PUSH2 0x288A JUMPI DUP3 SWAP1 SUB PUSH1 0x1F AND DUP3 ADD SWAP2 JUMPDEST POP POP POP POP POP SWAP1 DUP1 PUSH1 0x1 ADD DUP1 SLOAD PUSH2 0x28BC SWAP1 PUSH2 0x3ED2 JUMP JUMPDEST DUP1 PUSH1 0x1F ADD PUSH1 0x20 DUP1 SWAP2 DIV MUL PUSH1 0x20 ADD PUSH1 0x40 MLOAD SWAP1 DUP2 ADD PUSH1 0x40 MSTORE DUP1 SWAP3 SWAP2 SWAP1 DUP2 DUP2 MSTORE PUSH1 0x20 ADD DUP3 DUP1 SLOAD PUSH2 0x28E8 SWAP1 PUSH2 0x3ED2 JUMP JUMPDEST DUP1 ISZERO PUSH2 0x2935 JUMPI DUP1 PUSH1 0x1F LT PUSH2 0x290A JUMPI PUSH2 0x100 DUP1 DUP4 SLOAD DIV MUL DUP4 MSTORE SWAP2 PUSH1 0x20 ADD SWAP2 PUSH2 0x2935 JUMP JUMPDEST DUP3 ADD SWAP2 SWAP1 PUSH1 0x0 MSTORE PUSH1 0x20 PUSH1 0x0 KECCAK256 SWAP1 JUMPDEST DUP2 SLOAD DUP2 MSTORE SWAP1 PUSH1 0x1 ADD SWAP1 PUSH1 0x20 ADD DUP1 DUP4 GT PUSH2 0x2918 JUMPI DUP3 SWAP1 SUB PUSH1 0x1F AND DUP3 ADD SWAP2 JUMPDEST POP POP POP POP POP SWAP1 POP DUP3 JUMP JUMPDEST PUSH1 0xE PUSH1 0x20 MSTORE DUP1 PUSH1 0x0 MSTORE PUSH1 0x40 PUSH1 0x0 KECCAK256 PUSH1 0x0 SWAP2 POP SWAP1 POP DUP1 PUSH1 0x0 ADD SLOAD SWAP1 DUP1 PUSH1 0x1 ADD SLOAD SWAP1 DUP1 PUSH1 0x2 ADD SLOAD SWAP1 DUP1 PUSH1 0x3 ADD DUP1 SLOAD PUSH2 0x2974 SWAP1 PUSH2 0x3ED2 JUMP JUMPDEST DUP1 PUSH1 0x1F ADD PUSH1 0x20 DUP1 SWAP2 DIV MUL PUSH1 0x20 ADD PUSH1 0x40 MLOAD SWAP1 DUP2 ADD PUSH1 0x40 MSTORE DUP1 SWAP3 SWAP2 SWAP1 DUP2 DUP2 MSTORE PUSH1 0x20 ADD DUP3 DUP1 SLOAD PUSH2 0x29A0 SWAP1 PUSH2 0x3ED2 JUMP JUMPDEST DUP1 ISZERO PUSH2 0x29ED JUMPI DUP1 PUSH1 0x1F LT PUSH2 0x29C2 JUMPI PUSH2 0x100 DUP1 DUP4 SLOAD DIV MUL DUP4 MSTORE SWAP2 PUSH1 0x20 ADD SWAP2 PUSH2 0x29ED JUMP JUMPDEST DUP3 ADD SWAP2 SWAP1 PUSH1 0x0 MSTORE PUSH1 0x20 PUSH1 0x0 KECCAK256 SWAP1 JUMPDEST DUP2 SLOAD DUP2 MSTORE SWAP1 PUSH1 0x1 ADD SWAP1 PUSH1 0x20 ADD DUP1 DUP4 GT PUSH2 0x29D0 JUMPI DUP3 SWAP1 SUB PUSH1 0x1F AND DUP3 ADD SWAP2 JUMPDEST POP POP POP POP POP SWAP1 POP DUP5 JUMP JUMPDEST PUSH1 0x60 PUSH1 0x0 JUMPDEST PUSH1 0x0 SLOAD DUP2 LT ISZERO PUSH2 0x2A63 JUMPI DUP3 DUP1 MLOAD SWAP1 PUSH1 0x20 ADD KECCAK256 PUSH1 0x7 PUSH1 0x0 DUP4 DUP2 MSTORE PUSH1 0x20 ADD SWAP1 DUP2 MSTORE PUSH1 0x20 ADD PUSH1 0x0 KECCAK256 PUSH1 0x2 ADD PUSH1 0x40 MLOAD PUSH2 0x2A31 SWAP2 SWAP1 PUSH2 0x38CC JUMP JUMPDEST PUSH1 0x40 MLOAD DUP1 SWAP2 SUB SWAP1 KECCAK256 EQ ISZERO PUSH2 0x2A50 JUMPI PUSH2 0x2A48 DUP2 PUSH2 0x2B9E JUMP JUMPDEST SWAP2 POP POP PUSH2 0x2A9D JUMP JUMPDEST DUP1 DUP1 PUSH2 0x2A5B SWAP1 PUSH2 0x3F35 JUMP JUMPDEST SWAP2 POP POP PUSH2 0x29FC JUMP JUMPDEST POP PUSH1 0x40 MLOAD DUP1 PUSH1 0x40 ADD PUSH1 0x40 MSTORE DUP1 PUSH1 0x5 DUP2 MSTORE PUSH1 0x20 ADD PUSH32 0x46616C7365000000000000000000000000000000000000000000000000000000 DUP2 MSTORE POP SWAP1 POP JUMPDEST SWAP2 SWAP1 POP JUMP JUMPDEST PUSH1 0x60 PUSH1 0x0 DUP5 SWAP1 POP PUSH1 0x0 DUP5 DUP5 PUSH2 0x2AB7 SWAP2 SWAP1 PUSH2 0x3E20 JUMP JUMPDEST PUSH8 0xFFFFFFFFFFFFFFFF DUP2 GT ISZERO PUSH2 0x2AD0 JUMPI PUSH2 0x2ACF PUSH2 0x403A JUMP JUMPDEST JUMPDEST PUSH1 0x40 MLOAD SWAP1 DUP1 DUP3 MSTORE DUP1 PUSH1 0x1F ADD PUSH1 0x1F NOT AND PUSH1 0x20 ADD DUP3 ADD PUSH1 0x40 MSTORE DUP1 ISZERO PUSH2 0x2B02 JUMPI DUP2 PUSH1 0x20 ADD PUSH1 0x1 DUP3 MUL DUP1 CALLDATASIZE DUP4 CALLDATACOPY DUP1 DUP3 ADD SWAP2 POP POP SWAP1 POP JUMPDEST POP SWAP1 POP PUSH1 0x0 DUP6 SWAP1 POP JUMPDEST DUP5 DUP2 LT ISZERO PUSH2 0x2B91 JUMPI DUP3 DUP2 DUP2 MLOAD DUP2 LT PUSH2 0x2B26 JUMPI PUSH2 0x2B25 PUSH2 0x400B JUMP JUMPDEST JUMPDEST PUSH1 0x20 ADD ADD MLOAD PUSH1 0xF8 SHR PUSH1 0xF8 SHL DUP3 DUP8 DUP4 PUSH2 0x2B3E SWAP2 SWAP1 PUSH2 0x3E20 JUMP JUMPDEST DUP2 MLOAD DUP2 LT PUSH2 0x2B4F JUMPI PUSH2 0x2B4E PUSH2 0x400B JUMP JUMPDEST JUMPDEST PUSH1 0x20 ADD ADD SWAP1 PUSH31 0xFFFFFFFFFFFFFFFFFFFFFFFFFFFFFFFFFFFFFFFFFFFFFFFFFFFFFFFFFFFFFF NOT AND SWAP1 DUP2 PUSH1 0x0 BYTE SWAP1 MSTORE8 POP DUP1 DUP1 PUSH2 0x2B89 SWAP1 PUSH2 0x3F35 JUMP JUMPDEST SWAP2 POP POP PUSH2 0x2B0B JUMP JUMPDEST POP DUP1 SWAP3 POP POP POP SWAP4 SWAP3 POP POP POP JUMP JUMPDEST PUSH1 0x60 PUSH1 0x0 PUSH1 0x1 PUSH2 0x2BAD DUP5 PUSH2 0x2C76 JUMP JUMPDEST ADD SWAP1 POP PUSH1 0x0 DUP2 PUSH8 0xFFFFFFFFFFFFFFFF DUP2 GT ISZERO PUSH2 0x2BCC JUMPI PUSH2 0x2BCB PUSH2 0x403A JUMP JUMPDEST JUMPDEST PUSH1 0x40 MLOAD SWAP1 DUP1 DUP3 MSTORE DUP1 PUSH1 0x1F ADD PUSH1 0x1F NOT AND PUSH1 0x20 ADD DUP3 ADD PUSH1 0x40 MSTORE DUP1 ISZERO PUSH2 0x2BFE JUMPI DUP2 PUSH1 0x20 ADD PUSH1 0x1 DUP3 MUL DUP1 CALLDATASIZE DUP4 CALLDATACOPY DUP1 DUP3 ADD SWAP2 POP POP SWAP1 POP JUMPDEST POP SWAP1 POP PUSH1 0x0 DUP3 PUSH1 0x20 ADD DUP3 ADD SWAP1 POP JUMPDEST PUSH1 0x1 ISZERO PUSH2 0x2C6B JUMPI DUP1 DUP1 PUSH1 0x1 SWAP1 SUB SWAP2 POP POP PUSH32 0x3031323334353637383961626364656600000000000000000000000000000000 PUSH1 0xA DUP7 MOD BYTE DUP2 MSTORE8 PUSH1 0xA DUP6 DUP2 PUSH2 0x2C55 JUMPI PUSH2 0x2C54 PUSH2 0x3FAD JUMP JUMPDEST JUMPDEST DIV SWAP5 POP PUSH1 0x0 DUP6 EQ ISZERO PUSH2 0x2C66 JUMPI PUSH2 0x2C6B JUMP JUMPDEST PUSH2 0x2C0C JUMP JUMPDEST DUP2 SWAP4 POP POP POP POP SWAP2 SWAP1 POP JUMP JUMPDEST PUSH1 0x0 DUP1 PUSH1 0x0 SWAP1 POP PUSH27 0x184F03E93FF9F4DAA797ED6E38ED64BF6A1F010000000000000000 DUP4 LT PUSH2 0x2CD4 JUMPI PUSH27 0x184F03E93FF9F4DAA797ED6E38ED64BF6A1F010000000000000000 DUP4 DUP2 PUSH2 0x2CCA JUMPI PUSH2 0x2CC9 PUSH2 0x3FAD JUMP JUMPDEST JUMPDEST DIV SWAP3 POP PUSH1 0x40 DUP2 ADD SWAP1 POP JUMPDEST PUSH14 0x4EE2D6D415B85ACEF8100000000 DUP4 LT PUSH2 0x2D11 JUMPI PUSH14 0x4EE2D6D415B85ACEF8100000000 DUP4 DUP2 PUSH2 0x2D07 JUMPI PUSH2 0x2D06 PUSH2 0x3FAD JUMP JUMPDEST JUMPDEST DIV SWAP3 POP PUSH1 0x20 DUP2 ADD SWAP1 POP JUMPDEST PUSH7 0x2386F26FC10000 DUP4 LT PUSH2 0x2D40 JUMPI PUSH7 0x2386F26FC10000 DUP4 DUP2 PUSH2 0x2D36 JUMPI PUSH2 0x2D35 PUSH2 0x3FAD JUMP JUMPDEST JUMPDEST DIV SWAP3 POP PUSH1 0x10 DUP2 ADD SWAP1 POP JUMPDEST PUSH4 0x5F5E100 DUP4 LT PUSH2 0x2D69 JUMPI PUSH4 0x5F5E100 DUP4 DUP2 PUSH2 0x2D5F JUMPI PUSH2 0x2D5E PUSH2 0x3FAD JUMP JUMPDEST JUMPDEST DIV SWAP3 POP PUSH1 0x8 DUP2 ADD SWAP1 POP JUMPDEST PUSH2 0x2710 DUP4 LT PUSH2 0x2D8E JUMPI PUSH2 0x2710 DUP4 DUP2 PUSH2 0x2D84 JUMPI PUSH2 0x2D83 PUSH2 0x3FAD JUMP JUMPDEST JUMPDEST DIV SWAP3 POP PUSH1 0x4 DUP2 ADD SWAP1 POP JUMPDEST PUSH1 0x64 DUP4 LT PUSH2 0x2DB1 JUMPI PUSH1 0x64 DUP4 DUP2 PUSH2 0x2DA7 JUMPI PUSH2 0x2DA6 PUSH2 0x3FAD JUMP JUMPDEST JUMPDEST DIV SWAP3 POP PUSH1 0x2 DUP2 ADD SWAP1 POP JUMPDEST PUSH1 0xA DUP4 LT PUSH2 0x2DC0 JUMPI PUSH1 0x1 DUP2 ADD SWAP1 POP JUMPDEST DUP1 SWAP2 POP POP SWAP2 SWAP1 POP JUMP JUMPDEST DUP3 DUP1 SLOAD PUSH2 0x2DD5 SWAP1 PUSH2 0x3ED2 JUMP JUMPDEST SWAP1 PUSH1 0x0 MSTORE PUSH1 0x20 PUSH1 0x0 KECCAK256 SWAP1 PUSH1 0x1F ADD PUSH1 0x20 SWAP1 DIV DUP2 ADD SWAP3 DUP3 PUSH2 0x2DF7 JUMPI PUSH1 0x0 DUP6 SSTORE PUSH2 0x2E3E JUMP JUMPDEST DUP3 PUSH1 0x1F LT PUSH2 0x2E10 JUMPI DUP1 MLOAD PUSH1 0xFF NOT AND DUP4 DUP1 ADD OR DUP6 SSTORE PUSH2 0x2E3E JUMP JUMPDEST DUP3 DUP1 ADD PUSH1 0x1 ADD DUP6 SSTORE DUP3 ISZERO PUSH2 0x2E3E JUMPI SWAP2 DUP3 ADD JUMPDEST DUP3 DUP2 GT ISZERO PUSH2 0x2E3D JUMPI DUP3 MLOAD DUP3 SSTORE SWAP2 PUSH1 0x20 ADD SWAP2 SWAP1 PUSH1 0x1 ADD SWAP1 PUSH2 0x2E22 JUMP JUMPDEST JUMPDEST POP SWAP1 POP PUSH2 0x2E4B SWAP2 SWAP1 PUSH2 0x2E8F JUMP JUMPDEST POP SWAP1 JUMP JUMPDEST POP DUP1 SLOAD PUSH2 0x2E5B SWAP1 PUSH2 0x3ED2 JUMP JUMPDEST PUSH1 0x0 DUP3 SSTORE DUP1 PUSH1 0x1F LT PUSH2 0x2E6D JUMPI POP PUSH2 0x2E8C JUMP JUMPDEST PUSH1 0x1F ADD PUSH1 0x20 SWAP1 DIV SWAP1 PUSH1 0x0 MSTORE PUSH1 0x20 PUSH1 0x0 KECCAK256 SWAP1 DUP2 ADD SWAP1 PUSH2 0x2E8B SWAP2 SWAP1 PUSH2 0x2E8F JUMP JUMPDEST JUMPDEST POP JUMP JUMPDEST JUMPDEST DUP1 DUP3 GT ISZERO PUSH2 0x2EA8 JUMPI PUSH1 0x0 DUP2 PUSH1 0x0 SWAP1 SSTORE POP PUSH1 0x1 ADD PUSH2 0x2E90 JUMP JUMPDEST POP SWAP1 JUMP JUMPDEST PUSH1 0x0 PUSH2 0x2EBF PUSH2 0x2EBA DUP5 PUSH2 0x3D24 JUMP JUMPDEST PUSH2 0x3CFF JUMP JUMPDEST SWAP1 POP DUP3 DUP2 MSTORE PUSH1 0x20 DUP2 ADD DUP5 DUP5 DUP5 ADD GT ISZERO PUSH2 0x2EDB JUMPI PUSH2 0x2EDA PUSH2 0x406E JUMP JUMPDEST JUMPDEST PUSH2 0x2EE6 DUP5 DUP3 DUP6 PUSH2 0x3E90 JUMP JUMPDEST POP SWAP4 SWAP3 POP POP POP JUMP JUMPDEST PUSH1 0x0 DUP3 PUSH1 0x1F DUP4 ADD SLT PUSH2 0x2F03 JUMPI PUSH2 0x2F02 PUSH2 0x4069 JUMP JUMPDEST JUMPDEST DUP2 CALLDATALOAD PUSH2 0x2F13 DUP5 DUP3 PUSH1 0x20 DUP7 ADD PUSH2 0x2EAC JUMP JUMPDEST SWAP2 POP POP SWAP3 SWAP2 POP POP JUMP JUMPDEST PUSH1 0x0 DUP2 CALLDATALOAD SWAP1 POP PUSH2 0x2F2B DUP2 PUSH2 0x408E JUMP JUMPDEST SWAP3 SWAP2 POP POP JUMP JUMPDEST PUSH1 0x0 PUSH1 0x20 DUP3 DUP5 SUB SLT ISZERO PUSH2 0x2F47 JUMPI PUSH2 0x2F46 PUSH2 0x4078 JUMP JUMPDEST JUMPDEST PUSH1 0x0 DUP3 ADD CALLDATALOAD PUSH8 0xFFFFFFFFFFFFFFFF DUP2 GT ISZERO PUSH2 0x2F65 JUMPI PUSH2 0x2F64 PUSH2 0x4073 JUMP JUMPDEST JUMPDEST PUSH2 0x2F71 DUP5 DUP3 DUP6 ADD PUSH2 0x2EEE JUMP JUMPDEST SWAP2 POP POP SWAP3 SWAP2 POP POP JUMP JUMPDEST PUSH1 0x0 DUP1 PUSH1 0x40 DUP4 DUP6 SUB SLT ISZERO PUSH2 0x2F91 JUMPI PUSH2 0x2F90 PUSH2 0x4078 JUMP JUMPDEST JUMPDEST PUSH1 0x0 DUP4 ADD CALLDATALOAD PUSH8 0xFFFFFFFFFFFFFFFF DUP2 GT ISZERO PUSH2 0x2FAF JUMPI PUSH2 0x2FAE PUSH2 0x4073 JUMP JUMPDEST JUMPDEST PUSH2 0x2FBB DUP6 DUP3 DUP7 ADD PUSH2 0x2EEE JUMP JUMPDEST SWAP3 POP POP PUSH1 0x20 DUP4 ADD CALLDATALOAD PUSH8 0xFFFFFFFFFFFFFFFF DUP2 GT ISZERO PUSH2 0x2FDC JUMPI PUSH2 0x2FDB PUSH2 0x4073 JUMP JUMPDEST JUMPDEST PUSH2 0x2FE8 DUP6 DUP3 DUP7 ADD PUSH2 0x2EEE JUMP JUMPDEST SWAP2 POP POP SWAP3 POP SWAP3 SWAP1 POP JUMP JUMPDEST PUSH1 0x0 DUP1 PUSH1 0x0 PUSH1 0x60 DUP5 DUP7 SUB SLT ISZERO PUSH2 0x300B JUMPI PUSH2 0x300A PUSH2 0x4078 JUMP JUMPDEST JUMPDEST PUSH1 0x0 DUP5 ADD CALLDATALOAD PUSH8 0xFFFFFFFFFFFFFFFF DUP2 GT ISZERO PUSH2 0x3029 JUMPI PUSH2 0x3028 PUSH2 0x4073 JUMP JUMPDEST JUMPDEST PUSH2 0x3035 DUP7 DUP3 DUP8 ADD PUSH2 0x2EEE JUMP JUMPDEST SWAP4 POP POP PUSH1 0x20 DUP5 ADD CALLDATALOAD PUSH8 0xFFFFFFFFFFFFFFFF DUP2 GT ISZERO PUSH2 0x3056 JUMPI PUSH2 0x3055 PUSH2 0x4073 JUMP JUMPDEST JUMPDEST PUSH2 0x3062 DUP7 DUP3 DUP8 ADD PUSH2 0x2EEE JUMP JUMPDEST SWAP3 POP POP PUSH1 0x40 DUP5 ADD CALLDATALOAD PUSH8 0xFFFFFFFFFFFFFFFF DUP2 GT ISZERO PUSH2 0x3083 JUMPI PUSH2 0x3082 PUSH2 0x4073 JUMP JUMPDEST JUMPDEST PUSH2 0x308F DUP7 DUP3 DUP8 ADD PUSH2 0x2EEE JUMP JUMPDEST SWAP2 POP POP SWAP3 POP SWAP3 POP SWAP3 JUMP JUMPDEST PUSH1 0x0 PUSH1 0x20 DUP3 DUP5 SUB SLT ISZERO PUSH2 0x30AF JUMPI PUSH2 0x30AE PUSH2 0x4078 JUMP JUMPDEST JUMPDEST PUSH1 0x0 PUSH2 0x30BD DUP5 DUP3 DUP6 ADD PUSH2 0x2F1C JUMP JUMPDEST SWAP2 POP POP SWAP3 SWAP2 POP POP JUMP JUMPDEST PUSH1 0x0 DUP1 PUSH1 0x40 DUP4 DUP6 SUB SLT ISZERO PUSH2 0x30DD JUMPI PUSH2 0x30DC PUSH2 0x4078 JUMP JUMPDEST JUMPDEST PUSH1 0x0 PUSH2 0x30EB DUP6 DUP3 DUP7 ADD PUSH2 0x2F1C JUMP JUMPDEST SWAP3 POP POP PUSH1 0x20 DUP4 ADD CALLDATALOAD PUSH8 0xFFFFFFFFFFFFFFFF DUP2 GT ISZERO PUSH2 0x310C JUMPI PUSH2 0x310B PUSH2 0x4073 JUMP JUMPDEST JUMPDEST PUSH2 0x3118 DUP6 DUP3 DUP7 ADD PUSH2 0x2EEE JUMP JUMPDEST SWAP2 POP POP SWAP3 POP SWAP3 SWAP1 POP JUMP JUMPDEST PUSH1 0x0 DUP1 PUSH1 0x0 DUP1 PUSH1 0x80 DUP6 DUP8 SUB SLT ISZERO PUSH2 0x313C JUMPI PUSH2 0x313B PUSH2 0x4078 JUMP JUMPDEST JUMPDEST PUSH1 0x0 PUSH2 0x314A DUP8 DUP3 DUP9 ADD PUSH2 0x2F1C JUMP JUMPDEST SWAP5 POP POP PUSH1 0x20 DUP6 ADD CALLDATALOAD PUSH8 0xFFFFFFFFFFFFFFFF DUP2 GT ISZERO PUSH2 0x316B JUMPI PUSH2 0x316A PUSH2 0x4073 JUMP JUMPDEST JUMPDEST PUSH2 0x3177 DUP8 DUP3 DUP9 ADD PUSH2 0x2EEE JUMP JUMPDEST SWAP4 POP POP PUSH1 0x40 DUP6 ADD CALLDATALOAD PUSH8 0xFFFFFFFFFFFFFFFF DUP2 GT ISZERO PUSH2 0x3198 JUMPI PUSH2 0x3197 PUSH2 0x4073 JUMP JUMPDEST JUMPDEST PUSH2 0x31A4 DUP8 DUP3 DUP9 ADD PUSH2 0x2EEE JUMP JUMPDEST SWAP3 POP POP PUSH1 0x60 DUP6 ADD CALLDATALOAD PUSH8 0xFFFFFFFFFFFFFFFF DUP2 GT ISZERO PUSH2 0x31C5 JUMPI PUSH2 0x31C4 PUSH2 0x4073 JUMP JUMPDEST JUMPDEST PUSH2 0x31D1 DUP8 DUP3 DUP9 ADD PUSH2 0x2EEE JUMP JUMPDEST SWAP2 POP POP SWAP3 SWAP6 SWAP2 SWAP5 POP SWAP3 POP JUMP JUMPDEST PUSH1 0x0 DUP1 PUSH1 0x0 DUP1 PUSH1 0x0 PUSH1 0xA0 DUP7 DUP9 SUB SLT ISZERO PUSH2 0x31F9 JUMPI PUSH2 0x31F8 PUSH2 0x4078 JUMP JUMPDEST JUMPDEST PUSH1 0x0 PUSH2 0x3207 DUP9 DUP3 DUP10 ADD PUSH2 0x2F1C JUMP JUMPDEST SWAP6 POP POP PUSH1 0x20 DUP7 ADD CALLDATALOAD PUSH8 0xFFFFFFFFFFFFFFFF DUP2 GT ISZERO PUSH2 0x3228 JUMPI PUSH2 0x3227 PUSH2 0x4073 JUMP JUMPDEST JUMPDEST PUSH2 0x3234 DUP9 DUP3 DUP10 ADD PUSH2 0x2EEE JUMP JUMPDEST SWAP5 POP POP PUSH1 0x40 DUP7 ADD CALLDATALOAD PUSH8 0xFFFFFFFFFFFFFFFF DUP2 GT ISZERO PUSH2 0x3255 JUMPI PUSH2 0x3254 PUSH2 0x4073 JUMP JUMPDEST JUMPDEST PUSH2 0x3261 DUP9 DUP3 DUP10 ADD PUSH2 0x2EEE JUMP JUMPDEST SWAP4 POP POP PUSH1 0x60 DUP7 ADD CALLDATALOAD PUSH8 0xFFFFFFFFFFFFFFFF DUP2 GT ISZERO PUSH2 0x3282 JUMPI PUSH2 0x3281 PUSH2 0x4073 JUMP JUMPDEST JUMPDEST PUSH2 0x328E DUP9 DUP3 DUP10 ADD PUSH2 0x2EEE JUMP JUMPDEST SWAP3 POP POP PUSH1 0x80 PUSH2 0x329F DUP9 DUP3 DUP10 ADD PUSH2 0x2F1C JUMP JUMPDEST SWAP2 POP POP SWAP3 SWAP6 POP SWAP3 SWAP6 SWAP1 SWAP4 POP JUMP JUMPDEST PUSH1 0x0 DUP1 PUSH1 0x0 DUP1 PUSH1 0x0 DUP1 PUSH1 0x0 DUP1 PUSH2 0x100 DUP10 DUP12 SUB SLT ISZERO PUSH2 0x32CD JUMPI PUSH2 0x32CC PUSH2 0x4078 JUMP JUMPDEST JUMPDEST PUSH1 0x0 PUSH2 0x32DB DUP12 DUP3 DUP13 ADD PUSH2 0x2F1C JUMP JUMPDEST SWAP9 POP POP PUSH1 0x20 DUP10 ADD CALLDATALOAD PUSH8 0xFFFFFFFFFFFFFFFF DUP2 GT ISZERO PUSH2 0x32FC JUMPI PUSH2 0x32FB PUSH2 0x4073 JUMP JUMPDEST JUMPDEST PUSH2 0x3308 DUP12 DUP3 DUP13 ADD PUSH2 0x2EEE JUMP JUMPDEST SWAP8 POP POP PUSH1 0x40 DUP10 ADD CALLDATALOAD PUSH8 0xFFFFFFFFFFFFFFFF DUP2 GT ISZERO PUSH2 0x3329 JUMPI PUSH2 0x3328 PUSH2 0x4073 JUMP JUMPDEST JUMPDEST PUSH2 0x3335 DUP12 DUP3 DUP13 ADD PUSH2 0x2EEE JUMP JUMPDEST SWAP7 POP POP PUSH1 0x60 DUP10 ADD CALLDATALOAD PUSH8 0xFFFFFFFFFFFFFFFF DUP2 GT ISZERO PUSH2 0x3356 JUMPI PUSH2 0x3355 PUSH2 0x4073 JUMP JUMPDEST JUMPDEST PUSH2 0x3362 DUP12 DUP3 DUP13 ADD PUSH2 0x2EEE JUMP JUMPDEST SWAP6 POP POP PUSH1 0x80 PUSH2 0x3373 DUP12 DUP3 DUP13 ADD PUSH2 0x2F1C JUMP JUMPDEST SWAP5 POP POP PUSH1 0xA0 PUSH2 0x3384 DUP12 DUP3 DUP13 ADD PUSH2 0x2F1C JUMP JUMPDEST SWAP4 POP POP PUSH1 0xC0 PUSH2 0x3395 DUP12 DUP3 DUP13 ADD PUSH2 0x2F1C JUMP JUMPDEST SWAP3 POP POP PUSH1 0xE0 DUP10 ADD CALLDATALOAD PUSH8 0xFFFFFFFFFFFFFFFF DUP2 GT ISZERO PUSH2 0x33B6 JUMPI PUSH2 0x33B5 PUSH2 0x4073 JUMP JUMPDEST JUMPDEST PUSH2 0x33C2 DUP12 DUP3 DUP13 ADD PUSH2 0x2EEE JUMP JUMPDEST SWAP2 POP POP SWAP3 SWAP6 SWAP9 POP SWAP3 SWAP6 SWAP9 SWAP1 SWAP4 SWAP7 POP JUMP JUMPDEST PUSH1 0x0 DUP1 PUSH1 0x0 PUSH1 0x60 DUP5 DUP7 SUB SLT ISZERO PUSH2 0x33EB JUMPI PUSH2 0x33EA PUSH2 0x4078 JUMP JUMPDEST JUMPDEST PUSH1 0x0 PUSH2 0x33F9 DUP7 DUP3 DUP8 ADD PUSH2 0x2F1C JUMP JUMPDEST SWAP4 POP POP PUSH1 0x20 DUP5 ADD CALLDATALOAD PUSH8 0xFFFFFFFFFFFFFFFF DUP2 GT ISZERO PUSH2 0x341A JUMPI PUSH2 0x3419 PUSH2 0x4073 JUMP JUMPDEST JUMPDEST PUSH2 0x3426 DUP7 DUP3 DUP8 ADD PUSH2 0x2EEE JUMP JUMPDEST SWAP3 POP POP PUSH1 0x40 PUSH2 0x3437 DUP7 DUP3 DUP8 ADD PUSH2 0x2F1C JUMP JUMPDEST SWAP2 POP POP SWAP3 POP SWAP3 POP SWAP3 JUMP JUMPDEST PUSH1 0x0 DUP1 PUSH1 0x0 DUP1 PUSH1 0x80 DUP6 DUP8 SUB SLT ISZERO PUSH2 0x345B JUMPI PUSH2 0x345A PUSH2 0x4078 JUMP JUMPDEST JUMPDEST PUSH1 0x0 PUSH2 0x3469 DUP8 DUP3 DUP9 ADD PUSH2 0x2F1C JUMP JUMPDEST SWAP5 POP POP PUSH1 0x20 DUP6 ADD CALLDATALOAD PUSH8 0xFFFFFFFFFFFFFFFF DUP2 GT ISZERO PUSH2 0x348A JUMPI PUSH2 0x3489 PUSH2 0x4073 JUMP JUMPDEST JUMPDEST PUSH2 0x3496 DUP8 DUP3 DUP9 ADD PUSH2 0x2EEE JUMP JUMPDEST SWAP4 POP POP PUSH1 0x40 PUSH2 0x34A7 DUP8 DUP3 DUP9 ADD PUSH2 0x2F1C JUMP JUMPDEST SWAP3 POP POP PUSH1 0x60 PUSH2 0x34B8 DUP8 DUP3 DUP9 ADD PUSH2 0x2F1C JUMP JUMPDEST SWAP2 POP POP SWAP3 SWAP6 SWAP2 SWAP5 POP SWAP3 POP JUMP JUMPDEST PUSH1 0x0 DUP1 PUSH1 0x0 PUSH1 0x60 DUP5 DUP7 SUB SLT ISZERO PUSH2 0x34DD JUMPI PUSH2 0x34DC PUSH2 0x4078 JUMP JUMPDEST JUMPDEST PUSH1 0x0 PUSH2 0x34EB DUP7 DUP3 DUP8 ADD PUSH2 0x2F1C JUMP JUMPDEST SWAP4 POP POP PUSH1 0x20 PUSH2 0x34FC DUP7 DUP3 DUP8 ADD PUSH2 0x2F1C JUMP JUMPDEST SWAP3 POP POP PUSH1 0x40 DUP5 ADD CALLDATALOAD PUSH8 0xFFFFFFFFFFFFFFFF DUP2 GT ISZERO PUSH2 0x351D JUMPI PUSH2 0x351C PUSH2 0x4073 JUMP JUMPDEST JUMPDEST PUSH2 0x3529 DUP7 DUP3 DUP8 ADD PUSH2 0x2EEE JUMP JUMPDEST SWAP2 POP POP SWAP3 POP SWAP3 POP SWAP3 JUMP JUMPDEST PUSH1 0x0 DUP1 PUSH1 0x0 DUP1 PUSH1 0x0 DUP1 PUSH1 0x0 PUSH1 0xE0 DUP9 DUP11 SUB SLT ISZERO PUSH2 0x3552 JUMPI PUSH2 0x3551 PUSH2 0x4078 JUMP JUMPDEST JUMPDEST PUSH1 0x0 PUSH2 0x3560 DUP11 DUP3 DUP12 ADD PUSH2 0x2F1C JUMP JUMPDEST SWAP8 POP POP PUSH1 0x20 PUSH2 0x3571 DUP11 DUP3 DUP12 ADD PUSH2 0x2F1C JUMP JUMPDEST SWAP7 POP POP PUSH1 0x40 DUP9 ADD CALLDATALOAD PUSH8 0xFFFFFFFFFFFFFFFF DUP2 GT ISZERO PUSH2 0x3592 JUMPI PUSH2 0x3591 PUSH2 0x4073 JUMP JUMPDEST JUMPDEST PUSH2 0x359E DUP11 DUP3 DUP12 ADD PUSH2 0x2EEE JUMP JUMPDEST SWAP6 POP POP PUSH1 0x60 DUP9 ADD CALLDATALOAD PUSH8 0xFFFFFFFFFFFFFFFF DUP2 GT ISZERO PUSH2 0x35BF JUMPI PUSH2 0x35BE PUSH2 0x4073 JUMP JUMPDEST JUMPDEST PUSH2 0x35CB DUP11 DUP3 DUP12 ADD PUSH2 0x2EEE JUMP JUMPDEST SWAP5 POP POP PUSH1 0x80 DUP9 ADD CALLDATALOAD PUSH8 0xFFFFFFFFFFFFFFFF DUP2 GT ISZERO PUSH2 0x35EC JUMPI PUSH2 0x35EB PUSH2 0x4073 JUMP JUMPDEST JUMPDEST PUSH2 0x35F8 DUP11 DUP3 DUP12 ADD PUSH2 0x2EEE JUMP JUMPDEST SWAP4 POP POP PUSH1 0xA0 DUP9 ADD CALLDATALOAD PUSH8 0xFFFFFFFFFFFFFFFF DUP2 GT ISZERO PUSH2 0x3619 JUMPI PUSH2 0x3618 PUSH2 0x4073 JUMP JUMPDEST JUMPDEST PUSH2 0x3625 DUP11 DUP3 DUP12 ADD PUSH2 0x2EEE JUMP JUMPDEST SWAP3 POP POP PUSH1 0xC0 PUSH2 0x3636 DUP11 DUP3 DUP12 ADD PUSH2 0x2F1C JUMP JUMPDEST SWAP2 POP POP SWAP3 SWAP6 SWAP9 SWAP2 SWAP5 SWAP8 POP SWAP3 SWAP6 POP JUMP JUMPDEST PUSH1 0x0 DUP1 PUSH1 0x0 DUP1 PUSH1 0x80 DUP6 DUP8 SUB SLT ISZERO PUSH2 0x365F JUMPI PUSH2 0x365E PUSH2 0x4078 JUMP JUMPDEST JUMPDEST PUSH1 0x0 PUSH2 0x366D DUP8 DUP3 DUP9 ADD PUSH2 0x2F1C JUMP JUMPDEST SWAP5 POP POP PUSH1 0x20 PUSH2 0x367E DUP8 DUP3 DUP9 ADD PUSH2 0x2F1C JUMP JUMPDEST SWAP4 POP POP PUSH1 0x40 DUP6 ADD CALLDATALOAD PUSH8 0xFFFFFFFFFFFFFFFF DUP2 GT ISZERO PUSH2 0x369F JUMPI PUSH2 0x369E PUSH2 0x4073 JUMP JUMPDEST JUMPDEST PUSH2 0x36AB DUP8 DUP3 DUP9 ADD PUSH2 0x2EEE JUMP JUMPDEST SWAP3 POP POP PUSH1 0x60 PUSH2 0x36BC DUP8 DUP3 DUP9 ADD PUSH2 0x2F1C JUMP JUMPDEST SWAP2 POP POP SWAP3 SWAP6 SWAP2 SWAP5 POP SWAP3 POP JUMP JUMPDEST PUSH1 0x0 DUP1 PUSH1 0x0 DUP1 PUSH1 0x0 DUP1 PUSH1 0xC0 DUP8 DUP10 SUB SLT ISZERO PUSH2 0x36E5 JUMPI PUSH2 0x36E4 PUSH2 0x4078 JUMP JUMPDEST JUMPDEST PUSH1 0x0 PUSH2 0x36F3 DUP10 DUP3 DUP11 ADD PUSH2 0x2F1C JUMP JUMPDEST SWAP7 POP POP PUSH1 0x20 PUSH2 0x3704 DUP10 DUP3 DUP11 ADD PUSH2 0x2F1C JUMP JUMPDEST SWAP6 POP POP PUSH1 0x40 PUSH2 0x3715 DUP10 DUP3 DUP11 ADD PUSH2 0x2F1C JUMP JUMPDEST SWAP5 POP POP PUSH1 0x60 PUSH2 0x3726 DUP10 DUP3 DUP11 ADD PUSH2 0x2F1C JUMP JUMPDEST SWAP4 POP POP PUSH1 0x80 PUSH2 0x3737 DUP10 DUP3 DUP11 ADD PUSH2 0x2F1C JUMP JUMPDEST SWAP3 POP POP PUSH1 0xA0 DUP8 ADD CALLDATALOAD PUSH8 0xFFFFFFFFFFFFFFFF DUP2 GT ISZERO PUSH2 0x3758 JUMPI PUSH2 0x3757 PUSH2 0x4073 JUMP JUMPDEST JUMPDEST PUSH2 0x3764 DUP10 DUP3 DUP11 ADD PUSH2 0x2EEE JUMP JUMPDEST SWAP2 POP POP SWAP3 SWAP6 POP SWAP3 SWAP6 POP SWAP3 SWAP6 JUMP JUMPDEST PUSH1 0x0 PUSH2 0x377D DUP4 DUP4 PUSH2 0x38AE JUMP JUMPDEST PUSH1 0x20 DUP4 ADD SWAP1 POP SWAP3 SWAP2 POP POP JUMP JUMPDEST PUSH2 0x3792 DUP2 PUSH2 0x3E54 JUMP JUMPDEST DUP3 MSTORE POP POP JUMP JUMPDEST PUSH1 0x0 PUSH2 0x37A3 DUP3 PUSH2 0x3D7A JUMP JUMPDEST PUSH2 0x37AD DUP2 DUP6 PUSH2 0x3D9D JUMP JUMPDEST SWAP4 POP PUSH2 0x37B8 DUP4 PUSH2 0x3D55 JUMP JUMPDEST DUP1 PUSH1 0x0 JUMPDEST DUP4 DUP2 LT ISZERO PUSH2 0x37E9 JUMPI DUP2 MLOAD PUSH2 0x37D0 DUP9 DUP3 PUSH2 0x3771 JUMP JUMPDEST SWAP8 POP PUSH2 0x37DB DUP4 PUSH2 0x3D90 JUMP JUMPDEST SWAP3 POP POP PUSH1 0x1 DUP2 ADD SWAP1 POP PUSH2 0x37BC JUMP JUMPDEST POP DUP6 SWAP4 POP POP POP POP SWAP3 SWAP2 POP POP JUMP JUMPDEST PUSH1 0x0 DUP2 SLOAD PUSH2 0x3803 DUP2 PUSH2 0x3ED2 JUMP JUMPDEST PUSH2 0x380D DUP2 DUP7 PUSH2 0x3DAE JUMP JUMPDEST SWAP5 POP PUSH1 0x1 DUP3 AND PUSH1 0x0 DUP2 EQ PUSH2 0x3828 JUMPI PUSH1 0x1 DUP2 EQ PUSH2 0x3839 JUMPI PUSH2 0x386C JUMP JUMPDEST PUSH1 0xFF NOT DUP4 AND DUP7 MSTORE DUP2 DUP7 ADD SWAP4 POP PUSH2 0x386C JUMP JUMPDEST PUSH2 0x3842 DUP6 PUSH2 0x3D65 JUMP JUMPDEST PUSH1 0x0 JUMPDEST DUP4 DUP2 LT ISZERO PUSH2 0x3864 JUMPI DUP2 SLOAD DUP2 DUP10 ADD MSTORE PUSH1 0x1 DUP3 ADD SWAP2 POP PUSH1 0x20 DUP2 ADD SWAP1 POP PUSH2 0x3845 JUMP JUMPDEST DUP4 DUP9 ADD SWAP6 POP POP POP JUMPDEST POP POP POP SWAP3 SWAP2 POP POP JUMP JUMPDEST PUSH1 0x0 PUSH2 0x3880 DUP3 PUSH2 0x3D85 JUMP JUMPDEST PUSH2 0x388A DUP2 DUP6 PUSH2 0x3DB9 JUMP JUMPDEST SWAP4 POP PUSH2 0x389A DUP2 DUP6 PUSH1 0x20 DUP7 ADD PUSH2 0x3E9F JUMP JUMPDEST PUSH2 0x38A3 DUP2 PUSH2 0x407D JUMP JUMPDEST DUP5 ADD SWAP2 POP POP SWAP3 SWAP2 POP POP JUMP JUMPDEST PUSH2 0x38B7 DUP2 PUSH2 0x3E86 JUMP JUMPDEST DUP3 MSTORE POP POP JUMP JUMPDEST PUSH2 0x38C6 DUP2 PUSH2 0x3E86 JUMP JUMPDEST DUP3 MSTORE POP POP JUMP JUMPDEST PUSH1 0x0 PUSH2 0x38D8 DUP3 DUP5 PUSH2 0x37F6 JUMP JUMPDEST SWAP2 POP DUP2 SWAP1 POP SWAP3 SWAP2 POP POP JUMP JUMPDEST PUSH1 0x0 PUSH1 0x20 DUP3 ADD SWAP1 POP PUSH2 0x38F8 PUSH1 0x0 DUP4 ADD DUP5 PUSH2 0x3789 JUMP JUMPDEST SWAP3 SWAP2 POP POP JUMP JUMPDEST PUSH1 0x0 PUSH1 0x20 DUP3 ADD SWAP1 POP DUP2 DUP2 SUB PUSH1 0x0 DUP4 ADD MSTORE PUSH2 0x3918 DUP2 DUP5 PUSH2 0x3798 JUMP JUMPDEST SWAP1 POP SWAP3 SWAP2 POP POP JUMP JUMPDEST PUSH1 0x0 PUSH1 0x20 DUP3 ADD SWAP1 POP DUP2 DUP2 SUB PUSH1 0x0 DUP4 ADD MSTORE PUSH2 0x393A DUP2 DUP5 PUSH2 0x3875 JUMP JUMPDEST SWAP1 POP SWAP3 SWAP2 POP POP JUMP JUMPDEST PUSH1 0x0 PUSH1 0x40 DUP3 ADD SWAP1 POP DUP2 DUP2 SUB PUSH1 0x0 DUP4 ADD MSTORE PUSH2 0x395C DUP2 DUP6 PUSH2 0x3875 JUMP JUMPDEST SWAP1 POP DUP2 DUP2 SUB PUSH1 0x20 DUP4 ADD MSTORE PUSH2 0x3970 DUP2 DUP5 PUSH2 0x3875 JUMP JUMPDEST SWAP1 POP SWAP4 SWAP3 POP POP POP JUMP JUMPDEST PUSH1 0x0 PUSH1 0xA0 DUP3 ADD SWAP1 POP DUP2 DUP2 SUB PUSH1 0x0 DUP4 ADD MSTORE PUSH2 0x3993 DUP2 DUP9 PUSH2 0x3875 JUMP JUMPDEST SWAP1 POP PUSH2 0x39A2 PUSH1 0x20 DUP4 ADD DUP8 PUSH2 0x38BD JUMP JUMPDEST DUP2 DUP2 SUB PUSH1 0x40 DUP4 ADD MSTORE PUSH2 0x39B4 DUP2 DUP7 PUSH2 0x3875 JUMP JUMPDEST SWAP1 POP DUP2 DUP2 SUB PUSH1 0x60 DUP4 ADD MSTORE PUSH2 0x39C8 DUP2 DUP6 PUSH2 0x3875 JUMP JUMPDEST SWAP1 POP DUP2 DUP2 SUB PUSH1 0x80 DUP4 ADD MSTORE PUSH2 0x39DC DUP2 DUP5 PUSH2 0x3875 JUMP JUMPDEST SWAP1 POP SWAP7 SWAP6 POP POP POP POP POP POP JUMP JUMPDEST PUSH1 0x0 PUSH1 0x20 DUP3 ADD SWAP1 POP PUSH2 0x39FD PUSH1 0x0 DUP4 ADD DUP5 PUSH2 0x38BD JUMP JUMPDEST SWAP3 SWAP2 POP POP JUMP JUMPDEST PUSH1 0x0 PUSH1 0x80 DUP3 ADD SWAP1 POP PUSH2 0x3A18 PUSH1 0x0 DUP4 ADD DUP8 PUSH2 0x38BD JUMP JUMPDEST DUP2 DUP2 SUB PUSH1 0x20 DUP4 ADD MSTORE PUSH2 0x3A2A DUP2 DUP7 PUSH2 0x3875 JUMP JUMPDEST SWAP1 POP DUP2 DUP2 SUB PUSH1 0x40 DUP4 ADD MSTORE PUSH2 0x3A3E DUP2 DUP6 PUSH2 0x3875 JUMP JUMPDEST SWAP1 POP DUP2 DUP2 SUB PUSH1 0x60 DUP4 ADD MSTORE PUSH2 0x3A52 DUP2 DUP5 PUSH2 0x3875 JUMP JUMPDEST SWAP1 POP SWAP6 SWAP5 POP POP POP POP POP JUMP JUMPDEST PUSH1 0x0 PUSH2 0x180 DUP3 ADD SWAP1 POP PUSH2 0x3A73 PUSH1 0x0 DUP4 ADD DUP16 PUSH2 0x38BD JUMP JUMPDEST PUSH2 0x3A80 PUSH1 0x20 DUP4 ADD DUP15 PUSH2 0x38BD JUMP JUMPDEST DUP2 DUP2 SUB PUSH1 0x40 DUP4 ADD MSTORE PUSH2 0x3A92 DUP2 DUP14 PUSH2 0x3875 JUMP JUMPDEST SWAP1 POP DUP2 DUP2 SUB PUSH1 0x60 DUP4 ADD MSTORE PUSH2 0x3AA6 DUP2 DUP13 PUSH2 0x3875 JUMP JUMPDEST SWAP1 POP DUP2 DUP2 SUB PUSH1 0x80 DUP4 ADD MSTORE PUSH2 0x3ABA DUP2 DUP12 PUSH2 0x3875 JUMP JUMPDEST SWAP1 POP PUSH2 0x3AC9 PUSH1 0xA0 DUP4 ADD DUP11 PUSH2 0x38BD JUMP JUMPDEST PUSH2 0x3AD6 PUSH1 0xC0 DUP4 ADD DUP10 PUSH2 0x38BD JUMP JUMPDEST PUSH2 0x3AE3 PUSH1 0xE0 DUP4 ADD DUP9 PUSH2 0x38BD JUMP JUMPDEST DUP2 DUP2 SUB PUSH2 0x100 DUP4 ADD MSTORE PUSH2 0x3AF6 DUP2 DUP8 PUSH2 0x3875 JUMP JUMPDEST SWAP1 POP DUP2 DUP2 SUB PUSH2 0x120 DUP4 ADD MSTORE PUSH2 0x3B0B DUP2 DUP7 PUSH2 0x3875 JUMP JUMPDEST SWAP1 POP PUSH2 0x3B1B PUSH2 0x140 DUP4 ADD DUP6 PUSH2 0x38BD JUMP JUMPDEST PUSH2 0x3B29 PUSH2 0x160 DUP4 ADD DUP5 PUSH2 0x38BD JUMP JUMPDEST SWAP14 SWAP13 POP POP POP POP POP POP POP POP POP POP POP POP POP JUMP JUMPDEST PUSH1 0x0 PUSH1 0x80 DUP3 ADD SWAP1 POP PUSH2 0x3B4F PUSH1 0x0 DUP4 ADD DUP8 PUSH2 0x38BD JUMP JUMPDEST PUSH2 0x3B5C PUSH1 0x20 DUP4 ADD DUP7 PUSH2 0x38BD JUMP JUMPDEST PUSH2 0x3B69 PUSH1 0x40 DUP4 ADD DUP6 PUSH2 0x38BD JUMP JUMPDEST DUP2 DUP2 SUB PUSH1 0x60 DUP4 ADD MSTORE PUSH2 0x3B7B DUP2 DUP5 PUSH2 0x3875 JUMP JUMPDEST SWAP1 POP SWAP6 SWAP5 POP POP POP POP POP JUMP JUMPDEST PUSH1 0x0 PUSH2 0x120 DUP3 ADD SWAP1 POP PUSH2 0x3B9C PUSH1 0x0 DUP4 ADD DUP13 PUSH2 0x38BD JUMP JUMPDEST PUSH2 0x3BA9 PUSH1 0x20 DUP4 ADD DUP12 PUSH2 0x38BD JUMP JUMPDEST PUSH2 0x3BB6 PUSH1 0x40 DUP4 ADD DUP11 PUSH2 0x38BD JUMP JUMPDEST DUP2 DUP2 SUB PUSH1 0x60 DUP4 ADD MSTORE PUSH2 0x3BC8 DUP2 DUP10 PUSH2 0x3875 JUMP JUMPDEST SWAP1 POP DUP2 DUP2 SUB PUSH1 0x80 DUP4 ADD MSTORE PUSH2 0x3BDC DUP2 DUP9 PUSH2 0x3875 JUMP JUMPDEST SWAP1 POP DUP2 DUP2 SUB PUSH1 0xA0 DUP4 ADD MSTORE PUSH2 0x3BF0 DUP2 DUP8 PUSH2 0x3875 JUMP JUMPDEST SWAP1 POP DUP2 DUP2 SUB PUSH1 0xC0 DUP4 ADD MSTORE PUSH2 0x3C04 DUP2 DUP7 PUSH2 0x3875 JUMP JUMPDEST SWAP1 POP PUSH2 0x3C13 PUSH1 0xE0 DUP4 ADD DUP6 PUSH2 0x38BD JUMP JUMPDEST PUSH2 0x3C21 PUSH2 0x100 DUP4 ADD DUP5 PUSH2 0x38BD JUMP JUMPDEST SWAP11 SWAP10 POP POP POP POP POP POP POP POP POP POP JUMP JUMPDEST PUSH1 0x0 PUSH1 0xA0 DUP3 ADD SWAP1 POP PUSH2 0x3C44 PUSH1 0x0 DUP4 ADD DUP9 PUSH2 0x38BD JUMP JUMPDEST PUSH2 0x3C51 PUSH1 0x20 DUP4 ADD DUP8 PUSH2 0x38BD JUMP JUMPDEST PUSH2 0x3C5E PUSH1 0x40 DUP4 ADD DUP7 PUSH2 0x38BD JUMP JUMPDEST PUSH2 0x3C6B PUSH1 0x60 DUP4 ADD DUP6 PUSH2 0x38BD JUMP JUMPDEST DUP2 DUP2 SUB PUSH1 0x80 DUP4 ADD MSTORE PUSH2 0x3C7D DUP2 DUP5 PUSH2 0x3875 JUMP JUMPDEST SWAP1 POP SWAP7 SWAP6 POP POP POP POP POP POP JUMP JUMPDEST PUSH1 0x0 PUSH1 0xE0 DUP3 ADD SWAP1 POP PUSH2 0x3C9E PUSH1 0x0 DUP4 ADD DUP11 PUSH2 0x38BD JUMP JUMPDEST PUSH2 0x3CAB PUSH1 0x20 DUP4 ADD DUP10 PUSH2 0x38BD JUMP JUMPDEST PUSH2 0x3CB8 PUSH1 0x40 DUP4 ADD DUP9 PUSH2 0x38BD JUMP JUMPDEST PUSH2 0x3CC5 PUSH1 0x60 DUP4 ADD DUP8 PUSH2 0x38BD JUMP JUMPDEST PUSH2 0x3CD2 PUSH1 0x80 DUP4 ADD DUP7 PUSH2 0x38BD JUMP JUMPDEST PUSH2 0x3CDF PUSH1 0xA0 DUP4 ADD DUP6 PUSH2 0x38BD JUMP JUMPDEST DUP2 DUP2 SUB PUSH1 0xC0 DUP4 ADD MSTORE PUSH2 0x3CF1 DUP2 DUP5 PUSH2 0x3875 JUMP JUMPDEST SWAP1 POP SWAP9 SWAP8 POP POP POP POP POP POP POP POP JUMP JUMPDEST PUSH1 0x0 PUSH2 0x3D09 PUSH2 0x3D1A JUMP JUMPDEST SWAP1 POP PUSH2 0x3D15 DUP3 DUP3 PUSH2 0x3F04 JUMP JUMPDEST SWAP2 SWAP1 POP JUMP JUMPDEST PUSH1 0x0 PUSH1 0x40 MLOAD SWAP1 POP SWAP1 JUMP JUMPDEST PUSH1 0x0 PUSH8 0xFFFFFFFFFFFFFFFF DUP3 GT ISZERO PUSH2 0x3D3F JUMPI PUSH2 0x3D3E PUSH2 0x403A JUMP JUMPDEST JUMPDEST PUSH2 0x3D48 DUP3 PUSH2 0x407D JUMP JUMPDEST SWAP1 POP PUSH1 0x20 DUP2 ADD SWAP1 POP SWAP2 SWAP1 POP JUMP JUMPDEST PUSH1 0x0 DUP2 SWAP1 POP PUSH1 0x20 DUP3 ADD SWAP1 POP SWAP2 SWAP1 POP JUMP JUMPDEST PUSH1 0x0 DUP2 SWAP1 POP DUP2 PUSH1 0x0 MSTORE PUSH1 0x20 PUSH1 0x0 KECCAK256 SWAP1 POP SWAP2 SWAP1 POP JUMP JUMPDEST PUSH1 0x0 DUP2 MLOAD SWAP1 POP SWAP2 SWAP1 POP JUMP JUMPDEST PUSH1 0x0 DUP2 MLOAD SWAP1 POP SWAP2 SWAP1 POP JUMP JUMPDEST PUSH1 0x0 PUSH1 0x20 DUP3 ADD SWAP1 POP SWAP2 SWAP1 POP JUMP JUMPDEST PUSH1 0x0 DUP3 DUP3 MSTORE PUSH1 0x20 DUP3 ADD SWAP1 POP SWAP3 SWAP2 POP POP JUMP JUMPDEST PUSH1 0x0 DUP2 SWAP1 POP SWAP3 SWAP2 POP POP JUMP JUMPDEST PUSH1 0x0 DUP3 DUP3 MSTORE PUSH1 0x20 DUP3 ADD SWAP1 POP SWAP3 SWAP2 POP POP JUMP JUMPDEST PUSH1 0x0 PUSH2 0x3DD5 DUP3 PUSH2 0x3E86 JUMP JUMPDEST SWAP2 POP PUSH2 0x3DE0 DUP4 PUSH2 0x3E86 JUMP JUMPDEST SWAP3 POP DUP3 PUSH32 0xFFFFFFFFFFFFFFFFFFFFFFFFFFFFFFFFFFFFFFFFFFFFFFFFFFFFFFFFFFFFFFFF SUB DUP3 GT ISZERO PUSH2 0x3E15 JUMPI PUSH2 0x3E14 PUSH2 0x3F7E JUMP JUMPDEST JUMPDEST DUP3 DUP3 ADD SWAP1 POP SWAP3 SWAP2 POP POP JUMP JUMPDEST PUSH1 0x0 PUSH2 0x3E2B DUP3 PUSH2 0x3E86 JUMP JUMPDEST SWAP2 POP PUSH2 0x3E36 DUP4 PUSH2 0x3E86 JUMP JUMPDEST SWAP3 POP DUP3 DUP3 LT ISZERO PUSH2 0x3E49 JUMPI PUSH2 0x3E48 PUSH2 0x3F7E JUMP JUMPDEST JUMPDEST DUP3 DUP3 SUB SWAP1 POP SWAP3 SWAP2 POP POP JUMP JUMPDEST PUSH1 0x0 PUSH2 0x3E5F DUP3 PUSH2 0x3E66 JUMP JUMPDEST SWAP1 POP SWAP2 SWAP1 POP JUMP JUMPDEST PUSH1 0x0 PUSH20 0xFFFFFFFFFFFFFFFFFFFFFFFFFFFFFFFFFFFFFFFF DUP3 AND SWAP1 POP SWAP2 SWAP1 POP JUMP JUMPDEST PUSH1 0x0 DUP2 SWAP1 POP SWAP2 SWAP1 POP JUMP JUMPDEST DUP3 DUP2 DUP4 CALLDATACOPY PUSH1 0x0 DUP4 DUP4 ADD MSTORE POP POP POP JUMP JUMPDEST PUSH1 0x0 JUMPDEST DUP4 DUP2 LT ISZERO PUSH2 0x3EBD JUMPI DUP1 DUP3 ADD MLOAD DUP2 DUP5 ADD MSTORE PUSH1 0x20 DUP2 ADD SWAP1 POP PUSH2 0x3EA2 JUMP JUMPDEST DUP4 DUP2 GT ISZERO PUSH2 0x3ECC JUMPI PUSH1 0x0 DUP5 DUP5 ADD MSTORE JUMPDEST POP POP POP POP JUMP JUMPDEST PUSH1 0x0 PUSH1 0x2 DUP3 DIV SWAP1 POP PUSH1 0x1 DUP3 AND DUP1 PUSH2 0x3EEA JUMPI PUSH1 0x7F DUP3 AND SWAP2 POP JUMPDEST PUSH1 0x20 DUP3 LT DUP2 EQ ISZERO PUSH2 0x3EFE JUMPI PUSH2 0x3EFD PUSH2 0x3FDC JUMP JUMPDEST JUMPDEST POP SWAP2 SWAP1 POP JUMP JUMPDEST PUSH2 0x3F0D DUP3 PUSH2 0x407D JUMP JUMPDEST DUP2 ADD DUP2 DUP2 LT PUSH8 0xFFFFFFFFFFFFFFFF DUP3 GT OR ISZERO PUSH2 0x3F2C JUMPI PUSH2 0x3F2B PUSH2 0x403A JUMP JUMPDEST JUMPDEST DUP1 PUSH1 0x40 MSTORE POP POP POP JUMP JUMPDEST PUSH1 0x0 PUSH2 0x3F40 DUP3 PUSH2 0x3E86 JUMP JUMPDEST SWAP2 POP PUSH32 0xFFFFFFFFFFFFFFFFFFFFFFFFFFFFFFFFFFFFFFFFFFFFFFFFFFFFFFFFFFFFFFFF DUP3 EQ ISZERO PUSH2 0x3F73 JUMPI PUSH2 0x3F72 PUSH2 0x3F7E JUMP JUMPDEST JUMPDEST PUSH1 0x1 DUP3 ADD SWAP1 POP SWAP2 SWAP1 POP JUMP JUMPDEST PUSH32 0x4E487B7100000000000000000000000000000000000000000000000000000000 PUSH1 0x0 MSTORE PUSH1 0x11 PUSH1 0x4 MSTORE PUSH1 0x24 PUSH1 0x0 REVERT JUMPDEST PUSH32 0x4E487B7100000000000000000000000000000000000000000000000000000000 PUSH1 0x0 MSTORE PUSH1 0x12 PUSH1 0x4 MSTORE PUSH1 0x24 PUSH1 0x0 REVERT JUMPDEST PUSH32 0x4E487B7100000000000000000000000000000000000000000000000000000000 PUSH1 0x0 MSTORE PUSH1 0x22 PUSH1 0x4 MSTORE PUSH1 0x24 PUSH1 0x0 REVERT JUMPDEST PUSH32 0x4E487B7100000000000000000000000000000000000000000000000000000000 PUSH1 0x0 MSTORE PUSH1 0x32 PUSH1 0x4 MSTORE PUSH1 0x24 PUSH1 0x0 REVERT JUMPDEST PUSH32 0x4E487B7100000000000000000000000000000000000000000000000000000000 PUSH1 0x0 MSTORE PUSH1 0x41 PUSH1 0x4 MSTORE PUSH1 0x24 PUSH1 0x0 REVERT JUMPDEST PUSH1 0x0 DUP1 REVERT JUMPDEST PUSH1 0x0 DUP1 REVERT JUMPDEST PUSH1 0x0 DUP1 REVERT JUMPDEST PUSH1 0x0 DUP1 REVERT JUMPDEST PUSH1 0x0 PUSH1 0x1F NOT PUSH1 0x1F DUP4 ADD AND SWAP1 POP SWAP2 SWAP1 POP JUMP JUMPDEST PUSH2 0x4097 DUP2 PUSH2 0x3E86 JUMP JUMPDEST DUP2 EQ PUSH2 0x40A2 JUMPI PUSH1 0x0 DUP1 REVERT JUMPDEST POP JUMP INVALID PUSH9 0x747470733A2F2F692E PUSH17 0x6F7374696D672E63632F53737847773563 GAS 0x2F PUSH17 0x6572736F6E2E6A7067A264697066735822 SLT KECCAK256 DUP3 PUSH17 0xE6654A04248004A4A6BFB2D5727ADDFD30 GAS EXTCODESIZE PUSH27 0xA16A4F29388C83524B8764736F6C63430008060033000000000000 "},"gasEstimates":{"creation":{"codeDepositCost":"3328600","executionCost":"3707","totalCost":"3332307"},"external":{"CheckEmail(string)":"infinite","CreateAccount(string,string,string)":"infinite","CreateCompletedSurveys(uint256,uint256,string,uint256)":"infinite","CreateOngoingTrail(uint256,uint256,string)":"infinite","CreateOrSaveSections(uint256,string)":"infinite","CreateQuestionAnswer(uint256,uint256,uint256,uint256,uint256,string)":"infinite","CreateSurvey(uint256,uint256,string,string,string,string,uint256)":"infinite","CreateSurveyCategory(string,string)":"infinite","CreateTrial(uint256,string,string,string,uint256,uint256,uint256,string)":"infinite","GetOngoingTrial(uint256)":"infinite","Login(string,string)":"infinite","UpdateAudience(uint256,string)":"infinite","UpdateFhir(uint256,string,string,string)":"infinite","UpdatePrivatekey(uint256,string)":"infinite","UpdateReward(uint256,string,uint256,uint256)":"infinite","UpdateSurvey(uint256,string,string,string,uint256)":"infinite","UpdateTrial(uint256,string,string,string,uint256)":"infinite","UpdateUser(uint256,string,uint256)":"infinite","_AnsweredIds()":"2476","_CompletedSurveyIds()":"2496","_OngoingIds()":"2473","_SurveyCategoryIds()":"2542","_SurveyIds()":"2498","_TrialIds()":"2541","_UserIds()":"2474","_categoryMap(uint256)":"infinite","_completedsurveyMap(uint256)":"infinite","_fhirMap(uint256)":"infinite","_ongoingMap(uint256)":"infinite","_questionanswerdMap(uint256)":"infinite","_sectionsMap(uint256)":"infinite","_surveyMap(uint256)":"infinite","_trialAudienceMap(uint256)":"infinite","_trialMap(uint256)":"infinite","getAllCompletedSurveysIDByUser(uint256)":"infinite","getAllSurveysIDByTrial(uint256)":"infinite","getUserDetails(uint256)":"infinite","owner()":"2625","reset_all()":"infinite"},"internal":{"substring(string memory,uint256,uint256)":"infinite"}},"methodIdentifiers":{"CheckEmail(string)":"f8b7800f","CreateAccount(string,string,string)":"45948fde","CreateCompletedSurveys(uint256,uint256,string,uint256)":"7d423e10","CreateOngoingTrail(uint256,uint256,string)":"a5f3fc7d","CreateOrSaveSections(uint256,string)":"66cad734","CreateQuestionAnswer(uint256,uint256,uint256,uint256,uint256,string)":"2ffb08f7","CreateSurvey(uint256,uint256,string,string,string,string,uint256)":"3896f130","CreateSurveyCategory(string,string)":"4f8b36eb","CreateTrial(uint256,string,string,string,uint256,uint256,uint256,string)":"2c02dd60","GetOngoingTrial(uint256)":"902841d4","Login(string,string)":"ccef4218","UpdateAudience(uint256,string)":"ad23f8f9","UpdateFhir(uint256,string,string,string)":"a92e1c4c","UpdatePrivatekey(uint256,string)":"e1da993f","UpdateReward(uint256,string,uint256,uint256)":"3eebd0d0","UpdateSurvey(uint256,string,string,string,uint256)":"5f27aea1","UpdateTrial(uint256,string,string,string,uint256)":"55391705","UpdateUser(uint256,string,uint256)":"e57f973f","_AnsweredIds()":"01c66109","_CompletedSurveyIds()":"b6e604bd","_OngoingIds()":"eb6b2870","_SurveyCategoryIds()":"29b36423","_SurveyIds()":"1429f775","_TrialIds()":"ac7aef0e","_UserIds()":"ce08988c","_categoryMap(uint256)":"f0d8e873","_completedsurveyMap(uint256)":"90d6cf05","_fhirMap(uint256)":"ebe197ca","_ongoingMap(uint256)":"f6aaa804","_questionanswerdMap(uint256)":"c13b2836","_sectionsMap(uint256)":"ea7efaa6","_surveyMap(uint256)":"de7acfd7","_trialAudienceMap(uint256)":"2a8caf4a","_trialMap(uint256)":"bed208fe","getAllCompletedSurveysIDByUser(uint256)":"49b9b07b","getAllSurveysIDByTrial(uint256)":"682d562b","getUserDetails(uint256)":"1c1a9f7b","owner()":"8da5cb5b","reset_all()":"b16060a6"}},"storageLayout":{"storage":[{"astId":1189,"contract":"contracts/WaveData.sol:WaveData","label":"_UserIds","offset":0,"slot":"0","type":"t_uint256"},{"astId":1191,"contract":"contracts/WaveData.sol:WaveData","label":"_TrialIds","offset":0,"slot":"1","type":"t_uint256"},{"astId":1193,"contract":"contracts/WaveData.sol:WaveData","label":"_SurveyIds","offset":0,"slot":"2","type":"t_uint256"},{"astId":1195,"contract":"contracts/WaveData.sol:WaveData","label":"_SurveyCategoryIds","offset":0,"slot":"3","type":"t_uint256"},{"astId":1197,"contract":"contracts/WaveData.sol:WaveData","label":"_OngoingIds","offset":0,"slot":"4","type":"t_uint256"},{"astId":1199,"contract":"contracts/WaveData.sol:WaveData","label":"_AnsweredIds","offset":0,"slot":"5","type":"t_uint256"},{"astId":1201,"contract":"contracts/WaveData.sol:WaveData","label":"_CompletedSurveyIds","offset":0,"slot":"6","type":"t_uint256"},{"astId":1207,"contract":"contracts/WaveData.sol:WaveData","label":"_userMap","offset":0,"slot":"7","type":"t_mapping(t_uint256,t_struct(user_struct)1067_storage)"},{"astId":1213,"contract":"contracts/WaveData.sol:WaveData","label":"_trialMap","offset":0,"slot":"8","type":"t_mapping(t_uint256,t_struct(trial_struct)1111_storage)"},{"astId":1218,"contract":"contracts/WaveData.sol:WaveData","label":"_trialAudienceMap","offset":0,"slot":"9","type":"t_mapping(t_uint256,t_string_storage)"},{"astId":1224,"contract":"contracts/WaveData.sol:WaveData","label":"_surveyMap","offset":0,"slot":"10","type":"t_mapping(t_uint256,t_struct(survey_struct)1139_storage)"},{"astId":1230,"contract":"contracts/WaveData.sol:WaveData","label":"_categoryMap","offset":0,"slot":"11","type":"t_mapping(t_uint256,t_struct(survey_category_struct)1074_storage)"},{"astId":1235,"contract":"contracts/WaveData.sol:WaveData","label":"_sectionsMap","offset":0,"slot":"12","type":"t_mapping(t_uint256,t_string_storage)"},{"astId":1241,"contract":"contracts/WaveData.sol:WaveData","label":"_fhirMap","offset":0,"slot":"13","type":"t_mapping(t_uint256,t_struct(fhir_struct)1152_storage)"},{"astId":1247,"contract":"contracts/WaveData.sol:WaveData","label":"_ongoingMap","offset":0,"slot":"14","type":"t_mapping(t_uint256,t_struct(ongoing_struct)1161_storage)"},{"astId":1253,"contract":"contracts/WaveData.sol:WaveData","label":"_questionanswerdMap","offset":0,"slot":"15","type":"t_mapping(t_uint256,t_struct(survey_question_answer_struct)1176_storage)"},{"astId":1259,"contract":"contracts/WaveData.sol:WaveData","label":"_completedsurveyMap","offset":0,"slot":"16","type":"t_mapping(t_uint256,t_struct(completed_survey_struct)1187_storage)"},{"astId":1261,"contract":"contracts/WaveData.sol:WaveData","label":"owner","offset":0,"slot":"17","type":"t_address"}],"types":{"t_address":{"encoding":"inplace","label":"address","numberOfBytes":"20"},"t_mapping(t_uint256,t_string_storage)":{"encoding":"mapping","key":"t_uint256","label":"mapping(uint256 => string)","numberOfBytes":"32","value":"t_string_storage"},"t_mapping(t_uint256,t_struct(completed_survey_struct)1187_storage)":{"encoding":"mapping","key":"t_uint256","label":"mapping(uint256 => struct WaveData.completed_survey_struct)","numberOfBytes":"32","value":"t_struct(completed_survey_struct)1187_storage"},"t_mapping(t_uint256,t_struct(fhir_struct)1152_storage)":{"encoding":"mapping","key":"t_uint256","label":"mapping(uint256 => struct WaveData.fhir_struct)","numberOfBytes":"32","value":"t_struct(fhir_struct)1152_storage"},"t_mapping(t_uint256,t_struct(ongoing_struct)1161_storage)":{"encoding":"mapping","key":"t_uint256","label":"mapping(uint256 => struct WaveData.ongoing_struct)","numberOfBytes":"32","value":"t_struct(ongoing_struct)1161_storage"},"t_mapping(t_uint256,t_struct(survey_category_struct)1074_storage)":{"encoding":"mapping","key":"t_uint256","label":"mapping(uint256 => struct WaveData.survey_category_struct)","numberOfBytes":"32","value":"t_struct(survey_category_struct)1074_storage"},"t_mapping(t_uint256,t_struct(survey_question_answer_struct)1176_storage)":{"encoding":"mapping","key":"t_uint256","label":"mapping(uint256 => struct WaveData.survey_question_answer_struct)","numberOfBytes":"32","value":"t_struct(survey_question_answer_struct)1176_storage"},"t_mapping(t_uint256,t_struct(survey_struct)1139_storage)":{"encoding":"mapping","key":"t_uint256","label":"mapping(uint256 => struct WaveData.survey_struct)","numberOfBytes":"32","value":"t_struct(survey_struct)1139_storage"},"t_mapping(t_uint256,t_struct(trial_struct)1111_storage)":{"encoding":"mapping","key":"t_uint256","label":"mapping(uint256 => struct WaveData.trial_struct)","numberOfBytes":"32","value":"t_struct(trial_struct)1111_storage"},"t_mapping(t_uint256,t_struct(user_struct)1067_storage)":{"encoding":"mapping","key":"t_uint256","label":"mapping(uint256 => struct WaveData.user_struct)","numberOfBytes":"32","value":"t_struct(user_struct)1067_storage"},"t_string_storage":{"encoding":"bytes","label":"string","numberOfBytes":"32"},"t_struct(completed_survey_struct)1187_storage":{"encoding":"inplace","label":"struct WaveData.completed_survey_struct","members":[{"astId":1178,"contract":"contracts/WaveData.sol:WaveData","label":"completed_survey_id","offset":0,"slot":"0","type":"t_uint256"},{"astId":1180,"contract":"contracts/WaveData.sol:WaveData","label":"trial_id","offset":0,"slot":"1","type":"t_uint256"},{"astId":1182,"contract":"contracts/WaveData.sol:WaveData","label":"user_id","offset":0,"slot":"2","type":"t_uint256"},{"astId":1184,"contract":"contracts/WaveData.sol:WaveData","label":"survey_id","offset":0,"slot":"3","type":"t_uint256"},{"astId":1186,"contract":"contracts/WaveData.sol:WaveData","label":"date","offset":0,"slot":"4","type":"t_string_storage"}],"numberOfBytes":"160"},"t_struct(fhir_struct)1152_storage":{"encoding":"inplace","label":"struct WaveData.fhir_struct","members":[{"astId":1142,"contract":"contracts/WaveData.sol:WaveData","label":"user_id","offset":0,"slot":"0","type":"t_uint256"},{"astId":1145,"contract":"contracts/WaveData.sol:WaveData","label":"given_name","offset":0,"slot":"1","type":"t_string_storage"},{"astId":1148,"contract":"contracts/WaveData.sol:WaveData","label":"identifier","offset":0,"slot":"2","type":"t_string_storage"},{"astId":1151,"contract":"contracts/WaveData.sol:WaveData","label":"patient_id","offset":0,"slot":"3","type":"t_string_storage"}],"numberOfBytes":"128"},"t_struct(ongoing_struct)1161_storage":{"encoding":"inplace","label":"struct WaveData.ongoing_struct","members":[{"astId":1154,"contract":"contracts/WaveData.sol:WaveData","label":"ongoing_id","offset":0,"slot":"0","type":"t_uint256"},{"astId":1156,"contract":"contracts/WaveData.sol:WaveData","label":"trial_id","offset":0,"slot":"1","type":"t_uint256"},{"astId":1158,"contract":"contracts/WaveData.sol:WaveData","label":"user_id","offset":0,"slot":"2","type":"t_uint256"},{"astId":1160,"contract":"contracts/WaveData.sol:WaveData","label":"date","offset":0,"slot":"3","type":"t_string_storage"}],"numberOfBytes":"128"},"t_struct(survey_category_struct)1074_storage":{"encoding":"inplace","label":"struct WaveData.survey_category_struct","members":[{"astId":1070,"contract":"contracts/WaveData.sol:WaveData","label":"name","offset":0,"slot":"0","type":"t_string_storage"},{"astId":1073,"contract":"contracts/WaveData.sol:WaveData","label":"image","offset":0,"slot":"1","type":"t_string_storage"}],"numberOfBytes":"64"},"t_struct(survey_question_answer_struct)1176_storage":{"encoding":"inplace","label":"struct WaveData.survey_question_answer_struct","members":[{"astId":1163,"contract":"contracts/WaveData.sol:WaveData","label":"answer_id","offset":0,"slot":"0","type":"t_uint256"},{"astId":1165,"contract":"contracts/WaveData.sol:WaveData","label":"trial_id","offset":0,"slot":"1","type":"t_uint256"},{"astId":1167,"contract":"contracts/WaveData.sol:WaveData","label":"user_id","offset":0,"slot":"2","type":"t_uint256"},{"astId":1169,"contract":"contracts/WaveData.sol:WaveData","label":"survey_id","offset":0,"slot":"3","type":"t_uint256"},{"astId":1171,"contract":"contracts/WaveData.sol:WaveData","label":"section_id","offset":0,"slot":"4","type":"t_uint256"},{"astId":1173,"contract":"contracts/WaveData.sol:WaveData","label":"question_id","offset":0,"slot":"5","type":"t_uint256"},{"astId":1175,"contract":"contracts/WaveData.sol:WaveData","label":"answer","offset":0,"slot":"6","type":"t_string_storage"}],"numberOfBytes":"224"},"t_struct(survey_struct)1139_storage":{"encoding":"inplace","label":"struct WaveData.survey_struct","members":[{"astId":1114,"contract":"contracts/WaveData.sol:WaveData","label":"survey_id","offset":0,"slot":"0","type":"t_uint256"},{"astId":1117,"contract":"contracts/WaveData.sol:WaveData","label":"trial_id","offset":0,"slot":"1","type":"t_uint256"},{"astId":1120,"contract":"contracts/WaveData.sol:WaveData","label":"user_id","offset":0,"slot":"2","type":"t_uint256"},{"astId":1123,"contract":"contracts/WaveData.sol:WaveData","label":"name","offset":0,"slot":"3","type":"t_string_storage"},{"astId":1126,"contract":"contracts/WaveData.sol:WaveData","label":"description","offset":0,"slot":"4","type":"t_string_storage"},{"astId":1129,"contract":"contracts/WaveData.sol:WaveData","label":"date","offset":0,"slot":"5","type":"t_string_storage"},{"astId":1132,"contract":"contracts/WaveData.sol:WaveData","label":"image","offset":0,"slot":"6","type":"t_string_storage"},{"astId":1135,"contract":"contracts/WaveData.sol:WaveData","label":"reward","offset":0,"slot":"7","type":"t_uint256"},{"astId":1138,"contract":"contracts/WaveData.sol:WaveData","label":"submission","offset":0,"slot":"8","type":"t_uint256"}],"numberOfBytes":"288"},"t_struct(trial_struct)1111_storage":{"encoding":"inplace","label":"struct WaveData.trial_struct","members":[{"astId":1077,"contract":"contracts/WaveData.sol:WaveData","label":"trial_id","offset":0,"slot":"0","type":"t_uint256"},{"astId":1080,"contract":"contracts/WaveData.sol:WaveData","label":"user_id","offset":0,"slot":"1","type":"t_uint256"},{"astId":1083,"contract":"contracts/WaveData.sol:WaveData","label":"image","offset":0,"slot":"2","type":"t_string_storage"},{"astId":1086,"contract":"contracts/WaveData.sol:WaveData","label":"title","offset":0,"slot":"3","type":"t_string_storage"},{"astId":1089,"contract":"contracts/WaveData.sol:WaveData","label":"description","offset":0,"slot":"4","type":"t_string_storage"},{"astId":1092,"contract":"contracts/WaveData.sol:WaveData","label":"contributors","offset":0,"slot":"5","type":"t_uint256"},{"astId":1095,"contract":"contracts/WaveData.sol:WaveData","label":"audience","offset":0,"slot":"6","type":"t_uint256"},{"astId":1098,"contract":"contracts/WaveData.sol:WaveData","label":"budget","offset":0,"slot":"7","type":"t_uint256"},{"astId":1101,"contract":"contracts/WaveData.sol:WaveData","label":"date","offset":0,"slot":"8","type":"t_string_storage"},{"astId":1104,"contract":"contracts/WaveData.sol:WaveData","label":"reward_type","offset":0,"slot":"9","type":"t_string_storage"},{"astId":1107,"contract":"contracts/WaveData.sol:WaveData","label":"reward_price","offset":0,"slot":"10","type":"t_uint256"},{"astId":1110,"contract":"contracts/WaveData.sol:WaveData","label":"total_spending_limit","offset":0,"slot":"11","type":"t_uint256"}],"numberOfBytes":"384"},"t_struct(user_struct)1067_storage":{"encoding":"inplace","label":"struct WaveData.user_struct","members":[{"astId":1045,"contract":"contracts/WaveData.sol:WaveData","label":"user_id","offset":0,"slot":"0","type":"t_uint256"},{"astId":1048,"contract":"contracts/WaveData.sol:WaveData","label":"name","offset":0,"slot":"1","type":"t_string_storage"},{"astId":1051,"contract":"contracts/WaveData.sol:WaveData","label":"email","offset":0,"slot":"2","type":"t_string_storage"},{"astId":1054,"contract":"contracts/WaveData.sol:WaveData","label":"password","offset":0,"slot":"3","type":"t_string_storage"},{"astId":1057,"contract":"contracts/WaveData.sol:WaveData","label":"walletaddress","offset":0,"slot":"4","type":"t_address"},{"astId":1060,"contract":"contracts/WaveData.sol:WaveData","label":"privatekey","offset":0,"slot":"5","type":"t_string_storage"},{"astId":1063,"contract":"contracts/WaveData.sol:WaveData","label":"image","offset":0,"slot":"6","type":"t_string_storage"},{"astId":1066,"contract":"contracts/WaveData.sol:WaveData","label":"credits","offset":0,"slot":"7","type":"t_uint256"}],"numberOfBytes":"256"},"t_uint256":{"encoding":"inplace","label":"uint256","numberOfBytes":"32"}}},"userdoc":{"kind":"user","methods":{"_categoryMap(uint256)":{"notice":"The map of all the Survey Category ."},"_completedsurveyMap(uint256)":{"notice":"The map of all the Completed Surveys."},"_fhirMap(uint256)":{"notice":"The map of all the FHIR information."},"_ongoingMap(uint256)":{"notice":"The map of all the OnGoing Trials."},"_questionanswerdMap(uint256)":{"notice":"The map of all the Question Answerd in a Survey."},"_sectionsMap(uint256)":{"notice":"The map of all the Survey Sections  ."},"_surveyMap(uint256)":{"notice":"The map of all the Surveys information."},"_trialAudienceMap(uint256)":{"notice":"The map of all the Rewards information."},"_trialMap(uint256)":{"notice":"The map of all the Trials information."}},"version":1}}}}